:100000000C9476000C94560C0C9493000C94930072
:100010000C9493000C9493000C9493000C94930014
:100020000C9493000C9493000C9493000C94930004
:100030000C9493000C9493000C9493000C949300F4
:100040000C9493000C9493000C9493000C949300E4
:100050000C9493000C9493000C9493000C949300D4
:100060000C9493000C9493000C9493000C949300C4
:100070000C9493000C9493000C94930009021200CA
:10008000010100806409040000000000000012016A
:100090001001FF000008C016DC050002010200018B
:1000A0001E0349004E004C00200052006500740001
:1000B00072006F002D00500072006F0067002A036D
:1000C00049006E00660069006E00690074006500FA
:1000D0004E00650073004C006900760065007300F7
:1000E0002E0063006F006D000403090411241FBE7D
:1000F000CFEFD4E0DEBFCDBF11E0A0E0B1E0E8E299
:10010000FBE102C005900D92A630B107D9F723E0BC
:10011000A6E0B1E001C01D92A83AB207E1F70E9443
:100120006A0D0C94920D0C9400000F931F93CF93C3
:10013000DF93EC01FB01D9010091470110914801C7
:10014000888187FF09C08E818C93442399F00481B4
:10015000158180E883831DC08FEF8C938E818093FF
:100160003201442309F44BC070936403609363032A
:1001700080E9F0CFE0912001F09121018381883D59
:10018000A1F50481158180E88383E0912001F0913D
:1001900021011782E0912001F091210183818039B2
:1001A000F1F48A81813711F08034C9F4E09163035E
:1001B000F09164030480F581E02D8C818083E091CF
:1001C0006303F09164030480F581E02D8D818183C8
:1001D000E0916303F091640387818E5F8783C80198
:1001E000DF91CF911F910F910895803D11F41C92E2
:1001F000CCCF8FEF8C9380E10E943F07C6CFE09178
:100200002001F09121018381811106C0F0936403E4
:10021000E093630380E9B8CF883969F7E8CFE3E575
:10022000F1E08FEF819391E0E336F907D9F78093FE
:10023000460180932501809345018093240180939A
:10024000360180931301809335018093120181E080
:100250000C943F07CF93DF93FC0150E0CA01820F5B
:10026000911D4197E4F52223E1F183818F3FD9F578
:1002700082818F3FD1F5DA01AD5ABE4FED0180E0AA
:1002800099919F3FA1F58F5F2813FACF6283138264
:10029000982F9295990F907E915096831782108691
:1002A0001182108211861286138614861586168690
:1002B000178695E0440F551F9A95E1F720910001AC
:1002C00030910101420F531F5583448390E06D9399
:1002D0009F5F8913FCCF80E0DF91CF9108958EEB73
:1002E000FBCF82ECF9CF8FEBF7CF80ECF5CF81EC31
:1002F000F3CFCF93DF93DC01EB019A0112969C912F
:10030000129780ED890F803318F513968C9113970F
:10031000813041F0E8F08230A9F08330B1F085EB14
:10032000888346C0E2E2F1E0913509F476C048F5F1
:10033000913309F449C078F49923B9F19033E1F18C
:1003400084EBEECFE3E3F1E0EFCFE0E1F1E0ECCFDF
:10035000E3E4F1E0E9CF933309F446C0E8F19035E6
:1003600079F7188286E0898386818A8383818B83EB
:1003700087818C8380858D8382818E8387858F831F
:1003800017C0903808F05FC0903708F055C090361D
:1003900079F19136C9F1923599F6188282E0898314
:1003A00080818A8381818B8303C00E940F01188220
:1003B000CE01DF91CF91089514968C9114971596E4
:1003C0009C9191878287F3CF14968C911497159600
:1003D0009C9193878487EBCF14968C9114971596F4
:1003E0009C9195878687E3CF14968C918787DFCF82
:1003F000188281E089831496ED91FC911597ED5A4E
:10040000FE4F80818A83D4CF188281E08983E09176
:100410002001F09121018381F5CF188286E0898344
:1004200081858A8382858B8383858C8384858D8374
:1004300085858E838685A3CF40E0BF01CD01DF9106
:10044000CF910C949500892F8770813049F0F8F096
:10045000823001F1833009F062CFE0E1F1E002C0C7
:10046000E2E2F1E0903808F4A3CF9838B0F0905968
:10047000983008F09DCF188213968C91139780873F
:1004800014968D919C9115979183808391CFE3E48D
:10049000F1E0E8CFE3E3F1E0E5CF14964C91149757
:1004A00015966C91159713962C91CF010E942A01F5
:1004B00037CF90914601809125018F3F79F481E0FB
:1004C0009F3F09F480E0909136019F3F09F083E05F
:1004D000909113019F3F09F084E0089582E0F3CFEB
:1004E000623059F421E08334920749F121E08232ED
:1004F000920789F483E491E00EC0633069F421E04F
:1005000083349207E1F021E082329207D9F021E0B2
:100510008333920779F308956430E9F721E0833457
:10052000920769F021E08232920761F021E0833383
:10053000920759F021E08031920769F7DBCF82E220
:1005400091E0089583E391E0089580E191E00895BA
:100550001F93CF93DF930E944507823D09F071C03E
:100560000E9459028093060183E491E09093210157
:10057000809320010E944507823DA1F4D09106019D
:100580008091200190912101C1E0CD1708F45FC056
:10059000909321018093200120E8FC01238380EDCA
:1005A0000E943F070E944507823F41F480EF0E946E
:1005B0003F07E0912001F091210113820E9445073D
:1005C000C82F803DE1F48091200190912101FC0130
:1005D00023812038A1F4609106010E94700290935B
:1005E000210180932001FC011782C3830E944003F4
:1005F000E0912001F0912101882371F183830E9411
:100600004507182F803FC9F4C0912001D0912101E6
:100610008B81883991F460910601CE010E947002AD
:100620009093210180932001FC0113821B83CE0152
:100630000E94D2048823D1F08B83DF91CF911F9148
:1006400008950E944507823F09F094CF89CF6D2F0E
:100650000E947002CF5F99CF88ED838320858081CF
:100660009181820F911D91838083C9CF84EF8B8309
:10067000288588819981820F911D99838883DDCF98
:100680000F93CF93DF93EC01688179818985823163
:1006900011F130F4803169F08131A1F083EC05C0B3
:1006A0008331D9F08431D1F780E0DF91CF910F9180
:1006B000089560680FEF2E814A818C819D810E9490
:1006C000AE0607C00FEF2E814A818C819D810E946A
:1006D000E5068F83E9CF6066EDCF8FEF84B9CB015C
:1006E000880F892F881F990B919585B95F9A5F981C
:1006F00014B860680FEF2E814A818C819D810E9421
:10070000720AE7CF7F928F929F92AF92BF92CF9261
:10071000DF92EF92FF920F931F93CF93DF936A01C3
:100720005901DA011796CC91D0E0E62EF12CFE2C7F
:10073000EE24D60116968C91169790E08C179D07A3
:1007400088F41796CC9380E0DF91CF911F910F91A1
:10075000FF90EF90DF90CF90BF90AF909F908F90E1
:100760007F9008956AEA85E595E5F501099565E5C7
:100770008AEA9AE2F501099560EA85E595E5F501D1
:100780000995CE0199274C018E289F28D6011496F1
:10079000ED91FC911597E80FF91F6081C401F501F7
:1007A00009950E94370BC401F8010995782EC40100
:1007B000F80109957812F5CF2196BBCF7F928F92E1
:1007C0009F92AF92BF92CF92DF92EF92FF920F93E0
:1007D0001F93CF93DF936A015901DA011796CC91E9
:1007E000D0E0E62EF12CFE2CEE24D60116968C914C
:1007F000169790E08C179D0788F41796CC9380E0AD
:10080000DF91CF911F910F91FF90EF90DF90CF90EC
:10081000BF90AF909F908F907F9008956AEA85E592
:1008200095E1F501099565E58AEA9AE0F5010995F2
:1008300060EA85E595E1F5010995CE0199274C011E
:100840008E289F28D6011496ED91FC911597E80FFC
:10085000F91F6081C401F50109950E94370BC4019D
:10086000F8010995782EC401F80109957812F5CFA1
:100870002196BBCF4F925F927F928F929F92AF92C1
:10088000BF92CF92DF92EF92FF920F931F93CF937D
:10089000DF93A62E6A01E901DA011796EC90F12C9C
:1008A000A89558986AEA8AEA9AE0F901099565E5F7
:1008B00085E595E0FE01099560E28AEA9AE0FE018D
:1008C0000995B12CBA2CAA24D60116968C911697AC
:1008D00090E08E159F0518F51796EC9260E980E080
:1008E00090E0FE01099560E080E090E0FE0109954E
:1008F00060EF80E090E0FE010995589A80E0DF917A
:10090000CF911F910F91FF90EF90DF90CF90BF900C
:10091000AF909F908F907F905F904F90089580EA66
:100920000E94650A2701552442018A289B28D60186
:100930001496ED91FC911597E40DF51D6081C401AD
:10094000FE010995589AA8950E94370BC401F80139
:100950000995782E5898D6011496ED91FC9115972B
:10096000E40DF51D8081781639F0589AC401F8011C
:1009700009955898781204C0FFEFEF1AFF0AA4CF28
:100980000000000000000000000000000000000067
:100990000000000000000000589AC401F801099509
:1009A000782EE4CF0F931F93AC01FC01608171811D
:1009B0009185923159F030F4903161F0913199F094
:1009C00083EC05C09331B9F09431D1F780E01F91E9
:1009D0000F910895606809EE15E02AED35E080E09A
:1009E0000E948203F3CF01E116E025E236E080E0C9
:1009F0000E94DE03EBCF8FEF84B9CB01880F892FE4
:100A0000881F990B919585B95F9A5F9814B86068B3
:100A100002E21AE023E33AE080E00E943A04D6CFF3
:100A200014B88FEF85B93F9A479881B911B882B948
:100A300014B885B914B885B93898409A3998419A4C
:100A40003A98429A3C98449A3D98459A3E98469ADC
:100A500053985B9A55985D9A3B98439A3F98479A6A
:100A600057985F9A509858985198599A08950E94AB
:100A70001005399A419A389A40983A9A429A3C9A83
:100A8000449A3D9A459A14B88FEF85B914B885B940
:100A900014B885B93F9A479881B912B884B915B886
:100AA000479A479814B808950E941005399A419AB8
:100AB0003C9A449A3D9A459A509A589A14B88FEFA6
:100AC00085B914B885B914B885B93F9A479881B9E2
:100AD00012B884B915B8479A479814B814B885B9AC
:100AE000579A5F9884B915B85F9A5F9814B80895BB
:100AF0005898509A000089B15098589880FD22C0AB
:100B00005098589A59B149B1000039B1000000001D
:100B100029B100000000000099B1000000000000B1
:100B2000000089B15098589850FD0EC040FD0EC08D
:100B300030FD0EC020FD0EC090FD0EC080FD0EC029
:100B400080EE089580EF089580E0089581E0089593
:100B500083E0089586E008958AE008958FE008957F
:100B60000F931F93CF93DF931F92CDB7DEB7890109
:100B7000813089F030F0823091F0803899F086E948
:100B800004C089830E94100589810F90DF91CF9165
:100B90001F910F9108950E94370580E0F6CF0E94C3
:100BA0005405FBCF81E0F90180830E947805F801AC
:100BB0008183F3CF82B98FEF84B995B9479A47986B
:100BC00014B884B965B9509A58985098589A14B87E
:100BD000089582B92FEF24B995B9479A479814B868
:100BE000409A97FD4198000000000000000083B18A
:100BF0004098419A08955098589882B92FEF24B997
:100C000095B9479A479814B8429824B965B9409A5B
:100C100097FD4198000000004098419A429A14B80C
:100C20000895811520E2920708F4906882B98FEF49
:100C300084B995B9479A479814B8449800000000C1
:100C40000000000083B1449A0895811520E29207C4
:100C500008F4906882B98FEF84B995B9479A47989C
:100C600014B884B965B9000045980000459A14B8D5
:100C700008958FEF84B994E095B9479A479814B8CE
:100C800029B1207230E084B988E085B9479A479845
:100C900014B889B1807290E041E02115310509F066
:100CA00040E061E0009709F060E0442311F0611139
:100CB00016C051E0232B09F450E021E0892B09F400
:100CC00020E0552311F021110CC0662311F05111C1
:100CD0000AC0442311F0211108C08FEF089580E16C
:100CE000089581E1089582E1089583E108950F93C5
:100CF0001F93CF93C82FCA018901C23001F130F48C
:100D0000CC2391F0C130B9F0C0EA10C0C238D1F0A4
:100D1000C338F1F0C138C1F721E0F80120830E9407
:100D2000E905F801818309C00E94DA058C2FCF9173
:100D30001F910F9108950E942506C0E0F7CF0E94F1
:100D4000FB05FBCF21E0F80120830E941106E9CFCB
:100D500081E0F90180830E943906E3CFEF92FF9290
:100D60000F93CF93DF9300D01F92CDB7DEB77C01F6
:100D70008FEF84B965B9479A479814B8409A67FDD0
:100D8000419842B980E0011117C00000000093B102
:100D9000F701E80FF11D90834F5F42B98F5F28176D
:100DA00090F74098419A0F900F900F90DF91CF915C
:100DB0000F91FF90EF9008952B834A8389830E94BF
:100DC000370B89814A812B81E2CFEF92FF920F93FB
:100DD000CF93DF9300D01F92CDB7DEB77C01603296
:100DE00008F460688FEF84B965B9479A479814B8DA
:100DF000449842B980E0011116C00000000093B190
:100E0000F701E80FF11D90834F5F42B98F5F2817FC
:100E100090F7449A0F900F900F90DF91CF910F9120
:100E2000FF90EF9008952B834A8389830E94370BAC
:100E300089814A812B81E3CFCF93DF93FB01DC01D2
:100E400012962C91222329F0203479F082ED8083B0
:100E500008C01082A0910201B0910301EC018C81C5
:100E60008C93CF01DF91CF910895108281E081832F
:100E7000A0910201B09103018C918283F2CFE091A5
:100E80000201F091030180830895E0910201F09145
:100E90000301808108950F931F93D901082F10E05B
:100EA0000831110508F0C2C2F801E75AF84F0C9456
:100EB0008C0D93077107CE0729087508C1080D0925
:100EC000B809BD09C209C509C909CC09D409DC0999
:100ED000E009E309E709F009F709FB09030A0A0A2F
:100EE0000E0A4631510508F0A3C2FA01E658F84F40
:100EF0000C948C0D900796079A079E07A207A607E9
:100F0000AA07AE07B207B607BA07BE07C207C607E9
:100F1000180A180A180A180A180A180A180ACA0712
:100F20003898409A80E01F910F9108953998419A1E
:100F300080E0F9CF3A98429A80E0F5CF3B98439A07
:100F400080E0F1CF3C98449A80E0EDCF3D98459AFF
:100F500080E0E9CF3E98469A80E0E5CF3F98479AF7
:100F600080E0E1CF5098589A80E0DDCF5198599AAF
:100F700080E0D9CF53985B9A80E0D5CF55985D9AA1
:100F800080E0D1CF56985E9A80E0CDCF57985F9A97
:100F900080E0C9CF5098589A80E0C5CF46315105BE
:100FA00008F048C2FA01E952F84F0C948C0DED0795
:100FB000F107F507F907FD070108050809080D08FD
:100FC0001108150819081D0821081A0A1A0A1A0A10
:100FD0001A0A1A0A1A0A1A0A25083898409880E04C
:100FE000A2CF3998419880E09ECF3A98429880E00D
:100FF0009ACF3B98439880E096CF3C98449880E005
:1010000092CF3D98459880E08ECF3E98469880E0FC
:101010008ACF3F98479880E086CF5098589880E0D4
:1010200082CF5198599880E07ECF53985B9880E0AA
:101030007ACF55985D9880E076CF56985E9880E09C
:1010400072CF57985F9880E06ECF5098589880E0A4
:101050006ACF4631510508F0EFC1FA01EE5CF74F57
:101060000C948C0D48084B084E085108540857083A
:101070005A085D0860086308660869086C086F080C
:101080001C0A1C0A1C0A1C0A1C0A1C0A1C0A7208DC
:10109000389A80E048CF399A80E045CF3A9A80E08C
:1010A00042CF3B9A80E03FCF3C9A80E03CCF3D9AD4
:1010B00080E039CF3E9A80E036CF3F9A80E033CF50
:1010C000509A80E030CF519A80E02DCF539A80E043
:1010D0002ACF559A80E027CF569A80E024CF579A9E
:1010E00080E021CF509A80E01ECF4631510508F0B4
:1010F000A5C1FA01E258F74F0C948C0D940897089B
:101100009A089D08A008A308A608A908AC08AF087B
:10111000B208B508B808BB081E0A1E0A1E0A1E0A35
:101120001E0A1E0A1E0ABE08409880E0FCCE4198A6
:1011300080E0F9CE429880E0F6CE439880E0F3CE8E
:10114000449880E0F0CE459880E0EDCE469880E06F
:10115000EACE479880E0E7CE589880E0E4CE5998F0
:1011600080E0E1CE5B9880E0DECE5D9880E0DBCE73
:101170005E9880E0D8CE5F9880E0D5CE589880E029
:10118000D2CE4631510508F05BC1FA01E653F74F64
:101190000C948C0DE008E308E608E908EC08EF0879
:1011A000F208F508F808FB08FE0801090409070918
:1011B000200A200A200A200A200A200A200A0A09F6
:1011C000409A80E0B0CE419A80E0ADCE429A80E075
:1011D000AACE439A80E0A7CE449A80E0A4CE459A56
:1011E00080E0A1CE469A80E09ECE479A80E09BCEDA
:1011F000589A80E098CE599A80E095CE5B9A80E02C
:1012000092CE5D9A80E08FCE5E9A80E08CCE5F9A1F
:1012100080E089CE589A80E086CE82E08C93463179
:10122000510508F0A2C0FA01E85EF64F0C948C0D4F
:101230002E0937094009490952095B0964096D09FA
:1012400076097F09880991099A09A309B509B509A1
:10125000B509B509B509B509B509AC0986B18170FB
:1012600011968C93119712961C9280E05CCE86B1F9
:10127000827090E012969C938E93119780E053CEEB
:1012800086B1847090E012969C938E93119780E0C3
:101290004ACE86B1887090E012969C938E931197F7
:1012A00080E041CE86B1807190E012969C938E933F
:1012B000119780E038CE86B1807290E012969C93B0
:1012C0008E93119780E02FCE86B1807490E01296B5
:1012D0009C938E93119780E026CE86B1807890E023
:1012E00012969C938E93119780E01DCE89B18170E8
:1012F00011968C93119712961C9280E014CE89B1AE
:10130000827090E012969C938E93119780E00BCEA2
:1013100089B1887090E012969C938E93119780E02B
:1013200002CE89B1807290E012969C938E931197B1
:1013300080E0F9CD89B1807490E012969C938E93F1
:10134000119780E0F0CD89B1807890E012969C935F
:101350008E93119780E0E7CD89B1817011968C93BF
:10136000119712961C9280E0DECD1C928DE8DBCDA9
:1013700014B88FEF85B980E0D6CD14B88FEF85B95A
:1013800080E0D1CD14B880E0CECD8FEF84B980E07D
:10139000CACD45B980E0C7CD83B111968C93119722
:1013A00081E08C9380E0BFCD14B88FEF85B93F9A70
:1013B000479881B980E0B7CD8FEF82B980E0B3CD97
:1013C00011B880E0B0CD8FEF81B980E0ACCD42B9EB
:1013D0008FEF84B955B9479A479814B880E0A3CDE8
:1013E00014B88FEF85B9579A5F9880E09CCD5798D5
:1013F0005F9A80E098CD8FEF84B945B95F9A5F9886
:1014000014B880E090CD14B88FEF85B9579A5F98E3
:1014100080E089CD57985F9A80E085CD8FEF84B9C1
:1014200045B95F9A5F9814B880E07DCD8CE87BCD9C
:101430008DE879CD8DE877CD8DE875CD8DE873CDCC
:101440008DE871CD82B98FEF84B995B9479A4798E5
:1014500014B841984498000000000000000083B1D7
:10146000449A419A089582B98FEF84B995B9479A01
:10147000479814B884B965B94598419800000000B0
:1014800000000000459A419A14B80895CF93DF9365
:10149000952FE901813099F020F0823059F08AEAE5
:1014A00006C09FEF94B945B95F9A5F9814B8DF9171
:1014B000CF910895842F0E94330A80E0F8CF88836B
:1014C000842F0E94220A8983F8CF9FEF94B985B9AF
:1014D000459841980000000000000000459A419A9C
:1014E00014B80895EF92FF920F93CF93DF9300D03B
:1014F0001F92CDB7DEB77C018FEF84B965B9479AEB
:10150000479814B84498419842B980E0011119C035
:10151000000000000000000093B1F701E80FF11D8A
:1015200090834F5F42B98F5F281780F7449A419AA2
:101530000F900F900F90DF91CF910F91FF90EF9050
:1015400008952B834A8389830E94370B0000000093
:10155000000089814A812B81DFCFCF93DF931F92D7
:10156000CDB7DEB7FC018FEF809307011092080121
:1015700087E091E090938D0380938C03868189832B
:101580008181833049F130F4813091F08230D9F09B
:1015900080E816C0853091F140F18730C9F7AE017F
:1015A0004F5F5F4F67E071E0CF010E941C072EC0C4
:1015B0004481558128E031E0638182810E944B079C
:1015C0008093070127C04481558128E031E0638181
:1015D00082810E94B005F4CF4481558128E031E03A
:1015E000638182810E947706EBCF4481558128E098
:1015F00031E0638182810E94460AE2CFAE014F5FF3
:101600005F4F67E071E0CF010E94790190938D03F5
:1016100080938C0389810F90DF91CF910895E091A1
:101620006303F0916403278144815581322F360F83
:10163000231312C0E0916303F09164038781860F46
:10164000878380913201861B8093320181110DC006
:1016500088E9838381E00895FC017191CF01FA014B
:10166000E20FF11D70832F5FE3CF80E00895CF93E9
:10167000DF9360918E03635067FD91C080918B036F
:10168000CCE0D0E0C81BD109CE56DC4F80918A0354
:101690008D3209F0CFC0683009F07FC083EC8093B1
:1016A0007E038AE58093050110920F018881807680
:1016B00079F0CE010E94AD0A8F3F09F466C09F8188
:1016C000911169C09E81981708F065C0892F63C089
:1016D0002A8110928703998191110AC01092880380
:1016E00027E833E082E030938D0320938C03E7CF2B
:1016F000953029F420938F0327E833E0F4CF963018
:1017000099F59B81913059F48EE890E090938D0388
:1017100080938C0382E190E490930F01D0CF9230BC
:1017200019F48CE790E0F2CF9330A9F7211108C0AB
:1017300088EE90E090938D0380938C0384E0EBCF50
:10174000213041F48EEB90E090938D0380938C03D5
:101750008AE2E1CF2230F9F680EA90E090938D039F
:1017600080938C038EE1D7CF983059F0993019F4DB
:1017700020939103C1CF81E09A3009F4BDCF80E07E
:10178000BBCF21E933E081E0AECF988197FD8E8118
:1017900090E890930F018093040110928E03809142
:1017A000050184FF3AC0809104018F3FB1F1C82F39
:1017B000893008F0C8E08C1B8093040180917E037F
:1017C00098E8892780937E03CC23D1F080918C0305
:1017D00090918D0320910F0126FF3FC0AFE7B3E04A
:1017E000FC012C2F34913D9331962150D9F701966D
:1017F0002FEF2C0F820F911D90938D0380938C03FC
:101800006C2F8FE793E00E94520CCC5FCC3019F024
:101810008FEF80930401C093050184E199B1947125
:1018200031F48150D9F710928F0310928903DF9120
:10183000CF91089580910F0187FFAFCFCE010E9415
:101840000F0B8F3F21F48EE180930501A6CF8823F3
:1018500009F4A3CF10920401A0CFEFE7F3E0DC017D
:101860002C2F3D9131932150E1F7C1CFE9E6F0E013
:10187000808182608083E89A0895A82FB92F80E044
:1018800090E041E050EA609530E009C02D91822758
:101890009795879510F084279527305EC8F36F5F82
:1018A000A8F30895EADF8D939D930895CF93CFB762
:1018B000CF93DF93C3954C9BE9F74C9B0BC04C9B9C
:1018C00009C04C9B07C04C9B05C04C9B03C04C9B64
:1018D00001C089C06F93C0918B03DD27CE56DC4FCA
:1018E0002F9365E54C9B03C02F916F91E6CF0F932B
:1018F0001F934F9320E040E15F9309B1047104FB13
:1019000027F93F9350E03BE039C0147140642F77D2
:10191000012F5F5F1EC0406819B114712F775250BC
:101920001FC0406409B12F770471D1F15F5F00C01F
:1019300023C0406219B12F77147191F15F5F00C02D
:1019400025C004711027515012F45D5F0000115042
:1019500027952C3F19B1C8F614710127015027951E
:101960002C3FC8F64227499309B1047110274F73E1
:10197000115027952C3FA8F64695469519B114713C
:1019800079F00127015027952C3F98F66B5A60F3A8
:10199000315009B1B0F600C011E01CBB002717C0E0
:1019A0003B503195C31BD04011E01CBB0881033C68
:1019B000F9F00B34E9F0209189031981110F12130A
:1019C000EDCF093651F10D3211F0013E39F7009398
:1019D00090033F915F914F911F910F912F916F91C4
:1019E000CCB3C0FD67CFDF91CF91CFBFCF9118951A
:1019F00020919003222369F310918E03112339F56E
:101A000034303AF130938E0320938A0310918B0384
:101A10003BE0311B30938B031CC000918E030130DF
:101A2000B4F40AE53091050134FD14C000930501BA
:101A3000CEE7D3E013C0052710E000C000000BB9CB
:101A40001AC0052710E0221F1DC010E021C04AE582
:101A500002C032ED432FC4E1D0E032E01AB114618C
:101A60005C9A0BB11AB954E120E865E320FF052721
:101A70000BB9279517951C3FF0F66695B8F7B1F7A7
:101A800020FF05270BB9279517951C3FD0F6279502
:101A9000179517FF052700001C3F0BB9B0F62991D9
:101AA0003A9519F70B7E10918F03110FC651D04054
:101AB0000BB911F01093890311E01CBB00611AB13E
:101AC0001B7E402F4B7E54E05A95F1F70BB91AB9A3
:101AD0004BB97FCF9EE088E10FB6F894A89580932C
:101AE00060000FBE909360000E94360C549A80E014
:101AF000815051F4549878940E941005A8950E9442
:101B0000370B0E94A802FACFA895EFE9FFE03197C2
:101B1000F1F700C00000ECCFEE0FFF1F0590F4912D
:081B2000E02D0994F894FFCFB9
:061B280063016503FF5A92
:00000001FF
