:100000000C9476000C9448160C9493000C94930076
:100010000C9493000C9493000C9493000C94930014
:100020000C9493000C9493000C9493000C94930004
:100030000C9493000C9493000C9493000C949300F4
:100040000C9493000C9493000C9493000C949300E4
:100050000C9493000C9493000C9493000C949300D4
:100060000C9493000C9493000C9493000C949300C4
:100070000C9493000C9493000C94930009021200CA
:10008000010100806409040000000000000012016A
:100090001001FF000008C016DC050002010200018B
:1000A0001E0349004E004C00200052006500740001
:1000B00072006F002D00500072006F0067002A036D
:1000C00049006E00660069006E00690074006500FA
:1000D0004E00650073004C006900760065007300F7
:1000E0002E0063006F006D000403090411241FBE7D
:1000F000CFEFD4E0DEBFCDBF11E0A0E0B1E0EEE194
:10010000FFE202C005900D92A630B107D9F723E0B7
:10011000A6E0B1E001C01D92AD3DB207E1F70E943B
:100120005C170C948D170C9400000F931F93CF93C2
:10013000DF93EC01FB01D9010091490110914A01C3
:10014000888187FF09C08E818C93442399F00481B4
:10015000158180E883831DC08FEF8C938E818093FF
:100160003401442309F44BC0709366036093650324
:1001700080E9F0CFE0912101F09122018381883D57
:10018000A1F50481158180E88383E0912101F0913C
:1001900022011782E0912101F091220183818039AF
:1001A000F1F48A81813711F08034C9F4E09165035C
:1001B000F09166030480F581E02D8C818083E091CD
:1001C0006503F09166030480F581E02D8D818183C4
:1001D000E0916503F091660387818E5F8783C80194
:1001E000DF91CF911F910F910895803D11F41C92E2
:1001F000CCCF8FEF8C9380E10E946C10C6CFE09142
:100200002101F09122018381811106C0F0936603E0
:10021000E093650380E9B8CF883969F7E8CFE5E571
:10022000F1E08FEF819391E0E536F907D9F78093FC
:100230004801809327018093470180932601809392
:10024000380180931401809337018093130181E07A
:100250000C946C10CF93DF93FC0150E0CA01820F25
:10026000911D4197E4F52223E1F183818F3FD9F578
:1002700082818F3FD1F5DA01AB5ABE4FED0180E0AC
:1002800099919F3FA1F58F5F2813FACF6283138264
:10029000982F9295990F907E915096831782108691
:1002A0001182108211861286138614861586168690
:1002B000178695E0440F551F9A95E1F720910001AC
:1002C00030910101420F531F5583448390E06D9399
:1002D0009F5F8913FCCF80E0DF91CF9108958EEB73
:1002E000FBCF82ECF9CF8FEBF7CF80ECF5CF81EC31
:1002F000F3CFCF93DF93DC01EB019A0112969C912F
:10030000129780ED890F803318F513968C9113970F
:10031000813041F0E8F08230A9F08330B1F085EB14
:10032000888346C0E4E2F1E0913509F476C048F5EF
:10033000913309F449C078F49923B9F19033E1F18C
:1003400084EBEECFE5E3F1E0EFCFE1E1F1E0ECCFDC
:10035000E5E4F1E0E9CF933309F446C0E8F19035E4
:1003600079F7188286E0898386818A8383818B83EB
:1003700087818C8380858D8382818E8387858F831F
:1003800017C0903808F05FC0903708F055C090361D
:1003900079F19136C9F1923599F6188282E0898314
:1003A00080818A8381818B8303C00E940F01188220
:1003B000CE01DF91CF91089514968C9114971596E4
:1003C0009C9191878287F3CF14968C911497159600
:1003D0009C9193878487EBCF14968C9114971596F4
:1003E0009C9195878687E3CF14968C918787DFCF82
:1003F000188281E089831496ED91FC911597EB5A50
:10040000FE4F80818A83D4CF188281E08983E09176
:100410002101F09122018381F5CF188286E0898342
:1004200081858A8382858B8383858C8384858D8374
:1004300085858E838685A3CF40E0BF01CD01DF9106
:10044000CF910C949500892F8770813049F0F8F096
:10045000823001F1833009F062CFE1E1F1E002C0C6
:10046000E4E2F1E0903808F4A3CF9838B0F0905966
:10047000983008F09DCF188213968C91139780873F
:1004800014968D919C9115979183808391CFE5E48B
:10049000F1E0E8CFE5E3F1E0E5CF14964C91149755
:1004A00015966C91159713962C91CF010E942A01F5
:1004B00037CF90914801809127018F3F79F481E0F7
:1004C0009F3F09F480E0909138019F3F09F083E05D
:1004D000909114019F3F09F084E0089582E0F3CFEA
:1004E000623059F421E08534920749F121E08432E9
:1004F000920789F485E491E00EC0633069F421E04D
:1005000085349207E1F021E084329207D9F021E0AE
:100510008533920779F308956430E9F721E0853453
:10052000920769F021E08432920761F021E085337F
:10053000920759F021E08131920769F7DBCF84E21D
:1005400091E0089585E391E0089581E191E00895B7
:100550001F93CF93DF930E947210823D09F071C008
:100560000E9459028093060185E491E09093220154
:10057000809321010E947210823DA1F4D091060166
:100580008091210190912201C1E0CD1708F45FC054
:10059000909322018093210120E8FC01238380EDC8
:1005A0000E946C100E947210823F41F480EF0E9402
:1005B0006C10E0912101F091220113820E947210CF
:1005C000C82F803DE1F48091210190912201FC012E
:1005D00023812038A1F4609106010E94700290935B
:1005E000220180932101FC011782C3830E943F03F3
:1005F000E0912101F0912201882371F183830E940F
:100600007210182F803FC9F4C0912101D0912201AE
:100610008B81883991F460910601CE010E947002AD
:100620009093220180932101FC0113821B83CE0150
:100630000E94300A8823C9F08B83DF91CF911F91EC
:1006400008950E947210823F09F094CF89CF6D2FD8
:100650000E947002CF5F99CF208580819181820FA7
:10066000911D9183808388EDC9CF84EF8B8328858A
:1006700088819981820F911D99838883DECFEF92C3
:10068000FF920F931F93CF93DF93EC01E880F980E3
:100690001E2D8985823109F4F8C068F4803191F00B
:1006A000813109F490C083ECDF91CF911F910F91BC
:1006B000FF90EF900895833109F4EAC0843199F7EF
:1006C00080E0F2CF8D85813091F441E060E180E0FF
:1006D00090E80E94D60FB70186E0769567958A95D7
:1006E000E1F76F7040E080E090EE0E94D60F8D85BC
:1006F0008330A9F41E2D1F7B6881798106E07695F1
:1007000067950A95E1F7CB0199278D589B410E9487
:100710008C0E612F60680FEF2E814A8141C08E31AF
:1007200061F41E2D1F7B68817981B6E0769567950F
:10073000BA95E1F780E090ECEACF823211F08B308D
:1007400069F468817981660F672F661F770B719551
:10075000CB0199278C5691090E948C0E8D858C3186
:10076000B1F408811981000F012F001F110B1195A1
:1007700061E880E090E50E948C0E602F80E090E8B8
:100780000E948C0E60E080E090E50E948C0E8D85CA
:100790001E2D8F3151F010680FEF2E814A81612F8D
:1007A0008C819D810E942D0F6EC01F78106868811A
:1007B0007981E4E076956795EA95E1F780E090E548
:1007C0000E948C0EE9CF8D85811109C00FEF2E811B
:1007D0004A816E2D8C819D810E94650F8F838D854E
:1007E0008B30C1F46881798155E0769567955A958B
:1007F000E1F76295607F8FEF9FEF0E948C0E1E2DB8
:100800001F710FEF2E814A81612F8C819D810E9483
:10081000650F8F838D858E3FA9F46881798145E0CE
:10082000769567954A95E1F78FEF9FE30E94B60EA4
:100830001F710FEF2E814A81612F8C819D810E9453
:100840009D0F8F838D85813009F03ACFE880F98044
:1008500034E0F694E7943A95E1F741E060E180E016
:1008600090E80E94D60F6E2D6F7140E080E090EA14
:100870000E94D60F612F6F700FEF2E814A818C81FD
:100880009D810E94650F8F831BCF6E2D606643CFC5
:100890008FEF84B9C701880F892F881F990B919515
:1008A00085B95F9A5F9814B86E2D60680FEF2E813E
:1008B0004A818C819D810E94A513E5CF3F924F9282
:1008C0005F926F927F928F929F92AF92BF92CF92E0
:1008D000DF92EF92FF920F931F93CF93DF934A0122
:1008E0003901D8011796CC91D0E0462E512C542CCA
:1008F0004424D80116968C91169790E08C179D078A
:10090000A8F41796CC9380E0DF91CF911F910F91BF
:10091000FF90EF90DF90CF90BF90AF909F908F901F
:100920007F906F905F904F903F9008956AEAC40166
:10093000F701099565E5C301F701099560EAC4016E
:10094000F7010995CE0199275C01A428B528D801A3
:100950001496ED91FC911597E80FF91F6081C50180
:10096000F70109950E942915C501F6010995382E50
:10097000C501F60109953812F5CF2196BACF2F920D
:100980003F924F925F926F927F928F929F92AF921F
:10099000BF92CF92DF92EF92FF920F931F93CF936C
:1009A000DF93CDB7DEB727970FB6F894DEBF0FBE43
:1009B000CDBF582E4A013C832B831F830E83D80161
:1009C00017964C90042D10E070E0F62FEE27FA8376
:1009D000E983252C312CFDE82F1AFBE13F0AAE817B
:1009E000BF8116968C91169790E080179107E0F4DE
:1009F00017964C9280E027960FB6F894DEBF0FBE94
:100A0000CDBFDF91CF911F910F91FF90EF90DF90BD
:100A1000CF90BF90AF909F908F907F906F905F909E
:100A20004F903F902F90089560E083E794EE0E94EE
:100A30008C0E6AEAC401F701099565E58B819C81FA
:100A4000F701099560EAC401F7010995652DC10117
:100A50000E948C0E642C712CA980BA80A628B7281D
:100A6000AE81BF811496ED91FC911597E60DF71DAF
:100A70006081C501F70109950E942915C501F6019C
:100A80000995282FC5012D83F60109952D8128137D
:100A9000F3CFAE81BF8114968D919C911597680E0E
:100AA000791EF3018081281307C043940F5F1F4F05
:100AB0005198599A599893CF519A599A90CF2F9209
:100AC0003F924F925F926F927F928F929F92AF92DE
:100AD000BF92CF92DF92EF92FF920F931F93CF932B
:100AE000DF9300D000D01F92CDB7DEB7382E4A0179
:100AF00029011D830C83D80117962C90022D10E03C
:100B000070E0F62FEE27FA83E983AC81BD8116965B
:100B10008C91169790E080179107D8F417962C9235
:100B200080E00F900F900F900F900F90DF91CF917A
:100B30001F910F91FF90EF90DF90CF90BF90AF90FB
:100B40009F908F907F906F905F904F903F902F90ED
:100B5000089561E080E090EC0E948C0E6AEAC40186
:100B6000F701099560E080E090EC0E948C0E65E54D
:100B7000C201F701099561E080E090EC0E948C0EC3
:100B800060EAC401F7010995632D80E090EC0E94B2
:100B90008C0E622C712CA980BA80A628B728AC8153
:100BA000BD811496ED91FC911597E60DF71D6081BE
:100BB000C501F70109950E942915C501F60109959E
:100BC000282FC5012B83F60109952B812813F3CF1C
:100BD000AC81BD8114968D919C911597680E791EFC
:100BE000F3018081281307C023940F5F1F4F519892
:100BF000599A59988ACF519A599A87CF2F923F92F2
:100C00004F925F926F927F928F929F92AF92BF921C
:100C1000CF92DF92EF92FF920F931F93CF93DF93C8
:100C200000D000D01F92CDB7DEB7582E4A0119016F
:100C30001D830C83D80117964C90042D10E070E0B2
:100C4000F62FEE27FA83E983AC81BD8116968C914D
:100C5000169790E080179107D8F417964C9280E091
:100C60000F900F900F900F900F90DF91CF911F91E9
:100C70000F91FF90EF90DF90CF90BF90AF909F903B
:100C80008F907F906F905F904F903F902F9008953E
:100C900040E060E180E090E80E94D60F6AEAC4017B
:100CA000F701099565E5C101F701099560EAC401FD
:100CB000F7010995A42CB12C69807A806A287B28D9
:100CC000AC81BD811496ED91FC911597EA0DFB1D49
:100CD0006081C301F701099541E060E180E090E89F
:100CE0000E94D60F40E0652D80E090EE0E94D60F66
:100CF0000E942915C301F6010995282FC3012B83F2
:100D0000F60109952B812813F3CFAC81BD81149690
:100D10008D919C911597A80EB91EF501808128131D
:100D200007C043940F5F1F4F5198599A59988CCF21
:100D300041E060E180E090E80E94D60F40E0652D40
:100D400080E090EE0E94D60F519A599A7DCF3F9243
:100D50004F925F926F927F928F929F92AF92BF92CB
:100D6000CF92DF92EF92FF920F931F93CF93DF9377
:100D7000482E662E7A01E901DA0117965C90A52CBF
:100D8000B12C6AEA8AEA9AE8F901099565E585E5F0
:100D900095E8FE01099560E28AEA9AE8FE01099564
:100DA000712C762C6624D70116968C91169790E0BC
:100DB0008A159B0520F517965C9260E980E090E823
:100DC000FE01099560E080E090E8FE01099560EF82
:100DD00080E090E8FE01099580E0DF91CF911F91BE
:100DE0000F91FF90EF90DF90CF90BF90AF909F90CA
:100DF0008F907F906F905F904F903F90089564E543
:100E000080E090E50E948C0E852C912C6401C62810
:100E1000D72860EAC601FE010995D7011496ED9125
:100E2000FC911597E80DF91D6081C601FE01099539
:100E30000E942915C601F8010995382EC601F8014E
:100E400009953812F5CFD70114968D919C9115977D
:100E5000880E991EF4018081381208C05394FFEF68
:100E6000AF1ABF0A5198599A59989DCF61E880E00E
:100E700090E50E948C0E642D80E090E80E948C0E1C
:100E800064E580E090E50E948C0E519A599A8BCFD0
:100E90004F925F926F927F928F929F92AF92BF928A
:100EA000CF92DF92EF92FF920F931F93CF93DF9336
:100EB000662E7A01E901DA0117965C90A52CB12C17
:100EC0006AEA8AEA9AE8F901099565E585E595E80F
:100ED000FE01099560E28AEA9AE8FE010995712C03
:100EE000762C6624D70116968C91169790E08A1579
:100EF0009B0518F517965C9260E980E090E8FE018A
:100F0000099560E080E090E8FE01099560EF80E0DF
:100F100090E8FE01099580E0DF91CF911F910F913C
:100F2000FF90EF90DF90CF90BF90AF909F908F9009
:100F30007F906F905F904F900895852C912C640165
:100F4000C628D72860EAC601FE010995D701149684
:100F5000ED91FC911597E80DF91D6081C601FE0128
:100F600009950E942915C601F8010995482EC60168
:100F7000F80109954812F5CFD70114968D919C91EF
:100F80001597880E991EF4018081481208C0539469
:100F9000FFEFAF1ABF0A5198599A5998A3CF519AA7
:100FA000599AA0CF4F925F926F927F928F929F92A9
:100FB000AF92BF92CF92DF92EF92FF920F931F9367
:100FC000CF93DF93EA0169015F80A52CB12CE62E57
:100FD000F12CFE2CEE248E8190E08A159B0598F46E
:100FE0005F8280E0DF91CF911F910F91FF90EF9092
:100FF000DF90CF90BF90AF909F908F907F906F9039
:101000005F904F9008956AEA85E595E1F6010995AC
:1010100065E58AEA9AE0F601099560EA85E595E1D9
:10102000F6010995652C712C43018E289F28EC81CF
:10103000FD81E60DF71D6081C401F60109950E944E
:101040002915C401F8010995482EC401F801099534
:101050004812F5CF8C819D81680E791EF301808145
:10106000481208C05394FFEFAF1ABF0A5198599A1B
:101070005998B1CF519A599AAECF3F924F925F9201
:101080006F927F928F929F92AF92BF92CF92DF9298
:10109000EF92FF920F931F93CF93DF93EA016901C1
:1010A0005F80A52CB12C482E429480EF4822E62E7A
:1010B000F12CFE2CEE248E8190E08A159B05A0F485
:1010C0005F8280E0DF91CF911F910F91FF90EF90B1
:1010D000DF90CF90BF90AF909F908F907F906F9058
:1010E0005F904F903F90089560E280E090E80E940A
:1010F0008C0E6AEA85E595E1F601099560E180E0EC
:1011000090E80E948C0E65E58AEA9AE0F60109955E
:1011100060E280E090E80E948C0E60EA85E595E14F
:10112000F6010995642D80E090E80E948C0E652CF4
:10113000712C43018E289F28EC81FD81E60DF71D5F
:101140006081C401F60109950E942915C401F801C6
:101150000995382EC401F80109953812F5CF8C8114
:101160009D81680E791EF3018081381208C0539466
:10117000FFEFAF1ABF0A5198599A59989CCF519ACC
:10118000599A99CF4F925F926F927F928F929F92CE
:10119000AF92BF92CF92DF92EF92FF920F931F9385
:1011A000CF93DF93662E7A01E901DA0117965C90FE
:1011B000A52CB12C6AEA8AEA9AE0F901099565E55D
:1011C00085E595E0FE01099560E28AEA9AE0FE0174
:1011D0000995712C762C6624D70116968C9116975A
:1011E00090E08A159B0518F517965C9260E980E0FF
:1011F00090E0FE01099560E080E090E0FE01099535
:1012000060EF80E090E0FE01099580E0DF91CF91F2
:101210001F910F91FF90EF90DF90CF90BF90AF9014
:101220009F908F907F906F905F904F900895852C46
:10123000912C6401C628D72860EAC601FE010995F1
:10124000D7011496ED91FC911597E80DF91D608179
:10125000C601FE0109950E942915C601F8010995EC
:10126000482EC601F80109954812F5CFD70114960A
:101270008D919C911597880E991EF40180814812DA
:1012800008C05394FFEFAF1ABF0A5198599A599862
:10129000A3CF519A599AA0CF4F925F926F927F92AB
:1012A0008F929F92AF92BF92CF92DF92EF92FF9276
:1012B0000F931F93CF93DF93662E7A01E901DA0132
:1012C00017965C90852C912CA895589800000000EA
:1012D0000000000000000000000000006AEA8AEA46
:1012E0009AE0F901099565E585E595E0FE01099526
:1012F00060E28AEA9AE0FE010995712C762C662458
:10130000D70116968C91169790E08815990520F5CF
:1013100017965C9260E980E090E0FE01099560E03C
:1013200080E090E0FE01099560EF80E090E0FE0132
:101330000995589A80E0DF91CF911F910F91FF900E
:10134000EF90DF90CF90BF90AF909F908F907F9065
:101350006F905F904F90089580EA0E949813C52C7B
:10136000D12C5601A628B728D7011496ED91FC91EF
:101370001597EC0DFD1D6081C501FE010995589A78
:10138000000000000000000000000000000000005D
:10139000A8950E942915C501F801099558980000E3
:1013A0000000000000000000000000000000D70165
:1013B0001496ED91FC911597EC0DFD1D4080841560
:1013C000C1F0589A0000000000000000000000007A
:1013D00000000000482EC501F801099558984812F0
:1013E0001BC0000000000000000000000000000022
:1013F0000000D70114968D919C911597C80ED91EA7
:10140000F6018081481229C05394FFEF8F1A9F0A7A
:101410005198599A599874CF0000000000000000BC
:1014200000000000000000000000000000000000BC
:1014300000000000000000000000000000000000AC
:10144000589A0000000000000000000000000000AA
:101450000000C501F8010995BDCF519A599A50CFA6
:101460008F929F92AF92BF92CF92DF92EF92FF92B4
:101470000F931F93CF93DF93EC0188809980B82C52
:101480008985823169F038F48031C1F0813109F405
:101490001AC183EC06C0833109F44FC18431C9F706
:1014A00080E0DF91CF911F910F91FF90EF90DF903F
:1014B000CF90BF90AF909F908F9008958D858111B0
:1014C00011C0FAE7CF2EFEE0DF2EA0E5EA2EAEE057
:1014D000FA2E8E012AEA3AE245E555E5682D606864
:1014E0000E945E048D85813041F58881998166E096
:1014F000969587956A95E1F7282F2F70A22E41E0E7
:1015000060E180E090E80E94D60F40E06A2D80E024
:1015100090EE0E94D60F7AE7C72E7EE0D72EECE839
:10152000EE2EEEE0FE2E8E012AEA3AEA45E555ED72
:10153000682D60688A2D0E94FE058D858330D1F468
:10154000682D6F736068B62E8881998136E0969514
:1015500087953A95E1F74AE7C42E4EE0D42E50E540
:10156000E52E5EE0F52E8E012AEA3AE245E555E5E4
:101570000E94BF048D858E31D1F46B2D6F7360682E
:10158000B62E8881998106E0969587950A95E1F7B0
:101590009AE7C92E9EE0D92E2CE8E22E2EE0F22EFC
:1015A0008E012AEA3AEA45E555E90E945F058D85F4
:1015B000823211F08B30F9F468817981660F672FE0
:1015C000661F770B7195CB0199278C5691090E9464
:1015D0008C0EBAE7CB2EBEE0DB2E10E5E12E1EE02E
:1015E000F12E8E012AEA3AE245E555E56B2D606859
:1015F00080E00E945E048D858C3031F56B2D6F711B
:101600006068B62E8880998075E0969487947A9564
:10161000E1F765EA80E090E60E948C0E682D8FEF7E
:101620009FEF0E948C0EEAE7CE2EEEE0DE2EFCE865
:10163000EF2EFEE0FF2E8E012AEA3AEA45E555ED4F
:101640006B2D80E00E945E048D858C3101F58880D1
:101650009980880C892C881C9908919461E880E015
:1016600090E50E948C0E682D80E090E80E948C0E20
:1016700064E580E090E50E948C0E0AE71EE02CE80D
:101680003EE0AE016B2D6068882D0E94A7068D8517
:101690008F3109F005CF8880998054E09694879423
:1016A0005A95E1F7682D80E090E50E948C0E6B2D35
:1016B0006F7860680AE71EE02CE83EE0AE01882DF6
:1016C0000E944807EDCE8D85811108C002EA1EE018
:1016D00026EB3EE0AE01682D0E94D2078D858B304F
:1016E00091F4882D8F71B82E8881998145E0969567
:1016F00087954A95E1F702EA1EE026EB3EE0AE014F
:101700006B2D0E943D088D858E3F09F0C9CE688102
:10171000798135E0769567953A95E1F78FEF9FE30C
:101720000E94B60E6B2D6F710AEC1EE02CED3EE0B0
:10173000AE0180E00E94C208B3CE8FEF84B9C4012D
:10174000880F892F881F990B919585B95F9A5F98AB
:1017500014B8682D60680FE413E126E633E1AE01AA
:1017600080E00E944C099CCE14B88FEF85B93F9A57
:10177000479881B911B882B914B885B914B885B938
:101780003898409A3998419A3A98429A3C98449AA3
:101790003D98459A3E98469A53985B9A55985D9A1B
:1017A0003B98439A3F98479A57985F9A5098589811
:1017B0005198599A08950E94B40B399A419A389ACF
:1017C00040983A9A429A3C9A449A3D9A459A14B85B
:1017D0008FEF85B914B885B914B885B93F9A479881
:1017E00081B912B884B915B8479A479814B80895C2
:1017F0000E94B40B399A419A3C9A449A3D9A459A70
:10180000589A509A14B88FEF85B914B885B914B89E
:1018100085B93F9A479881B912B884B915B8479AE3
:10182000479814B814B885B9579A5F9884B915B811
:101830005F9A5F9814B80895823081F0833061F028
:101840008130A1F40898109A1092B20380E290E0DF
:101850009093B1038093B00380E008955098589A14
:1018600088E08093B20389E290E0F2CF87E908959F
:10187000813049F414B88FEF85B9579A5F980E9468
:10188000B10C80E0089588E908955898509A0000B6
:1018900089B15098589880FD22C05098589A59B1F3
:1018A00049B1000039B10000000029B1000000007A
:1018B000000099B1000000000000000089B15098BC
:1018C000589850FD0EC040FD0EC030FD0EC020FDEA
:1018D0000EC090FD0EC080FD0EC080EE089580EF1A
:1018E000089580E0089581E0089583E0089586E0FA
:1018F00008958AE008958FE008950F931F93CF9382
:10190000C82F842F8901C230F9F030F4CC2389F03C
:10191000C130B1F0C6E90FC0C430F1F0C0F0C0383A
:10192000C9F781E0F90180830E94450CF8018183A9
:1019300009C00E94B40B8C2FCF911F910F91089575
:101940000E94DB0BC0E0F7CF0E94F80BFBCFCF91DA
:101950001F910F910C941C0CCF911F910F910C941F
:10196000380C109210018FEF84B915B85F9A5F9808
:1019700014B85098589A80E88093680310927603C0
:10198000E7E7F3E0119283E0E739F807D9F7089524
:1019900060917603813109F441C0109210019FEFEC
:1019A00094B99091100195B95F9A5F9814B820E0AE
:1019B00070E03FEF8032C9F4E72FF0E0E958FC4FC8
:1019C000408150E0022E02C0559547950A94E2F7F7
:1019D00040FF28C092E034B995B95F9A5F9814B877
:1019E0002F5F283011F47F5F20E0492F446034B925
:1019F00045B95F9A5F9814B8615034B995B95F9A48
:101A00005F9814B86111D6CF9093100140932301D1
:101A100034B915B85F9A5F9814B8089592E090931E
:101A20001001BDCF90E0D7CF0F931F93CF93DF93DB
:101A300050917603B0917703813109F46BC0109215
:101A400010019FEF94B99091100195B95F9A5F983A
:101A500014B820E030E07FEFC1E0D0E0803281F4C4
:101A6000EB2FF0E0022E02C0F595E7950A94E2F71D
:101A7000E0FF54C0916074B995B95F9A5F9814B84B
:101A80006032B1F4211105C0E32FF0E0E958FC4FBA
:101A90001082489B0DC0E32FF0E0E958FC4FA08175
:101AA0008E01022E01C0000F0A94EAF7A02BA0833A
:101AB0005150442341F0511106C0926074B995B958
:101AC0005F9A5F9814B8A92FA46074B9A5B95F9AFA
:101AD0005F9814B874B995B95F9A5F9814B82F5F7E
:101AE000283039F43F5FE32FF0E0E958FC4FB08134
:101AF00020E05111B3CF90931001A09323018FEFF9
:101B000084B915B85F9A5F9814B8DF91CF911F918F
:101B10000F91089591E09093100193CF9E7FABCFEA
:101B2000809168038338D1F580916903883009F486
:101B300063C0C0F4833009F445C030F4813079F1DA
:101B40008230A1F18EEE28C0863009F44AC008F038
:101B50004EC08430B9F781E88093680341E060E2C9
:101B600081E136C08F30C1F148F48D3031F18E30D3
:101B700049F781E88093680340E028C0803849F045
:101B80008F3F49F08031F1F681E88093680340E0AF
:101B90002CC00C94B10C80EF80936803089581E809
:101BA0008093680380E20E94C80C14C081E880938F
:101BB000680341E060E080E20BC081E88093680345
:101BC00040E0F8CF81E88093680341E060E280E183
:101BD0000E94140D82E8E0CF81E88093680340E022
:101BE000BECF81E88093680341E060E2E4CF81E802
:101BF0008093680380E1D7CF81E88093680381E117
:101C0000D2CFCF93DF93E901843061F138F4823091
:101C1000E1F008F58130A1F087E80FC0873039F195
:101C200028F48530C9F74093760306C0883021F147
:101C3000803891F70E94B10C80E0DF91CF91089538
:101C40009091690399838883F7CF4093690383E870
:101C500080936803F1CF4093690383E8809368031E
:101C60000E94900D80916803898381E0ECCF4093BE
:101C7000770350937803E0CF809177038983809135
:101C800078038A83809179038B8380917A038C8394
:101C900080917B038D8380917C038E8386E0D3CFFC
:101CA00082B98FEF84B995B9479A479814B884B927
:101CB00065B9509A58985098589A14B80895509801
:101CC00058984098419A429A82B92FEF24B995B911
:101CD000479A479814B800000000409A97FD419831
:101CE00000000000000000000000000083B14098E8
:101CF000419A089582B92FEF24B995B9479A479828
:101D000014B8409A97FD41980000000000000000C0
:101D100083B14098419A08955098589882B92FEF0E
:101D200024B995B9479A479814B8429824B965B927
:101D3000409A97FD4198000000004098419A429ACD
:101D400014B80895811520E2920708F4906882B9CA
:101D50008FEF84B995B9479A479814B84498000012
:101D600000000000000083B1449A0895811520E22C
:101D7000920708F4906882B98FEF84B995B9479AB1
:101D8000479814B884B965B9000045980000459A91
:101D900014B8089582B98FEF84B995B9479A4798D6
:101DA00014B8409A4198449800000000000083B1A4
:101DB000449A4098419A089582B98FEF84B995B9B1
:101DC000479A479814B84098419884B965B900007B
:101DD00045980000459A14B8419A089512B82FEF1B
:101DE00024B988E085B9479A479814B889B18072B8
:101DF00090E024B924E025B9479A479814B829B14E
:101E0000207230E041E02115310509F040E061E049
:101E1000009709F060E0442311F0611116C051E011
:101E2000232B09F450E021E0892B09F420E055230D
:101E300011F021110CC0662311F051110AC0442386
:101E400011F0211108C08FEF089580E1089581E11C
:101E5000089582E1089583E10895EF92FF920F9330
:101E6000CF93DF9300D01F92CDB7DEB77C018FEF09
:101E700084B965B9479A479814B8409A67FD419864
:101E800042B9000080E0011117C00000000093B1CA
:101E9000F701E80FF11D90834F5F42B98F5F28175C
:101EA00090F74098419A0F900F900F90DF91CF914B
:101EB0000F91FF90EF9008952B834A8389830E94AE
:101EC000291589814A812B81E2CFEF92FF920F93EE
:101ED000CF93DF9300D01F92CDB7DEB77C01603285
:101EE00008F460688FEF84B965B9479A479814B8C9
:101EF000449842B9000080E0011116C000000000C3
:101F000093B1F701E80FF11D90834F5F42B98F5FE6
:101F1000281790F7449A0F900F900F90DF91CF9170
:101F20000F91FF90EF9008952B834A8389830E943D
:101F3000291589814A812B81E3CFEF92FF920F937C
:101F4000CF93DF9300D01F92CDB7DEB77C018FEF28
:101F500084B965B9479A479814B8409A419844980B
:101F600042B9000080E0011118C00000000093B1E8
:101F7000F701E80FF11D90834F5F42B98F5F28177B
:101F800090F7449A4098419A0F900F900F90DF91EC
:101F9000CF910F91FF90EF9008952B834A8389830F
:101FA0000E94291589814A812B81E1CF0F931F93CC
:101FB000CF93DF938C01D62F442349F080E090E843
:101FC0000E947A0E60E880E090E80E948C0EC5E0E6
:101FD000C8010E947A0E6D2FC8010E948C0ED69502
:101FE000C150B1F7DF91CF911F910F9108950F93D9
:101FF0001F93CF93C82FCA018901C53079F148F4E6
:10200000C13029F1E8F0C23031F1C43051F1C0EAF9
:1020100019C0C23891F150F4C03839F1C138B9F75C
:1020200021E0F80120830E947A0E24C0C33859F1C0
:10203000C43869F721E0F80120830E94CA0E1AC053
:102040000E94500E8C2FCF911F910F9108950E94E6
:10205000B60EC0E0F7CF0E948C0EFBCF0E94DC0EC4
:10206000F8CF40E00E94D60FF4CF21E0F8012083A2
:102070000E945F0EF8018183ECCF21E0F8012083FC
:102080000E94A20EF7CF81E0F90180830E94EE0E3C
:10209000F1CFCF93DF93FB01DC0112962C91222329
:1020A00029F0203479F082ED808308C01082A0915D
:1020B0000201B0910301EC018C818C93CF01DF917F
:1020C000CF910895108281E08183A0910201B091A7
:1020D00003018C918283F2CFE0910201F091030120
:1020E00080830895E0910201F091030180810895B9
:1020F0000F931F93D901082F10E00831110508F044
:10210000C2C2F801EA57FF4E0C948717C0109E1008
:10211000FB105611A211EE113A12E512EA12EF125B
:10212000F212F612F912011309130D1310131413FE
:102130001D1324132813301337133B134631510555
:1021400008F0A3C2FA01E955FF4E0C948717BD10A1
:10215000C310C710CB10CF10D310D710DB10DF1077
:10216000E310E710EB10EF10F31045134513451380
:102170004513451345134513F7103898409A80E0EE
:102180001F910F9108953998419A80E0F9CF3A98BC
:10219000429A80E0F5CF3B98439A80E0F1CF3C989B
:1021A000449A80E0EDCF3D98459A80E0E9CF3E9893
:1021B000469A80E0E5CF3F98479A80E0E1CF50987B
:1021C000589A80E0DDCF5198599A80E0D9CF539842
:1021D0005B9A80E0D5CF55985D9A80E0D1CF569834
:1021E0005E9A80E0CDCF57985F9A80E0C9CF509833
:1021F000589A80E0C5CF4631510508F048C2FA012F
:10220000EC5FFE4E0C9487171A111E112211261135
:102210002A112E11321136113A113E114211461176
:102220004A114E11471347134713471347134713D8
:10223000471352113898409880E0A2CF39984198BE
:1022400080E09ECF3A98429880E09ACF3B9843989E
:1022500080E096CF3C98449880E092CF3D98459896
:1022600080E08ECF3E98469880E08ACF3F9847988E
:1022700080E086CF5098589880E082CF5198599846
:1022800080E07ECF53985B9880E07ACF55985D9838
:1022900080E076CF56985E9880E072CF57985F982E
:1022A00080E06ECF5098589880E06ACF4631510553
:1022B00008F0EFC1FA01E15AFE4E0C948717751130
:1022C00078117B117E118111841187118A118D1172
:1022D00090119311961199119C11491349134913A7
:1022E00049134913491349139F11389A80E048CF85
:1022F000399A80E045CF3A9A80E042CF3B9A80E01D
:102300003FCF3C9A80E03CCF3D9A80E039CF3E9A67
:1023100080E036CF3F9A80E033CF509A80E030CFD4
:10232000519A80E02DCF539A80E02ACF559A80E0D1
:1023300027CF569A80E024CF579A80E021CF509A39
:1023400080E01ECF4631510508F0A5C1FA01E555E0
:10235000FE4E0C948717C111C411C711CA11CD11BB
:10236000D011D311D611D911DC11DF11E211E51111
:10237000E8114B134B134B134B134B134B134B13D2
:10238000EB11409880E0FCCE419880E0F9CE429875
:1023900080E0F6CE439880E0F3CE449880E0F0CE23
:1023A000459880E0EDCE469880E0EACE479880E000
:1023B000E7CE589880E0E4CE599880E0E1CE5B9873
:1023C00080E0DECE5D9880E0DBCE5E9880E0D8CE07
:1023D0005F9880E0D5CE589880E0D2CE4631510546
:1023E00008F05BC1FA01E950FE4E0C9487170D12FC
:1023F00010121312161219121C121F122212251279
:1024000028122B122E12311234124D134D134D136C
:102410004D134D134D134D133712409A80E0B0CE3B
:10242000419A80E0ADCE429A80E0AACE439A80E005
:10243000A7CE449A80E0A4CE459A80E0A1CE469AE9
:1024400080E09ECE479A80E09BCE589A80E098CE5E
:10245000599A80E095CE5B9A80E092CE5D9A80E0BA
:102460008FCE5E9A80E08CCE5F9A80E089CE589ABB
:1024700080E086CE82E08C934631510508F0A2C000
:10248000FA01EB5BFD4E0C9487175B1264126D1220
:1024900076127F12881291129A12A312AC12B51200
:1024A000BE12C712D012E212E212E212E212E212DD
:1024B000E212E212D91286B1817011968C931197B3
:1024C00012961C9280E05CCE86B1827090E01296EB
:1024D0009C938E93119780E053CE86B1847090E0E8
:1024E00012969C938E93119780E04ACE86B18870A5
:1024F00090E012969C938E93119780E041CE86B126
:10250000807190E012969C938E93119780E038CE64
:1025100086B1807290E012969C938E93119780E022
:102520002FCE86B1807490E012969C938E93119773
:1025300080E026CE86B1807890E012969C938E93B0
:10254000119780E01DCE89B1817011968C931197FF
:1025500012961C9280E014CE89B1827090E012969F
:102560009C938E93119780E00BCE89B1887090E098
:1025700012969C938E93119780E002CE89B180725F
:1025800090E012969C938E93119780E0F9CD89B1DB
:10259000807490E012969C938E93119780E0F0CD1A
:1025A00089B1807890E012969C938E93119780E089
:1025B000E7CD89B1817011968C93119712961C9278
:1025C00080E0DECD1C928DE8DBCD14B88FEF85B9AD
:1025D00080E0D6CD14B88FEF85B980E0D1CD14B8A6
:1025E00080E0CECD8FEF84B980E0CACD45B980E0E0
:1025F000C7CD83B111968C93119781E08C9380E0C5
:10260000BFCD14B88FEF85B93F9A479881B980E064
:10261000B7CD8FEF82B980E0B3CD11B880E0B0CDF7
:102620008FEF81B980E0ACCD42B98FEF84B955B955
:10263000479A479814B880E0A3CD14B88FEF85B9B6
:10264000579A5F9880E09CCD57985F9A80E098CD2C
:102650008FEF84B945B95F9A5F9814B880E090CD48
:1026600014B88FEF85B9579A5F9880E089CD579855
:102670005F9A80E085CD8FEF84B945B95F9A5F9806
:1026800014B880E07DCD8CE87BCD8DE879CD8DE8E8
:1026900077CD8DE875CD8DE873CD8DE871CD82B99C
:1026A0008FEF84B995B9479A479814B841984498E0
:1026B000000000000000000000000000000000001A
:1026C0000000000083B1449A419A089582B98FEFC7
:1026D00084B995B9479A479814B884B965B94598AB
:1026E00041980000000000000000459A419A14B88B
:1026F0000895CF93DF93952FE901813099F020F071
:10270000823059F08AEA06C09FEF94B945B95F9AC2
:102710005F9814B8DF91CF910895842F0E946613BB
:1027200080E0F8CF8883842F0E944F138983F8CFED
:102730009FEF94B985B945984198000000000000CA
:102740000000459A419A14B80895EF92FF920F93B2
:10275000CF93DF9300D01F92CDB7DEB77C018FEF10
:1027600084B965B9479A479814B84498419842B9D2
:1027700080E0011119C0000000000000000093B1CA
:10278000F701E80FF11D90834F5F42B98F5F281763
:1027900080F7449A419A0F900F900F90DF91CF915C
:1027A0000F91FF90EF9008952B834A8389830E94B5
:1027B000291500000000000089814A812B81DFCFAC
:1027C000880F991F880F991F20E030E028173907DC
:1027D00009F40895000000002F5F3F4FF7CF20E07D
:1027E00030E02817390709F40895000000002F5F32
:1027F0003F4FF7CFCF93DF9380E190E00E94E0134B
:10280000C4E0D0E084EF91E00E94E01384EF91E017
:102810000E94E0132197B1F7C4E0D0E08AEF90E086
:102820000E94E0138AEF90E00E94E0132197B1F735
:10283000DF91CF91089580E190E00C94E013CF9365
:10284000DF931F92CDB7DEB7F901813171F038F413
:102850008130C1F078F08230C9F082E80FC0813257
:10286000A9F0823299F08231C1F782E0808312822E
:1028700011820AC089830E94FA1389810F90DF9127
:10288000CF9108950E941B1480E0F8CF81E08083EF
:102890001182FACF482F90E0982F882720E041112D
:1028A00003C021118068089520953FEF340F432322
:1028B000F6CF80E090E0089580E0089560E070E059
:1028C000CB010895CF93DF931F92CDB7DEB7DC0124
:1028D0008FEF809307011092080187E091E09093B9
:1028E000C2038093C10316968C9116978983119623
:1028F000EC9111974E2F50E0FA013197E930F10534
:1029000008F07DC0EA57FB4E0C9487178F149F1474
:10291000AD14BB14E514FF14F614C914D71414969F
:102920004D915C91159728E031E013966C911397C7
:1029300012968C910E9478108093070152C01496D1
:102940004D915C91159728E031E013966C911397A7
:1029500012968C910E947D0CEFCF14964D915C9154
:10296000159728E031E013966C91139712968C918D
:102970000E94F70FE1CF14964D915C91159728E0D6
:1029800031E013966C91139712968C910E947913F3
:10299000D3CF14964D915C91159728E031E01396B2
:1029A0006C91139712968C910E941F14C5CF1496A8
:1029B0004D915C91159728E031E013966C91139737
:1029C00012968C910E94010EB7CFAE014F5F5F4F00
:1029D00067E071E0CD010E9479019093C20380937A
:1029E000C10389810F90DF91CF910895AE014F5FB0
:1029F0005F4F67E071E0CD010E944910EECF80E8A3
:102A00009BCFE0916503F091660327814481558156
:102A1000322F360F231312C0E0916503F091660345
:102A20008781860F878380913401861B80933401D0
:102A300081110DC088E9838381E00895FC017191C3
:102A4000CF01FA01E20FF11D70832F5FE3CF80E029
:102A50000895CF93DF936091C303635067FD91C0E6
:102A60008091C003CCE0D0E0C81BD109C953DC4F32
:102A70008091BF038D3209F0CFC0683009F07FC06C
:102A800083EC8093B3038AE58093050110920F01D4
:102A90008881807679F0CE010E9462148F3F09F41C
:102AA00066C09F81911169C09E81981708F065C02A
:102AB000892F63C02A811092BC03998191110AC0A9
:102AC0001092BD032CEB33E082E03093C2032093DD
:102AD000C103E7CF953029F42093C4032CEB33E0F6
:102AE000F4CF963099F59B81913059F48EE890E0BF
:102AF0009093C2038093C10382E190E490930F010D
:102B0000D0CF923019F48CE790E0F2CF9330A9F750
:102B1000211108C088EE90E09093C2038093C10316
:102B200084E0EBCF213041F48EEB90E09093C20330
:102B30008093C1038AE2E1CF2230F9F680EA90E087
:102B40009093C2038093C1038EE1D7CF983059F0A0
:102B5000993019F42093C603C1CF81E09A3009F46B
:102B6000BDCF80E0BBCF26EC33E081E0AECF9881D3
:102B700097FD8E8190E890930F018093040110924D
:102B8000C3038091050184FF3AC0809104018F3F07
:102B9000B1F1C82F893008F0C8E08C1B8093040184
:102BA0008091B30398E889278093B303CC23D1F0B5
:102BB0008091C1039091C20320910F0126FF3FC075
:102BC000A4EBB3E0FC012C2F34913D9331962150BE
:102BD000D9F701962FEF2C0F820F911D9093C2030E
:102BE0008093C1036C2F84EB93E00E944416CC5F6A
:102BF000CC3019F08FEF80930401C093050184E17C
:102C000099B1947131F48150D9F71092C4031092A4
:102C1000BE03DF91CF91089580910F0187FFAFCF61
:102C2000CE010E9401158F3F21F48EE180930501B2
:102C3000A6CF882309F4A3CF10920401A0CFE4EB20
:102C4000F3E0DC012C2F3D9131932150E1F7C1CF0E
:102C5000E9E6F0E0808182608083E89A0895A82FF9
:102C6000B92F80E090E041E050EA609530E009C083
:102C70002D9182279795879510F084279527305EB0
:102C8000C8F36F5FA8F30895EADF8D939D930895CD
:102C9000CF93CFB7CF93DF93C3954C9BE9F74C9B72
:102CA0000BC04C9B09C04C9B07C04C9B05C04C9B68
:102CB00003C04C9B01C089C06F93C091C003DD2746
:102CC000C953DC4F2F9365E54C9B03C02F916F9147
:102CD000E6CF0F931F934F9320E040E15F9309B13C
:102CE000047104FB27F93F9350E03BE039C01471B5
:102CF00040642F77012F5F5F1EC0406819B11471C7
:102D00002F7752501FC0406409B12F770471D1F161
:102D10005F5F00C023C0406219B12F77147191F139
:102D20005F5F00C025C004711027515012F45D5F31
:102D30000000115027952C3F19B1C8F614710127D6
:102D4000015027952C3FC8F64227499309B10471D9
:102D500010274F73115027952C3FA8F6469546959E
:102D600019B1147179F00127015027952C3F98F67D
:102D70006B5A60F3315009B1B0F600C011E01CBBD2
:102D8000002717C03B503195C31BD04011E01CBB3E
:102D90000881033CF9F00B34E9F02091BE0319815E
:102DA000110F1213EDCF093651F10D3211F0013E22
:102DB00039F70093C5033F915F914F911F910F9198
:102DC0002F916F91CCB3C0FD67CFDF91CF91CFBF73
:102DD000CF9118952091C503222369F31091C30365
:102DE000112339F534303AF13093C3032093BF03F4
:102DF0001091C0033BE0311B3093C0031CC0009115
:102E0000C3030130B4F40AE53091050134FD14C068
:102E100000930501C3EBD3E013C0052710E000C009
:102E200000000BB91AC0052710E0221F1DC010E0DA
:102E300021C04AE502C032ED432FC4E1D0E032E0C8
:102E40001AB114615C9A0BB11AB954E120E865E338
:102E500020FF05270BB9279517951C3FF0F66695BF
:102E6000B8F7B1F720FF05270BB9279517951C3F39
:102E7000D0F62795179517FF052700001C3F0BB9C3
:102E8000B0F629913A9519F70B7E1091C403110FF2
:102E9000C651D0400BB911F01093BE0311E01CBB1A
:102EA00000611AB11B7E402F4B7E54E05A95F1F71A
:102EB0000BB91AB94BB97FCF9EE088E10FB6F894F1
:102EC000A895809360000FBE909360000E94281622
:102ED000549A80E0815099F4549878940E94B40BED
:102EE00080EF80936803A8950E9429150E94A8028C
:102EF00080916803803FB9F30E94900DF4CFA895AC
:102F0000EFE9FFE03197F1F700C00000E3CFEE0FEB
:0E2F1000FF1F0590F491E02D0994F894FFCF77
:062F1E0065019703FF5A54
:00000001FF
