:100000000C9476000C94B8010C9493000C9493001B
:100010000C9493000C9493000C9493000C94930014
:100020000C9493000C9493000C9493000C94930004
:100030000C9493000C9493000C9493000C949300F4
:100040000C9493000C9493000C9493000C949300E4
:100050000C9493000C9493000C9493000C949300D4
:100060000C9493000C9493000C9493000C949300C4
:100070000C9493000C9493000C94930009021200CA
:10008000010100806409040000000000000012016A
:100090001001FF000008C016DC050002010200018B
:1000A0001E0349004E004C00200052006500740001
:1000B00072006F002D00500072006F0067002A036D
:1000C00049006E00660069006E00690074006500FA
:1000D0004E00650073004C006900760065007300F7
:1000E0002E0063006F006D000403090411241FBE7D
:1000F000CFEFD4E0DEBFCDBF11E0A0E0B1E0ECED8A
:10010000F5E002C005900D92A230B107D9F721E0C9
:10011000A2E0B1E001C01D92AD32B207E1F70E944A
:10012000CC020C94EC020C94000080E0089580E076
:100130000895CF93DF9360911301635067FD91C0E1
:1001400080911001CCE0D0E0C81BD109C95EDE4F20
:1001500080910F018D3209F0CFC0683009F07FC067
:1001600083EC809303018AE58093010110920201E0
:100170008881807679F0CE010E9495008F3F09F446
:1001800066C09F81911169C09E81981708F065C073
:10019000892F63C02A8110920C01998191110AC0A4
:1001A00010920D012CE031E082E030931201209397
:1001B0001101E7CF953029F4209314012CE031E0B0
:1001C000F4CF963099F59B81913059F48EE890E008
:1001D000909312018093110182E190E490930201C7
:1001E000D0CF923019F48CE790E0F2CF9330A9F79A
:1001F000211108C088EE90E09093120180931101C4
:1002000084E0EBCF213041F48EEB90E0909312012B
:10021000809311018AE2E1CF2230F9F680EA90E082
:1002200090931201809311018EE1D7CF983059F04D
:10023000993019F420931601C1CF81E09A3009F466
:10024000BDCF80E0BBCF26E131E081E0AECF988129
:1002500097FD8E8190E890930201809300011092A7
:1002600013018091010184FF3AC0809100018F3F0A
:10027000B1F1C82F893008F0C8E08C1B80930001D1
:100280008091030198E8892780930301CC23D1F062
:1002900080911101909112012091020126FF3FC02F
:1002A000A4E0B1E0FC012C2F34913D933196215014
:1002B000D9F701962FEF2C0F820F911D9093120109
:1002C000809311016C2F84E091E00E94B401CC5F17
:1002D000CC3019F08FEF80930001C093010184E1CD
:1002E00099B1947131F48150D9F7109214011092A0
:1002F0000E01DF91CF9108958091020187FFAFCF6A
:10030000CE010E9497008F3F21F48EE1809301017E
:10031000A6CF882309F4A3CF10920001A0CFE4E078
:10032000F1E0DC012C2F3D9131932150E1F7C1CF59
:10033000E9E6F0E0808182608083E89A0895A82F42
:10034000B92F80E090E041E050EA609530E009C0CC
:100350002D9182279795879510F084279527305EF9
:10036000C8F36F5FA8F30895EADF8D939D93089516
:10037000CF93CFB7CF93DF93C3954C9BE9F74C9BBB
:100380000BC04C9B09C04C9B07C04C9B05C04C9BB1
:1003900003C04C9B01C089C06F93C0911001DD2741
:1003A000C95EDE4F2F9365E54C9B03C02F916F9183
:1003B000E6CF0F931F934F9320E040E15F9309B185
:1003C000047104FB27F93F9350E03BE039C01471FE
:1003D00040642F77012F5F5F1EC0406819B1147110
:1003E0002F7752501FC0406409B12F770471D1F1AB
:1003F0005F5F00C023C0406219B12F77147191F183
:100400005F5F00C025C004711027515012F45D5F7A
:100410000000115027952C3F19B1C8F6147101271F
:10042000015027952C3FC8F64227499309B1047122
:1004300010274F73115027952C3FA8F646954695E7
:1004400019B1147179F00127015027952C3F98F6C6
:100450006B5A60F3315009B1B0F600C011E01CBB1B
:10046000002717C03B503195C31BD04011E01CBB87
:100470000881033CF9F00B34E9F020910E01198159
:10048000110F1213EDCF093651F10D3211F0013E6B
:1004900039F7009315013F915F914F911F910F9193
:1004A0002F916F91CCB3C0FD67CFDF91CF91CFBFBC
:1004B000CF91189520911501222369F31091130112
:1004C000112339F534303AF13093130120930F01A1
:1004D000109110013BE0311B309310011CC00091C2
:1004E00013010130B4F40AE53091010134FD14C068
:1004F00000930101C3E0D1E013C0052710E000C064
:1005000000000BB91AC0052710E0221F1DC010E023
:1005100021C04AE502C032ED432FC4E1D0E032E011
:100520001AB114615C9A0BB11AB954E120E865E381
:1005300020FF05270BB9279517951C3FF0F6669508
:10054000B8F7B1F720FF05270BB9279517951C3F82
:10055000D0F62795179517FF052700001C3F0BB90C
:10056000B0F629913A9519F70B7E10911401110FED
:10057000C651D0400BB911F010930E0111E01CBB15
:1005800000611AB11B7E402F4B7E54E05A95F1F763
:100590000BB91AB94BB97FCF9EE088E10FB6F8943A
:1005A000A895809360000FBE909360000E94980110
:1005B000549A80E0815041F4549878945198599A13
:1005C000A8950E949900FCCFA895EFE9FFE031972C
:0C05D000F1F700C00000EECFF894FFCF60
:0205DC00FF5AC4
:00000001FF
