:100000000C9476000C94030F0C9493000C949300C2
:100010000C9493000C9493000C9493000C94930014
:100020000C9493000C9493000C9493000C94930004
:100030000C9493000C9493000C9493000C949300F4
:100040000C9493000C9493000C9493000C949300E4
:100050000C9493000C9493000C9493000C949300D4
:100060000C9493000C9493000C9493000C949300C4
:100070000C9493000C9493000C94930009021200CA
:10008000010100806409040000000000000012016A
:100090001001FF000008C016DC050002010200018B
:1000A0001E0349004E004C00200052006500740001
:1000B00072006F002D00500072006F0067002A036D
:1000C00049006E00660069006E00690074006500FA
:1000D0004E00650073004C006900760065007300F7
:1000E0002E0063006F006D000403090411241FBE7D
:1000F000CFEFD4E0DEBFCDBF11E0A0E0B1E0E4E996
:10010000F0E202C005900D92A630B107D9F723E0C6
:10011000A6E0B1E001C01D92AD3DB207E1F70E943B
:1001200017100C9448100C9400000F931F93CF935A
:10013000DF93EC01FB01D9010091490110914A01C3
:10014000888187FF09C08E818C93442399F00481B4
:10015000158180E883831DC08FEF8C938E818093FF
:100160003401442309F44BC0709366036093650324
:1001700080E9F0CFE0912101F09122018381883D57
:10018000A1F50481158180E88383E0912101F0913C
:1001900022011782E0912101F091220183818039AF
:1001A000F1F48A81813711F08034C9F4E09165035C
:1001B000F09166030480F581E02D8C818083E091CD
:1001C0006503F09166030480F581E02D8D818183C4
:1001D000E0916503F091660387818E5F8783C80194
:1001E000DF91CF911F910F910895803D11F41C92E2
:1001F000CCCF8FEF8C9380E10E942D09C6CFE09188
:100200002101F09122018381811106C0F0936603E0
:10021000E093650380E9B8CF883969F7E8CFE5E571
:10022000F1E08FEF819391E0E536F907D9F78093FC
:100230004801809327018093470180932601809392
:10024000380180931401809337018093130181E07A
:100250000C942D09CF93DF93FC0150E0CA01820F6B
:10026000911D4197E4F52223E1F183818F3FD9F578
:1002700082818F3FD1F5DA01AB5ABE4FED0180E0AC
:1002800099919F3FA1F58F5F2813FACF6283138264
:10029000982F9295990F907E915096831782108691
:1002A0001182108211861286138614861586168690
:1002B000178695E0440F551F9A95E1F720910001AC
:1002C00030910101420F531F5583448390E06D9399
:1002D0009F5F8913FCCF80E0DF91CF9108958EEB73
:1002E000FBCF82ECF9CF8FEBF7CF80ECF5CF81EC31
:1002F000F3CFCF93DF93DC01EB019A0112969C912F
:10030000129780ED890F803318F513968C9113970F
:10031000813041F0E8F08230A9F08330B1F085EB14
:10032000888346C0E4E2F1E0913509F476C048F5EF
:10033000913309F449C078F49923B9F19033E1F18C
:1003400084EBEECFE5E3F1E0EFCFE1E1F1E0ECCFDC
:10035000E5E4F1E0E9CF933309F446C0E8F19035E4
:1003600079F7188286E0898386818A8383818B83EB
:1003700087818C8380858D8382818E8387858F831F
:1003800017C0903808F05FC0903708F055C090361D
:1003900079F19136C9F1923599F6188282E0898314
:1003A00080818A8381818B8303C00E940F01188220
:1003B000CE01DF91CF91089514968C9114971596E4
:1003C0009C9191878287F3CF14968C911497159600
:1003D0009C9193878487EBCF14968C9114971596F4
:1003E0009C9195878687E3CF14968C918787DFCF82
:1003F000188281E089831496ED91FC911597EB5A50
:10040000FE4F80818A83D4CF188281E08983E09176
:100410002101F09122018381F5CF188286E0898342
:1004200081858A8382858B8383858C8384858D8374
:1004300085858E838685A3CF40E0BF01CD01DF9106
:10044000CF910C949500892F8770813049F0F8F096
:10045000823001F1833009F062CFE1E1F1E002C0C6
:10046000E4E2F1E0903808F4A3CF9838B0F0905966
:10047000983008F09DCF188213968C91139780873F
:1004800014968D919C9115979183808391CFE5E48B
:10049000F1E0E8CFE5E3F1E0E5CF14964C91149755
:1004A00015966C91159713962C91CF010E942A01F5
:1004B00037CF90914801809127018F3F79F481E0F7
:1004C0009F3F09F480E0909138019F3F09F083E05D
:1004D000909114019F3F09F084E0089582E0F3CFEA
:1004E000623059F421E08534920749F121E08432E9
:1004F000920789F485E491E00EC0633069F421E04D
:1005000085349207E1F021E084329207D9F021E0AE
:100510008533920779F308956430E9F721E0853453
:10052000920769F021E08432920761F021E085337F
:10053000920759F021E08131920769F7DBCF84E21D
:1005400091E0089585E391E0089581E191E00895B7
:100550001F93CF93DF930E943309823D09F071C04E
:100560000E9459028093060185E491E09093220154
:10057000809321010E943309823DA1F4D0910601AC
:100580008091210190912201C1E0CD1708F45FC054
:10059000909322018093210120E8FC01238380EDC8
:1005A0000E942D090E943309823F41F480EF0E948E
:1005B0002D09E0912101F091220113820E9433095B
:1005C000C82F803DE1F48091210190912201FC012E
:1005D00023812038A1F4609106010E94700290935B
:1005E000220180932101FC011782C3830E943F03F3
:1005F000E0912101F0912201882371F183830E940F
:100600003309182F803FC9F4C0912101D0912201F4
:100610008B81883991F460910601CE010E947002AD
:100620009093220180932101FC0113821B83CE0150
:100630000E941D058823C9F08B83DF91CF911F9104
:1006400008950E943309823F09F094CF89CF6D2F1E
:100650000E947002CF5F99CF208580819181820FA7
:10066000911D9183808388EDC9CF84EF8B8328858A
:1006700088819981820F911D99838883DECF0F93A2
:10068000CF93DF93EC01688179818985823111F103
:1006900030F4803169F08131A1F083EC05C0833101
:1006A000D9F08431D1F780E0DF91CF910F91089597
:1006B00060680FEF2E814A818C819D810E949C0889
:1006C00007C00FEF2E814A818C819D810E94D30843
:1006D0008F83E9CF6066EDCF8FEF84B9CB01880FB0
:1006E000892F881F990B919585B95F9A5F9814B8E7
:1006F00060680FEF2E814A818C819D810E94600C81
:10070000E7CF7F928F929F92AF92BF92CF92DF926C
:10071000EF92FF920F931F93CF93DF936A015901DA
:10072000DA011796CC91D0E0E62EF12CFE2CEE24C7
:10073000D60116968C91169790E08C179D0788F439
:100740001796CC9380E0DF91CF911F910F91FF908E
:10075000EF90DF90CF90BF90AF909F908F907F9061
:1007600008956AEA85E595E5F501099565E58AEA62
:100770009AE2F501099560EA85E595E5F5010995A7
:10078000CE0199274C018E289F28D6011496ED9111
:10079000FC911597E80FF91F6081C401F5010995D7
:1007A0000E94E40DC401F8010995782EC401F801F6
:1007B00009957812F5CF2196BBCF7F928F929F92A9
:1007C000AF92BF92CF92DF92EF92FF920F931F935F
:1007D000CF93DF936A015901DA011796CC91D0E0EB
:1007E000E62EF12CFE2CEE24D60116968C9116974F
:1007F00090E08C179D0788F41796CC9380E0DF91EA
:10080000CF911F910F91FF90EF90DF90CF90BF900D
:10081000AF909F908F907F9008956AEA85E595E16B
:10082000F501099565E58AEA9AE0F501099560EA1E
:1008300085E595E1F5010995CE0199274C018E28B2
:100840009F28D6011496ED91FC911597E80FF91F9A
:100850006081C401F50109950E94E40DC401F8010D
:100860000995782EC401F80109957812F5CF2196E3
:10087000BBCF4F925F926F927F928F929F92AF9277
:10088000BF92CF92DF92EF92FF920F931F93CF937D
:10089000DF93662E7A01E901DA0117965C90852CC8
:1008A000912CA8955898000000000000000000005E
:1008B0000000000000006AEA8AEA9AE0F90109955E
:1008C00065E585E595E0FE01099560E28AEA9AE032
:1008D000FE010995712C762C6624D70116968C9111
:1008E000169790E08815990520F517965C9260E9B7
:1008F00080E090E0FE01099560E080E090E0FE017C
:10090000099560EF80E090E0FE010995589A80E03B
:10091000DF91CF911F910F91FF90EF90DF90CF90DB
:10092000BF90AF909F908F907F906F905F904F900F
:10093000089580EA0E94530CC52CD12C5601A6289C
:10094000B728D7011496ED91FC911597EC0DFD1D7C
:100950006081C501FE010995589A00000000000061
:1009600000000000000000000000A8950E94E40DB7
:10097000C501F8010995589800000000000000002A
:100980000000000000000000D7011496ED91FC91DA
:100990001597EC0DFD1D40808415C1F0589A00009C
:1009A0000000000000000000000000000000482ED1
:1009B000C501F8010995589848121BC000000000B5
:1009C000000000000000000000000000D7011496A5
:1009D0008D919C911597C80ED91EF6018081481201
:1009E00029C05394FFEF8F1A9F0A5198599A59982A
:1009F00074CF0000000000000000000000000000B4
:100A000000000000000000000000000000000000E6
:100A100000000000000000000000589A00000000E4
:100A2000000000000000000000000000C501F80107
:100A30000995BDCF519A599A50CF0F931F93AC018E
:100A4000FC01608171819185923159F030F49031CF
:100A500061F0913199F083EC05C09331B9F0943194
:100A6000D1F780E01F910F910895606807ED17E0BE
:100A700028EC37E080E00E948103F3CF0FEF17E00E
:100A800023E138E080E00E94DD03EBCF8FEF84B9F3
:100A9000CB01880F892F881F990B919585B95F9A93
:100AA0005F9814B8606800E11CE021E23CE080E05F
:100AB0000E943904D6CF14B88FEF85B93F9A479872
:100AC00081B911B882B914B885B914B885B9389804
:100AD000409A3998419A3A98429A3C98449A3D985B
:100AE000459A3E98469A53985B9A55985D9A3B98DA
:100AF000439A3F98479A57985F9A509858985198B8
:100B0000599A08950E945B05399A419A389A4098FB
:100B10003A9A429A3C9A449A3D9A459A14B88FEF71
:100B200085B914B885B914B885B93F9A479881B981
:100B300012B884B915B8479A479814B808950E9416
:100B40005B05399A419A3C9A449A3D9A459A589A3B
:100B5000509A14B88FEF85B914B885B914B885B90F
:100B60003F9A479881B912B884B915B8479A4798FF
:100B700014B814B885B9579A5F9884B915B85F9AB4
:100B80005F9814B80895823081F0833061F081302D
:100B9000A1F40898109A1092B20380E290E090932A
:100BA000B1038093B00380E008955098589A88E08C
:100BB0008093B20389E290E0F2CF87E90895813013
:100BC00049F414B88FEF85B9579A5F980E94580678
:100BD00080E0089588E908955898509A000089B1F6
:100BE0005098589880FD22C05098589A59B149B1F0
:100BF000000039B10000000029B100000000000031
:100C000099B1000000000000000089B15098589888
:100C100050FD0EC040FD0EC030FD0EC020FD0EC0C8
:100C200090FD0EC080FD0EC080EE089580EF089507
:100C300080E0089581E0089583E0089586E00895B6
:100C40008AE008958FE008950F931F93CF93C82FE4
:100C5000842F8901C230F9F030F4CC2389F0C130FF
:100C6000B1F0C6E90FC0C430F1F0C0F0C038C9F728
:100C700081E0F90180830E94EC05F801818309C0BD
:100C80000E945B058C2FCF911F910F9108950E94B8
:100C90008205C0E0F7CF0E949F05FBCFCF911F9147
:100CA0000F910C94C305CF911F910F910C94DF0508
:100CB000109210018FEF84B915B85F9A5F9814B83D
:100CC0005098589A80E88093680310927603E7E77B
:100CD000F3E0119283E0E739F807D9F708956091BE
:100CE0007603813109F441C0109210019FEF94B94D
:100CF0009091100195B95F9A5F9814B820E070E068
:100D00003FEF8032C9F4E72FF0E0E958FC4F408113
:100D100050E0022E02C0559547950A94E2F740FF35
:100D200028C092E034B995B95F9A5F9814B82F5FE4
:100D3000283011F47F5F20E0492F446034B945B971
:100D40005F9A5F9814B8615034B995B95F9A5F980B
:100D500014B86111D6CF909310014093230134B998
:100D600015B85F9A5F9814B8089592E090931001B7
:100D7000BDCF90E0D7CF0F931F93CF93DF934091D8
:100D8000760310917703813109F461C0109210014C
:100D90009FEF94B99091100195B95F9A5F9814B83C
:100DA00020E030E05FEFA1E0B0E0803281F4E12F9D
:100DB000F0E0022E02C0F595E7950A94E2F7E0FF15
:100DC0004AC0916054B995B95F9A5F9814B860327F
:100DD000B1F4211105C0E32FF0E0E958FC4F108277
:100DE000489B0DC0E32FF0E0E958FC4F7081ED0106
:100DF000022E01C0CC0F0A94EAF77C2B7083792F66
:100E0000746054B975B95F9A5F9814B8415054B979
:100E100095B95F9A5F9814B82F5F283039F43F5F17
:100E2000E32FF0E0E958FC4F108120E04111BDCFE5
:100E300090931001709323018FEF84B915B85F9AD6
:100E40005F9814B8DF91CF911F910F91089591E0B1
:100E5000909310019DCF9E7FB5CF8091680383381A
:100E600001F5809169038630A9F188F4823019F187
:100E700020F48130C9F08EEE12C0833011F184303D
:100E8000D1F781E88093680360E281E11FC0883078
:100E900059F128F1803831F08F3F69F780EF809366
:100EA000680308950C94580681E88093680380E2F3
:100EB0000E946F060DC081E88093680360E080E2C5
:100EC00005C081E88093680360E280E10E94BB0670
:100ED00082E8E5CF81E88093680360E2F0CF81E8A3
:100EE0008093680380E1E4CF81E88093680381E127
:100EF000DFCFCF93DF93E901843061F138F48230A2
:100F0000E1F008F58130A1F087E80FC0873039F1B2
:100F100028F48530C9F74093760306C0883021F164
:100F2000803891F70E94580680E0DF91CF910895B4
:100F30009091690399838883F7CF4093690383E88D
:100F400080936803F1CF4093690383E8809368033B
:100F50000E942D0780916803898381E0ECCF409344
:100F6000770350937803E0CF809177038983809152
:100F700078038A83809179038B8380917A038C83B1
:100F800080917B038D8380917C038E8386E0D3CF19
:100F900082B98FEF84B995B9479A479814B884B944
:100FA00065B9509A58985098589A14B8089582B9CB
:100FB0002FEF24B995B9479A479814B8409A97FDEE
:100FC0004198000000000000000083B14098419A61
:100FD00008955098589882B92FEF24B995B9479A37
:100FE000479814B8429824B965B9409A97FD41983A
:100FF000000000004098419A429A14B80895811563
:1010000020E2920708F4906882B98FEF84B995B90D
:10101000479A479814B84498000000000000000068
:1010200083B1449A0895811520E2920708F49068EC
:1010300082B98FEF84B995B9479A479814B884B9A3
:1010400065B9000045980000459A14B808958FEFDF
:1010500084B994E095B9479A479814B829B1207299
:1010600030E084B988E085B9479A479814B889B1C7
:10107000807290E041E02115310509F040E061E027
:10108000009709F060E0442311F0611116C051E0AF
:10109000232B09F450E021E0892B09F420E05523AB
:1010A00011F021110CC0662311F051110AC0442324
:1010B00011F0211108C08FEF089580E1089581E1BA
:1010C000089582E1089583E108950F931F93CF93CC
:1010D000C82FCA018901C23001F130F4CC2391F04C
:1010E000C130B9F0C0EA10C0C238D1F0C338F1F055
:1010F000C138C1F721E0F80120830E94D707F80129
:10110000818309C00E94C8078C2FCF911F910F9136
:1011100008950E941308C0E0F7CF0E94E907FBCFB3
:1011200021E0F80120830E94FF07E9CF81E0F90167
:1011300080830E942708E3CFEF92FF920F93CF9313
:10114000DF9300D01F92CDB7DEB77C018FEF84B95B
:1011500065B9479A479814B8409A67FD419842B9D3
:1011600080E0011117C00000000093B1F701E80F03
:10117000F11D90834F5F42B98F5F281790F7409819
:10118000419A0F900F900F90DF91CF910F91FF90A8
:10119000EF9008952B834A8389830E94E40D89810F
:1011A0004A812B81E2CFEF92FF920F93CF93DF938F
:1011B00000D01F92CDB7DEB77C01603208F46068C2
:1011C0008FEF84B965B9479A479814B8449842B9E3
:1011D00080E0011116C00000000093B1F701E80F94
:1011E000F11D90834F5F42B98F5F281790F7449AA3
:1011F0000F900F900F90DF91CF910F91FF90EF9094
:1012000008952B834A8389830E94E40D89814A8152
:101210002B81E3CFCF93DF93FB01DC0112962C915E
:10122000222329F0203479F082ED808308C01082D7
:10123000A0910201B0910301EC018C818C93CF014C
:10124000DF91CF910895108281E08183A091020106
:10125000B09103018C918283F2CFE0910201F09171
:10126000030180830895E0910201F09103018081E0
:1012700008950F931F93D901082F10E0083111052D
:1012800008F0C2C2F801E95BF64F0C9442108109E4
:101290005F09BC09170A630AAF0AFB0AA60BAB0B6E
:1012A000B00BB30BB70BBA0BC20BCA0BCE0BD10BE7
:1012B000D50BDE0BE50BE90BF10BF80BFC0B463104
:1012C000510508F0A3C2FA01E859F64F0C944210F8
:1012D0007E09840988098C099009940998099C0958
:1012E000A009A409A809AC09B009B409060C060CA8
:1012F000060C060C060C060C060CB8093898409A29
:1013000080E01F910F9108953998419A80E0F9CFBC
:101310003A98429A80E0F5CF3B98439A80E0F1CF2B
:101320003C98449A80E0EDCF3D98459A80E0E9CF23
:101330003E98469A80E0E5CF3F98479A80E0E1CF1B
:101340005098589A80E0DDCF5198599A80E0D9CFD3
:1013500053985B9A80E0D5CF55985D9A80E0D1CFC5
:1013600056985E9A80E0CDCF57985F9A80E0C9CFBB
:101370005098589A80E0C5CF4631510508F048C2D0
:10138000FA01EB53F64F0C944210DB09DF09E30935
:10139000E709EB09EF09F309F709FB09FF09030A5C
:1013A000070A0B0A0F0A080C080C080C080C080C9A
:1013B000080C080C130A3898409880E0A2CF39989E
:1013C000419880E09ECF3A98429880E09ACF3B982F
:1013D000439880E096CF3C98449880E092CF3D9827
:1013E000459880E08ECF3E98469880E08ACF3F981F
:1013F000479880E086CF5098589880E082CF5198E7
:10140000599880E07ECF53985B9880E07ACF5598CA
:101410005D9880E076CF56985E9880E072CF5798BE
:101420005F9880E06ECF5098589880E06ACF463140
:10143000510508F0EFC1FA01E05EF54F0C9442103F
:10144000360A390A3C0A3F0A420A450A480A4B0A48
:101450004E0A510A540A570A5A0A5D0A0A0C0A0C23
:101460000A0C0A0C0A0C0A0C0A0C600A389A80E072
:1014700048CF399A80E045CF3A9A80E042CF3B9AF4
:1014800080E03FCF3C9A80E03CCF3D9A80E039CF6E
:101490003E9A80E036CF3F9A80E033CF509A80E08A
:1014A00030CF519A80E02DCF539A80E02ACF559AC1
:1014B00080E027CF569A80E024CF579A80E021CF52
:1014C000509A80E01ECF4631510508F0A5C1FA01BF
:1014D000E459F54F0C944210820A850A880A8B0A57
:1014E0008E0A910A940A970A9A0A9D0AA00AA30AE8
:1014F000A60AA90A0C0C0C0C0C0C0C0C0C0C0C0CF9
:101500000C0CAC0A409880E0FCCE419880E0F9CE0B
:10151000429880E0F6CE439880E0F3CE449880E095
:10152000F0CE459880E0EDCE469880E0EACE479830
:1015300080E0E7CE589880E0E4CE599880E0E1CE94
:101540005B9880E0DECE5D9880E0DBCE5E9880E048
:10155000D8CE5F9880E0D5CE589880E0D2CE463184
:10156000510508F05BC1FA01E854F54F0C944210A4
:10157000CE0AD10AD40AD70ADA0ADD0AE00AE30A57
:10158000E60AE90AEC0AEF0AF20AF50A0E0C0E0C5A
:101590000E0C0E0C0E0C0E0C0E0CF80A409A80E08D
:1015A000B0CE419A80E0ADCE429A80E0AACE439A76
:1015B00080E0A7CE449A80E0A4CE459A80E0A1CEF8
:1015C000469A80E09ECE479A80E09BCE589A80E073
:1015D00098CE599A80E095CE5B9A80E092CE5D9A43
:1015E00080E08FCE5E9A80E08CCE5F9A80E089CEDC
:1015F000589A80E086CE82E08C934631510508F0FF
:10160000A2C0FA01EA5FF44F0C9442101C0B250BA8
:101610002E0B370B400B490B520B5B0B640B6D0B06
:10162000760B7F0B880B910BA30BA30BA30BA30BC8
:10163000A30BA30BA30B9A0B86B1817011968C930D
:10164000119712961C9280E05CCE86B1827090E079
:1016500012969C938E93119780E053CE86B184703E
:1016600090E012969C938E93119780E04ACE86B1BB
:10167000887090E012969C938E93119780E041CEF3
:1016800086B1807190E012969C938E93119780E0C2
:1016900038CE86B1807290E012969C938E9311970B
:1016A00080E02FCE86B1807490E012969C938E934A
:1016B000119780E026CE86B1807890E012969C93B8
:1016C0008E93119780E01DCE89B1817011968C9315
:1016D000119712961C9280E014CE89B1827090E02E
:1016E00012969C938E93119780E00BCE89B18870EF
:1016F00090E012969C938E93119780E002CE89B170
:10170000807290E012969C938E93119780E0F9CDB1
:1017100089B1807490E012969C938E93119780E02B
:10172000F0CD89B1807890E012969C938E931197BA
:1017300080E0E7CD89B1817011968C931197129654
:101740001C9280E0DECD1C928DE8DBCD14B88FEFCB
:1017500085B980E0D6CD14B88FEF85B980E0D1CDC2
:1017600014B880E0CECD8FEF84B980E0CACD45B902
:1017700080E0C7CD83B111968C93119781E08C9353
:1017800080E0BFCD14B88FEF85B93F9A479881B9F3
:1017900080E0B7CD8FEF82B980E0B3CD11B880E0A3
:1017A000B0CD8FEF81B980E0ACCD42B98FEF84B975
:1017B00055B9479A479814B880E0A3CD14B88FEF75
:1017C00085B9579A5F9880E09CCD57985F9A80E0E2
:1017D00098CD8FEF84B945B95F9A5F9814B880E0CF
:1017E00090CD14B88FEF85B9579A5F9880E089CD76
:1017F00057985F9A80E085CD8FEF84B945B95F9A9D
:101800005F9814B880E07DCD8CE87BCD8DE879CDF4
:101810008DE877CD8DE875CD8DE873CD8DE871CDF0
:1018200082B98FEF84B995B9479A479814B841980F
:101830004498000000000000000083B1449A419ADF
:10184000089582B98FEF84B995B9479A479814B82B
:1018500084B965B945984198000000000000000077
:10186000459A419A14B80895CF93DF93952FE901D3
:10187000813099F020F0823059F08AEA06C09FEF5B
:1018800094B945B95F9A5F9814B8DF91CF910895E4
:10189000842F0E94210C80E0F8CF8883842F0E943F
:1018A000100C8983F8CF9FEF94B985B9459841987A
:1018B0000000000000000000459A419A14B8089505
:1018C000EF92FF920F93CF93DF9300D01F92CDB78B
:1018D000DEB77C018FEF84B965B9479A479814B891
:1018E0004498419842B980E0011119C000000000FD
:1018F0000000000093B1F701E80FF11D90834F5FE6
:1019000042B98F5F281780F7449A419A0F900F9041
:101910000F90DF91CF910F91FF90EF9008952B835F
:101920004A8389830E94E40D000000000000898141
:101930004A812B81DFCF880F991F880F991F20E0E4
:1019400030E02817390709F40895000000002F5FE0
:101950003F4FF7CF20E030E02817390709F408950A
:10196000000000002F5F3F4FF7CFCF93DF9380E160
:1019700090E00E949B0CC4E0D0E084EF91E00E94D4
:101980009B0C84EF91E00E949B0C2197B1F7C4E07F
:10199000D0E08AEF90E00E949B0C8AEF90E00E94DA
:1019A0009B0C2197B1F7DF91CF91089580E190E0F2
:1019B0000C949B0CCF93DF931F92CDB7DEB7F90148
:1019C000813171F038F48130C1F078F08230C9F0A3
:1019D00082E80FC08132A9F0823299F08231C1F7DA
:1019E00082E08083128211820AC089830E94B50C32
:1019F00089810F90DF91CF9108950E94D60C80E0ED
:101A0000F8CF81E080831182FACF482F90E0982FA1
:101A1000882720E0411103C0211180680895209596
:101A20003FEF340F4323F6CF80E090E0089580E04D
:101A3000089560E070E0CB010895CF93DF931F928B
:101A4000CDB7DEB7DC018FEF80930701109208015C
:101A500087E091E09093C2038093C10316968C9126
:101A6000169789831196EC9111974E2F50E0FA0149
:101A70003197E930F10508F07DC0EF5BF24F0C942F
:101A800042104A0D5A0D680D760DA00DBA0DB10D1C
:101A9000840D920D14964D915C91159728E031E0DC
:101AA00013966C91139712968C910E94390980932A
:101AB000070152C014964D915C91159728E031E0D2
:101AC00013966C91139712968C910E942406EFCF77
:101AD00014964D915C91159728E031E013966C9126
:101AE000139712968C910E946508E1CF14964D9140
:101AF0005C91159728E031E013966C91139712963C
:101B00008C910E94340CD3CF14964D915C91159713
:101B100028E031E013966C91139712968C910E94F5
:101B2000DA0CC5CF14964D915C91159728E031E001
:101B300013966C91139712968C910E947907B7CFE8
:101B4000AE014F5F5F4F67E071E0CD010E94790108
:101B50009093C2038093C10389810F90DF91CF914D
:101B60000895AE014F5F5F4F67E071E0CD010E94C5
:101B70000A09EECF80E89BCFE0916503F091660300
:101B8000278144815581322F360F231312C0E091F3
:101B90006503F09166038781860F87838091340106
:101BA000861B8093340181110DC088E9838381E015
:101BB0000895FC017191CF01FA01E20FF11D7083CC
:101BC0002F5FE3CF80E00895CF93DF936091C3034D
:101BD000635067FD91C08091C003CCE0D0E0C81B8A
:101BE000D109C953DC4F8091BF038D3209F0CFC0BA
:101BF000683009F07FC083EC8093B3038AE580935B
:101C0000050110920F018881807679F0CE010E9443
:101C10001D0D8F3F09F466C09F81911169C09E819F
:101C2000981708F065C0892F63C02A811092BC0301
:101C3000998191110AC01092BD032CEB33E082E030
:101C40003093C2032093C103E7CF953029F420934A
:101C5000C4032CEB33E0F4CF963099F59B8191309F
:101C600059F48EE890E09093C2038093C10382E11F
:101C700090E490930F01D0CF923019F48CE790E06C
:101C8000F2CF9330A9F7211108C088EE90E090932D
:101C9000C2038093C10384E0EBCF213041F48EEB8B
:101CA00090E09093C2038093C1038AE2E1CF223097
:101CB000F9F680EA90E09093C2038093C1038EE12D
:101CC000D7CF983059F0993019F42093C603C1CF7B
:101CD00081E09A3009F4BDCF80E0BBCF26EC33E041
:101CE00081E0AECF988197FD8E8190E890930F01AF
:101CF000809304011092C3038091050184FF3AC0D0
:101D0000809104018F3FB1F1C82F893008F0C8E0FD
:101D10008C1B809304018091B30398E889278093FA
:101D2000B303CC23D1F08091C1039091C2032091E1
:101D30000F0126FF3FC0A4EBB3E0FC012C2F349130
:101D40003D9331962150D9F701962FEF2C0F820F3A
:101D5000911D9093C2038093C1036C2F84EB93E099
:101D60000E94FF0ECC5FCC3019F08FEF80930401FE
:101D7000C093050184E199B1947131F48150D9F790
:101D80001092C4031092BE03DF91CF910895809109
:101D90000F0187FFAFCFCE010E94BC0D8F3F21F412
:101DA0008EE180930501A6CF882309F4A3CF10927A
:101DB0000401A0CFE4EBF3E0DC012C2F3D91319343
:101DC0002150E1F7C1CFE9E6F0E0808182608083B5
:101DD000E89A0895A82FB92F80E090E041E050EAFA
:101DE000609530E009C02D9182279795879510F076
:101DF00084279527305EC8F36F5FA8F30895EADF64
:101E00008D939D930895CF93CFB7CF93DF93C395D1
:101E10004C9BE9F74C9B0BC04C9B09C04C9B07C0EB
:101E20004C9B05C04C9B03C04C9B01C089C06F9369
:101E3000C091C003DD27C953DC4F2F9365E54C9B50
:101E400003C02F916F91E6CF0F931F934F9320E024
:101E500040E15F9309B1047104FB27F93F9350E01F
:101E60003BE039C0147140642F77012F5F5F1EC0C3
:101E7000406819B114712F7752501FC0406409B1E6
:101E80002F770471D1F15F5F00C023C0406219B1A8
:101E90002F77147191F15F5F00C025C00471102786
:101EA000515012F45D5F0000115027952C3F19B17D
:101EB000C8F614710127015027952C3FC8F6422718
:101EC000499309B1047110274F73115027952C3F86
:101ED000A8F64695469519B1147179F0012701507D
:101EE00027952C3F98F66B5A60F3315009B1B0F644
:101EF00000C011E01CBB002717C03B503195C31B2D
:101F0000D04011E01CBB0881033CF9F00B34E9F030
:101F10002091BE031981110F1213EDCF093651F133
:101F20000D3211F0013E39F70093C5033F915F91E7
:101F30004F911F910F912F916F91CCB3C0FD67CF3F
:101F4000DF91CF91CFBFCF9118952091C503222368
:101F500069F31091C303112339F534303AF130930A
:101F6000C3032093BF031091C0033BE0311B3093A8
:101F7000C0031CC00091C3030130B4F40AE53091E2
:101F8000050134FD14C000930501C3EBD3E013C079
:101F9000052710E000C000000BB91AC0052710E0AB
:101FA000221F1DC010E021C04AE502C032ED432FC0
:101FB000C4E1D0E032E01AB114615C9A0BB11AB9F5
:101FC00054E120E865E320FF05270BB92795179515
:101FD0001C3FF0F66695B8F7B1F720FF05270BB95F
:101FE000279517951C3FD0F62795179517FF0527BE
:101FF00000001C3F0BB9B0F629913A9519F70B7EFA
:102000001091C403110FC651D0400BB911F01093B9
:10201000BE0311E01CBB00611AB11B7E402F4B7E3A
:1020200054E05A95F1F70BB91AB94BB97FCF9EE03E
:1020300088E10FB6F894A895809360000FBE909346
:1020400060000E94E30E549A80E0815099F4549805
:1020500078940E945B0580EF80936803A8950E94A6
:10206000E40D0E94A80280916803803FB9F30E94AA
:102070002D07F4CFA895EFE9FFE03197F1F700C005
:102080000000E3CFEE0FFF1F0590F491E02D0994BF
:04209000F894FFCFF2
:0620940065019703FF5AED
:00000001FF
