:100000000C9476000C9422170C9493000C9493009B
:100010000C9493000C9493000C9493000C94930014
:100020000C9493000C9493000C9493000C94930004
:100030000C9493000C9493000C9493000C949300F4
:100040000C9493000C9493000C9493000C949300E4
:100050000C9493000C9493000C9493000C949300D4
:100060000C9493000C9493000C9493000C949300C4
:100070000C9493000C9493000C94930009021200CA
:10008000010100806409040000000000000012016A
:100090001001FF000008C016DC050102010200018A
:1000A0001E0349004E004C00200052006500740001
:1000B00072006F002D00500072006F0067002A036D
:1000C00049006E00660069006E00690074006500FA
:1000D0004E00650073004C006900760065007300F7
:1000E0002E0063006F006D000403090411241FBE7D
:1000F000CFEFD4E0DEBFCDBF11E0A0E0B1E0E2ED94
:10010000F0E302C005900D92A630B107D9F723E0C5
:10011000A6E0B1E001C01D92A13EB207E1F70E9446
:1001200036180C9467180C94000080E00895089528
:100130000F931F93CF93DF93EC01FB01D901009143
:100140004D0110914E01888187FF09C08E818C93EB
:10015000442399F00481158180E883831DC08FEFCB
:100160008C938E8180933801442309F44BC07093A3
:100170006A036093690380E9F0CFE0912501F09173
:1001800026018381883DA1F50481158180E8838360
:10019000E0912501F09126011782E0912501F0916F
:1001A000260183818039F1F48A81813711F080340E
:1001B000C9F4E0916903F0916A030480F581E02DB0
:1001C0008C818083E0916903F0916A030480F5815A
:1001D000E02D8D818183E0916903F0916A0387812D
:1001E0008E5F8783C801DF91CF911F910F91089592
:1001F000803D11F41C92CCCF8FEF8C9380E10E9454
:10020000D810C6CFE0912501F0912601838181119C
:1002100006C0F0936A03E093690380E9B8CF883998
:1002200069F7E8CFE9E5F1E08FEF819391E0E936F6
:10023000F907D9F780934C0180932B0180934B01F0
:1002400080932A0180933C018093180180933B01A5
:100250008093170181E00C94D810CF93DF93FC01B9
:1002600050E0CA01820F911D4197E4F52223E1F18C
:1002700083818F3FD9F582818F3FD1F5DA01A75A6B
:10028000BE4FED0180E099919F3FA1F58F5F28134C
:10029000FACF62831382982F9295990F907E915096
:1002A0009683178210861182108211861286138619
:1002B000148615861686178695E0440F551F9A9565
:1002C000E1F72091000130910101420F531F558346
:1002D000448390E06D939F5F8913FCCF80E0DF91B2
:1002E000CF9108958EEBFBCF82ECF9CF8FEBF7CF58
:1002F00080ECF5CF81ECF3CFCF93DF93DC01EB0102
:100300009A0112969C91129780ED890F803318F50F
:1003100013968C911397813041F0E8F08230A9F068
:100320008330B1F085EB888346C0E8E2F1E0913597
:1003300009F476C048F5913309F449C078F499235B
:10034000B9F19033E1F184EBEECFE9E3F1E0EFCFE7
:10035000E5E1F1E0ECCFE9E4F1E0E9CF933309F432
:1003600046C0E8F1903579F7188286E08983868166
:100370008A8383818B8387818C8380858D8382812F
:100380008E8387858F8317C0903808F05FC09037C1
:1003900008F055C0903679F19136C9F1923599F649
:1003A000188282E0898380818A8381818B8303C064
:1003B0000E9412011882CE01DF91CF910895149608
:1003C0008C91149715969C9191878287F3CF149600
:1003D0008C91149715969C9193878487EBCF1496F4
:1003E0008C91149715969C9195878687E3CF1496E8
:1003F0008C918787DFCF188281E089831496ED91F5
:10040000FC911597E75AFE4F80818A83D4CF1882DA
:1004100081E08983E0912501F09126018381F5CF68
:10042000188286E0898381858A8382858B83838590
:100430008C8384858D8385858E838685A3CF40E0DC
:10044000BF01CD01DF91CF910C949800892F877067
:10045000813049F0F8F0823001F1833009F062CF49
:10046000E5E1F1E002C0E8E2F1E0903808F4A3CF62
:100470009838B0F09059983008F09DCF18821396B4
:100480008C911397808714968D919C9115979183E9
:10049000808391CFE9E4F1E0E8CFE9E3F1E0E5CF53
:1004A00014964C91149715966C91159713962C9160
:1004B000CF010E942D0137CF90914C0180912B01EB
:1004C0008F3F79F481E09F3F09F480E090913C01F7
:1004D0009F3F09F083E0909118019F3F09F084E06D
:1004E000089582E0F3CF623059F421E08934920715
:1004F00049F121E08832920789F489E491E00EC045
:10050000633069F421E089349207E1F021E0883218
:100510009207D9F021E08933920779F30895643086
:10052000E9F721E08934920769F021E088329207E7
:1005300061F021E08933920759F021E0853192077B
:1005400069F7DBCF88E291E0089589E391E00895AF
:1005500085E191E008951F93CF93DF930E94DE1011
:10056000823D09F071C00E945C028093060189E41B
:1005700091E090932601809325010E94DE10823D38
:10058000A1F4D09106018091250190912601C1E04E
:10059000CD1708F45FC0909326018093250120E8D1
:1005A000FC01238380ED0E94D8100E94DE10823F60
:1005B00041F480EF0E94D810E0912501F0912601CE
:1005C00013820E94DE10C82F803DE1F48091250146
:1005D00090912601FC0123812038A1F4609106014D
:1005E0000E9473029093260180932501FC011782DB
:1005F000C3830E944403E0912501F09126018823E2
:1006000071F183830E94DE10182F803FC9F4C091DE
:100610002501D09126018B81883991F460910601E2
:10062000CE010E9473029093260180932501FC0164
:1006300013821B83CE010E942C0A8823C9F08B836E
:10064000DF91CF911F9108950E94DE10823F09F043
:1006500094CF89CF6D2F0E947302CF5F99CF2085F1
:1006600080819181820F911D9183808388EDC9CF14
:1006700084EF8B83288588819981820F911D9983CE
:100680008883DECF88E80895EF92FF920F931F933F
:10069000CF93DF93EC01E880F9801E2D89858231AC
:1006A00009F4F8C068F4803191F0813109F490C008
:1006B00083ECDF91CF911F910F91FF90EF90089500
:1006C000833109F4EAC0843199F780E0F2CF8D8557
:1006D000813091F441E060E180E090E80E943B10BD
:1006E000B701B6E076956795BA95E1F76F7040E08F
:1006F00080E090EE0E943B108D858330A9F41E2D82
:100700001F7B68817981A6E076956795AA95E1F7C8
:10071000CB019927875992400E94F10E612F6068A2
:100720000FEF2E814A8141C08E3161F41E2D1F7B57
:1007300068817981F6E076956795FA95E1F780E032
:1007400090ECEACF823211F08B3069F468817981C4
:10075000660F672F661F770B7195CB0199278C5613
:1007600091090E94F10E8D858C31B1F408811981B7
:10077000000F012F001F110B119561E880E090E53B
:100780000E94F10E602F80E090E80E94F10E60E080
:1007900080E090E50E94F10E8D851E2D8F3151F085
:1007A00010680FEF2E814A81612F8C819D810E94FC
:1007B000920F6EC01F7810686881798144E0769549
:1007C00067954A95E1F780E090E50E94F10EE9CF48
:1007D0008D85811109C00FEF2E814A816E2D8C818C
:1007E0009D810E94CA0F8F838D858B30C1F46881F3
:1007F000798135E0769567953A95E1F76295607F66
:100800008FEF9FEF0E94F10E1E2D1F710FEF2E81B3
:100810004A81612F8C819D810E94CA0F8F838D85B3
:100820008E3FA9F46881798125E0769567952A95B0
:10083000E1F78FEF9FE30E941B0F1F710FEF2E81D7
:100840004A81612F8C819D810E9402108F838D854A
:10085000813009F03ACFE880F98094E0F694E7948B
:100860009A95E1F741E060E180E090E80E943B105A
:100870006E2D6F7140E080E090EA0E943B10612F86
:100880006F700FEF2E814A818C819D810E94CA0F6B
:100890008F831BCF6E2D606643CF8D85811117C06E
:1008A0001E2D1068EE0CEF2CEE1CFF08F1946E2D3F
:1008B0008FEF84B965B95F9A5F9814B80FEF2E81F6
:1008C0004A81612F8C819D810E942514E1CF813066
:1008D00079F76F2D6F736064EBCF3F924F925F9209
:1008E0006F927F928F929F92AF92BF92CF92DF9240
:1008F000EF92FF920F931F93CF93DF934A01390139
:10090000D8011796CC91D0E0462E512C542C44247B
:10091000D80116968C91169790E08C179D07A8F435
:100920001796CC9380E0DF91CF911F910F91FF90AC
:10093000EF90DF90CF90BF90AF909F908F907F907F
:100940006F905F904F903F9008956AEAC401F7015D
:10095000099565E5C301F701099560EAC401F7014E
:100960000995CE0199275C01A428B528D8011496D1
:10097000ED91FC911597E80FF91F6081C501F70112
:1009800009950E940316C501F6010995382EC50187
:10099000F60109953812F5CF2196BACF2F923F92E2
:1009A0004F925F926F927F928F929F92AF92BF927F
:1009B000CF92DF92EF92FF920F931F93CF93DF932B
:1009C000CDB7DEB727970FB6F894DEBF0FBECDBF09
:1009D000582E4A013C832B831F830E83D801179620
:1009E0004C90042D10E070E0F62FEE27FA83E98397
:1009F000252C312CF7E92F1AF2E03F0AAE81BF8196
:100A000016968C91169790E080179107E0F4179650
:100A10004C9280E027960FB6F894DEBF0FBECDBF94
:100A2000DF91CF911F910F91FF90EF90DF90CF90CA
:100A3000BF90AF909F908F907F906F905F904F90FE
:100A40003F902F90089560E089E69DEF0E94F10E9F
:100A50006AEAC401F701099565E58B819C81F7017C
:100A6000099560EAC401F7010995652DC1010E944D
:100A7000F10E642C712CA980BA80A628B728AE810B
:100A8000BF811496ED91FC911597E60DF71D6081DD
:100A9000C501F70109950E940316C501F6010995E4
:100AA000282FC5012D83F60109952D812813F3CF39
:100AB000AE81BF8114968D919C911597680E791E19
:100AC000F3018081281307C043940F5F1F4F519893
:100AD000599A599893CF519A599A90CF2F923F9201
:100AE0004F925F926F927F928F929F92AF92BF923E
:100AF000CF92DF92EF92FF920F931F93CF93DF93EA
:100B000000D000D01F92CDB7DEB7382E4A012901A0
:100B10001D830C83D80117962C90022D10E070E0F5
:100B2000F62FEE27FA83E983AC81BD8116968C916E
:100B3000169790E080179107D8F417962C9280E0D2
:100B40000F900F900F900F900F90DF91CF911F910A
:100B50000F91FF90EF90DF90CF90BF90AF909F905C
:100B60008F907F906F905F904F903F902F9008955F
:100B700061E080E090EC0E94F10E6AEAC401F701A6
:100B8000099560E080E090EC0E94F10E65E5C201FD
:100B9000F701099561E080E090EC0E94F10E60EAB7
:100BA000C401F7010995632D80E090EC0E94F10EDD
:100BB000622C712CA980BA80A628B728AC81BD818F
:100BC0001496ED91FC911597E60DF71D6081C50116
:100BD000F70109950E940316C501F6010995282F12
:100BE000C5012B83F60109952B812813F3CFAC8126
:100BF000BD8114968D919C911597680E791EF30115
:100C00008081281307C023940F5F1F4F5198599A72
:100C100059988ACF519A599A87CF2F923F924F92E3
:100C20005F926F927F928F929F92AF92BF92CF927C
:100C3000DF92EF92FF920F931F93CF93DF9300D039
:100C400000D01F92CDB7DEB7582E4A0119011D837F
:100C50000C83D80117964C90042D10E070E0F62F0D
:100C6000EE27FA83E983AC81BD8116968C911697A5
:100C700090E080179107D8F417964C9280E00F907F
:100C80000F900F900F900F90DF91CF911F910F91C8
:100C9000FF90EF90DF90CF90BF90AF909F908F909C
:100CA0007F906F905F904F903F902F90089540E01D
:100CB00060E180E090E80E943B106AEAC401F7011D
:100CC000099565E5C101F701099560EAC401F701DD
:100CD0000995A42CB12C69807A806A287B28AC8184
:100CE000BD811496ED91FC911597EA0DFB1D608175
:100CF000C301F701099541E060E180E090E80E94BE
:100D00003B1040E0652D80E090EE0E943B100E9479
:100D10000316C301F6010995282FC3012B83F601A1
:100D200009952B812813F3CFAC81BD8114968D9149
:100D30009C911597A80EB91EF5018081281307C054
:100D400043940F5F1F4F5198599A59988CCF41E0A7
:100D500060E180E090E80E943B1040E0652D80E07B
:100D600090EE0E943B10519A599A7DCF3F924F923C
:100D70005F926F927F928F929F92AF92BF92CF922B
:100D8000DF92EF92FF920F931F93CF93DF93482E42
:100D9000662E7A01E901DA0117965C90A52CB12C38
:100DA0006AEA8AEA9AE8F901099565E585E595E830
:100DB000FE01099560E28AEA9AE8FE010995712C24
:100DC000762C6624D70116968C91169790E08A159A
:100DD0009B0520F517965C9260E980E090E8FE01A3
:100DE000099560E080E090E8FE01099560EF80E001
:100DF00090E8FE01099580E0DF91CF911F910F915E
:100E0000FF90EF90DF90CF90BF90AF909F908F902A
:100E10007F906F905F904F903F90089564E580E0E1
:100E200090E50E94F10E852C912C6401C628D728EC
:100E300060EAC601FE010995D7011496ED91FC9177
:100E40001597E80DF91D6081C601FE0109950E9404
:100E50000316C601F8010995382EC601F801099557
:100E60003812F5CFD70114968D919C911597880E65
:100E7000991EF4018081381208C05394FFEFAF1A15
:100E8000BF0A5198599A59989DCF61E880E090E542
:100E90000E94F10E642D80E090E80E94F10E64E55E
:100EA00080E090E50E94F10E519A599A8BCF4F92B3
:100EB0005F926F927F928F929F92AF92BF92CF92EA
:100EC000DF92EF92FF920F931F93CF93DF93662EE3
:100ED0007A01E901DA0117965C90A52CB12C6AEA37
:100EE0008AEA9AE8F901099565E585E595E8FE0144
:100EF000099560E28AEA9AE8FE010995712C762C40
:100F00006624D70116968C91169790E08A159B055A
:100F100018F517965C9260E980E090E8FE0109956B
:100F200060E080E090E8FE01099560EF80E090E8E5
:100F3000FE01099580E0DF91CF911F910F91FF9005
:100F4000EF90DF90CF90BF90AF909F908F907F9069
:100F50006F905F904F900895852C912C6401C62866
:100F6000D72860EAC601FE010995D7011496ED91D4
:100F7000FC911597E80DF91D6081C601FE010995E8
:100F80000E940316C601F8010995482EC601F80112
:100F900009954812F5CFD70114968D919C9115971C
:100FA000880E991EF4018081481208C05394FFEF07
:100FB000AF1ABF0A5198599A5998A3CF519A599A82
:100FC000A0CF4F925F926F927F928F929F92AF923B
:100FD000BF92CF92DF92EF92FF920F931F93CF9326
:100FE000DF93EA0169015F80A52CB12CE62EF12C7C
:100FF000FE2CEE248E8190E08A159B0598F45F828A
:1010000080E0DF91CF911F910F91FF90EF90DF90E3
:10101000CF90BF90AF909F908F907F906F905F9098
:101020004F9008956AEA85E595E1F601099565E531
:101030008AEA9AE0F601099560EA85E595E1F6010C
:101040000995652C712C43018E289F28EC81FD8128
:10105000E60DF71D6081C401F60109950E94031693
:10106000C401F8010995482EC401F80109954812F8
:10107000F5CF8C819D81680E791EF3018081481225
:1010800008C05394FFEFAF1ABF0A5198599A599864
:10109000B1CF519A599AAECF3F924F925F926F92D1
:1010A0007F928F929F92AF92BF92CF92DF92EF92F8
:1010B000FF920F931F93CF93DF93EA0169015F8043
:1010C000A52CB12C482E429480EF4822E62EF12C1C
:1010D000FE2CEE248E8190E08A159B05A0F45F82A1
:1010E00080E0DF91CF911F910F91FF90EF90DF9003
:1010F000CF90BF90AF909F908F907F906F905F90B8
:101100004F903F90089560E280E090E80E94F10ED9
:101110006AEA85E595E1F601099560E180E090E8ED
:101120000E94F10E65E58AEA9AE0F601099560E20F
:1011300080E090E80E94F10E60EA85E595E1F60115
:101140000995642D80E090E80E94F10E652C712CC9
:1011500043018E289F28EC81FD81E60DF71D6081FB
:10116000C401F60109950E940316C401F80109950E
:10117000382EC401F80109953812F5CF8C819D8174
:10118000680E791EF3018081381208C05394FFEF76
:10119000AF1ABF0A5198599A59989CCF519A599AA7
:1011A00099CF4F925F926F927F928F929F92AF9260
:1011B000BF92CF92DF92EF92FF920F931F93CF9344
:1011C000DF93662E7A01E901DA0117965C90A52C6F
:1011D000B12C6AEA8AEA9AE0F901099565E585E5A4
:1011E00095E0FE01099560E28AEA9AE0FE01099520
:1011F000712C762C6624D70116968C91169790E068
:101200008A159B0518F517965C9260E980E090E0DE
:10121000FE01099560E080E090E0FE01099560EF35
:1012200080E090E0FE01099580E0DF91CF911F9171
:101230000F91FF90EF90DF90CF90BF90AF909F9075
:101240008F907F906F905F904F900895852C912C98
:101250006401C628D72860EAC601FE010995D701B6
:101260001496ED91FC911597E80DF91D6081C6016A
:10127000FE0109950E940316C601F8010995482E42
:10128000C601F80109954812F5CFD70114968D9142
:101290009C911597880E991EF4018081481208C010
:1012A0005394FFEFAF1ABF0A5198599A5998A3CF98
:1012B000519A599AA0CF4F925F927F928F929F92AC
:1012C000AF92BF92CF92DF92EF92FF920F931F9354
:1012D000CF93DF93A62E6A01E901DA011796EC900D
:1012E000F12CA895000000000000000000000000A4
:1012F0000000000000006AEA8AEA9AE8F90109950C
:1013000065E585E595E8FE01099560E28AEA9AE8D7
:10131000FE010995B12CBA2CAA24D60116968C91FF
:10132000169790E08E159F0518F51796EC9260E9D8
:1013300080E090E8FE01099560E080E090E8FE0121
:10134000099560EF80E090E8FE010995000080E0DB
:10135000DF91CF911F910F91FF90EF90DF90CF9091
:10136000BF90AF909F908F907F905F904F90089527
:1013700080EA0E9418142701552442018A289B28DC
:10138000D6011496ED91FC911597E40DF51D608141
:10139000C401FE01099500000000000000000000EB
:1013A0000000000000000000A8950E940316C40180
:1013B000F8010995782E00000000000000000000F0
:1013C0000000000000000000D6011496ED91FC9191
:1013D0001597E40DF51D80817816B9F00000000026
:1013E0000000000000000000000000000000C40138
:1013F000F801099578120DC00000000000000000FF
:1014000000000000000000000000FFEFEF1AFF0ADC
:1014100084CF000000000000000000000000000079
:1014200000000000000000000000000000000000BC
:1014300000000000000000000000000000000000AC
:101440000000000000000000000000000000C401D7
:10145000F8010995782ECBCF8F929F92AF92BF92D1
:10146000CF92DF92EF92FF920F931F93CF93DF9370
:10147000EC0188809980B82C8985823169F038F434
:101480008031C1F0813109F437C183EC06C083316A
:1014900009F46CC18431C9F780E0DF91CF911F91CD
:1014A0000F91FF90EF90DF90CF90BF90AF909F9003
:1014B0008F9008958D85811111C01FEDC12E1EE002
:1014C000D12E07EAE02E0EE0F02E8E012AEA3AE253
:1014D00045E555E5682D60680E946D048D85813075
:1014E00041F588819981F6E096958795FA95E1F71F
:1014F000282F2F70A22E41E060E180E090E80E944A
:101500003B1040E06A2D80E090EE0E943B10AFED72
:10151000CA2EAEE0DA2EB1EFEB2EBEE0FB2E8E012E
:101520002AEA3AEA45E555ED682D60688A2D0E9461
:101530000D068D858330D1F4682D6F736068B62EEB
:101540008881998156E0969587955A95E1F77FEDC8
:10155000C72E7EE0D72EE7EAEE2EEEE0FE2E8E01BD
:101560002AEA3AE245E555E50E94CE048D858D3F95
:10157000D1F46B2D6F736068B62E8881998126E057
:10158000969587952A95E1F73FEDC32E3EE0D32E41
:1015900046EBE42E4EE0F42E8E012AEA3AE245E5CF
:1015A00055E50E94CE048D858E31D1F46B2D6F737D
:1015B0006068B62E88819981B6E096958795BA9530
:1015C000E1F71FEDC12E1EE0D12E01EFE02E0EE05F
:1015D000F02E8E012AEA3AEA45E555E90E946E05A9
:1015E0008D85823211F08B30F9F468817981660F34
:1015F000672F661F770B7195CB0199278C56910940
:101600000E94F10EFFEDCF2EFEE0DF2EA7EAEA2EBC
:10161000AEE0FA2E8E012AEA3AE245E555E56B2D59
:10162000606880E00E946D048D858C3031F56B2DF3
:101630006F716068B62E8880998055E09694879483
:101640005A95E1F765EA80E090E60E94F10E682D78
:101650008FEF9FEF0E94F10E6FEDC62E6EE0D62E3B
:1016600071EFE72E7EE0F72E8E012AEA3AEA45E591
:1016700055ED6B2D80E00E946D048D858C3101F558
:1016800088809980880C892C881C9908919461E83D
:1016900080E090E50E94F10E682D80E090E80E94C5
:1016A000F10E64E580E090E50E94F10E0FED1EE082
:1016B00021EF3EE0AE016B2D6068882D0E94B606DA
:1016C0008D858F3109F0E8CE8880998034E096943A
:1016D00087943A95E1F7682D80E090E50E94F10E3D
:1016E0006B2D6F7860680FED1EE021EF3EE0AE01DC
:1016F000882D0E945707D0CE8D85811108C007E044
:101700001FE02BE13FE0AE01682D0E94E1078D85CF
:101710008B3091F4882D8F71B82E8881998125E0C6
:10172000969587952A95E1F707E01FE02BE13FE0CA
:10173000AE016B2D0E944C088D858E3F09F0ACCE1A
:101740006881798195E0769567959A95E1F78FEFB5
:101750009FE30E941B0F6B2D6F710FE21FE021E4CE
:101760003FE0AE0180E00E94D10896CE8D858111C8
:1017700019C0282D2068B22E880C892C881C990845
:101780009194682D8FEF84B965B95F9A5F9814B80A
:101790000CEC13E126EE33E1AE016B2D80E00E94EC
:1017A0005B097ACE813071F7692D6F736064EACF7F
:1017B000882321F0813041F480E0089591E0F9011F
:1017C00090839AEA918308958FEA08958AEA0895AA
:1017D0000895882321F0813041F480E0089591E05C
:1017E000F90190839AEA9183089580EB08958AEA3B
:1017F0000895089514B88FEF85B93F9A479881B935
:1018000011B882B914B885B914B885B93898409A16
:101810003998419A3A98429A3C98449A3D98459A08
:101820003E98469A53985B9A55985D9A3B98439A8E
:101830003F98479A57985F9A509858985198599A54
:1018400008950E94FA0B399A419A389A40983A9A28
:10185000429A3C9A449A3D9A459A14B88FEF85B9BA
:1018600014B885B914B885B93F9A479881B912B8A8
:1018700084B915B8479A479814B808950E94FA0B8E
:10188000399A419A3C9A449A3D9A459A589A509A64
:1018900014B88FEF85B914B885B914B885B93F9AD3
:1018A000479881B912B884B915B8479A479814B8BF
:1018B00014B885B9579A5F9884B915B85F9A5F983C
:1018C00014B80895823081F0833061F08130A1F442
:1018D0000898109A1092B60380E290E09093B503B6
:1018E0008093B40380E008955098589A88E08093DC
:1018F000B60389E290E0F2CF87E90895813049F498
:1019000014B88FEF85B9579A5F980E94F70C80E062
:10191000089588E908955898509A000089B1509820
:10192000589880FD22C05098589A59B149B100008A
:1019300039B10000000029B100000000000099B199
:10194000000000000000000089B15098589850FD38
:101950000EC040FD0EC030FD0EC020FD0EC090FD3B
:101960000EC080FD0EC080EE089580EF089580E0E7
:10197000089581E0089583E0089586E008958AE05F
:1019800008958FE008950F931F93CF93C82F842F4E
:101990008901C230F9F030F4CC2389F0C130B1F0C4
:1019A000C6E90FC0C430F1F0C0F0C038C9F781E01B
:1019B000F90180830E948B0CF801818309C00E9489
:1019C000FA0B8C2FCF911F910F9108950E94210C3B
:1019D000C0E0F7CF0E943E0CFBCFCF911F910F913B
:1019E0000C94620CCF911F910F910C947E0C10926D
:1019F00014018FEF84B915B85F9A5F9814B85098A6
:101A0000589A80E880936C0310927A03EBE7F3E036
:101A1000119283E0EB39F807D9F7089560917A03C2
:101A2000813109F441C0109214019FEF94B9909153
:101A3000140195B95F9A5F9814B820E070E03FEF09
:101A40008032C9F4E72FF0E0E558FC4F408150E0C8
:101A5000022E02C0559547950A94E2F740FF28C030
:101A600092E034B995B95F9A5F9814B82F5F283027
:101A700011F47F5F20E0492F446034B945B95F9A83
:101A80005F9814B8615034B995B95F9A5F9814B8EB
:101A90006111D6CF909314014093270134B915B842
:101AA0005F9A5F9814B8089592E090931401BDCFA7
:101AB00090E0D7CF0F931F93CF93DF9350917A038A
:101AC000B0917B03813109F46BC0109214019FEF38
:101AD00094B99091140195B95F9A5F9814B820E079
:101AE00030E07FEFC1E0D0E0803281F4EB2FF0E016
:101AF000022E02C0F595E7950A94E2F7E0FF54C084
:101B0000916074B995B95F9A5F9814B86032B1F476
:101B1000211105C0E32FF0E0E558FC4F1082489BEF
:101B20000DC0E32FF0E0E558FC4FA0818E01022E9E
:101B300001C0000F0A94EAF7A02BA0835150442360
:101B400041F0511106C0926074B995B95F9A5F98DF
:101B500014B8A92FA46074B9A5B95F9A5F9814B896
:101B600074B995B95F9A5F9814B82F5F283039F42B
:101B70003F5FE32FF0E0E558FC4FB08120E05111CA
:101B8000B3CF90931401A09327018FEF84B915B8B8
:101B90005F9A5F9814B8DF91CF911F910F910895CC
:101BA00091E09093140193CF9E7FABCF80916C0313
:101BB0008338D1F580916D03883009F463C0C0F497
:101BC000833009F445C030F4813079F18230A1F1DD
:101BD0008EEE28C0863009F44AC008F04EC084302A
:101BE000B9F781E880936C0341E060E281E136C09F
:101BF0008F30C1F148F48D3031F18E3049F781E8F2
:101C000080936C0340E028C0803849F08F3F49F052
:101C10008031F1F681E880936C0340E02CC00C9495
:101C2000F70C80EF80936C03089581E880936C0338
:101C300080E20E940E0D14C081E880936C0341E0A5
:101C400060E080E20BC081E880936C0340E0F8CF55
:101C500081E880936C0341E060E280E10E945A0DCC
:101C600082E8E0CF81E880936C0340E0BECF81E85A
:101C700080936C0341E060E2E4CF81E880936C03E1
:101C800080E1D7CF81E880936C0381E1D2CFCF93FD
:101C9000DF93E901843061F138F48230E1F008F536
:101CA0008130A1F087E80FC0873039F128F4853002
:101CB000C9F740937A0306C0883021F1803891F744
:101CC0000E94F70C80E0DF91CF91089590916D0311
:101CD00099838883F7CF40936D0383E880936C03E7
:101CE000F1CF40936D0383E880936C030E94D60D7F
:101CF00080916C03898381E0ECCF40937B03509308
:101D00007C03E0CF80917B03898380917C038A836D
:101D100080917D038B8380917E038C8380917F03F0
:101D20008D83809180038E8386E0D3CF882321F03A
:101D3000813041F480E0089591E0F90190839AEABE
:101D40009183089582EB08958AEA0895089582B9EF
:101D50008FEF84B995B9479A479814B884B965B993
:101D6000509A58985098589A14B8089582B98FEF9D
:101D700084B995B9479A479814B884B965B9509A07
:101D80005898589A14B80895509858984098419A7D
:101D9000429A82B92FEF24B995B9479A479814B857
:101DA00000000000409A97FD4198000000000000EC
:101DB00000000000000083B14098419A089582B964
:101DC0002FEF24B995B9479A479814B8409A97FDD0
:101DD0004198000000000000000083B14098419A43
:101DE00008955098589882B92FEF24B995B9479A19
:101DF000479814B8429824B965B9409A97FD41981C
:101E0000000000004098419A429A14B80895811544
:101E100020E2920708F4906882B98FEF84B995B9EF
:101E2000479A479814B8449800000000000000004A
:101E300083B1449A0895811520E2920708F49068CE
:101E400082B98FEF84B995B9479A479814B884B985
:101E500065B9000045980000459A14B8089582B904
:101E60008FEF84B995B9479A479814B8409A41982A
:101E7000449800000000000083B1449A4098419AC1
:101E8000089582B98FEF84B995B9479A479814B8E5
:101E90004098419884B965B9000045980000459A7A
:101EA00014B8419A089512B82FEF24B988E085B983
:101EB000479A479814B889B1807290E024B924E019
:101EC00025B9479A479814B829B1207230E041E00B
:101ED0002115310509F040E061E0009709F060E06C
:101EE000442311F0611116C051E0232B09F450E096
:101EF00021E0892B09F420E0552311F021110CC0B9
:101F0000662311F051110AC0442311F0211108C0B9
:101F10008FEF089580E1089581E1089582E10895A9
:101F200083E10895EF92FF920F93CF93DF9300D058
:101F30001F92CDB7DEB77C018FEF84B965B9479AA0
:101F4000479814B8409A67FD419842B9000080E074
:101F5000011117C00000000093B1F701E80FF11D57
:101F600090834F5F42B98F5F281790F74098419A4E
:101F70000F900F900F90DF91CF910F91FF90EF9006
:101F800008952B834A8389830E94031689814A819D
:101F90002B81E2CFEF92FF920F93CF93DF9300D08C
:101FA0001F92CDB7DEB77C01603208F460688FEF16
:101FB00084B965B9479A479814B8449842B9000063
:101FC00080E0011116C00000000093B1F701E80F96
:101FD000F11D90834F5F42B98F5F281790F7449AA5
:101FE0000F900F900F90DF91CF910F91FF90EF9096
:101FF00008952B834A8389830E94031689814A812D
:102000002B81E3CFEF92FF920F93CF93DF9300D01A
:102010001F92CDB7DEB77C018FEF84B965B9479ABF
:10202000479814B8409A4198449842B9000080E01B
:10203000011118C00000000093B1F701E80FF11D75
:1020400090834F5F42B98F5F281790F7449A40986A
:10205000419A0F900F900F90DF91CF910F91FF90C9
:10206000EF9008952B834A8389830E940316898108
:102070004A812B81E1CF0F931F93CF93DF938C0184
:10208000D62F442349F080E090E80E94DF0E60E8FC
:1020900080E090E80E94F10EC5E0C8010E94DF0ECA
:1020A0006D2FC8010E94F10ED695C150B1F7DF9196
:1020B000CF911F910F9108950F931F93CF93C82F26
:1020C000CA018901C63079F180F4C23099F130F447
:1020D000CC2311F1C13059F1C0EA20C0C43069F1FC
:1020E000C530D1F70E94410F20C0C23891F150F4A1
:1020F000C03839F1C13881F721E0F80120830E940E
:10210000DF0E24C0C33859F1C43831F721E0F8019B
:1021100020830E942F0F1AC00E94A70E8C2FCF91F0
:102120001F910F9108950E94B60EC0E0F7CF0E9454
:102130001B0FFBCF0E94F10EF8CF40E00E943B1036
:10214000F4CF21E0F80120830E94C40EF8018183BE
:10215000ECCF21E0F80120830E94070FF7CF81E048
:10216000F90180830E94530FF1CFCF93DF93FB01DE
:10217000DC0112962C91222329F0203479F082ED93
:10218000808308C01082A0910201B0910301EC018C
:102190008C818C93CF01DF91CF910895108281E0E3
:1021A0008183A0910201B09103018C918283F2CFCF
:1021B000E0910201F091030180830895E091020112
:1021C000F0910301808108950F931F93D901082F87
:1021D00010E00831110508F0C2C2F801EE50FF4EC0
:1021E0000C9461182C110A116711C2110E125A12A7
:1021F000A612511356135B135E13621365136D130E
:10220000751379137C1380138913901394139C1303
:10221000A313A7134631510508F0A3C2FA01ED5EDE
:10222000FE4E0C94611829112F11331137113B11F7
:102230003F11431147114B114F11531157115B11AE
:102240005F11B113B113B113B113B113B113B113C2
:1022500063113898409A80E01F910F910895399842
:10226000419A80E0F9CF3A98429A80E0F5CF3B98C6
:10227000439A80E0F1CF3C98449A80E0EDCF3D98BE
:10228000459A80E0E9CF3E98469A80E0E5CF3F98B6
:10229000479A80E0E1CF5098589A80E0DDCF51987E
:1022A000599A80E0D9CF53985B9A80E0D5CF559862
:1022B0005D9A80E0D1CF56985E9A80E0CDCF579856
:1022C0005F9A80E0C9CF5098589A80E0C5CF4631D8
:1022D000510508F048C2FA01E059FE4E0C9461180D
:1022E00086118A118E11921196119A119E11A211C6
:1022F000A611AA11AE11B211B611BA11B313B313CC
:10230000B313B313B313B313B313BE113898409878
:1023100080E0A2CF3998419880E09ECF3A984298C9
:1023200080E09ACF3B98439880E096CF3C984498C1
:1023300080E092CF3D98459880E08ECF3E984698B9
:1023400080E08ACF3F98479880E086CF5098589891
:1023500080E082CF5198599880E07ECF53985B9867
:1023600080E07ACF55985D9880E076CF56985E9859
:1023700080E072CF57985F9880E06ECF5098589861
:1023800080E06ACF4631510508F0EFC1FA01E5530C
:10239000FE4E0C946118E111E411E711EA11ED1100
:1023A000F011F311F611F911FC11FF1102120512CF
:1023B0000812B513B513B513B513B513B513B5138B
:1023C0000B12389A80E048CF399A80E045CF3A9A8C
:1023D00080E042CF3B9A80E03FCF3C9A80E03CCF08
:1023E0003D9A80E039CF3E9A80E036CF3F9A80E038
:1023F00033CF509A80E030CF519A80E02DCF539A5E
:1024000080E02ACF559A80E027CF569A80E024CFEB
:10241000579A80E021CF509A80E01ECF4631510577
:1024200008F0A5C1FA01E95EFD4E0C9461182D1269
:1024300030123312361239123C123F124212451238
:1024400048124B124E1251125412B713B713B7134E
:10245000B713B713B713B7135712409880E0FCCEE9
:10246000419880E0F9CE429880E0F6CE439880E033
:10247000F3CE449880E0F0CE459880E0EDCE4698CB
:1024800080E0EACE479880E0E7CE589880E0E4CE3E
:10249000599880E0E1CE5B9880E0DECE5D9880E0E8
:1024A000DBCE5E9880E0D8CE5F9880E0D5CE58989D
:1024B00080E0D2CE4631510508F05BC1FA01ED59FA
:1024C000FD4E0C94611879127C127F1282128512D3
:1024D00088128B128E129112941297129A129D12D8
:1024E000A012B913B913B913B913B913B913B913A6
:1024F000A312409A80E0B0CE419A80E0ADCE429ADD
:1025000080E0AACE439A80E0A7CE449A80E0A4CE91
:10251000459A80E0A1CE469A80E09ECE479A80E020
:102520009BCE589A80E098CE599A80E095CE5B9ADF
:1025300080E092CE5D9A80E08FCE5E9A80E08CCE75
:102540005F9A80E089CE589A80E086CE82E08C93B4
:102550004631510508F0A2C0FA01EF54FD4E0C942B
:102560006118C712D012D912E212EB12F412FD1246
:1025700006130F13181321132A1333133C134E138E
:102580004E134E134E134E134E134E13451386B176
:10259000817011968C93119712961C9280E05CCEFC
:1025A00086B1827090E012969C938E93119780E092
:1025B00053CE86B1847090E012969C938E931197BF
:1025C00080E04ACE86B1887090E012969C938E93FC
:1025D000119780E041CE86B1807190E012969C9375
:1025E0008E93119780E038CE86B1807290E012967B
:1025F0009C938E93119780E02FCE86B1807490E0EB
:1026000012969C938E93119780E026CE86B18078A7
:1026100090E012969C938E93119780E01DCE89B125
:10262000817011968C93119712961C9280E014CEB3
:1026300089B1827090E012969C938E93119780E0FE
:102640000BCE89B1887090E012969C938E9311976F
:1026500080E002CE89B1807290E012969C938E93B6
:10266000119780E0F9CD89B1807490E012969C9327
:102670008E93119780E0F0CD89B1807890E012962A
:102680009C938E93119780E0E7CD89B1817011966C
:102690008C93119712961C9280E0DECD1C928DE8EF
:1026A000DBCD14B88FEF85B980E0D6CD14B88FEFAD
:1026B00085B980E0D1CD14B880E0CECD8FEF84B95C
:1026C00080E0CACD45B980E0C7CD83B111968C9327
:1026D000119781E08C9380E0BFCD14B88FEF85B95E
:1026E0003F9A479881B980E0B7CD8FEF82B980E0FB
:1026F000B3CD11B880E0B0CD8FEF81B980E0ACCD23
:1027000042B98FEF84B955B9479A479814B880E019
:10271000A3CD14B88FEF85B9579A5F9880E09CCD10
:1027200057985F9A80E098CD8FEF84B945B95F9A4A
:102730005F9814B880E090CD14B88FEF85B9579AA0
:102740005F9880E089CD57985F9A80E085CD8FEFC4
:1027500084B945B95F9A5F9814B880E07DCD8CE864
:102760007BCD8DE879CD8DE877CD8DE875CD8DE881
:1027700073CD8DE871CD882321F0813041F480E064
:10278000089591E0F90190839AEA9183089581EB8D
:1027900008958AEA0895089582B98FEF84B995B9AA
:1027A000479A479814B841984498000000000000E8
:1027B0000000000000000000000000000000000019
:1027C0000000000083B1449A419A089582B98FEFC6
:1027D00084B995B9479A479814B884B965B94598AA
:1027E00041980000000000000000459A419A14B88A
:1027F0000895CF93DF93952FE901813099F020F070
:10280000823059F08AEA06C09FEF94B945B95F9AC1
:102810005F9814B8DF91CF910895842F0E94E6133A
:1028200080E0F8CF8883842F0E94CC138983F8CF6F
:102830009FEF94B985B945984198000000000000C9
:102840000000459A419A14B80895EF92FF920F93B1
:10285000CF93DF9300D01F92CDB7DEB77C018FEF0F
:1028600084B965B9479A479814B84498419842B9D1
:1028700080E0011119C0000000000000000093B1C9
:10288000F701E80FF11D90834F5F42B98F5F281762
:1028900080F7449A419A0F900F900F90DF91CF915B
:1028A0000F91FF90EF9008952B834A8389830E94B4
:1028B000031600000000000089814A812B81DFCFD0
:1028C000880F991F880F991F20E030E028173907DB
:1028D00009F40895000000002F5F3F4FF7CF20E07C
:1028E00030E02817390709F40895000000002F5F31
:1028F0003F4FF7CFCF93DF9380E190E00E946014C9
:10290000C4E0D0E084EF91E00E94601484EF91E095
:102910000E9460142197B1F7C4E0D0E08AEF90E004
:102920000E9460148AEF90E00E9460142197B1F732
:10293000DF91CF91089580E190E00C946014CF93E3
:10294000DF931F92CDB7DEB7F901813171F038F412
:102950008130C1F078F08230C9F082E80FC0813256
:10296000A9F0823299F08231C1F782E0808312822D
:1029700011820AC089830E947A1489810F90DF91A5
:10298000CF9108950E949B1480E0F8CF81E080836E
:102990001182FACF482F90E0982F882720E041112C
:1029A00003C021118068089520953FEF340F432321
:1029B000F6CF80E090E0089580E0089560E070E058
:1029C000CB010895CF93DF931F92CDB7DEB7DC0123
:1029D0008FEF809307011092080187E091E09093B8
:1029E000C6038093C50316968C911697898311961A
:1029F000EC9111974E2F50E0FA013197EF30F1052D
:102A000008F0D7C0EA5FFA4E0C9461181515251529
:102A100033154115BF15D915D01587159515A31573
:102A2000B1154F155D156B15791514964D915C9187
:102A3000159728E031E013966C91139712968C91BC
:102A40000E94E41080930701A6C014964D915C91FA
:102A5000159728E031E013966C91139712968C919C
:102A60000E94C30CEFCF14964D915C91159728E00E
:102A700031E013966C91139712968C910E945C1022
:102A8000E1CF14964D915C91159728E031E01396B3
:102A90006C91139712968C910E94F913D3CF1496D0
:102AA0004D915C91159728E031E013966C91139746
:102AB00012968C910E94D80BC5CF14964D915C91C3
:102AC000159728E031E013966C91139712968C912C
:102AD0000E94E90BB7CF14964D915C91159728E0B1
:102AE00031E013966C91139712968C910E94BB1350
:102AF000A9CF14964D915C91159728E031E013967B
:102B00006C91139712968C910E94960E9BCF1496FF
:102B10004D915C91159728E031E013966C911397D5
:102B200012968C910E949F148DCF14964D915C91BA
:102B3000159728E031E013966C91139712968C91BB
:102B40000E94470E7FCF14964D915C91159728E017
:102B500031E013966C91139712968C910E94950018
:102B600071CF14964D915C91159728E031E0139642
:102B70006C91139712968C910E94420363CFAE0121
:102B80004F5F5F4F67E071E0CD010E947C01909341
:102B9000C6038093C50389810F90DF91CF9108957B
:102BA000AE014F5F5F4F67E071E0CD010E94B5104D
:102BB000EECF80E847CFE0916903F0916A03278167
:102BC00044815581322F360F231312C0E0916903DF
:102BD000F0916A038781860F878380913801861B75
:102BE0008093380181110DC088E9838381E00895C5
:102BF000FC017191CF01FA01E20FF11D70832F5F8B
:102C0000E3CF80E00895CF93DF936091C7036350D3
:102C100067FD91C08091C403CCE0D0E0C81BD1090E
:102C2000C553DC4F8091C3038D3209F0CFC06830AB
:102C300009F07FC083EC8093B7038AE58093050198
:102C400010920F018881807679F0CE010E94E21403
:102C50008F3F09F466C09F81911169C09E819817CA
:102C600008F065C0892F63C02A811092C003998142
:102C700091110AC01092C10320EC33E082E030933E
:102C8000C6032093C503E7CF953029F42093C803EA
:102C900020EC33E0F4CF963099F59B81913059F4D4
:102CA0008EE890E09093C6038093C50382E190E4A0
:102CB00090930F01D0CF923019F48CE790E0F2CFCF
:102CC0009330A9F7211108C088EE90E09093C603D5
:102CD0008093C50384E0EBCF213041F48EEB90E08C
:102CE0009093C6038093C5038AE2E1CF2230F9F6C0
:102CF00080EA90E09093C6038093C5038EE1D7CF1E
:102D0000983059F0993019F42093CA03C1CF81E06B
:102D10009A3009F4BDCF80E0BBCF2AEC33E081E0EC
:102D2000AECF988197FD8E8190E890930F018093AC
:102D300004011092C7038091050184FF3AC080917D
:102D400004018F3FB1F1C82F893008F0C8E08C1B17
:102D5000809304018091B70398E889278093B70393
:102D6000CC23D1F08091C5039091C60320910F012F
:102D700026FF3FC0A8EBB3E0FC012C2F34913D931C
:102D800031962150D9F701962FEF2C0F820F911D0C
:102D90009093C6038093C5036C2F88EB93E00E9449
:102DA0001E17CC5FCC3019F08FEF80930401C093D5
:102DB000050184E199B1947131F48150D9F71092F1
:102DC000C8031092C203DF91CF91089580910F0143
:102DD00087FFAFCFCE010E94DB158F3F21F48EE13C
:102DE00080930501A6CF882309F4A3CF1092040194
:102DF000A0CFE8EBF3E0DC012C2F3D913193215083
:102E0000E1F7C1CFE9E6F0E0808182608083E89A53
:102E10000895A82FB92F80E090E041E050EA609536
:102E200030E009C02D9182279795879510F084276F
:102E30009527305EC8F36F5FA8F30895EADF8D939E
:102E40009D930895CF93CFB7CF93DF93C3954C9BBA
:102E5000E9F74C9B0BC04C9B09C04C9B07C04C9B9B
:102E600005C04C9B03C04C9B01C089C06F93C091AF
:102E7000C403DD27C553DC4F2F9365E54C9B03C08E
:102E80002F916F91E6CF0F931F934F9320E040E176
:102E90005F9309B1047104FB27F93F9350E03BE0D5
:102EA00039C0147140642F77012F5F5F1EC04068E6
:102EB00019B114712F7752501FC0406409B12F7798
:102EC0000471D1F15F5F00C023C0406219B12F7758
:102ED000147191F15F5F00C025C00471102751503B
:102EE00012F45D5F0000115027952C3F19B1C8F610
:102EF00014710127015027952C3FC8F642274993AA
:102F000009B1047110274F73115027952C3FA8F673
:102F10004695469519B1147179F00127015027950E
:102F20002C3F98F66B5A60F3315009B1B0F600C0EF
:102F300011E01CBB002717C03B503195C31BD0408C
:102F400011E01CBB0881033CF9F00B34E9F020913F
:102F5000C2031981110F1213EDCF093651F10D3251
:102F600011F0013E39F70093C9033F915F914F91F2
:102F70001F910F912F916F91CCB3C0FD67CFDF915F
:102F8000CF91CFBFCF9118952091C903222369F328
:102F90001091C703112339F534303AF13093C70348
:102FA0002093C3031091C4033BE0311B3093C4034F
:102FB0001CC00091C7030130B4F40AE5309105014B
:102FC00034FD14C000930501C7EBD3E013C00527FF
:102FD00010E000C000000BB91AC0052710E0221F46
:102FE0001DC010E021C04AE502C032ED432FC4E10C
:102FF000D0E032E01AB114615C9A0BB11AB954E115
:1030000020E865E320FF05270BB9279517951C3F9E
:10301000F0F66695B8F7B1F720FF05270BB92795AD
:1030200017951C3FD0F62795179517FF0527000029
:103030001C3F0BB9B0F629913A9519F70B7E109108
:10304000C803110FC651D0400BB911F01093C20341
:1030500011E01CBB00611AB11B7E402F4B7E54E077
:103060005A95F1F70BB91AB94BB97FCF9EE088E1B9
:103070000FB6F894A895809360000FBE90936000FF
:103080000E940217549A80E0815099F454987894E1
:103090000E94FA0B80EF80936C03A8950E940316A0
:1030A0000E94AB0280916C03803FB9F30E94D60D61
:1030B000F4CFA895EFE9FFE03197F1F700C00000E9
:1030C000E3CFEE0FFF1F0590F491E02D0994F894E3
:0230D000FFCF30
:0630D20069019B03FF5A97
:00000001FF
