:020000040800F2
:10000000001800200508000835050008390500081B
:1000100000000000000000000000000000000000E0
:10002000000000000000000000000000350500088E
:10003000000000000000000035050008350500083C
:1000400035050008350500083505000835050008A8
:100050003505000835050008350500083505000898
:100060003505000835050008350500083505000888
:100070003505000835050008350500083505000878
:100080003505000835050008350500083505000868
:100090003505000835050008350500083505000858
:1000A0003505000835050008350500083505000848
:1000B00035050008350500083505000899010008D8
:1000C000284B10B51A88284B12041B881A43274B5B
:1000D000198849084900885A254908801988023139
:1000E00089B21980198849084900885A214908802D
:1000F0001988023189B21980198849084900885A3B
:100100001D49088019881D48023189B21980198853
:1001100049084900895A1A4A11801A881949023235
:1001200092B21A801C880288944213D902881C88D3
:100130000832121B92B20A80028892B21A801249C7
:10014000124B0A881343124A1A40302353409BB281
:100150000B8010BD0F4804881A889442E6D3082308
:100160000B80ECE70C6000400A6000400460004037
:100170004C6000404E600040506000400260004013
:10018000526000401A600040005C00408080FFFF29
:10019000BF8FFFFF006000409449F8B50B88944C76
:1001A000002B3AD00A88934B9A4234D1002302257F
:1001B000914A924F1380924A1380924A1380924A36
:1001C0001380924A1380924AD08FA843D087D08F51
:1001D000013DA843D0878F481735FB8705808E489F
:1001E000343505808D480835058080258C486D01A3
:1001F000058080258B4805808020FB878A4B000680
:1002000023808A4B18608023D08FDB000343D38781
:10021000874B884A1A8000230B8023881BB2002B4F
:1002200000DBC4E02388844A774F134080221343C5
:10023000238023881B0500D49CE0804D7F232A78EF
:1002400011009943714B1980E9886B4B198000218B
:100250006C4B19803B88FF318B4313433B806023F9
:100260001A4208D08022764B12051B8828009B1862
:100270009847634B188060232A78134052B2002AB3
:100280004DDA002B14D16A78062A0FD16A88110A38
:1002900002291AD003291BD0012920D1694B12262B
:1002A000694A99B21180694A1B0C1380544B1E8015
:1002B0002288674B1343674A1A40C0239B0153406F
:1002C0009BB22380FFF7FCFE47E05E4B1233E6E76C
:1002D000D2B2012A0FD0002A03D0022A15D01E0064
:1002E000E4E7584B584A243399B21180574A1B0C03
:1002F00013800426DAE7534B534A283399B211800E
:10030000524A1B0C1380544ED0E74E4B4E4A7C335E
:1003100099B211804D4A1B0C1380504EC6E7002B3A
:1003200009D16B78052B06D13A886B88D2B21B02B3
:1003300013439BB23B8000212388494A1340494A1A
:1003400013439BB22380484B198023881A43474BA1
:100350001A40474B5A4092B22280284BDB8F5B05F4
:1003600007D580222F4B1A800023244AD3872E4B97
:100370002380F8BD60213B880B40402BEDD13B88AA
:100380001342EAD1264A3B4B2C481B881188802215
:1003900012059B18C9B298472288324B13432D4A45
:1003A0001A40C0239B0153409BB22380D5E7802293
:1003B00023881342D1D023882F490B408021090282
:1003C0000B432380114B1B88934200D17AE7FF2017
:1003D0000D4B19888143C0D01988090A0A43114975
:1003E0000A801A8802401A80B7E7C0460E600040B3
:1003F000005C00403CA5000000600040065C00403E
:100400000260004004600040066000400860004058
:10041000025C0040505C0040186000401C600040DE
:100420001E6000404C5C00402032000000E100E013
:10043000585C00400080FFFF8F0F000054600040B8
:10044000106000407C0400080A6000400C6000401E
:100450008081FFFF8FBFFFFF2A0300001E03000003
:100460008F8EFFFF8080FFFF1A600040BFBFFFFF3D
:1004700030300000126000400F8FFFFF12010002B9
:10048000FF000008C016DC0503020102000109029A
:100490001200010100803209040000000000000089
:1004A000040309042A0349006E00660069006E0017
:1004B0006900740065004E00650073004C0069001F
:1004C0007600650073002E0063006F006D00000071
:1004D000000000000000000000000000000000001C
:1004E000000000000000000000000000000000000C
:1004F00000000000000000001E0349004E004C00F8
:10050000200052006500740072006F002D00500042
:1005100072006F0067000000000000000000000093
:1005200000000000000000000000000000000000CB
:1005300000000000FEE7FFFF004801E02301ADDE00
:10054000FEE7C04602B4714649084900095C49000B
:100550008E4402BC7047C046411D000000616561C9
:1005600062690001130000000536532D4D00060C92
:10057000074D09011901FFFF03B471464908400006
:100580004900095A49008E4403BC7047411D0000D0
:100590000061656162690001130000000536532D9A
:1005A0004D00060C074D09011901FFFF70470A4B6A
:1005B0000A4A10B55A600A4A5A600122DC6814429D
:1005C000FCD11A6101220180D9681142FCD120229C
:1005D000DA6060321A6110BD0020024023016745D5
:1005E000AB89EFCDFF2370B53C4C23804378C588A1
:1005F000102B00D06FE0C37881888078384E0138A6
:100600007269082800D964E0FFF79CFF0563632B3B
:100610003B3149515F008B1E8E227D2B19D8314B07
:100620007360314B73600123F2681A42FCD10223DC
:100630003361802389021B05C9184223716133612C
:10064000C046413BF2681A40FCD12023F36060337E
:1006500033612270254BA2B2240CE8B25A819C81EE
:1006600070BD58001018FFF7A2FF0022F1E78E229C
:10067000012BEED8180480231B05C01840181C4914
:10068000F1E7042363707369A37073691B0AE37055
:1006900073691B0C237173691B0E6371E5E70223F9
:1006A00063701388A37013881B0AE370DDE78E2242
:1006B000012BCED880221B0412059B185918022347
:1006C00063700B88A3700B88EEE70A4B0A4ADA6066
:1006D000CBE78B22BDE780232370BBE7EC0600202D
:1006E0000020024023016745AB89EFCD0060004048
:1006F000FFFF000000ED00E00400FA05FFFFFFFF30
:10070000FFFFFFFFFFFFFFFFFFFFFFFFFFFFFFFFF9
:10071000FFFFFFFFFFFFFFFFFFFFFFFFFFFFFFFFE9
:10072000FFFFFFFFFFFFFFFFFFFFFFFFFFFFFFFFD9
:10073000FFFFFFFFFFFFFFFFFFFFFFFFFFFFFFFFC9
:10074000FFFFFFFFFFFFFFFFFFFFFFFFFFFFFFFFB9
:10075000FFFFFFFFFFFFFFFFFFFFFFFFFFFFFFFFA9
:10076000FFFFFFFFFFFFFFFFFFFFFFFFFFFFFFFF99
:10077000164B174A9BB21382164B9BB253826846A4
:100780001C300F4A0F4B0430043001681140C91A65
:10079000FAD1094A094B043801681140C91AF2D14B
:1007A0007B460A3303600438013303600CE00A4BD4
:1007B0000A4A1A60FBE7C0460000FFFF000000087D
:1007C000FFFFFF0F0000000100207047E505000853
:1007D00000600040AD05000800300040AAAA0000FB
:1007E000FFFFFFFFFFFFFFFFFFFFFFFFFFFFFFFF19
:1007F000FFFFFFFFFFFFFFFFFFFFFFFFFFFFFFFF09
:10080000FFFFFFFF09490A4A0A4B9B1A03DD043B1D
:10081000C858D050FBDC0849084A0020521A02DDB3
:10082000043A8850FCDC02F0FDFC0000C04F0008D8
:1008300000000020300400203004002028070020A1
:1008400070B50E4B1A68537A55685C18E4B2A3422F
:100850000ED1537A0A48CB1853720378591AC9B289
:1008600001700020814202D198230130D37070BD05
:1008700006780130EE540133DBB2E8E79004002043
:1008800094040020FF23F0B5C34C85B02380837906
:1008900005000093407801380E2801D901F0B7FB1C
:1008A000FFF76AFE0F00A8059007AE08810AB50B96
:1008B000A20B3509BD09240A7E0AED08FF081109BB
:1008C0002309A878AA888C23192822D8FFF754FE78
:1008D0001A0024001A011502E10281030C04C80465
:1008E000E404F004F80400050905120520052805B4
:1008F000300538058005800580053D0552056905F0
:10090000C902D502B023A54A5B0351690B43536169
:100910000023237000F0BDFF152A01D900F05BFD14
:100920001000FFF729FE160023002E00580539009D
:1009300044004F0058055C006900730080005805B2
:1009400058058D009A00A700B400C100CE00D80061
:10095000E2009023DB051A6891490A401A60802260
:10096000D96852030A43DA600023D2E790230122B8
:10097000DB05196891431960D9680A43DA600023DE
:10098000C7E790230422DB05196891431960D968F1
:100990000A43DA600023BCE790231022DB051968C4
:1009A00091431960D9680A43DA600023B1E79023C4
:1009B0004022DB05196891431960D9680A43DA605F
:1009C0000023A6E79023DB051A6876490A401A60DF
:1009D0008022D968D2040A43DA60002399E7902381
:1009E000DB051A6870490A401A608022D9685201F2
:1009F0000A43DA6000238CE704226C4B19689143A8
:100A00001960D9680A43DA60002382E79023DB0586
:100A10001A6867490A401A608022D968D2050A43D9
:100A2000DA60002375E79023DB051A6861490A4004
:100A30001A608022D968D2020A43DA60002368E78C
:100A40009023DB051A685C490A401A608022D96845
:100A500052000A43DA6000235BE79023DB051A6843
:100A600056490A401A608022D968D2000A43DA60E7
:100A700000234EE79023DB051A6851490A401A60AB
:100A80008022D968D2010A43DA60002341E790232B
:100A9000DB051A6843490A401A608022D968D204EB
:100AA0000A43DA60002334E79023DB051A684549DE
:100AB0000A401A608022D96852050A43DA6000238E
:100AC00027E70122394B196891431960D9680A4315
:100AD000DA6000231DE710223B4B1968914319602F
:100AE000D9680A43DA60002313E79023DB051A680C
:100AF00032490A401A608022D968D2000A43DA607B
:100B0000002306E7152A01D900F068FC1000FFF762
:100B100033FD160021002C00650437005D006800DD
:100B2000650473007E0088009300650465049E00E0
:100B3000A900B400BF00CA00D500DF00E90090237F
:100B4000DB051968164801401960DA680240DA606E
:100B50000023DEE690230121DB051A688A431A6030
:100B6000DA688A43DA600023D3E690230421DB05A8
:100B70001A688A431A60DA688A43DA600023C8E692
:100B800090231021DB051A688A431A60DA688A43C9
:100B9000DA600023BDE6C046F406002000100240E3
:100BA000FFFFEFFFFFFFFFFBFFEFFFFF0004004829
:100BB000FFFFFFBFFFFFFBFFFFFEFFFFFFFBFFFF8E
:100BC000FFBFFFFFFFFFFFEF000C00489023402115
:100BD000DB051A688A431A60DA688A43DA60002300
:100BE00097E69023DB051968CE4801401960DA6862
:100BF0000240DA6000238CE69023DB051968CA48BE
:100C000001401960DA680240DA60002381E60421BD
:100C1000C64B1A688A431A60DA688A43DA6000238E
:100C200077E69023DB051968C14801401960DA684E
:100C30000240DA6000236CE69023DB051968BD48AA
:100C400001401960DA680240DA60002361E690230F
:100C5000DB051968B84801401960DA680240DA60BB
:100C6000002356E69023DB051968B448014019605B
:100C7000DA680240DA6000234BE69023DB0519684E
:100C8000AF4801401960DA680240DA60002340E6AC
:100C90009023DB051968A34801401960DA68024017
:100CA000DA60002335E69023DB051968A54801408A
:100CB0001960DA680240DA6000232AE601219B4BC2
:100CC0001A688A431A60DA688A43DA60002320E6E9
:100CD00010219D4B1A688A431A60DA688A43DA60E9
:100CE000002316E69023DB0519689448014019603B
:100CF000DA680240DA6000230BE6152A00D970E3B7
:100D00001000FFF739FC16001F0027006E032F00AC
:100D100037003F006E0348005100580061006E0329
:100D20006E036A0073007C0085008E0097009E00B1
:100D3000A50090228023D20511685B030B4313604A
:100D40000023E6E590220123D20511680B431360CE
:100D50000023DEE590220423D20511680B431360C3
:100D60000023D6E590221023D20511680B431360AF
:100D70000023CEE590224023D20511680B43136077
:100D80000023C6E590228023D2051168DB040B43C3
:100D900013600023BDE590228023D20511685B011A
:100DA0000B4313600023B4E50423604A11680B432E
:100DB00013600023ADE590228023D2051168DB0586
:100DC0000B4313600023A4E590228023D205116811
:100DD000DB020B43136000239BE590228023D205A6
:100DE00011685B000B431360002392E5902280237F
:100DF000D2051168DB000B431360002389E59022C4
:100E00008023D2051168DB010B431360002380E5CA
:100E100090228023D2051168DB040B43136000236A
:100E200077E590228023D20511685B050B431360A0
:100E300000236EE501233D4A11680B431360002334
:100E400067E51023404A11680B431360002360E5F7
:100E500090228023D2051168DB000B43136000232E
:100E600057E58D23082A00D053E590224023D20570
:100E700051680B43536000234BE58D23082A00D0B3
:100E800047E590224021D20553688B4353600023ED
:100E90003FE5152A00D9A7E21000FFF76DFB160009
:100EA0001D002300A50229002F003500A5023C00EB
:100EB00057005C006300A502A5026A00700076007E
:100EC0007C0083008A008F00940090238022DB0541
:100ED000D2009A6200231CE590230122DB059A626E
:100EE000002316E590230222DB059A62002310E519
:100EF00090230422DB059A6200230AE5902308224E
:100F0000DB059A62002304E590238022DB05920131
:100F10009A620023FDE490234022DB059A620023BD
:100F2000F7E4C046FFFFFFFBFFEFFFFF00040048B0
:100F3000FFFFFFBFFFFFFBFFFFFEFFFFFFFBFFFF0A
:100F4000FFBFFFFFFFFFFFEF000C00480222CD4B69
:100F50009A620023DDE490238022DB0512029A626C
:100F60000023D6E490238022DB0592009A620023BE
:100F7000CFE490231022DB059A620023C9E490237A
:100F80002022DB059A620023C3E490238022DB0544
:100F90009A620023BDE490238022DB0592019A62CD
:100FA0000023B6E490238022DB05D2019A6200235D
:100FB000AFE40122B34B9A620023AAE40422B24BAD
:100FC0009A620023A5E490232022DB059A62002385
:100FD0009FE4152A00D90AE21000FFF7CDFA1600A7
:100FE0001D002300080229002F00350008023C00E4
:100FF000420047004E000802080255005B006100F5
:1010000067006E0075007A007F0090238022DB0568
:10101000D2009A6100237CE490230122DB059A61CF
:10102000002376E490230222DB059A61002370E41A
:1010300090230422DB059A6100236AE490230822AE
:10104000DB059A61002364E490238022DB05920192
:101050009A6100235DE490234022DB059A6100231E
:1010600057E40222874B9A61002352E490238022A6
:10107000DB0512029A6100234BE490238022DB05FA
:1010800092009A61002344E490231022DB059A61C8
:1010900000233EE490232022DB059A61002338E4FC
:1010A00090238022DB059A61002332E49023802282
:1010B000DB0592019A6100232BE490238022DB055B
:1010C000D2019A61002324E401226E4B9A6100232D
:1010D0001FE404226C4B9A6100231AE4902320221F
:1010E000DB059A61002314E402236370152A00D9FA
:1010F000B1E01000FFF726FA0B151EAF273039AF0D
:10110000434C545DAFAF677079828C969EA6902356
:101110008022DB051B69D200134063800023FFF7A8
:10112000F8FB90230122DB051B6913406380002339
:10113000FFF7EFFB90230222DB051B69134063805E
:101140000023FFF7E6FB90230422DB051B69134015
:1011500063800023FFF7DDFB90230822DB051B697A
:10116000134063800023FFF7D4FB90238022DB052C
:101170001B699201134063800023FFF7CAFB902391
:101180004022DB051B69134063800023FFF7C1FB8E
:1011900002223C4B1B69134063800023FFF7B9FB1D
:1011A0009023DB051B69DB0BDB0363800023FFF768
:1011B000B0FB90238022DB051B6992001340638003
:1011C0000023FFF7A6FB90231022DB051B691340C9
:1011D00063800023FFF79DFB90232022DB051B6922
:1011E000134063800023FFF794FB90238022DB05EC
:1011F0001B69134063800023FFF78BFB9023802241
:10120000DB051B699201134063800023FFF781FB1C
:1012100090238022DB051B69D201134063800023E9
:10122000FFF777FB0122174B1B69134063800023F4
:10123000FFF76FFB0422144B1B69134063800023EC
:10124000FFF767FB90232022DB051B6913406380B7
:101250000023FFF75EFB002363708D33FFF759FB1C
:1012600080230A4ADB0251690B435361054B08494D
:101270001A680A401A60D968064A0A43DA600023ED
:10128000FFF747FB00040048000C00480010024034
:10129000FFFFAAAA00005555DF4BE0491A680A4033
:1012A0001A60D968DE4A0A43DA600023FFF731FB8F
:1012B000D94ADA4913680B4013600023FFF729FB72
:1012C000D54AD74B11680B4313600023FFF721FB6E
:1012D000D14912024B69DBB21A434A610023FFF77E
:1012E00018FBCD4B1B691B0AA370012363700023FD
:1012F000FFF70FFB8023CB4A1B0351690B4353615C
:10130000C94ACA4B11680B4313600023FFF701FB66
:10131000C54AC64BD1680B43D3600023FFF7F9FAE7
:10132000C14AC34913680B4013600023FFF7F1FA69
:10133000BD4ABE4B11680B4313600023FFF7E9FA67
:10134000B94B5A610023FFF7E4FAC023B54ADB0228
:1013500051690B435361B04AB64B11680B4313609C
:101360009022A023D20511685B030B431360002376
:10137000FFF7CFFAA84AAF4BD1680B43D360902355
:10138000A021DB05D86849030143D9601168AA4848
:10139000014011601A68A9490A401A600023FFF74A
:1013A000B8FAFF259C48930041692B40A44DD20018
:1013B00029400B4343619021C020C905C0004B69FF
:1013C0000240A04803401A434A610023FFF7A1FAF4
:1013D0000023FFF79EFA8D23FFF79BFA8D23FFF77B
:1013E00098FA8D23FFF795FA8D23FFF792FA8D2354
:1013F000FFF78FFAAA88AD78032D00D126E155D8E2
:10140000012D63D05ED901F0D7FC90220121D205D5
:1014100013680B4313601023916111680B43136031
:1014200004234021936113680B43136008239361E5
:101430009161802311685B010B431360802379481D
:10144000DB024169754E0B43734943610B683340BE
:101450000B60CD68724B1D43CD600C6834400C604E
:10146000CC682343CB60802344691B0323436E4C29
:10147000436125686D4B2B43236000236361C024C7
:101480004569E4022C4344610C686A4820430860C3
:10149000A02014684003204310604869684C204035
:1014A0004861516967480140516151E0052D52D0B2
:1014B00000D20FE1072D00D191E0802D00D12EE167
:1014C000962345E001F078FC002341E001F074FC34
:1014D0009023DB051A682A431A6080229D611968EF
:1014E00052030A431A6080220421D2009A621A68C9
:1014F0004A4D0A431A6002229A6118680E3202436A
:101500001A604022996119680A431A6008229A6198
:101510008023444ADB0251690B4353613E4B1968F7
:1015200029401960DC683E490C43DC60186828409B
:101530001860D8680143D960802351691B030B43AD
:101540005361394A394B11680B43136000235361CF
:101550003D4CFFF7DEF901F02FFC90220121D2056E
:1015600013682E4E0B4313601023916111680B43D7
:10157000136004234021936113680B431360082315
:1015800093618023916211685B010B431360802398
:101590002449DB02486903434B611F4B1868304004
:1015A0001860DD681E480543DD601C6834401C601F
:1015B000DC682043D860802348691B0303434B61E8
:1015C00019491A4B086803430B6000234B618021C3
:1015D0001068C9010143116080219162B8E701F0F0
:1015E000EBFB90220121D205136840200B431360CE
:1015F0001023916111680B431360042393611168F8
:10160000014311600821916111680B4313600223AB
:10161000936190610DE7C04600040048FFFFAAAA4D
:10162000000055550010024000080048555555551A
:10163000AAAAAAAA50550000AFAAFFFFFFFFEBFF1E
:1016400003FF0000FFF90000F4060020D2B2022AD6
:1016500021D00023032A00D17AE79733012A00D052
:1016600076E78023B3491B03486903434B61B249C2
:101670000B6893430B60CB681343CB604B681343F9
:101680004B608A610B681A4300230A60AB4A1370EF
:10169000AB4A11605CE7B023A64A5B035169402066
:1016A0000B4353619023DB051A68A6490A401A6070
:1016B0008022D96852011143D960596801435960A9
:1016C000986119680A4308211A609C4A11709C4A63
:1016D0001360F9E6D2B29823012A00D038E79022AD
:1016E000994BD2051A6006220A21984B1A70984B22
:1016F000984A1360984A1170984A01311360984AC9
:101700001170984A13600C22974B1A70B023894AC3
:101710005B0351690B43536101F082FAD4E69023D5
:10172000012540218026DB05657099621A687601E3
:1017300032431A60C04683481C691A680C40024054
:101740001A60DA680240DA60F022002C37D11A6899
:1017500002401A60DA681643DE601A6994461A6914
:101760000192C0461A690292C046C0461A690392A5
:10177000C046C046C0461F69C046C046C046C046B7
:101780001E691A6802401A60DA681040D860634621
:1017900022000B4213D1019B2A000B420FD1029B66
:1017A00002320B420BD10B0003990332194206D1CE
:1017B00004321F4203D1D6321E4200D0D13A6B4BC5
:1017C0009A7081E6E978A888AD780D2D00D1A4E063
:1017D00029D8062D00D164E011D8022D00D167E090
:1017E00005D8002D52D0012D5FD0A02550E0042D4A
:1017F00000D180E0052DF8D100F076FE53E0092DF0
:1018000000D181E007D8072D00D18CE0082DECD164
:1018100000F0F2FE47E00B2D00D181E000D876E029
:1018200000F064FF3FE0222D45D013D8102D00D1E9
:101830007CE007D80E2D00D16CE00F2DD5D101F042
:10184000E9FB30E0202D59D05BD8112DCDD100F02F
:101850008FFF28E0822D00D1C0E00AD8802D00D172
:1018600090E0812DC1D10123637000F0F9FFA070D9
:1018700019E0852D00D1B6E0862D00D1B8E0842D89
:10188000B3D10123637000F057FEF0E701F07EF85A
:101890002570374B0098A2B2240C5A819C8105B068
:1018A000F0BD01F04FF80025F2E700F061FEFAE725
:1018B00000F0E6FEF7E7204B902258610223D205A4
:1018C0009362234B2B4D1E68090235431D605D69F1
:1018D00000B2EDB229435961002801DA0121916279
:1018E000C046C04601219161491891611A68224998
:1018F0000A401A60D7E701F07BFBD4E71F4B187052
:10190000D1E71F4B1880CEE701F09EF8CBE700F03F
:1019100095FEC8E701F0AEFBC5E701F063F8C2E74A
:1019200000F060FFBFE700F0E5FFBCE700F0B8FFA4
:10193000B9E7C04600100240000800480007002038
:10194000FC060020FFEFFFFF14070020180700200F
:10195000000400480C070020100700201C0700208E
:10196000200700200407002008070020F4060020BC
:101970000060004000005555FFFFAAAA880400201F
:1019800036040020012190236170DB051D68C94EDB
:1019900035401D60DA6802253240DA608022D200CC
:1019A0009A6299619D61C44D6861C046C04600B2AB
:1019B0009A61002800DA9962C046C046C046C04617
:1019C000C046C04690228021BC4BD205C9001B698D
:1019D000916201211B0A9161A37064E70123637086
:1019E00000F0EEFD43E701236370B54B1B78F3E78E
:1019F00002236370B34B1B88A3701B0AE37052E78A
:101A0000A878E978AE88AA23062801D9FEF781FFD5
:101A1000FEF798FD042A1B2226322000FF20A7494A
:101A2000B3004A690340A848F600024013434B61E3
:101A30009022C021D205C90053690E40A3490B4032
:101A40001E4356610023FEF764FF0022300000F0C1
:101A5000DDFBF7E70122F9E7300000F01DFDF1E7BB
:101A6000300000F0F1FCEDE701230021637030004D
:101A700000F0FCFBA070E5E701216170F7E7AA78B0
:101A8000002A07D00023012A01D1FEF742FFAF331D
:101A9000FEF73FFF01236370A933A3701300FEF725
:101AA00038FFAA78002A07D00023012A01D1FEF7C7
:101AB00030FFB033FEF72DFF01236370A933A3700D
:101AC0001300FEF726FFAA78002A07D00023012A78
:101AD00001D1FEF71EFFB133FEF71BFF0123637038
:101AE000A933A3701300FEF714FFAA78002A07D0C9
:101AF0000023012A01D1FEF70CFFB233FEF709FFE4
:101B000001236370A933A3701300FEF702FFEA7884
:101B1000A988AD78112D7BD007D8012D4ED0002D8E
:101B20000DD0022D5CD0822646E0212D66D0222DDC
:101B30006AD0122DF7D10223102063706BE00127C9
:101B4000634B04261B7810209F40FA43614B01929F
:101B50001D68AF626B6813406B6000F04CFBAF61B7
:101B60006B683B436B60FA20400000F044FBFA20B6
:101B7000AF626B68019A400013406B6000F03BFB62
:101B8000AF616B68013E3B43B6B26B60002EEAD199
:101B90000436FA2000F02FFBAF626B68019AFA203E
:101BA00013406B6000F027FBAF616B68013E3B4365
:101BB000B6B26B60002EECD126706AE6444A454B03
:101BC00012781E689540B56273681020AB4373604D
:101BD00000F011FBB56173682B4373600026EBE7DF
:101BE00001233B4A637012783B499340394A9BB2C8
:101BF0001268002002F094F8A070EFE701230020A3
:101C0000637001F05FFAF7E7012310206370F8E7D3
:101C100002230020637001F0AFFA6080DEE7AB784A
:101C2000AA88042B1DD007D8022B1FD024D8012B43
:101C300012D08723FEF76DFE072B26D003D8052B85
:101C4000F7D1264B16E0082B24D0802BF1D100F0E1
:101C5000E7FF0023FEF75DFE214A1278A270637051
:101C6000F7E7204B1B78A3700123F8E71C4B1A7091
:101C700083221C4B1A70ECE7194B1A4D1A70832300
:101C80002B7001F03DF82B78EDE7174B1A70120A14
:101C90005A70DEE7144B1A78A2705A78E2709A787C
:101CA0002271DA7862711A79A2715B79E371062385
:101CB000D5E7C046FFEFFFFF0008004800040048DA
:101CC000880400203604002003FF0000FFF9000014
:101CD00000070020FC06002004000200D9040020B8
:101CE000B8040020DA040020B9040020A878E978BC
:101CF0000238AA888A23092801D9FEF70AFEFEF7CE
:101D000021FC050A10151C232F3B4048C14B1A80AB
:101D10000023FEF7FEFDBF4B1B881B0413439847AF
:101D2000F6E7FEF725FD0300FEF7F3FDBA4803686A
:101D300099B213040B430360EAE7B7490B681B0C25
:101D40001B0413430B60E3E704236370B24B1B686F
:101D50001A0AA370E2701A0C1B0E22716371D7E786
:101D6000022363705300AC4A1168CB181A88A27022
:101D70001B881B0AE370CBE7A74B49001B68CA52BC
:101D8000C6E7A54953000A68D31802220B606270A7
:101D9000ECE7A14B49001868411819600A80B7E7C1
:101DA0008823FEF7B6FDAA781300303B2F2B1AD8F4
:101DB000E878032814D8FEF7C5FB16180211974BD4
:101DC000512A00D17AE027D8312A55D00FD8002ADD
:101DD00035D0302A49D0B423FEF79BFD904BEFE776
:101DE000B523FEF796FD8F4BEAE78F4BE8E7332AE2
:101DF00050D048D3502AEED1C022D20022801A7A85
:101E0000A270DA78E2705A7A22719A7A62719A78BC
:101E1000A2715B7CE3713CE57F2A00D982E0702AE5
:101E20005BD2602A3BD0612A41D0522AD3D1802292
:101E30001B889200A3701B0A2280E37029E5FF2112
:101E40007A4BD1540132102AFBD10123754A5B42EF
:101E50005380754A5380714A5380714A53800122DE
:101E6000734B1A700023FEF754FDAA88110AD97229
:101E70001A730023FEF74DFDAA88110A59739A734D
:101E80000023FEF746FDAA88110AD9731A740023AD
:101E9000FEF73FFDAA885A740023FEF73AFD80231F
:101EA0005B002380AB88614AD35CA370F1E480239C
:101EB0005B0023805F4B1B68DB78F6E7C022D20013
:101EC0002280DA7AA2701A7BE2705A7B22719A7BA6
:101ED0006271DA7BA2711B7C9CE7524B28785C68AC
:101EE000544B1B68D9787F2800D9ABE05248009E3C
:101EF000067000290FD000200090982900D1A7E09B
:101F000004E000200090D02900D1A1E04849103021
:101F10000870FF2104E049490B609021D9706F31AE
:101F2000009195E007201040032817D8FEF70AFB20
:101F3000191B0214394B802A00D2AAE4872A14D92B
:101F40007032D2B2072A00D9A3E400222270EA78C4
:101F50009A72AA881A809CE4314BECE7B523FEF70D
:101F6000D8FC304BE7E7304BE5E7A888E978C6B204
:101F70008D19BE22102D2CDC0432002929D0DD78E9
:101F8000033AFF2D25D19D780132FF2D21D100226A
:101F9000D7B2B9421FD82A4D0022AC464F01013FAB
:101FA0001F727701000A67449870DA705A729A7249
:101FB0001A80DA721A735A739A73DA731A745A742B
:101FC0005F601A4B9D19A8540132D3B29942FAD8D6
:101FD000002222705DE40132B718144D013FEF5D1D
:101FE000FF2FD5D0C122F4E7AB78002B04D0402BD3
:101FF00007D0D223FEF78DFC2370AA880C4B1A70F1
:1020000047E480235B002380094B1B784DE7802346
:10201000FEF77FFC34040020300400206004002020
:1020200074040020380400204C040020DB0400204D
:10203000980400208C0400209404002090040020C8
:10204000EC040020D82900D05BE780215C68D970BF
:1020500000215972DB78902B01D0FFF71AFC712A0E
:1020600001D0FFF716FC074BAA881B6859680A7055
:10207000AA885968120A4A705A7A02325A72FFF7CD
:1020800008FCC04690040020F0B51C4D040005A8D3
:10209000067868690902C0B208436861902004218B
:1020A000C00581622900002A01D101328262FF2528
:1020B00000204A692D022A401A43114F4A61C04646
:1020C000C046C046C046C046C046C046C046C046E0
:1020D000C0463A690133120A22544A69DBB22A40E7
:1020E00001301A43C0B24A61B042E8D990230422B9
:1020F000DB059A61033A9A61F0BDC04600080048CA
:1021000000040048F0B5184C050060690E02C0B22A
:102110003043606180269020F600C00549B2866198
:10212000002901DA01218162FF266169360231400E
:1021300011436161C04600200C4FC046396901322D
:10214000090A29546169D2B2314001301143C0B249
:1021500061619842F1D990238022DB05D2009A6216
:1021600001229A61F0BDC046000800480004004802
:10217000F0B5174C05000E0060691F2925D8802195
:1021800031430902C0B20143616190210420FF265E
:10219000C905886261693602314011436161C046F8
:1021A00000200C4FC04639690132090A295461697F
:1021B000D2B2314001301143C0B261619842F1D9CD
:1021C00090230422DB059A61F0BDC0B20902DAE770
:1021D0000008004800040048002302000002002A12
:1021E00004D1002B01D0802318437047DB43511EDC
:1021F000DBB20A40F3E70023800080B2C046C0464D
:1022000001339BB29842F9D17047FFFF134B10B5D1
:102210005861134B13481C68090220431860586921
:10222000C0B20143596190210820C9058862002A83
:1022300001D101328A62C046C046C046C046C0468F
:10224000C046C046C04690220821D2059161073998
:1022500091611A6804490A401A6010BD00080048DC
:102260000004004800005555FFFFAAAA0F4B586113
:102270009023DB05002901D101229A6204229A628F
:10228000C046C046C046C046C046C046C046C0461E
:10229000C046C046C046C046C046054908699A6166
:1022A000000A033AC0B29A617047C046000800486D
:1022B00000040048F7B504000E004D7AC046C04641
:1022C000C046C046C046C046C046C046C0460022C2
:1022D000AA215848FFF79AFF002255215648FFF7D8
:1022E00095FF2402002220215248FFF78FFF23B2DE
:1022F0000193EBB20093337AAB4216D28020009B5D
:102300000022737290210002FFF780FF00228020DC
:1023100011000002FFF77AFF80200022F021000266
:10232000FFF774FFC0460020FEBD444B444A1968C5
:1023300008200A43FF211A605A690A40A0210902B5
:102340000A435A6190220121D20590629162C046EF
:10235000C046C046C046FF24906191611A68394961
:102360002C400A401A60019B009A1C437368A4B277
:10237000995C20000022FFF749FFC046C046C046D6
:10238000C046C046C046C046C046C046C046002102
:102390002000FFF76BFF0700C046C046C046C0469E
:1023A000C046C046C046C046C0467368009A9B5CA3
:1023B000834217D0C046C046C046C046C046C0464D
:1023C000C046C046C04600212000FFF74FFFB8427C
:1023D0000BD1C046C046C046C046C046C046C046F7
:1023E000C046C0460135ADB283E7C046C046C046D0
:1023F000C046C046C046C046C046C046C046C046AD
:10240000C046C046C046C046C046C046C046C0469C
:10241000C046C046C046C046C046C046C046C0468C
:10242000C046C046C04600212000FFF71FFF07003E
:10243000C9E7C046AA8A000055850000000400488C
:1024400000005555FFFFAAAA70B504000D00002238
:10245000AA210F48FFF7DAFE002255210D48FFF7A9
:10246000D5FE0022A0210A48FFF7D0FE0022290055
:102470002000FFF7CBFE00212000FFF7F7FE05004C
:10248000C04600212000FFF7F1FEA842F3D170BD45
:10249000AA8A00005585000070B504000D000022D6
:1024A000AA210F48FFF7B2FE002255210D48FFF781
:1024B000ADFE0022A0210A48FFF7A8FE0022290055
:1024C0002000FFF7A3FE00212000FFF7CFFE05004C
:1024D000C04600212000FFF7C9FEA842F3D170BD1D
:1024E00055550000AA2A00000F4B30B590225861C4
:1024F00080230124D205DB0093620C4B94621D689B
:102500000B480902284318605869C0B20143596159
:10251000C04608219162C046916119680548014092
:102520001960946130BDC0460008004800040048AE
:1025300000005555FFFFAAAA0B4B10B5802158612A
:10254000902301220424DB05C90099619A629C62F0
:10255000C046C046C046054800699C61000A9962B1
:10256000C0B29A6110BDC04600080048000400488F
:102570000E4B984202D880231B0218430C4B0D4A85
:1025800058610D4B0902186802431A605A69D2B2A9
:1025900011435961C04690220821D2059162C0467C
:1025A00091611A6805490A401A607047FF1F0000D0
:1025B000000800480000555500040048FFFFAAAA83
:1025C0000A4B984202D880231B021843084B04226E
:1025D00058619023DB059A62C046C046C046C0469B
:1025E000044908699A61000AC0B27047FF1F0000E1
:1025F000000800480004004870B504000D000D48B4
:10260000AA21FFF7B5FF55210B48FFF7B1FFA02125
:102610000848FFF7ADFF29002000FFF7A9FF2000C1
:10262000FFF7CEFF0500C0462000FFF7C9FFA84214
:10263000F5D170BD55150000AA1A000070B5040050
:102640000D000D48AA21FFF793FF55210B48FFF716
:102650008FFFA0210848FFF78BFF29002000FFF71C
:1026600087FF2000FFF7ACFF0500C0462000FFF702
:10267000A7FFA842F5D170BD55150000AA0A0000B9
:102680009023DB0530B51C68134D09022C401C60FB
:10269000DA68124C2A40DA60114A506102229A62CA
:1026A000104A00B215682C4314605469E4B2214307
:1026B00051618021C9009961002801DA01209862E6
:1026C000C046C04699620121996149189961136811
:1026D00005490B40136030BDFFEFFFFF000055556B
:1026E0000008004800040048FFFFAAAAF7B51C4BE9
:1026F00007001D781B4B01911C88202126002036E5
:10270000B6B23000FFF7BCFFAA211748FFF730FF31
:102710002000103080B21021FFF7B2FF2D015521AB
:102720001248FFF725FFEDB220213000FFF7A8FF88
:102730006419A0210C48FFF71BFFA0B22900FFF786
:102740009FFF01993800FFF713FF3800FFF738FFAC
:102750000400C0463800FFF733FFA042F5D1F7BDB3
:10276000880400203604002055150000AA0A000045
:1027700070B50400B0200E0000020A21FFF780FFB0
:10278000C0200A210002FFF77BFFAA211248FFF7B1
:10279000EFFE55211148FFF7EBFEA0210E48FFF791
:1027A000E7FEB0200E4B00021D782900FFF768FFFE
:1027B000C02029000002FFF763FF31002000FFF76F
:1027C000D7FE2000FFF7FCFE0500C0462000FFF703
:1027D000F7FEA842F5D170BD55150000AA0A000009
:1027E00088040020F8B505000E00194B02211C8852
:1027F000A71CBFB23800FFF743FFAA211548FFF717
:10280000B7FE601C80B20121FFF73AFF5521124844
:10281000FFF7AEFE02213800FFF732FFA0210D487E
:10282000FFF7A6FE0D4B19786418A0B2FFF728FF3A
:1028300031002800FFF79CFE2800FFF7C1FE0400CE
:10284000C0462800FFF7BCFEA042F5D1F8BDC04647
:102850003604002055150000AA0A00008804002054
:102860000D4B802258619023D200DB0500B29A61A3
:10287000002801DA01229A62C046C046C046C0461E
:10288000064B802218699023D200DB059A62012250
:10289000000AC0B29A61704700080048000400486E
:1028A00070B504000D001048AA21FFF7E9FE55217C
:1028B0000E48FFF7E5FEA0210B48FFF7E1FE2900D7
:1028C0002000FFF7DDFEA020094B00021978FFF77A
:1028D000D7FE2000FFF7C4FF0500C0462000FFF729
:1028E000BFFFA842F5D170BDAAFA000055F500005F
:1028F0008804002070B504000D001048AA21FFF7DD
:10290000BFFE55210E48FFF7BBFEA0210B48FFF785
:10291000B7FE29002000FFF7B3FE8020002100024F
:10292000FFF7AEFE2000FFF79BFF0500C04620002A
:10293000FFF796FFA842F5D170BDC04655D50000FF
:10294000AAAA00000D4B0E4A58610E4B09021868E6
:1029500002431A605A69D2B2114390225961802110
:10296000D2051068490101431160402191629161D3
:102970001A6805490A401A607047C04600080048B6
:102980000000555500040048FFFFAAAA104B114A49
:1029900010B558611068104B090203431360536966
:1029A0000E4CDBB21943902351618021DB0518687E
:1029B0004901084318604020986218682040186058
:1029C000D8680143D960136805490B40136010BDF6
:1029D000000800480004004800005555FFEFFFFFC5
:1029E000FFFFAAAA70B505000E00134B00211C883A
:1029F0002000FFF745FEAA211048FFF7C7FF552129
:102A00000F48FFF7C3FFA0210C48FFF7BFFF0D4B96
:102A100019786418A0B2FFF733FE31002800FFF7E1
:102A2000B5FF2800FFF71CFF0400C0462800FFF791
:102A300017FFA042F5D170BD3604002055550000A7
:102A4000AA2A00008804002070B504000D000D487B
:102A5000AA21FFF79BFF55210B48FFF797FFA02105
:102A60000848FFF793FF29002000FFF78FFF2000A1
:102A7000FFF7F6FE05002000FFF7F2FEA842F6D1B0
:102A800070BDC04655550000AA2A0000F0B58BB0B5
:102A90000992012208911100354B02901F78354BA5
:102AA0001B780493344B1D68344B1B789940344B8E
:102AB00001911868334BA9621B789A40029B102B36
:102AC0004FD18262012421002F4B05941B6806938D
:102AD0002E4B1B7899408BB2210007932C4B1B681F
:102AE0009C462C4B1B789940002303911900029CB3
:102AF000202C05D1049E059C1E41264236D08261C1
:102B0000089C202C0FD1002B01D11A4C6354069C39
:102B10002669079C264206D0164C665C059C9C40A4
:102B20002643144C6654099C013FFFB2002C03D08D
:102B3000002F01D1019CAC616446039E0133DBB2DE
:102B4000A661A662082B05D101310A4BC9B25B5CB4
:102B500004930023002FCAD1019B8262AB620BB0A9
:102B6000F0BD029B112BADD18261ABE78262C7E75A
:102B7000D9040020B90400201C07002020070020F1
:102B80000C07002010070020140700201807002061
:102B90000407002008070020F7B501221A4B1C7813
:102BA0001A4B19681A4B1B789A40102826D18A6252
:102BB00001263500174B01961B680093164B1B78B6
:102BC0009D400023AC461D0020280DD1134E019FCF
:102BD000765D1E413E4215D08A610133DBB2082B7F
:102BE00002D100230135EDB26646009F013CE4B2FC
:102BF000BE61BE62002CE7D18A62F7BD1128D7D131
:102C00008A61D5E78A62E8E7D90400201C07002022
:102C1000200700200407002008070020B904002036
:102C2000F0B52C4B85B01B78019301231E00019A4F
:102C30001F009640284A1168284A8E621278029234
:102C40001A000298824094466046254A12689062B3
:102C5000244805782448AF4000689D408762046896
:102C600003941C00AC402500039C25430560456887
:102C7000019CBD4345609C401D00A54008681C00A8
:102C8000284308604868B04348601068029999403A
:102C90008C40210001436046116051688143134814
:102CA00051600078124A9840834012681168994335
:102CB0001160D1680B43D36080220E4B1A70002341
:102CC00019000D4A13700D4A99540133202BFBD182
:102CD00005B0F0BD200700201C07002010070020D1
:102CE0000C07002008070020040700201807002018
:102CF00014070020DA040020D9040020B9040020C1
:102D000010B52B4B1B78082B4ED013D8294C032B16
:102D100039D006D8012B28D0022B2AD0254BEE2201
:102D20003AE0062B3AD03DD8042BF7D101222021DE
:102D3000112021E00F2B28D008D81E4C0D2B1FD0BE
:102D400000220E2BEAD12021102015E0802B06D086
:102D5000184CFF2B06D0102BE0D100221FE0FFF70C
:102D60005FFF10BDF0232370FBE72020FFF714FF67
:102D700004E0012200212020FFF788FE8223F2E7F1
:102D800000221100F7E70122DDE7002220211120B7
:102D9000FFF77CFE8222074B1A70E2E70122202116
:102DA0000800E9E71020E1E71120FFF7F5FEF1E761
:102DB000B8040020DA040020BC234749DB038A6AF8
:102DC000F0B513438B628B6A444A012413408B6233
:102DD00090238022DB051868D20102431A6080220A
:102DE0009A61B0224869520302434A611A683C481A
:102DF0003C4F02401A608022D868520302430420EC
:102E0000DA601A68A2431A60DA682243DA601A6844
:102E100082431A60DA680243DA6010221D68954323
:102E20001D60DD682A43DA6040221D6895431D60FD
:102E3000DD682A43DA601A682B4D2A401A60802226
:102E4000DD68D2042A43DA601A68284D2A401A60E5
:102E50008022DD68D2052A43DA601A68244D2A40B0
:102E600080251A60DA68ED022A43DA60214A166882
:102E7000A6431660D6683443D4601E683E401E6088
:102E8000DC683C40DC6080234C691B0323434B61BE
:102E9000194B1A4C1E681A4F26431E601E683E408E
:102EA0001E60DE683443DC604B691D434D6113686E
:102EB000144D2B401360D468134B1C43D46011682D
:102EC00029401160D1680B43D360136883431360BA
:102ED000D3681843D060F0BD00100240FFFFA1FF8F
:102EE000FFFFEFFFFFEFFFFFFFFFFFFBFFFFFFBF56
:102EF000FFFFFBFF000400480008004855555555EA
:102F0000AAAAAAAAFFFFAAAA00005555F7B50D0064
:102F1000042701924C7A000203B2A6B200932B7AE6
:102F2000B34202D26C720020FEBD00986B68204351
:102F3000195D80B2019B98476B681A5D094B82420C
:102F400005D01A683A431A6002229A61E7E71A68C4
:102F50000134BA431A60DA6801363A43DA60E4B2FF
:102F6000B6B2DCE700040048F7B50D001600FF27F5
:102F7000000203B24C7A01932A7AE3B2A24202D24F
:102F80006B720020FEBD20006A683840D15C019B56
:102F90000134184380B2B047A4B2EDE7022907D14B
:102FA0000F4B104A984218D0904209D1180007E000
:102FB000032906D10A4B0B490B4A98420BD1080052
:102FC00070470429FCD1064B064A984205D00649B1
:102FD0009042F4D0054A8842E6D11000F0E7C0469E
:102FE000380400204C0400206004002074040020F9
:102FF00070B506000D0005243000013CFFF730FCE1
:10300000E4B229003000FFF73BFB6D08002CF3D140
:1030100070BDFFFF70B50400A0200D00000202216A
:10302000FFF7E6FFAA211048FFF7A2FA55210F4843
:10303000FFF79EFAA0210C48FFF79AFAA0200C4B4C
:1030400000021978FFF7D4FF29002000FFF790FA5B
:103050002000FFF7B5FA0500C0462000FFF7B0FAE0
:10306000A842F5D170BDC04655150000AA0A00005F
:103070008804002070B50400C0200D000002052166
:10308000FFF7B6FFAA210D48FFF7FAFA55210C48C1
:10309000FFF7F6FAA0210948FFF7F2FA290020000D
:1030A000FFF7EEFA2000FFF7DBFB0500C04620002B
:1030B000FFF7D6FBA842F5D170BDC04655550000BC
:1030C000AAAA0000F7B501230225294F01923A78F8
:1030D0000091054393400421A020264E2D049BB26D
:1030E00029433268C00100F01BFE040001283DD1D5
:1030F0003B7809209C4005437830A3B23268290010
:10310000FF3000F00DFE040001282FD13B7832681B
:103110009C402900A3B2002000F002FE0400012818
:1031200024D1009B180AFFF757F83B7832689C407F
:103130002900A3B200F0F4FD0400012816D16B466B
:103140001878FFF749F822003B7829009A4093B29B
:10315000326800F0E5FD0198FFF73EF83B783268F1
:103160009C402900A3B200F0DBFD0400E0B2FEBDEC
:1031700000070020FC060020F7B501230225274F99
:1031800000903A780191054393400421C020244ED9
:103190002D049BB229433268800100F0C1FD040078
:1031A000012838D109231D433B78C0209C40326858
:1031B000A3B22900400000F0B3FD040001282AD189
:1031C0003B7832689C402900A3B2002000F0A8FDA3
:1031D000040001281FD1019B180AFEF7FDFF3B7870
:1031E00032689C402900A3B200F09AFD0400012837
:1031F00011D16B461879FEF7EFFF22003B789A4019
:1032000093B2009A14430922E1B2090411433268CF
:1032100000F086FD0400A0B2FEBDC04600070020FD
:10322000FC0600209022D44B12031968F0B50A4323
:103230001A6080228BB0920219681142FCD00122E0
:1032400059680A435A608022596852020A435A60F8
:103250008022596852030A435A6080221968520436
:103260000A431A608022920419681142FCD011218D
:103270000224C24AC24D11605A680E398A43224361
:103280005A608022196B0A431A638022D96912049A
:103290000A43DA61BB4BEB81BC231B689847BA4BEE
:1032A0006B82BA4B2B8262B6B94BBA4A1A60BA4AE1
:1032B0001A60A02212015C609A600493049BDB6890
:1032C000002BFBD1049BB54C1C60FFF775FDF02271
:1032D000B34B09941A70049B099AB24E1A60327863
:1032E000202311009943D2291BD1AF49AF48C97897
:1032F000C3780224FF2904D1FF3B1C00631E9C41BC
:10330000E4B2AB4BDB78FF2B00D00324A94BDB7876
:10331000FF2B00D00424A84BA84F1C703860D22A81
:103320004BD03378F22B05D10022023B3370A34BF4
:103330001B68DA703578D02D00D055E19F4E30688B
:10334000C378802B00D04FE19B4B1978FFF726FE06
:1033500000233060C570068804004372C07AF5B25D
:103360001038152800D93DE1FDF706F95E009600FA
:10337000DE00E2003C013C013C013C013C013C011F
:103380003C013C013C013C013C013C012A0037006E
:1033900045004A004D0057002100FFF7FFFD0123C3
:1033A0000135EDB2A542F7D3002B00D03860802262
:1033B0003B68DA70D0233370B3E700230125F1E7CF
:1033C000E17B0F2900D930E109013143237AA2784A
:1033D000C9B26068FEF796FE0BE03C23E17B0A0071
:1033E0009A4300D021E1237AA27829436068FEF74E
:1033F000BFFE60728FE0237AA278E17B2943E8E781
:10340000E17B3F23EBE7227AE17BA3780092002265
:1034100029436068FEF738FEEBE7E17B227AA37868
:10342000294300920122F4E7E37B1E2B0BD1C0203D
:10343000B6092233F1B200029D43FFF721F9237A46
:10344000A2788021DAE71C2B0FD1A0208121C001B6
:10345000FFF716F98020F609F1B20002FFF710F924
:10346000A0200021C001FFF70BF98021E27B494237
:103470001F2A05D00D43EDB2237AA2782900A8E7D0
:103480007022A02095430D432188C0010909C9B2CB
:10349000EDB2FFF7F5F8EFE7E37BFE2B3BD17609C2
:1034A000F1B24748FFF764F81F21464B29405A699B
:1034B0000902D2B20A43A0786768267A80215A614D
:1034C0009022C900D20591610121FF25916203314B
:1034D00091625A692D022A4002435A61C0463A4914
:1034E00000228C46C046614609690130090AB95478
:1034F0005969C0B2294001320143D2B259619642A2
:10350000F0D290230421DB0599618021C9009962E2
:10351000012199616272294B1B6819889A7A5218A5
:103520001A80D822DA705FE0237AA278602165E7FA
:10353000E37B002B4ED18033F6091D43F3B2029397
:10354000FF20029B20499B004A6903401F4802401C
:1035500013434B61C0209021029BC905C000DB00D2
:103560004A6903401A48024013434B61227AA37808
:103570002900009200224CE7001002400020024087
:10358000006000403CA5FFFF4108000885080008D6
:1035900000300040CCCC000055550000AAAA000025
:1035A000DA040020980400204C0400203804002095
:1035B0006004002074040020950400208C04002086
:1035C000FF3F0000000800480004004803FF00001F
:1035D000FFF90000012BB3D140217604760E314370
:1035E0000291ADE7C323E370D84B1D78F02D00D0D6
:1035F00063E3D74E3468E378982B00D05DE3D54B76
:1036000020001978FFF7CAFC00233060C370E07A0D
:10361000E57010382678042800D94CE3FCF7ACFF9D
:1036200007005102DF02E702F700C423DBE7E37B78
:10363000002B06D130008038C0B2C74A2100FFF706
:1036400065FCE37B012B06D130008038C0B2C34A51
:103650002100FFF789FCE37B032B06D13000803883
:10366000C0B2BF4A2100FFF77FFCE37B042B06D1E9
:1036700030008038C0B2BB4A2100FFF747FCE37B33
:103680000A2B06D130008038C0B2B74A2100FFF7BC
:103690006BFCE37BFD2B15D13F20238830409B0939
:1036A00005936B4680261B7D06430793677ABBB262
:1036B000039333021BB20893237A039A934200D3F5
:1036C000ACE06772E37B1E2B13D13F203040802695
:1036D000238806439B09DBB20693677ABBB2039348
:1036E00033021BB20793237A039A934200D3DDE09F
:1036F0006772E37B0C2B17D11F20304080260643D6
:10370000C0202588A5216D09EDB2C001FEF7B8FFE4
:1037100029009648FEF7B4FF677A35023D43237AC5
:10372000BB4200D336E16772E37B1C2B3BD1A02068
:1037300023888121DB09DBB2C0010593FEF7A0FFDE
:10374000802005990002FEF79BFFA0205421C001B4
:10375000FEF796FF677AAA21BBB285480393FEF76E
:103760008FFF55218348FEF78BFF20218048FEF70D
:1037700087FF802333431B021BB20793237A039AEC
:10378000934200D323E18020902100026772FEF76C
:1037900077FF802000210002FEF772FF8020F021D9
:1037A0000002FEF76DFFE37B1F2B30D1A0202188A4
:1037B000C0010909C9B2FEF763FFAA216C48657A06
:1037C000FEF75EFF55216B48FEF75AFF684820213F
:1037D000FEF756FF702380209E434042304340B2A4
:1037E0000302AFB20593237ABB4200D337E18020B6
:1037F000902100026572FEF743FF80200021000245
:10380000FEF73EFF8020F0210002FEF739FFF4238F
:103810002288E370A37A9B1823804EE20021564849
:10382000FEF72EFFAA215548FFF78CF85521544882
:10383000FFF788F8A0215148FFF784F86B46187D00
:10384000504B0799C01880B2FEF71AFF089D6368B5
:103850003D43ADB2D95D2800FFF774F8C04628009B
:10386000FEF7FEFF06902800FEF7FAFF069B834254
:10387000F4D163680699DA5D434B8A420FD1039A0B
:103880001968013292B20392042291431960D968F7
:1038900001370A43DA600222FFB29A620CE704227F
:1038A00019680A431A6002229A6105E7C0200121C3
:1038B0000002FEF7E5FEAA213448FEF7E1FEC02033
:1038C00000210002FEF7DCFE55213148FEF7D8FE4C
:1038D000C02001210002FEF7D3FEA0212B48FEF7F5
:1038E000CFFEC02006990002FEF7CAFE079D63685E
:1038F0003D43ADB2D95D2800FEF7C2FEC0462800A8
:10390000FEF7AEFF05902800FEF7AAFF059B834255
:10391000F4D163680599DA5D1B4B8A420FD1039A93
:103920001968013292B20392042291431960D96856
:1039300001370A43DA600222FFB29A62D3E6042218
:1039400019680A431A6002229A61CCE698040020A2
:103950008C04002095040020492A000875300008D6
:10396000E5290008F5280008A1280008FFFF00004D
:10397000AA8A00005585000069FD00005555000029
:10398000AA2A000069FDFFFF0004004855950000C9
:10399000AAAA0000AA21D048FEF772FE5521CF48FE
:1039A000FEF76EFEA021CC48FEF76AFE6368280091
:1039B000D95DFEF765FEC0462800FEF751FF039073
:1039C0002800FEF74DFF039B8342F4D1A7E6A02019
:1039D0005421C001FEF754FE079DA0213D43ADB226
:1039E0002800FEF74DFE63682800D95DFEF748FE0B
:1039F000C0462800FEF734FF06902800FEF730FF8F
:103A0000069B8342F4D16368069ADB5DB44D934212
:103A10000FD1039B2A6801339BB2039304239A437B
:103A20002A60EA6801371343EB600223FFB2AB62FE
:103A3000A4E6A0208121C001FEF722FE8020059986
:103A40000002FEF71DFEA0205421C001FEF718FE63
:103A500004232A6813432B600223AB618EE6059E84
:103A6000A0212E43B6B23000FEF70AFE6368300094
:103A7000595DFEF705FEC0463000FEF7F1FE0390EB
:103A80003000FEF7EDFE039B8342F4D16368039997
:103A90005A5D934B8A420DD104211A6801358A433D
:103AA0001A60DA6801370A43DA600222EDB2BFB267
:103AB0009A6298E604211A680A431A6002229A61FF
:103AC00091E6E37B002B04D1864A21003000FFF70A
:103AD0004BFAE37B012B04D1834A21003000FFF72E
:103AE00043FAE37B022B04D1804A21003000FFF728
:103AF0003BFAE37B042B04D17D4A21003000FFF721
:103B000033FAE37B0A2B04D17A4A21003000FFF715
:103B10002BFAE37B0B2B04D1774A21003000FFF70F
:103B200023FAE37BFE2B00D071E621887348490914
:103B3000C9B2FEF71DFDAA217148657AFEF7D4FCD3
:103B400055217048FEF7D0FC6D482021FEF7CCFCD3
:103B50001F2030400302AFB20593237ABB420DD23F
:103B6000657290210020FEF7BFFC00210800FEF7DF
:103B7000BBFCF0210020FEF7B7FC48E6059EA02123
:103B80002E433000FEF7B0FC63683000595DFEF74D
:103B9000ABFCC0463000FEF7CFFC03903000FEF7D0
:103BA000CBFC039B8342F4D1636803995A5D4C4B71
:103BB0008A420DD104211A6801358A431A60DA68F5
:103BC00001370A43DA600222EDB2BFB29A62C4E75B
:103BD00004211A680A431A6002229A61BDE7300084
:103BE0006030494A2100C0B2FFF7BEF90FE6E37B1F
:103BF000042B06D130008038C0B2444A2100FFF7C0
:103C0000B3F9E37B052B04D1404A21003000FFF7D4
:103C1000ABF9E37B062B06D130008038C0B23C4ABA
:103C20002100FFF7A1F9E37B072B04D1384A2100DB
:103C30003000FFF799F9E37B002B1CD1FF22803382
:103C40001E4323882648DB09DBB29D0041692A40D8
:103C5000304DDB0029400A4342619022C020D2054A
:103C6000C000516903402C4801400B4353612100BF
:103C70003000FEF71FFBE37B012B00D0C7E5238854
:103C8000174A5B04580E40230343FF209B005169F1
:103C90000340204801400B4390215361C9054B6903
:103CA0001D4A30001A4080239B0013434B612100C2
:103CB000FEF700FBABE5C323E370184B1B78F02B3A
:103CC00001D1FFF708FB832B01D0FFF704FBFFF7BF
:103CD00017F8FFF700FBC04655D50000AAAA000060
:103CE000000400483D26000815300008E5270008BC
:103CF000F925000871270008ED260008FF3F0000A5
:103D0000AA0A000055050000812600089924000831
:103D10004924000803FF0000FFF90000DA04002036
:103D2000F0B5474680B4061C081C000C102801D5CD
:103D3000162700E004270007000F8046FF200140FF
:103D40005468251C1D439C43F60313850AD5C046C1
:103D5000C046C046C046C046C046C0469480138395
:103D6000958002E0012000F081F801390AD4381C66
:103D700000F07CF8C046948013839580C046C0460E
:103D80007600E2E7381C013800F070F89480138365
:103D90009580042000F06AF8108A184001D0FF20B6
:103DA00061E0C046C046C046C046C046C04694809A
:103DB0009580108A184055D001200226B04552D077
:103DC0000921168A1E40FCD1012000F04FF8948092
:103DD000C0469580C04603E0C046C046C046C046C7
:103DE000948095807600108A1840EFF300804000A0
:103DF000C00F0643381C023800F038F894809580D4
:103E0000022000F033F80139EAD5138594800120AF
:103E100000F02CF813839580301C802102239940F8
:103E20000E401BD1002341085E4149085E4149080C
:103E30005E4149085E4149085E4149085E414908C2
:103E40005E4149085E4149085E41760808D3400852
:103E5000FF21084048400002013004E00E2002E04B
:103E6000092000E0002080BCB846F0BD0138FDD13B
:103E70007047C04603685A0003D45B005B08C01853
:103E80007047802212061343F9E7C046F0B5574643
:103E90004E46DE464546E0B5814683B0924600294F
:103EA00025D04B1E9B46002701935B46FB18DC0F79
:103EB000E4184B466410E5005E193000FFF7DAFFA6
:103EC000019B8046A3420BD0280008304844FFF7EE
:103ED000D1FFD04506D80138504509D2671CE4E728
:103EE000504505D9A74202D0631E9B46DDE7002658
:103EF000300003B03CBC90469946A246AB46F0BDAC
:103F0000012809D0022805D0002801D000207047E0
:103F10000248FCE70248FAE70248F8E7F5450008DE
:103F20000D4600080146000830B5234B83B005005C
:103F30008C1E002B26D001A9200000E000BF002825
:103F40001CD001992200FFF7A1FF041E16D0FFF735
:103F500091FF6368A864012B2AD0201D002B23DB6E
:103F6000FFF788FF0023E8642B650368002B0FDB55
:103F7000FFF780FF2861002003B030BD0023092037
:103F80002B61F9E70D480E49091AC9100191D9E7CB
:103F90001801000FFFF7B4FF2861431E9841082362
:103FA000404298430930E7E70123E8642B65DCE7EA
:103FB000002305202B61DFE700000000F04E000821
:103FC000C04F0008036810B50400DA0705D4483074
:103FD0009B070ED500F06CFC23685A070ED51A0714
:103FE00013D5DB0604D42000D130FF3000F06CFC88
:103FF00010BD00F059FC23685A07F0D42000D030DF
:1040000000F05AFC23681A07EBD420005130FF302F
:1040100000F056FC2368E4E70368002B00D01B186F
:1040200018007047092070477047C04670B50400FB
:104030000D0008E02B6C2A00636121000120236938
:104040009847082807D1296C2000FFF76DFF00284A
:10405000F0D000F083FE0728FBD10020296CFFF789
:10406000E3FF281D00F00AFCF0B5CE46474680B5B8
:10407000C3682E4C9846A544836906001400043199
:10408000402205A8994600F071FE002304AD049378
:1040900023E0F0222B6C5200736129007CA800F011
:1040A00065FE7CAA31003369200098478A9B07008F
:1040B0006B6403934B46009501933200330021005B
:1040C0000120C04700281FD1F0227CA952002800FF
:1040D00000F04CFE0024082F1FD1296C3000FFF7A0
:1040E00023FF611E8C41070009340028D1D0AB6B3F
:1040F00010216B644B46214301930095330032003D
:104100000120C047002800D009273800F5239B0074
:104110009D440CBC90469946F0BD072FF4D1200079
:10412000296CFFF781FF05A800F0A8FB2CFCFFFF1E
:10413000406C704770B5CB6BFAB00B6404000E0096
:104140004022043103A800F011FE01235B420293D8
:1041500006E002AA210023699847050008280AD131
:10416000129B200019000193FFF7DEFE0028F0D01B
:1041700009207AB070BD02A8FFF724FF062DF7D101
:1041800031002000FFF752FF10B58261DA6BC16089
:104190001A6419000022FFF767FF10BD436970B56C
:1041A0000B64C36804000D00002B15D10A002369BD
:1041B000010002209847072807D0082803D12900CA
:1041C0002000FFF733FF00F0C9FD0020296CFFF746
:1041D0002BFF281D00F052FB0122FFF745FF00F0E6
:1041E000BDFDC046C36810B5002B05D0CB6B0022C7
:1041F0000B64FFF739FF10BDFFF79CFFFBE7C046DC
:104200007047C046836810B5002B02D00100012022
:10421000984710BD012906D0002906D00339022095
:10422000012900D970470120FCE7002B08D10F2A93
:1042300006D8920082185268009B00201A60F1E7AD
:104240000220EFE700B585B003AB0A000093002120
:104250000023FFF7DFFF039805B000BD012906D05A
:10426000002906D003390220012900D97047012016
:10427000FCE7002B08D10F2A06D8009B92001B6890
:10428000821853600020F1E70220EFE700B585B007
:1042900003AB039200930A0000230021FFF7DEFF27
:1042A00005B000BD70B51A4CD36BA544136406006D
:1042B0000D0019A8111D402200F058FD01235B429A
:1042C000189314E00C2118A802AAFFF7DFFF2900B9
:1042D00018A8B047002812D1069B18AA02A90830D6
:1042E00001939847040005280AD0092807D0289B85
:1042F00002A819000193FFF717FE0028E2D0092455
:1043000018A8FFF75FFE200090239B009D4470BD1E
:10431000C0FDFFFFF0B5DE4657464E464546E0B5C8
:10432000160003220D0011008BB01F000193EB6CEF
:1043300001401C1D009107A91B688B460894002FA3
:104340006BD01A0C1B045946079302230B72FD33E2
:1043500013409B004A72E418009B022B00D1AC6B07
:104360002B6DDB0747D400230593083303400293EA
:104370002768002F00D112E1019B022B49D06388EE
:10438000278898460434012340469A469843AB6CEC
:104390000F21994681443000FFF754FF00218145E9
:1043A00006D83900534699434944884289414942D5
:1043B00043465A0002231340012217403B43012B7E
:1043C0003AD0002B30D0022B1BD12368009A5F001B
:1043D0007F08002A67D1002906D0029A002A00D15E
:1043E0007CE0002F00D1A9E0002B00DA0434013773
:1043F000BF00E419BCE75946300000F00BFB002871
:1044000010D009200BB03CBC90469946A246AB4662
:10441000F0BD636808349846B5E71B0207935B4616
:104420001A8199E70820EDE7009B002B02D00029B4
:1044300000D08DE004349BE7009B002B1AD10029AB
:1044400016D02368DF0F63689A1CDAD02A0058322E
:104450000692013300D1BDE0201DFFF7DDFD06AB64
:1044600001003A00280000E000BF002800D082E0F0
:1044700008347DE70D2130002F6AFFF7E3FE874205
:10448000F6D1AB6A9C42F3D12000FFF7F3FC0F2179
:1044900002003000FFF7FAFE30002A000021FFF78B
:1044A000F5FE0720AEE72B6A0D2130009846FFF796
:1044B000C9FE804501D0236896E7AB6A9C42FAD1D9
:1044C0000023EB6204332B63231DAF626B6323680D
:1044D000002B00DA86E00123059388E7002F2DD01A
:1044E00058239C46AC4463460393231D99460023FE
:1044F000984606AB220004933B004C464746B24622
:1045000098462E00914603E004342F00454542D0E2
:10451000039B20000693FFF77FFD049B0100002210
:1045200030007D1C00E000BF0028EDD04346B846B7
:1045300035004C4656461F009845BCD10D21300031
:10454000FFF780FE069B28626B62AC62062059E78B
:104550002000FFF78FFC04340700AC63280000E064
:1045600000BF002800D14CE730003A000F21FFF7D0
:104570008DFE072046E707000D213000FFF762FEA1
:104580002862022F2BD1069BEB622B002C336B622F
:10459000AC62062036E735004C465646CEE7594613
:1045A000300000F037FA002800D02AE7059B002BE6
:1045B00000D137E70F213000FFF744FE0E21020043
:1045C0003000FFF763FE3000094A0F21FFF75EFE5F
:1045D000072017E70D213000FFF734FE2862069B05
:1045E0006B62D5E738000130800020184DE7C046E7
:1045F0000000000010B50023FFF78CFE10BDC04680
:1046000010B50123FFF786FE10BDC04610B502238A
:10461000FFF780FE10BDC046F0B5CE46474680B5D8
:104620000500C3B014001E00012955D000294BD04D
:10463000032922D0042949D1002B47D1102A45D87B
:10464000102203681A4200D0F1E020AF380000F0D9
:104650003DF900230120A96B02009A40144203D0C7
:104660000E689A00BE5004310133042BF4D1380097
:10467000A96300F029F9002029E0032B26D11404B6
:10468000230C160C9846F318102B1FD80822036829
:104690001A4200D098E020AF380000F013F94246EB
:1046A000AB6BF6001C00002A08D0D400F21A1C19CB
:1046B000BA181968D15004339C42FAD1AC6338005F
:1046C00000F0FEF8002002E0002B24D0022043B0CE
:1046D0000CBC90469946F0BD130C14049846240C6B
:1046E000012E2ED0052EF1D11B19202BEED84246DB
:1046F0000F2A70D9A146002C7ED1AA6B4346AA632B
:104700000F2B00D89AE04B46002BDBD0684600F018
:10471000D3F80020DBE700231004A96B000C01365E
:1047200032009A40104204D00F689A00AA185760CD
:1047300004310133102BF3D10020A304C7D4A963A3
:10474000C5E71B19102BC1D843460F2BBED82B68C9
:104750001E4206D00322280093432B60483000F00D
:10476000A5F820AF380000F0A1F8AA6B002C24D0E7
:104770004346DB00FF180023994664000023A40091
:10478000D158F95004339C42FAD14B4612196F4666
:10479000002B0FD04046102800D210204B46D900E5
:1047A00000231038C0003818D458C450043399423C
:1047B000FAD15218012EA1D120AF04323800AA63D9
:1047C00000F072F8002082E7934303605130FF301D
:1047D00000F078F85FE7102B3BD910225242914647
:1047E00099442B68194208D0022228008B431343B6
:1047F0002B60483000F05EF82B6804221A4221D169
:1048000043460F2B03D820AF380000F053F86F4613
:10481000380000F053F810244346AA6BE41A002C29
:10482000B8DD434620AFDB006400FF18A6E79343E2
:104830000360D130FF3000F049F806E720A800F00F
:1048400037F860E7280093432B60D03000F036F84B
:10485000D6E72B680B4207D0022228008B43134374
:104860002B60483000F026F820AF380000F022F826
:10487000A146AA6B002C00D07AE73FE7011C343137
:1048800038C9043B9C461D60A646011C20313CC92A
:1048900090469946A246AB46011C0831FCC94168C6
:1048A0000068E54600BDC0467047C0467047C04638
:1048B0007047C0467047C0467047C0467047C04604
:1048C0007047C0467047C0467047C0467047C046F4
:1048D00001B401A801B585B0FFB408A841464A4615
:1048E00053465C4665463EC001A83EC80F980090FE
:1048F00000230CB401A9FFF71DFC109B12B0184750
:1049000001B401A801B585B0FFB408A841464A46E4
:1049100053465C4665463EC001A83EC80F980090CD
:1049200000230CB401A9FFF739FC109B12B0184703
:1049300001B401A801B585B0FFB408A841464A46B4
:1049400053465C4665463EC001A83EC80F9800909D
:1049500000230CB401A9FFF745FC109B12B01847C7
:1049600001B401A801B585B0FFB408A841464A4684
:1049700053465C4665463EC001A83EC80F9800906D
:1049800000230CB401ABFFF7FFFB109B12B01847DC
:1049900001B401A801B585B0FFB408A841464A4654
:1049A00053465C4665463EC001A83EC80F9800903D
:1049B00000230CB401AAFFF775FC109B12B0184736
:1049C000027A0300002A0BD1427A002A0FD0013A62
:1049D00042724268111D416003211268017202E0B7
:1049E000013A02720268100E12021A607047B0207B
:1049F000FCE7C04600B585B003AB00930C22002352
:104A00000021FFF707FC039805B000BD10B5FFF7C4
:104A1000F1FF10BDF0B557464E464546DE46002331
:104A2000E0B587B003930F339846083B994680233F
:104A30001B0306000F009A463800FFF7C1FF040071
:104A4000B02800D1C3E003062AD5030042469343B1
:104A5000DBB2802B00D171E0902B3DD0A02B00D198
:104A600085E0B02B50D0C02B00D196E003004A4621
:104A70009343DBB2D02B0AD15346024001321A4392
:104A8000052301213000FFF7C7FD0028D4D00924F9
:104A9000200007B03CBC90469946A246AB46F0BD0C
:104AA000FF23820013401D1D05AB9B4600930D2282
:104AB000002300213000FFF7ADFB630620D4059BE7
:104AC0009C46654405955B460D220093002100231A
:104AD0003000FFF7C3FBAFE7833B03400D2BD6D07D
:104AE00005AD02400095002300213000FFF792FB46
:104AF000009500230D2200213000FFF7AFFB9BE75C
:104B0000059B5D1B0595DEE7B12874D0B22800D166
:104B1000CFE0B32800D184E0FC230340B42BB6D00F
:104B20004A465346024001321A4301210123300014
:104B3000FFF772FD002800D17EE7A8E704023800E5
:104B4000FFF73EFF802520432D02A8429FD004019D
:104B50000005020C002300213000FFF75DFD002856
:104B600095D12C4200D167E70123039364E7FF232B
:104B70004A461B011900824311410A001A400307EB
:104B800002D58023DB011A43002300213000FFF708
:104B900043FD002800D14FE779E7C6284CD0C7284D
:104BA0005ED003004A469343DBB2C02B6DD0C828C9
:104BB00072D0C92800D06AE73800FFF701FFF02360
:104BC00002031B03134042460240013257E7039B96
:104BD0000024002B00D05BE705AD00950E220021DC
:104BE0003000FFF717FB009500230F220021300053
:104BF000FFF734FB4CE73800FFF7E2FE002800D156
:104C000045E7030042469343DBB2002B00D03EE76A
:104C1000020000213000FFF7FFFC002800D10BE765
:104C200035E73800FFF7CCFEF02302031B031340E7
:104C300042460240013277E73800FFF7C1FEF02319
:104C400002031B0313404246024001321A4303236E
:104C500003213000FFF7E0FC002800D1ECE616E766
:104C60003800FFF7ADFE021E00D110E703004146F9
:104C70008B43DBB2002B00D009E704213000FFF7A3
:104C8000CBFC002800D1D7E601E74346A0221C4018
:104C9000013412032243DAE73800FFF791FE43465E
:104CA00002009A43D2B2103218401203013002437C
:104CB000E6E605AB00939B460D2200230021300061
:104CC000FFF7A8FA3800FFF77BFE030618D57F250B
:104CD000B03C059B2840A0409C46604405903800AD
:104CE0000734FFF76DFE0306F3D481217F2389008B
:104CF00003408C46A340059A62449B180593E2E664
:104D00000224F2E7030000B5DB6C85B05A680800A6
:104D1000120201921A0001A908324A6003220A72A3
:104D2000DB794B72FFF776FE05B000BD10B5FFF7DB
:104D30006DFE806C10BDC04610B5FFF767FEC26CFB
:104D4000D3799B000833D01810BDC04610B500F0D1
:104D500005F8C04610B5FFF7F9FFC04610B50620AC
:104D600000F076F8012000F0A5F8C046F0B50F2A53
:104D700037D90D0005430C000300AD0735D11500F0
:104D8000103D2D092E013618103627681F60676800
:104D90005F60A7689F60E7681034DF601033B3423C
:104DA000F3D10F2401352D01491914404519032C65
:104DB0001DD90023CE58EE500433E61A032EF9D83D
:104DC0000323043CA4080134A4001A402D19091936
:104DD000002A05D00023CC5CEC5401339342FAD175
:104DE000F0BD0500002AF5D1FAE70500F2E7220040
:104DF000F8E7C04670B505000C001F2922D8B7237C
:104E00009B00C358002B0ED08A009B181A68002AFA
:104E100009D0012A10D0511C10D0002120001960A7
:104E20009047002070BD280000F030F822000100FB
:104E3000280000F017F8F5E70020F3E716230360D9
:104E40000120EFE71623036001204042EAE7C04655
:104E500010B5034B01001868FFF7CCFF10BDC0462A
:104E600000000020002370B5074C05000800110069
:104E7000236000F017F8431C00D070BD2368002B9E
:104E8000FBD02B60F9E7C0462407002010B500F0E6
:104E900001F810BD58220120014B40421A607047B2
:104EA0002407002058220120014B40421A6070471D
:104EB00024070020FEE7C046F8B5C046F8B5C04656
:104EC00074B20181B0AB308000000000800A018123
:104ED000B0B0ABF0000000003F020181B0AB308009
:104EE0000000000080060181B0B0ABF000000000BF
:104EF00030EEFF7FB0B0B0807CEFFF7F010000009C
:104F000028F0FF7FB0A90280BCF0FF7FB0B0A8807E
:104F100008F1FF7F0100000014F1FF7FB0B0AA800C
:104F200048F1FF7F9CFFFF7F08F2FF7F0100000038
:104F300004F2FF7FAA3F398050F2FF7FB0B0A88013
:104F40005CF2FF7FB0B0AA809CF2FF7FB0B0A88077
:104F5000B0F2FF7F01000000ACF2FF7FB0B0A8808C
:104F6000B4F2FF7F010000003CF3FF7FAA0FB28084
:104F7000A4F3FF7F58FFFF7F7CF6FF7FB0B0A880CF
:104F800098F6FF7F54FFFF7FF4F8FF7F01000000D9
:104F900064FAFF7F0084048074FAFF7FB0B0A880B9
:104FA00074FAFF7F40FFFF7F5CFDFF7F0084048079
:104FB0007CFDFF7FB0B0A88094FDFF7F0100000062
:104FC000080000200000000000000000F4020020A3
:104FD0005C030020C403002000000000000000006B
:104FE00000000000000000000000000000000000C1
:104FF00000000000000000000000000000000000B1
:1050000000000000000000000000000000000000A0
:105010000000000000000000000000000000000090
:105020000000000000000000000000000000000080
:105030000000000000000000000000000000000070
:105040000000000000000000000000000000000060
:105050000000000000000000000000000000000050
:105060000000000000000000000000000000000040
:1050700001000000000000000E33CDAB34126DE6DD
:10508000ECDE05000B000000000000000000000046
:105090000000000000000000000000000000000010
:1050A0000000000000000000000000000000000000
:1050B00000000000000000000000000000000000F0
:1050C00000000000000000000000000000000000E0
:0400000508000805E2
:00000001FF
