:020000040800F2
:10000000001800200508000835050008390500081B
:1000100000000000000000000000000000000000E0
:10002000000000000000000000000000350500088E
:10003000000000000000000035050008350500083C
:1000400035050008350500083505000835050008A8
:100050003505000835050008350500083505000898
:100060003505000835050008350500083505000888
:100070003505000835050008350500083505000878
:100080003505000835050008350500083505000868
:100090003505000835050008350500083505000858
:1000A0003505000835050008350500083505000848
:1000B00035050008350500083505000899010008D8
:1000C000284B10B51A88284B12041B881A43274B5B
:1000D000198849084900885A254908801988023139
:1000E00089B21980198849084900885A214908802D
:1000F0001988023189B21980198849084900885A3B
:100100001D49088019881D48023189B21980198853
:1001100049084900895A1A4A11801A881949023235
:1001200092B21A801C880288944213D902881C88D3
:100130000832121B92B20A80028892B21A801249C7
:10014000124B0A881343124A1A40302353409BB281
:100150000B8010BD0F4804881A889442E6D3082308
:100160000B80ECE70C6000400A6000400460004037
:100170004C6000404E600040506000400260004013
:10018000526000401A600040005C00408080FFFF29
:10019000BF8FFFFF006000409449F8B50B88944C76
:1001A000002B3AD00A88934B9A4234D1002302257F
:1001B000914A924F1380924A1380924A1380924A36
:1001C0001380924A1380924AD08FA843D087D08F51
:1001D000013DA843D0878F481735FB8705808E489F
:1001E000343505808D480835058080258C486D01A3
:1001F000058080258B4805808020FB878A4B000680
:1002000023808A4B18608023D08FDB000343D38781
:10021000874B884A1A8000230B8023881BB2002B4F
:1002200000DBC4E02388844A774F134080221343C5
:10023000238023881B0500D49CE0804D7F232A78EF
:1002400011009943714B1980E9886B4B198000218B
:100250006C4B19803B88FF318B4313433B806023F9
:100260001A4208D08022764B12051B8828009B1862
:100270009847634B188060232A78134052B2002AB3
:100280004DDA002B14D16A78062A0FD16A88110A38
:1002900002291AD003291BD0012920D1694B12262B
:1002A000694A99B21180694A1B0C1380544B1E8015
:1002B0002288674B1343674A1A40C0239B0153406F
:1002C0009BB22380FFF7FCFE47E05E4B1233E6E76C
:1002D000D2B2012A0FD0002A03D0022A15D01E0064
:1002E000E4E7584B584A243399B21180574A1B0C03
:1002F00013800426DAE7534B534A283399B211800E
:10030000524A1B0C1380544ED0E74E4B4E4A7C335E
:1003100099B211804D4A1B0C1380504EC6E7002B3A
:1003200009D16B78052B06D13A886B88D2B21B02B3
:1003300013439BB23B8000212388494A1340494A1A
:1003400013439BB22380484B198023881A43474BA1
:100350001A40474B5A4092B22280284BDB8F5B05F4
:1003600007D580222F4B1A800023244AD3872E4B97
:100370002380F8BD60213B880B40402BEDD13B88AA
:100380001342EAD1264A3B4B2C481B881188802215
:1003900012059B18C9B298472288324B13432D4A45
:1003A0001A40C0239B0153409BB22380D5E7802293
:1003B00023881342D1D023882F490B408021090282
:1003C0000B432380114B1B88934200D17AE7FF2017
:1003D0000D4B19888143C0D01988090A0A43114975
:1003E0000A801A8802401A80B7E7C0460E600040B3
:1003F000005C00403CA5000000600040065C00403E
:100400000260004004600040066000400860004058
:10041000025C0040505C0040186000401C600040DE
:100420001E6000404C5C00402032000000E100E013
:10043000585C00400080FFFF8F0F000054600040B8
:10044000106000407C0400080A6000400C6000401E
:100450008081FFFF8FBFFFFF2A0300001E03000003
:100460008F8EFFFF8080FFFF1A600040BFBFFFFF3D
:1004700030300000126000400F8FFFFF12010002B9
:10048000FF000008C016DC0503020102000109029A
:100490001200010100803209040000000000000089
:1004A000040309042A0349006E00660069006E0017
:1004B0006900740065004E00650073004C0069001F
:1004C0007600650073002E0063006F006D00000071
:1004D000000000000000000000000000000000001C
:1004E000000000000000000000000000000000000C
:1004F00000000000000000001E0349004E004C00F8
:10050000200052006500740072006F002D00500042
:1005100072006F0067000000000000000000000093
:1005200000000000000000000000000000000000CB
:1005300000000000FEE7FFFF004801E02301ADDE00
:10054000FEE7C04602B4714649084900095C49000B
:100550008E4402BC7047C046411D000000616561C9
:1005600062690001130000000536532D4D00060C92
:10057000074D09011901FFFF03B471464908400006
:100580004900095A49008E4403BC7047411D0000D0
:100590000061656162690001130000000536532D9A
:1005A0004D00060C074D09011901FFFF70470A4B6A
:1005B0000A4A10B55A600A4A5A600122DC6814429D
:1005C000FCD11A6101220180D9681142FCD120229C
:1005D000DA6060321A6110BD0020024023016745D5
:1005E000AB89EFCDFF2370B53C4C23804378C588A1
:1005F000102B00D06FE0C37881888078384E0138A6
:100600007269082800D964E0FFF79CFF0563632B3B
:100610003B3149515F008B1E8E227D2B19D8314B07
:100620007360314B73600123F2681A42FCD10223DC
:100630003361802389021B05C9184223716133612C
:10064000C046413BF2681A40FCD12023F36060337E
:1006500033612270254BA2B2240CE8B25A819C81EE
:1006600070BD58001018FFF7A2FF0022F1E78E229C
:10067000012BEED8180480231B05C01840181C4914
:10068000F1E7042363707369A37073691B0AE37055
:1006900073691B0C237173691B0E6371E5E70223F9
:1006A00063701388A37013881B0AE370DDE78E2242
:1006B000012BCED880221B0412059B185918022347
:1006C00063700B88A3700B88EEE70A4B0A4ADA6066
:1006D000CBE78B22BDE780232370BBE7F806002021
:1006E0000020024023016745AB89EFCD0060004048
:1006F000FFFF000000ED00E00400FA05FFFFFFFF30
:10070000FFFFFFFFFFFFFFFFFFFFFFFFFFFFFFFFF9
:10071000FFFFFFFFFFFFFFFFFFFFFFFFFFFFFFFFE9
:10072000FFFFFFFFFFFFFFFFFFFFFFFFFFFFFFFFD9
:10073000FFFFFFFFFFFFFFFFFFFFFFFFFFFFFFFFC9
:10074000FFFFFFFFFFFFFFFFFFFFFFFFFFFFFFFFB9
:10075000FFFFFFFFFFFFFFFFFFFFFFFFFFFFFFFFA9
:10076000FFFFFFFFFFFFFFFFFFFFFFFFFFFFFFFF99
:10077000164B174A9BB21382164B9BB253826846A4
:100780001C300F4A0F4B0430043001681140C91A65
:10079000FAD1094A094B043801681140C91AF2D14B
:1007A0007B460A3303600438013303600CE00A4BD4
:1007B0000A4A1A60FBE7C0460000FFFF000000087D
:1007C000FFFFFF0F0000000100207047E505000853
:1007D00000600040AD05000800300040AAAA0000FB
:1007E000FFFFFFFFFFFFFFFFFFFFFFFFFFFFFFFF19
:1007F000FFFFFFFFFFFFFFFFFFFFFFFFFFFFFFFF09
:10080000FFFFFFFF09490A4A0A4B9B1A03DD043B1D
:10081000C858D050FBDC0849084A0020521A02DDB3
:10082000043A8850FCDC03F0BFFA0000805C00084A
:100830000000002030040020300400203807002091
:1008400070B50E4B1A68537A55685C18E4B2A3422F
:100850000ED1537A0A48CB1853720378591AC9B289
:1008600001700020814202D198230130D37070BD05
:1008700006780130EE540133DBB2E8E7940400203F
:1008800098040020FF23F0B5C04C85B02380837905
:100890000200009340780138102801D901F0EAFEE7
:1008A000FFF76AFE1100D405BE08650A900DE80E38
:1008B000D40E1E0CCB0C110D710DC20A100B4E0B79
:1008C000EB0BE80E740D907891888C231D2826D8A8
:1008D000FFF752FE1E0028001E011802E4028303E7
:1008E0000E04CA04E604F204FA0402050B0514051A
:1008F00022052A0532053A05AA05AA05AA054A05D0
:100900005F057605CC02D8023F058D059605A10549
:10091000B0239F4A5B0351690B435361002323704B
:1009200000F098FE152901D900F081FD0800FFF7BD
:1009300023FE160023002E007E05390044004F00E0
:100940007E055C006900730080007E057E058D00D9
:100950009A00A700B400C100CE00D800E2009023A6
:10096000DB051A688B490A401A608022D968520355
:100970000A43DA600023D2E790230122DB051968DD
:1009800091431960D9680A43DA600023C7E79023CE
:100990000422DB05196891431960D9680A43DA60BB
:1009A0000023BCE790231022DB05196891431960EE
:1009B000D9680A43DA600023B1E790234022DB05BF
:1009C000196891431960D9680A43DA600023A6E7E1
:1009D0009023DB051A6870490A401A608022D968A2
:1009E000D2040A43DA60002399E79023DB051A68F2
:1009F0006A490A401A608022D96852010A43DA60C3
:100A000000238CE70422664B196891431960D9686A
:100A10000A43DA60002382E79023DB051A68614904
:100A20000A401A608022D968D2050A43DA6000239E
:100A300075E79023DB051A685B490A401A6080223B
:100A4000D968D2020A43DA60002368E79023DB0505
:100A50001A6856490A401A608022D96852000A432F
:100A6000DA6000235BE79023DB051A6850490A40EF
:100A70001A608022D968D2000A43DA6000234EE768
:100A80009023DB051A684B490A401A608022D96816
:100A9000D2010A43DA60002341E79023DB051A689C
:100AA0003D490A401A608022D968D2040A43DA60BC
:100AB000002334E79023DB051A683F490A401A6097
:100AC0008022D96852050A43DA60002327E7012211
:100AD000334B196891431960D9680A43DA600023DF
:100AE0001DE71022354B196891431960D9680A43F4
:100AF000DA60002313E79023DB051A682C490A40CB
:100B00001A608022D968D2000A43DA60002306E71F
:100B1000152901D900F08EFC0800FFF72DFD160005
:100B200021002C008B0451005C0067008B047200D4
:100B30007D00870092008B048B049D00A800B30009
:100B4000BE00C900D400DE00E8009023DB05196870
:100B5000104801401960DA680240DA600023DEE6DE
:100B600090230121DB051A688A431A60DA688A43F8
:100B7000DA600023D3E690230421DB051A688A4358
:100B80001A60DA688A43DA600023C8E600070020AA
:100B900000100240FFFFEFFFFFFFFFFBFFEFFFFF33
:100BA00000040048FFFFFFBFFFFFFBFFFFFEFFFF4A
:100BB000FFFBFFFFFFBFFFFFFFFFFFEF000C004841
:100BC00090231021DB051A688A431A60DA688A4389
:100BD000DA600023A3E690234021DB051A688A43EC
:100BE0001A60DA688A43DA60002398E69023DB050E
:100BF0001968CE4801401960DA680240DA600023C3
:100C00008DE69023DB051968C94801401960DA6850
:100C10000240DA60002382E60421C64B1A688A4348
:100C20001A60DA688A43DA60002378E69023DB05ED
:100C30001968C14801401960DA680240DA6000238F
:100C40006DE69023DB051968BC4801401960DA683D
:100C50000240DA60002362E69023DB051968B84899
:100C600001401960DA680240DA60002357E69023F9
:100C7000DB051968B34801401960DA680240DA60A0
:100C800000234CE69023DB051968AF48014019604A
:100C9000DA680240DA60002341E69023DB05196838
:100CA000A24801401960DA680240DA60002336E6A3
:100CB0009023DB051968A54801401960DA680240F5
:100CC000DA6000232BE601219A4B1A688A431A60E6
:100CD000DA688A43DA60002321E610219C4B1A6807
:100CE0008A431A60DA688A43DA60002317E69023A1
:100CF000DB051968934801401960DA680240DA6040
:100D000000230CE6152900D997E30800FFF734FC0F
:100D100016001F00270095032F0037003F009503A2
:100D20004800510058006100950395036A00730064
:100D30007C0085008E0097009E00A50090228023F5
:100D4000D20511685B030B4313600023E7E5902293
:100D50000123D20511680B4313600023DFE59022C5
:100D60000423D20511680B4313600023D7E59022BA
:100D70001023D20511680B4313600023CFE59022A6
:100D80004023D20511680B4313600023C7E590226E
:100D90008023D2051168DB040B4313600023BEE5FA
:100DA00090228023D20511685B010B43136000235E
:100DB000B5E504235F4A11680B4313600023AEE5D9
:100DC00090228023D2051168DB050B4313600023BA
:100DD000A5E590228023D2051168DB020B43136046
:100DE00000239CE590228023D20511685B000B4311
:100DF0001360002393E590228023D2051168DB0065
:100E00000B43136000238AE590228023D2051168EA
:100E1000DB010B431360002381E590228023D20580
:100E20001168DB040B431360002378E590228023D4
:100E3000D20511685B050B43136000236FE50123A6
:100E40003C4A11680B431360002368E51023404AB5
:100E500011680B431360002361E590228023D205C3
:100E60001168DB000B431360002358E58D2308292C
:100E700000D054E590224023D20551680B435360C3
:100E800000234CE58D23082900D048E59022D205A7
:100E9000536838318B435360002340E5152900D94E
:100EA000CEE20800FFF768FB16001D002300CC020D
:100EB00029002F003500CC023C0056005B00620088
:100EC000CC02CC0269006F0075007B0082008900B3
:100ED0008E00930090238022DB05D2009A620023CB
:100EE0001DE590230122DB059A62002317E590237C
:100EF0000222DB059A62002311E590230422DB0520
:100F00009A6200230BE590230822DB059A620023F6
:100F100005E590238022DB0592019A620023FEE41E
:100F200090234022DB059A620023F8E4FFFFFFFBD9
:100F3000FFEFFFFF00040048FFFFFFBFFFFFFBFFC5
:100F4000FFFEFFFFFFFBFFFFFFBFFFFFFFFFFFEF06
:100F5000000C00480222CD4B9A620023DFE490236C
:100F60008022DB0512029A620023D8E490238022BB
:100F7000DB0592009A620023D1E490231022DB0566
:100F80009A620023CBE490232022DB059A6200239F
:100F9000C5E490238022DB059A620023BFE49023FE
:100FA0008022DB0592019A620023B8E4902380221C
:100FB000DB05D2019A620023B1E40122B34B9A62AD
:100FC0000023ACE40422B24B9A620023A7E49023EE
:100FD0002022DB059A620023A1E4152900D932E220
:100FE0000800FFF7C9FA16001D002300300229008F
:100FF0002F00350030023C00420047004E00300216
:10100000300255005B00610067006E0075007A00D9
:101010007F0090238022DB05D2009A6100237EE4CA
:1010200090230122DB059A61002378E490230222B9
:10103000DB059A61002372E490230422DB059A61A8
:1010400000236CE490230822DB059A61002366E408
:1010500090238022DB0592019A6100235FE49023B4
:101060004022DB059A61002359E40222874B9A61F2
:10107000002354E490238022DB0512029A610023AE
:101080004DE490238022DB0592009A61002346E420
:1010900090231022DB059A61002340E49023202254
:1010A000DB059A6100233AE490238022DB059A61F4
:1010B000002334E490238022DB0592019A6100230F
:1010C0002DE490238022DB05D2019A61002326E4DF
:1010D00001226E4B9A61002321E404226C4B9A6139
:1010E00000231CE490232022DB059A61002316E4F0
:1010F00002236370152900D9B1E00800FFF722FA36
:101100000B151EAF273039AF434C545DAFAF67703E
:1011100079828C969EA690238022DB051B69D200E3
:10112000134063800023FFF7FAFB90230122DB05C5
:101130001B69134063800023FFF7F1FB9023022219
:10114000DB051B69134063800023FFF7E8FB902356
:101150000422DB051B69134063800023FFF7DFFBDC
:1011600090230822DB051B69134063800023FFF7EF
:10117000D6FB90238022DB051B699201134063801C
:101180000023FFF7CCFB90234022DB051B691340B3
:1011900063800023FFF7C3FB02223C4B1B69134013
:1011A00063800023FFF7BBFB9023DB051B69DB0B90
:1011B000DB0363800023FFF7B2FB90238022DB0573
:1011C0001B699200134063800023FFF7A8FB902364
:1011D0001022DB051B69134063800023FFF79FFB90
:1011E00090232022DB051B69134063800023FFF757
:1011F00096FB90238022DB051B691340638000234C
:10120000FFF78DFB90238022DB051B6992011340C1
:1012100063800023FFF783FB90238022DB051B699B
:10122000D201134063800023FFF779FB0122174BA3
:101230001B69134063800023FFF771FB0422144BEA
:101240001B69134063800023FFF769FB9023202272
:10125000DB051B69134063800023FFF760FB00235D
:1012600063708D33FFF75BFB80230A4ADB02516911
:101270000B435361054B08491A680A401A60D96844
:10128000064A0A43DA600023FFF749FB00040048DE
:10129000000C004800100240FFFFAAAA00005555AC
:1012A000D94BDA491A680A401A60D968D84A0A4301
:1012B000DA600023FFF733FBD34AD44913680B40AD
:1012C00013600023FFF72BFBCF4AD14B11680B4370
:1012D00013600023FFF723FBCB4A09025369DBB2FB
:1012E000194351610023FFF71AFBC74B1B691B0A07
:1012F000A370012363700023FFF711FB8023C54A0D
:101300001B0351690B435361C34AC44B11680B4320
:1013100013600023FFF703FBBF4AC04BD1680B43A8
:10132000D3600023FFF7FBFABB4ABD4913680B40AB
:1013300013600023FFF7F3FAB74AB84B11680B4369
:1013400013600023FFF7EBFAB34B59610023FFF75B
:10135000E6FA01236370B04B1A69A2701B691B0A7D
:10136000E3700023FFF7DBFAC023AA4ADB025169CE
:101370000B435361A44AAB4B11680B43136090229B
:10138000A023D20511685B030B4313600023FFF712
:10139000C6FA9D4AA34BD1680B43D3609023A0218A
:1013A000DB05D86849030143D96011689E480140B4
:1013B00011601A689D490A401A600023FFF7AFFACE
:1013C000FF2591488B0042692B40994DC9002A4066
:1013D000134343619022C020D205C00053690140ED
:1013E00094480340194351610023FFF798FA012103
:1013F000854B1A680A431A6099620023FFF78FFA37
:101400000122814B196891431960D9680A43DA6057
:101410000023FFF784FA01227F4B59617A4B9A61CE
:101420009A620023FFF77BFA0023FFF778FA8D23F7
:10143000FFF775FA8D23FFF772FA8D23FFF76FFA26
:101440008D23FFF76CFA8D23FFF769FA957893885F
:10145000052D00D1B1E119D8022D00D145E107D801
:10146000002D00D1F0E0012D00D1FBE09625EFE04A
:10147000032D00D122E2042DF8D1DBB2012B00D1E3
:1014800060E2022B00D17EE29825E1E0082D00D138
:10149000EDE160D8062D00D1ABE1072DE6D102F0D9
:1014A00017FA90230120DB051A6802431A60102204
:1014B000986119680A4304211A60802299611C68A6
:1014C000D20122431A6080229A6180221C68520154
:1014D00022431A6040229A611C682143196002214C
:1014E000996119680A431A6008229A618022494961
:1014F00012034C692243484C4A612568474A2A43F3
:101500002260414A15680543156084259062656133
:10151000002590619062802065611C68C0052043B1
:101520001860802000029862C0204C69C0022043ED
:1015300048610F2011680140116019683E48014060
:101540001960D0683D490143D160A022D968520397
:101550000A43DA607CE00A2D00D119E100D222E1D1
:10156000802D83D19023012540208026DB056570E6
:1015700098621A68760132431A60C04630491C6985
:101580001A6804400A401A60DA680A40DA60F022F9
:10159000002C36D11A680A401A60DA683243DA60E1
:1015A0001A6994461A690192C0461A690292C046A5
:1015B000C0461A690392C046C046C0461F69C0466D
:1015C000C046C046C0461E691A680A401A60DA68FA
:1015D0001140D96063462200034212D1019B2A00C8
:1015E00003420ED10299023201420AD10399033219
:1015F000014206D10432074203D1D632064200D05E
:10160000D13A104B9A70CCE000040048FFFFAAAA20
:10161000000055550010024000080048555555552A
:10162000AAAAAAAA50550000AFAAFFFFFFFFEBFF2E
:1016300003FF0000FFF90000FFFFC3FF50555555A1
:10164000FFEFFFFF00070020DD4A137002F040F9B2
:10165000DC4C2570DC4B0098A2B2240C5A819C8192
:1016600005B0F0BD02F034F99023DB059D611A68E6
:1016700015438022D2001D609A62802219685203AD
:101680000A431A60022204219A611A680A431A6006
:101690001022996119680A431A6008229A61196830
:1016A00038320A431A608023C849DB024A69C84DB0
:1016B0001343C84A4B6113682B401360D468C64B70
:1016C0001C43D460106828401060D0680343D36086
:1016D00080234A691B0313434B61C04BC04A1968FE
:1016E0000A431A6000255D61B2E702F0F1F8902329
:1016F0000121DB051A68B5480A431A601022996176
:101700001968B34E0A431A60042240219A611A688C
:101710000A431A6008229A6180229961196852016D
:101720000A431A6080224169D2020A43A9494261F0
:101730000A6832400A60CD68A74A1543CD600C683C
:1017400034400C60CC682243CA6080224469120392
:1017500022434261A14AA24C15682C430025146023
:101760005561C0224469D2022243426108689D4A01
:1017700002430A60A0221868520302431A609A4882
:101780004A6902404A615A6998490A405A615FE7CA
:1017900090238022DB051968D2010A431A60802257
:1017A0009A61002554E790238022DB051968D20155
:1017B0000A431A6080229A62F3E702F089F89023C4
:1017C0000121DB051A680A431A6010229961196821
:1017D0000A431A60042240219A611A680A431A6077
:1017E00008229A6180221868520102431A609961A6
:1017F00059E702F06DF890230121DB051A68744D5A
:101800000A431A601022996119680A431A60042277
:101810009A6119683C3211431960082199619A62F2
:101820009A6180236949DB024A691343694A4B6123
:1018300013682B401360D468674B1C43D460106856
:1018400028401060D0680343D36080234A691B039B
:1018500013434B61614B624A196865481143196033
:10186000196801401960D9680A43DA603AE702F062
:101870002FF890230121DB051A680A431A6004221D
:101880009961196811431960196811431960102191
:1018900018680143196040219A611A680A431A6066
:1018A00080229D611868520102431A609961802369
:1018B000464A1B0351690B435361CBE7DBB2022B52
:1018C00021D00025032B00D1C2E69735012B00D093
:1018D000BEE6802200253D491203486902434A6161
:1018E0003E4A116899431160D1681943D16051682B
:1018F00019435160936111680B4313603D4B1D7098
:101900003D4B1A60A4E6B023304A5B035169402086
:101910000B4353619022D205136838490B40136082
:101920008023D1685B011943D16051680143516044
:10193000906111680B43062113602E4B19702E4BDA
:101940001A602EE790222E4BD2051A600622022141
:101950002C4B1A701F4B2C4A13602C4A11702C4AC6
:10196000013113602B4A11702B4A13602B4B174A1D
:101970001D70B02351695B030B43536101F0DCFE22
:1019800001F0DAFE0DE790221D49D2050A601D49DB
:101990000B7003211C4B1A601C4B19701C4B49180F
:1019A0001A601C4B19701C4B1A6001221B4B1A70D9
:1019B000B023064A5B0351690B435361E0E7C0461D
:1019C0000A070020000700200060004000100240CD
:1019D000FFFFAAAA0004004800005555000800486F
:1019E000555555555055000003FF0000FFF9000004
:1019F000AAAAAAAA100700200C070020FFEFFFFFE9
:101A000024070020280700201C07002020070020B2
:101A10002C070020300700201407002018070020A2
:101A20009678D7789588122E00D146E13FD8092EB6
:101A300000D1F9E01ED8042E00D1EBE00BD8012E26
:101A400000D1B8E0002E00D1A9E0022E00D1B7E00D
:101A5000A023FEF764FF062E00D1A7E000D2D4E059
:101A6000072E00D1FEE0082EF2D13900280001F047
:101A700057FA98E00D2E00D1EAE009D80B2E00D1DC
:101A8000EBE000D8D5E03900280001F0FBFA8AE04D
:101A90000F2E00D1D7E000D2D0E0102E00D1E6E02A
:101AA000112ED5D13900280001F032FB7BE0002354
:101AB000262E01D1FEF733FF1BD8212E00D1AEE038
:101AC00009D8142E00D1F3E000D2FBE0C74B202E42
:101AD000BED11D7067E0232E00D1F8E075D3242E0F
:101AE00000D19FE0252EB3D13900280001F05CFA27
:101AF00059E0842E00D123E133D8812E00D112E1A8
:101B0000822E00D115E1802EA2D101219023617097
:101B1000DB051868B64E30401860DA6802203240A3
:101B2000DA608022D2009A6299619861B148456179
:101B3000C046C0462DB29A61002D00DA9962C046B7
:101B4000C046C046C046C046C04690228021AA4B2F
:101B5000D205C9001B69916201211B0A9161A37022
:101B600021E0862E00D1F6E000D2EFE0872E00D1F2
:101B7000F9E0882E00D06BE70126022166709F48AD
:101B800001F042FA31009E4801F03EFA02219B48E2
:101B900001F03AFA3900280001F036FAC5E03900C0
:101BA000280001F04FFC0023FEF7B9FE39002800A1
:101BB00001F024FCF7E73900280001F06DF9F2E7A5
:101BC0003900280001F020FAEDE78A4B02225D611E
:101BD00090238949DB059A6208688A4A3F020243DA
:101BE0000A604A692DB2D2B217434F61002D01DA63
:101BF00001229A62C046C04601229A6192189A61F7
:101C00000B68814A13400B60CDE73900280001F0D2
:101C1000FFF8C8E73900280001F0ACFFC3E77B4BB1
:101C20001D80C0E77A4B54E73900280001F068FCBA
:101C3000B9E73900280001F095F9B4E73900280028
:101C400001F0DAFFAFE73900280001F0A5FFAAE7AD
:101C50003900280001F022FCA5E73900280001F036
:101C600091FAA0E73900280001F0A0FB9BE7AA2128
:101C7000684801F0C9F95521674801F0C5F9A0216C
:101C8000644801F0C1F93900280001F0BDF9A02035
:101C9000564B0002197801F0B7F9280001F0B0FAAC
:101CA0000600C046280001F0ABFA8642F5D17AE77B
:101CB0003900280001F050FB75E73900280001F0D9
:101CC00011FB70E73900280001F0E6FA6BE7534B8F
:101CD0009D4202D880231B021D43902700F0BCFDCB
:101CE0006B1CFF339BB20193FF05424B424E5D617B
:101CF0003268444B00021343FF2233607369134080
:101D000018437061C0460823BB6200F0A5FD08239C
:101D10000135BB61019BADB29D42E6D133683A4AC1
:101D2000134033603FE701236370280001F068FA35
:101D300004E001232800637001F0D6F8A07032E7B8
:101D400001232800637001F08BF8F7E7012363702B
:101D5000264B1B7803E7022363702C4B1B88A37070
:101D60001B0AE3701FE701236370294BF1E79078AA
:101D7000D1789588AA23062801D9FEF7D0FDFEF771
:101D8000E1FB042A1B2226322000FF201A49AB0067
:101D90004A6903402248ED00024013434B61902200
:101DA000C021D205C90053690D401E490B401D4397
:101DB00055610023FEF7B3FD0022280000F064FD0A
:101DC000F7E70122F9E7280000F016FFF1E7280005
:101DD00000F0EAFEEDE7012300216370280000F027
:101DE00083FDA070E5E701216170F7E78C04002016
:101DF000FFEFFFFF00080048000400480251000008
:101E00000351000000005555FFFFAAAA3604002028
:101E1000A3040020AAFA000055F50000FF1F0000EF
:101E200003FF0000FFF9000090789388002829D074
:101E3000012844D1D178B84A5361C022D2019B18FD
:101E4000B64A9BB2934202D89023DB059862B44B0A
:101E5000B44A1868090202431A605A69D2B20A43A6
:101E60005A6190220821D2059162C046C046C04600
:101E70009161073991611A68AB490A401A600023E1
:101E8000FEF74DFD0121A44A6170536190220420A8
:101E9000D2059062C020C0011B18A0489BB28342AB
:101EA00000D89162C046C046C046C04601219C4B46
:101EB0001B6991611B0A03319161A370DFE7AF23B6
:101EC000FEF72DFD9578022D0CD0032D2BD0002D83
:101ED00033D10223637001F0B5FDA070000AE070F9
:101EE000FFF7B7FB9588914BD0781D80904B914AB6
:101EF0001870894B000219680A4389491A600E68F4
:101F0000884A32430A605D614A69D2B202434A613B
:101F100090220121D20591621A6887490A401A600D
:101F20000025FFF796FB90230122DB059A617C4A8E
:101F30007D4913680B401360F2E7B025FFF789FB7A
:101F40009078D5789188B123062801D9FEF7E7FC6F
:101F50007A4BFEF7F7FA0488630A2A7A810019801F
:101F60006D4B59610023FEF7DAFC19806A4B6D4A0C
:101F700059616B4B2D02196802200A431A605A6995
:101F80000121D2B215439022D2055D619162906227
:101F9000C046C046C046C046C046C046906191613A
:101FA0001A6861490A401A60DCE719805A4B5C4A9A
:101FB00059611168624B0B4313609023A021DB052C
:101FC000186849030143196051695E480140A8003F
:101FD0000143516159695C48ED0001400D43012105
:101FE0005D619962C046C046C046C046C046C04614
:101FF000C046C04608209862C046C046C046C0469B
:10200000C046C0469861C046C046C0469961116846
:102010000730014011601A684C49C3E78425012646
:102020003D4A0D43506955613D4D80B2AE61AE628F
:102030005061802590202D02C005490703D5856198
:102040001B8853618EE78562FAE71888401980B2D1
:10205000188000F04BFE85E71888401980B2188080
:1020600000F0B2FE7EE7198002230800637000F0E2
:1020700087FEA070000AE07074E7907893880428C7
:102080002BD8FEF75FFA182A03080C00304A138099
:102090000023FEF744FC180001F054FAF8E79023FF
:1020A0000222DB059A61C046C046C046C046C04613
:1020B000013A9A61ECE7902202230421D205637071
:1020C0009162C046C046C046C046134B1B69916131
:1020D000A3709BB21B0AE370DAE7B223FEF71FFC82
:1020E0009578D0789188112D00D19FE008D8012DE6
:1020F00070D0002D2ED0022D00D17DE0822666E02A
:10210000212D00D186E0222D00D18AE0122DF5D1BB
:102110000223102063708CE000080048FF1F0000BD
:102120000004004800005555FFFFAAAA8A040020B9
:102130008804002055555555AAAAAAAA08070020C8
:102140005055555503FF0000FFF90000FFFFC3FF86
:10215000A00400200127B84B04261B7810209F40C4
:10216000FA43B64B01921D68AF626B6813406B6017
:1021700000F067FBAF616B683B436B60FA20400087
:1021800000F05FFBFA20AF626B68019A40001340D9
:102190006B6000F056FBAF616B68013E3B43B6B22B
:1021A0006B60002EEAD10436FA2000F04AFBAF62E1
:1021B0006B68019AFA2013406B6000F042FBAF613C
:1021C0006B68013E3B43B6B26B60002EECD12670CB
:1021D000FFF740FA984A994B12781E689540B5620D
:1021E00073681020AB43736000F02BFBB56173681C
:1021F0002B4373600026EAE701238F4A637012784D
:102200008F4993408D4A9BB21268002002F0E8FB90
:10221000A070EFE7012302000020637001F014FDBD
:10222000F6E70123020063701020F7E70223002085
:10223000637001F063FD6080DCE79078D17801384D
:10224000938808283CD8FEF77DF9050D150B1E3B39
:10225000212731007B4B1B78A3700123637006E0BC
:10226000794BF8E7774A13708322774B1A70002373
:10227000FEF755FB734A744D137083232B7001F0E6
:10228000CBFA2B78E8E7714A1370F0E7704A5354A1
:1022900052181B0A5370EAE700236D4A5218D05CAB
:1022A000E11801338870082BF9D1D7E70223684978
:1022B0009A1E8A5CE2540133222BF9D1023BCDE70E
:1022C0008723FEF72CFB9078D578023891888A23F3
:1022D0000A2801D9FEF723FBFEF734F9060B111685
:1022E0001D24303C414950005A4B19800023FEF711
:1022F00016FB584B1B881B040B439847F6E7FEF769
:1023000037FA0300FEF70BFB534803689AB20B043D
:1023100013430360EAE7504A13681B0C1B040B438A
:102320001360E3E7042363704B4B1B681A0AA37026
:10233000E2701A0C1B0E22716371D7E70223464A22
:10234000637012684B00D3181A88A2701B881B0A8E
:10235000E370CBE7404B6D001B68E952C6E73E4A8D
:102360004B001168CB18136002226270ECE73A4B05
:102370006D001A6855191D602980B7E70123637045
:102380000233A370B2E78823FEF7C9FA93789188E5
:10239000022B09D0032B0ED0012B10D12F4A090498
:1023A00011600023FEF7BBFA2C4A13681B0C1B04B8
:1023B0000B431360F5E70122284B1A60F1E78323F2
:1023C000FEF7ADFA91780B00303B2F2B1AD8D0785E
:1023D000032814D8FEF7B6F816180211204B51291D
:1023E00000D199E044D8312973D00FD8002953D0B7
:1023F000302967D0B423FEF792FA1A4BEFE7B523E2
:10240000FEF78DFA184BEAE7184BE8E733296ED050
:1024100066D35029EED1C022D20022801A7AA2704F
:10242000DA78E2705A7A22719A7A62719A78A27195
:102430005B7CE371FFF70EF9100700200C0700200A
:1024400004000200C4040020E6040020E50400208B
:10245000C504002034040020300400209C04002027
:102460006004002074040020380400204C04002084
:102470007F2900D984E070295DD260293CD0612990
:1024800043D05229B6D180221B889200A3701B0A28
:102490002280E370FFF7DEF8FF22874BCA54013138
:1024A0001029FBD10123854A5B425380844A538023
:1024B000844A5380844A53800122844B1A7000233B
:1024C000FEF72DFA9288110AD9721A730023FEF7CB
:1024D00026FA9288110A59739A730023FEF71FFA9D
:1024E0009288110AD9731A740023FEF718FA928899
:1024F0005A740023FEF713FA80235B00238093882D
:102500006D4AD35CA370FFF7A5F880235B0023809E
:102510006F4B1B68DB78F5E7C022D2002280DA7AA5
:10252000A2701A7BE2705A7B22719A7B6271DA7B0D
:10253000A2711B7C7DE7614B15785C68644B186861
:10254000C3787F2D00D998E0624D009E2E70002B3D
:102550000FD000250095982B00D194E004E00025D1
:102560000095D02B00D18EE0584B10351D70FF2305
:1025700004E0594B18609023C3706F33009382E0DE
:102580000720084003281AD8FDF7DCFF1C1E02179D
:102590004C4B802901D2FFF75DF8872916D970319D
:1025A000C9B2072901D9FFF755F800212170D17868
:1025B000997292881A80FFF74DF8434BE9E7B523EB
:1025C000FEF7ADF93D4BE4E73D4BE2E79088D1786B
:1025D000C6B28D19BE22102D2CDC0432002929D060
:1025E000DD78033AFF2D25D19D780132FF2D21D1D1
:1025F0000022D7B28F4220D3384D0022AC464F0183
:10260000013F1F727701000A67449870DA705A72AE
:102610009A721A80DA721A735A739A73DA731A7486
:102620005A745F60244B9D19A8540132D3B28B4277
:10263000FAD300222270FFF70DF80132B7181E4DB1
:10264000013FEF5DFF2FD4D0C122F3E79378002B39
:1026500004D0402B08D0D223FEF761F92370928872
:102660001A4B1A70FEF7F6FF80235B002380174B8E
:102670001B7847E78023FEF752F9D82B00D06EE78E
:1026800080234468C37000234372C378902B01D029
:10269000FEF7E0FF712901D0FEF7DCFF0E4B9188B9
:1026A0001B685868017092885968120A4A705A7AF1
:1026B00002325A72FEF7CEFFE704002038040020F1
:1026C0004C0400206004002074040020A4040020B6
:1026D000900400209804002094040020F8040020B6
:1026E000F0B5194D040005A8067868690902C0B262
:1026F0000843686190200421C00581622900002AF6
:1027000001D101328262FF2500204A692D022A4050
:102710001A430E4F4A61C046C046C046C0463A6999
:102720000133120A22544A69DBB22A4001301A43AB
:10273000C0B24A61B042EED990230422DB059A610F
:10274000033A9A61F0BDC046000800480004004802
:10275000F0B5184C050060690E02C0B230436061EC
:10276000902049B2C005002901DA0121816280214F
:10277000FF26C90081616169360231401143616100
:10278000C04600200C4FC046C04639690132090AD4
:1027900029546169D2B2314001301143C0B2616144
:1027A0009842F0D990238022DB05D2009A62012260
:1027B0009A61F0BD0008004800040048F0B5174CCD
:1027C00005000E0060691F2925D8802131430902C8
:1027D000C0B20143616190210420FF26C9058862CF
:1027E00061693602314011436161C04600200C4FDF
:1027F000C04639690132090A29546169D2B23140AF
:1028000001301143C0B261619842F1D99023042292
:10281000DB059A61F0BDC0B20902DAE700080048A2
:1028200000040048002302000002002A04D1002B0B
:1028300001D0802318437047DB43511EDBB20A40AE
:10284000F3E70023800080B2C046C04601339BB24C
:102850009842F9D17047FFFF30B50722012409499A
:102860000868450D43086B404340C50FDBB26B4021
:10287000013A23404000D2B21843002AF1D1086047
:10288000C0B230BD9C040020134B10B55861134BEF
:1028900013481C680902204318605869C0B20143FC
:1028A000596190210820C9058862002A01D10132AE
:1028B0008A62C046C046C046C046C046C046C04602
:1028C000C04690220821D2059161073991611A68AA
:1028D00004490A401A6010BD00080048000400487E
:1028E00000005555FFFFAAAA0F4B58619023DB0546
:1028F000002901D101229A6204229A62C046C04690
:10290000C046C046C046C046C046C046C046C04697
:10291000C046C046C046054908699A61000A033AA4
:10292000C0B29A617047C0460008004800040048E1
:10293000F7B504000E004D7AC046C046C046C046FA
:10294000C046C046C046C046C0460022AA215848DC
:10295000FFF79AFF002255215648FFF795FF240202
:10296000002220215248FFF78FFF23B20193EBB2E0
:102970000093337AAB4216D28020009B0022737200
:1029800090210002FFF780FF00228020110000024A
:10299000FFF77AFF80200022F0210002FFF774FF8A
:1029A000C0460020FEBD444B444A196808200A4333
:1029B000FF211A605A690A40A02109020A435A619C
:1029C00090220121D20590629162C046C046C04665
:1029D000C046FF24906191611A6839492C400A4031
:1029E0001A60019B009A1C437368A4B2995C200092
:1029F0000022FFF749FFC046C046C046C046C04659
:102A0000C046C046C046C046C04600212000FFF771
:102A10006BFF0700C046C046C046C046C046C04621
:102A2000C046C046C0467368009A9B5C834217D07C
:102A3000C046C046C046C046C046C046C046C04666
:102A4000C04600212000FFF74FFFB8420BD1C0461F
:102A5000C046C046C046C046C046C046C046C04646
:102A60000135ADB283E7C046C046C046C046C04649
:102A7000C046C046C046C046C046C046C046C04626
:102A8000C046C046C046C046C046C046C046C04616
:102A9000C046C046C046C046C046C046C046C04606
:102AA000C04600212000FFF71FFF0700C9E7C0460E
:102AB000AA8A000055850000000400480000555512
:102AC000FFFFAAAAF7B50F0003024D7A00933B7AE5
:102AD000ECB2AB4202D27C720020FEBD0022AA21E1
:102AE0001B48FFF7D1FE002255211A48FFF7CCFE04
:102AF000009BEEB21E43002225213000FFF7C4FEEA
:102B000000221F213000FFF7BFFE23002033019376
:102B10007B680022195D009B181980B2FFF7B4FE94
:102B2000019B0134A342F3D1002229213000FFF799
:102B3000ABFE00210098FFF7D7FE002104000098AB
:102B4000FFF7D2FEC0468442F3D12035ADB2BEE7D6
:102B5000AA8A00005585000070B504000D0000220F
:102B6000AA210F48FFF790FE002255210D48FFF7DC
:102B70008BFE0022A0210A48FFF786FE00222900D2
:102B80002000FFF781FE00212000FFF7ADFE0500C9
:102B9000C04600212000FFF7A7FEA842F3D170BD78
:102BA000AA8A00005585000070B504000D000022BF
:102BB000AA210F48FFF768FE002255210D48FFF7B4
:102BC00063FE0022A0210A48FFF75EFE00222900D2
:102BD0002000FFF759FE00212000FFF785FE0500C9
:102BE000C04600212000FFF77FFEA842F3D170BD50
:102BF000AA8A00005585000070B504000D0000226F
:102C0000AA210F48FFF740FE002255210D48FFF78B
:102C10003BFE0022A0210A48FFF736FE00222900D1
:102C20002000FFF731FE00212000FFF75DFE0500C8
:102C3000C04600212000FFF757FEA842F3D170BD27
:102C400055550000AA2A0000C90152080A43FF2175
:102C5000F0B585B00293234B0500586912B2090202
:102C60001140C0B20143902459610121E405A162E1
:102C70000331A162FF213F2658690902D2B2084000
:102C800010435861B4460020174F01930391C0468A
:102C9000C046C046C046C046C046C046C046634661
:102CA000396926698908F6089E4319403143295439
:102CB0003E69411C019BC9B2360A6E545969039B97
:102CC00001321940D2B2019B114359610230029B7B
:102CD000C0B28342DBD20423A361033BA36105B0EE
:102CE000F0BDC04600080048000400481E4B1F4AC3
:102CF00070B5586110681E4BFF2603431360902384
:102D0000A020DB051C6840032043186050690C02BA
:102D10003040204350615569164C080A2540840014
:102D2000254355615C69144DC0002C4004435C612F
:102D30005069C9B2304009020143516108200121A4
:102D400099629862C046C046C046C046C046C0466A
:102D50009861996111680730014011601A6807494C
:102D60000A401A6070BDC0460008004800040048D0
:102D70005055555503FF0000FFF90000FFFFC3FF4A
:102D8000902270B5012104240D4BD2055861916247
:102D90009462C046C046C046C046C046C046C02633
:102DA000084B1869156900061B69ED083540800E4F
:102DB00028431B0ADBB2000294611843916170BD85
:102DC000000800480004004870B504000D000D48DC
:102DD000AA21FFF78BFF55210B48FFF787FFA021A2
:102DE0000848FFF783FF29002000FFF77FFF20003E
:102DF000FFF7C6FF05002000FFF7C2FFA842F6D18B
:102E000070BDC04655550000AA2A0000002070473A
:102E10000F4B30B59022586180230124D205DB008E
:102E200093620C4B94621D680B480902284318609A
:102E30005869C0B201435961C04608219162C04639
:102E400091611968054801401960946130BDC04620
:102E5000000800480004004800005555FFFFAAAADA
:102E60000B4B10B580215861902301220424DB050F
:102E7000C90099619A629C62C046C046C046054836
:102E800000699C61000A9962C0B29A6110BDC04697
:102E900000080048000400480E4B984202D88023E6
:102EA0001B0218430C4B0D4A58610D4B0902186860
:102EB00002431A605A69D2B211435961C046902246
:102EC0000821D2059162C04691611A6805490A40FD
:102ED0001A607047FF1F00000008004800005555A9
:102EE00000040048FFFFAAAA0A4B984202D8802398
:102EF0001B021843084B042258619023DB059A6299
:102F0000C046C046C046C046044908699A61000AE6
:102F1000C0B27047FF1F00000008004800040048CE
:102F200070B504000D000D48AA21FFF7B5FF55212B
:102F30000B48FFF7B1FFA0210848FFF7ADFF2900BC
:102F40002000FFF7A9FF2000FFF7CEFF0500C046D5
:102F50002000FFF7C9FFA842F5D170BD551500004C
:102F6000AA1A000070B504000D000D48AA21FFF751
:102F700093FF55210B48FFF78FFFA0210848FFF76B
:102F80008BFF29002000FFF787FF2000FFF7ACFF31
:102F90000500C0462000FFF7A7FFA842F5D170BD8D
:102FA00055150000AA0A000030B580239024DB00EC
:102FB000E405A361104B114A58610223A362104B30
:102FC00009021D6800B22A431A605A69D2B211433D
:102FD0005961002801DA0121A162C046C0460121E1
:102FE000A1614918A1611968064801401960802350
:102FF000DB00A36230BDC046000800480000555504
:1030000000040048FFFFAAAA9023DB0530B51C6826
:10301000174D09022C401C60DA68164C2A40DA6011
:10302000154A506102229A62144A00B215682C4374
:1030300014605469E4B221435161002801DA01218E
:1030400099628021C9009961C046C046C046C04609
:10305000C046C046C046C046C0469962012199613B
:1030600049189961136806490B40136030BDC0468A
:10307000FFEFFFFF0000555500080048000400481E
:10308000FFFFAAAAF7B505001C4B01911E781C4B47
:1030900074001F8820213C19A4B22000FFF7B4FF60
:1030A000AA211848FFF7F8FEA01B80B21021FFF7F5
:1030B000ABFF55211448FFF7EFFE20212000FFF75A
:1030C000A3FFA0210F48FFF7E7FE104B18784643F7
:1030D0000101BE19C9B2B0B2FFF796FF01992800ED
:1030E000FFF7DAFE2800FFF7FFFE0400C0462800C5
:1030F000FFF7FAFEA042F5D1F7BDC046A3040020B9
:103100003604002055150000AA0A00008C04002097
:1031100070B50400B0200E0000020A21FFF774FF12
:10312000C0200A210002FFF76FFFAA211248FFF713
:10313000B3FE55211148FFF7AFFEA0210E48FFF75F
:10314000ABFEB0200E4B00021D782900FFF75CFF9C
:10315000C02029000002FFF757FF31002000FFF7D1
:103160009BFE2000FFF7C0FE0500C0462000FFF7D1
:10317000BBFEA842F5D170BD55150000AA0A00009B
:103180008C040020F8B505000E00194B02211C88A4
:10319000A71CBFB23800FFF737FFAA211548FFF779
:1031A0007BFE601C80B20121FFF72EFF55211248E3
:1031B000FFF772FE02213800FFF726FFA0210D481D
:1031C000FFF76AFE0D4B19786418A0B2FFF71CFFD9
:1031D00031002800FFF760FE2800FFF785FE04009D
:1031E000C0462800FFF780FEA042F5D1F8BDC046DA
:1031F0003604002055150000AA0A00008C040020A7
:103200000B4B5861902300B2DB05002801DA012244
:103210009A628022D2009A61C046C046C046C0462B
:10322000044908699A620122000AC0B29A61704793
:10323000000800480004004870B504000D00A021FB
:10324000FFF7B2FE29002000FFF7AEFE2000FFF7D7
:10325000D7FF0500C0462000FFF7D2FFA842F5D1F6
:1032600070BD70B50400A0200D00C0015421FFF70F
:10327000CBFEA0212000FFF797FE29002000FFF7DA
:1032800093FE2000FFF7BCFF0500C0462000FFF7BB
:10329000B7FFA842F5D170BD70B50400A0200D00A5
:1032A0000D4BC0011978FFF7AFFEAA210B48FFF7BD
:1032B000ABFE55210A48FFF7A7FEA0210748FFF7FC
:1032C000A3FE29002000FFF79FFE2000FFF798FFD4
:1032D000A842FAD170BDC0468C04002055D500002C
:1032E000AAAA000070B50400C0200D000002012150
:1032F000FFF78AFEAA211548FFF786FEC0200021AD
:103300000002FFF781FE55211148FFF77DFEC02026
:1033100001210002FFF778FEA0210C48FFF774FEA0
:10332000C0200C4B00021978FFF76EFE2900200028
:10333000FFF76AFE2000FFF763FF0500C04620008C
:10334000FFF75EFFA842F5D170BDC046559500005D
:10335000AAAA00008C04002070B504000D001048DB
:10336000AA21FFF751FE55210E48FFF74DFEA0217F
:103370000B48FFF749FE29002000FFF745FEA0207B
:10338000094B00021978FFF73FFE2000FFF738FFD6
:103390000500C0462000FFF733FFA842F5D170BDFD
:1033A00055D50000AAEA00008C04002070B5040086
:1033B0000D001048AA21FFF727FE55210E48FFF700
:1033C00023FEA0210B48FFF71FFE29002000FFF776
:1033D0001BFE802002210002FFF716FE2000FFF7EF
:1033E0000FFF0500C0462000FFF70AFFA842F5D1F5
:1033F00070BDC04655D50000AAAA00000D4B0E4A6C
:1034000058610E4B0902186802431A605A69D2B219
:103410001143902259618021D2051068490101436E
:1034200011604021916291611A6805490A401A6051
:103430007047C04600080048000055550004004889
:10344000FFFFAAAA104B114A10B558611068104B23
:1034500009020343136053690E4CDBB219439023F6
:1034600051618021DB05186849010843186040203C
:103470009862186820401860D8680143D9601368C2
:1034800005490B40136010BD0008004800040048C7
:1034900000005555FFEFFFFFFFFFAAAA70B505001A
:1034A0000E00134B00211C882000FFF7ADFDAA2160
:1034B0001048FFF7C7FF55210F48FFF7C3FFA021B2
:1034C0000C48FFF7BFFF0D4B19786418A0B2FFF747
:1034D0009BFD31002800FFF7B5FF2800FFF790FEA5
:1034E0000400C0462800FFF78BFEA042F5D170BD56
:1034F0003604002055550000AA2A00008C04002044
:1035000070B504000D000D48AA21FFF79BFF55215F
:103510000B48FFF797FFA0210848FFF793FF29000A
:103520002000FFF78FFF2000FFF76AFE0500C0466E
:103530002000FFF765FEA842F5D170BD555500008B
:10354000AA2A0000902270B50225D2059561C046D6
:10355000C046C046C046C046C04601240D4B9461DB
:103560001E680D49314319600C4909885961C046EC
:1035700095625861C04694621A6809490A401A6007
:10358000C046C046C046C046C046C046C046C0460B
:1035900070BDC0460008004855555555A004002090
:1035A000AAAAAAAAF0B58BB009920122089111002B
:1035B000354B02901F78354B1B780493344B1D68B4
:1035C000344B1B789940344B01911868334BA962F6
:1035D0001B789A40029B102B4FD18262012421005C
:1035E0002F4B05941B6806932E4B1B7899408BB28A
:1035F000210007932C4B1B689C462C4B1B78994051
:10360000002303911900029C202C05D1049E059CE7
:103610001E41264236D08261089C202C0FD1002BFF
:1036200001D11A4C6354069C2669079C264206D099
:10363000164C665C059C9C402643144C6654099CC1
:10364000013FFFB2002C03D0002F01D1019CAC61DF
:103650006446039E0133DBB2A661A662082B05D146
:1036600001310A4BC9B25B5C04930023002FCAD11D
:10367000019B8262AB620BB0F0BD029B112BADD1FE
:103680008261ABE78262C7E7E5040020C504002041
:103690002C070020300700201C07002020070020F6
:1036A0002407002028070020140700201807002006
:1036B000F7B501221A4B1C781A4B19681A4B1B7864
:1036C0009A40102826D18A6201263500174B0196B0
:1036D0001B680093164B1B789D400023AC461D00D1
:1036E00020280DD1134E019F765D1E413E4215D01C
:1036F0008A610133DBB2082B02D100230135EDB220
:103700006646009F013CE4B2BE61BE62002CE7D178
:103710008A62F7BD1128D7D18A61D5E78A62E8E7C6
:10372000E50400202C0700203007002014070020AB
:1037300018070020C5040020F0B52C4B85B01B787D
:10374000019301231E00019A1F009640284A116828
:10375000284A8E62127802921A0002988240944699
:103760006046254A12689062244805782448AF4094
:1037700000689D408762046803941C00AC402500EB
:10378000039C254305604568019CBD4345609C4002
:103790001D00A54008681C00284308604868B04325
:1037A00048601068029999408C40210001436046AE
:1037B000116051688143134851600078124A984063
:1037C00083401268116899431160D1680B43D3603C
:1037D000002319000D4A13700D4A99540133202B10
:1037E000FBD180220B4B1A7005B0F0BD30070020D2
:1037F0002C070020200700201C07002018070020AD
:10380000140700202807002024070020E5040020DA
:10381000C5040020E604002010B52B4B1B78082BB4
:103820004ED013D8294C032B39D006D8012B28D0E1
:10383000022B2AD0254BEE223AE0062B3AD03DD877
:10384000042BF7D101222021112021E00F2B28D0B9
:1038500008D81E4C0D2B1FD000220E2BEAD12021A0
:10386000102015E0802B06D0184CFF2B06D0102B13
:10387000E0D100221FE0FFF75FFF10BDF0232370AF
:10388000FBE72020FFF714FF04E0012200212020A5
:10389000FFF788FE8223F2E700221100F7E70122FA
:1038A000DDE7002220211120FFF77CFE8222074B5A
:1038B0001A70E2E7012220210800E9E71020E1E781
:1038C0001120FFF7F5FEF1E7C4040020E604002014
:1038D000BC224D4BD203996AF0B50A439A629A6AA8
:1038E0004A490A409A62B022596952030A435A610E
:1038F00019009023464ADB051278102A03D10022D2
:103900001A609A60DA601A684248012402401A601C
:103910008022D868D2010243DA601A683E483F4FDD
:1039200002401A608022D868520302430420DA6001
:103930001A68A2431A60DA682243DA601A6882437E
:103940001A60DA680243DA6010221D6895431D6030
:10395000DD682A43DA6040221D6895431D60DD68FA
:103960002A43DA601A682E4D2A401A608022DD68E8
:10397000D2042A43DA601A682A4D2A401A6080224B
:10398000DD68D2052A43DA601A68274D2A4080256F
:103990001A60DA68ED022A43DA60244A1668A64300
:1039A0001660D6683443D4601E683E401E60DC68F2
:1039B0003C40DC6080234C691B0323434B611C4B60
:1039C0001C4C1E681C4F26431E601E683E401E6035
:1039D000DE683443DC604B691D434D611368174D4D
:1039E0002B401360D468164B1C43D46011682940E7
:1039F0001160D1680B43D360136883431360D368AD
:103A00001843D060F0BDC04600100240FFFFA1FF88
:103A10000A070020FFBFFFFFFFFFEFFFFFEFFFFFE1
:103A2000FFFFFFFBFFFFFFBFFFFFFBFF000400489E
:103A30000008004855555555AAAAAAAAFFFFAAAAE8
:103A4000000055550D480E4A038810B50D499342A4
:103A500002D10A7801320A7090220424D20501337F
:103A600094620380084B18699461084C0B78626972
:103A70001B02D2B2134380B2636110BD8A040020DE
:103A8000FFFF0000880400200008004800040048F0
:103A9000F7B50D00042701924C7A000203B2A6B2DA
:103AA00000932B7AB34202D26C720020FEBD0098C4
:103AB0006B682043195D80B2019B98476B681A5D63
:103AC000094B824205D01A683A431A6002229A6171
:103AD000E7E71A680134BA431A60DA6801363A43F4
:103AE000DA60E4B2B6B2DCE700040048F7B50D00D6
:103AF0001600FF27000203B24C7A01932A7AE3B240
:103B0000A24202D26B720020FEBD20006A683840DB
:103B1000D15C019B0134184380B2B047A4B2EDE7F9
:103B2000022907D10F4B104A984218D0904209D170
:103B3000180007E0032906D10A4B0B490B4A9842AB
:103B40000BD1080070470429FCD1064B064A984265
:103B500005D006499042F4D0054A8842E6D11000CB
:103B6000F0E7C046380400204C0400206004002028
:103B70007404002070B506000D0005243000013CDF
:103B8000FFF73EFBE4B229003000FFF73DFA6D0875
:103B9000002CF3D170BDFFFF70B50400A0200D0014
:103BA00000020221FFF7E6FFAA211048FFF774F98F
:103BB00055210F48FFF770F9A0210C48FFF76CF969
:103BC000A0200C4B00021978FFF7D4FF2900200039
:103BD000FFF762F92000FFF787F90500C0462000D3
:103BE000FFF782F9A842F5D170BDC0465515000017
:103BF000AA0A00008C04002070B50400C0200D004B
:103C000000020521FFF7B6FFAA210D48FFF7FCF9D6
:103C100055210C48FFF7F8F9A0210948FFF7F4F9FE
:103C200029002000FFF7F0F92000FFF7E9FA05006E
:103C3000C0462000FFF7E4FAA842F5D170BDC046A7
:103C400055550000AAAA0000F7B501230225294F07
:103C500001923A780091054393400421A020264E1A
:103C60002D049BB229433268C00100F0B9FE040064
:103C700001283DD13B7809209C4005437830A3B210
:103C800032682900FF3000F0ABFE040001282FD17C
:103C90003B7832689C402900A3B2002000F0A0FECF
:103CA0000400012824D1009B180AFEF7BBFD3B78D5
:103CB00032689C402900A3B200F092FE0400012863
:103CC00016D16B461878FEF7ADFD22003B7829002F
:103CD0009A4093B2326800F083FE0198FEF7A2FD8D
:103CE0003B7832689C402900A3B200F079FE0400C2
:103CF000E0B2FEBD100700200C070020F7B501233D
:103D00000225274F00903A78019105439340042102
:103D1000C020244E2D049BB229433268800100F05C
:103D20005FFE0400012838D109231D433B78C020E1
:103D30009C403268A3B22900400000F051FE04000C
:103D400001282AD13B7832689C402900A3B2002088
:103D500000F046FE040001281FD1019B180AFEF75F
:103D600061FD3B7832689C402900A3B200F038FE28
:103D70000400012811D16B461879FEF753FD22008B
:103D80003B789A4093B2009A14430922E1B20904A5
:103D90001143326800F024FE0400A0B2FEBDC0460C
:103DA000100700200C070020C64BC74AF0B51A6068
:103DB000C64A8BB01A6002225A60A02212019A6091
:103DC0000493049BDB68002BFBD19022049BC04929
:103DD00012031960BF4B186802431A6080220991D0
:103DE000920219681142FCD0012259680A435A60B4
:103DF0008022596852020A435A608022596852034D
:103E00000A435A608022196852040A431A608022C9
:103E1000920419681142FCD01121AF4AAF4C1160D5
:103E20005A680E398A43110002220A435A608022DE
:103E3000196B0A431A638022D96912040A43DA61B2
:103E4000A74BE381BC231B689847A64B6382A64B14
:103E5000238262B6FFF73CFDF022A44B1A70049B4C
:103E6000099AA34E1A603278202311009943D2296F
:103E70001BD1A049A048C978C3780224FF2904D1E6
:103E8000FF3B1C00631E9C41E4B29C4BDB78FF2B84
:103E900000D003249A4BDB78FF2B00D00424994BED
:103EA000994F1C703860D22A59D03378F22B05D143
:103EB0000022023B3370944B1B68DA703578D02DAA
:103EC00000D088E2904E3068C378802B00D082E228
:103ED0008C4B1978FFF724FE00233060C5700688EC
:103EE00004004372C07AF5B21038232800D970E27A
:103EF000FCF742FBDC01FF013F0243026F026F024D
:103F00006F026F026F026F026F026F026F026F0229
:103F10006F026F0238008D00E000E50010011A0109
:103F200021015D0173017B016F026F026F026F025D
:103F30006F026F02BB019B00450082012100FFF769
:103F4000EFFD01230135EDB2A542F7D3002B00D0E0
:103F5000386080223B68DA70D0233370A5E70023F5
:103F60000125F1E7E17B0F2900D957E2090131432F
:103F7000237AA278C9B26068FEF7EAFB53E0E17BDE
:103F80000F2900D94AE2636809019C46237AA27886
:103F900002935E4B0E4376B25969F0B2C9B2000289
:103FA000014359611F00002E03DA90210120C90549
:103FB0008862FF2559692D02294011435961C04685
:103FC000902080260023C005F60005958661C04636
:103FD000C046C046C046C046C046C046C046C046B1
:103FE00065464B4901320969D2B2090AE954866231
:103FF0007969059D01332940114379610299DBB24A
:104000009942E3D20122866282616372DCE03C2342
:10401000E17B0A009A4300D000E2237AA278294388
:104020006068FEF7CBFB6072CEE0E17B3C230A00C8
:104030009A4300D0F2E1636829439C46237AA5782D
:104040000293324B5A691F292FD88020014309025D
:10405000D2B20A435A61FF27902104265A693F02CF
:104060003A40C9052A435A618E628E61C046C046F5
:10407000C046002205978E62C046C046C0466746CD
:10408000234801350069EDB2000AB8545869059F0C
:104090003840284358618E61C046C04601320298BC
:1040A000D2B29042E7D262728EE0D2B209021143DC
:1040B0005961D0E7237AA278E17B29435BE7E17B72
:1040C0003F23A6E700300040CCCC0000555500004F
:1040D000AAAA000000100240002002400060004038
:1040E0003CA5FFFF4108000885080008E604002001
:1040F000A40400204C0400203804002060040020A8
:1041000074040020A204002090040020000800484D
:1041100000040048227AE17BA37800920022294320
:104120006068FEF7DDFA7EE7E17B227AA378294317
:1041300000920122F4E7BA4BE17B586929430E0251
:10414000C0B230436568A278277A5861902004266F
:104150006031C005C9B286621E001F2901D8012145
:104160008162FF2059690002014011435961C04634
:10417000AC4900238C46C046C046C046C046C04637
:10418000C046C046614609690132090AE9547169AD
:10419000D2B2014001331143DBB271619F42EAD2D6
:1041A00090220421D2059161033991612DE7002508
:1041B000267A67687608FFF745FC0135EDB238804E
:1041C0000237AE42F7D26572974B1B6819889A7A0C
:1041D00052181A80D822DA70FDE0E17B237AA278A7
:1041E00029436068FEF730FD1DE7E17B237A294310
:1041F0000131A278FF31F4E76368E17B9C46884B8C
:1042000029435A690902D2B20A43A678277A5A6129
:1042100090220121FF20D2059162033191625A69F7
:104220000002024032435A6100227E4D0290C04695
:10423000C046C046C046C046C046C046C0466046AE
:1042400029690136090A815459690298F6B2014078
:1042500001323143D2B259619742E8D2902304210E
:10426000DB059961012199611DE7A3786668277ACA
:10427000002B02D12802FFF765F9694A902000233C
:1042800004259446C0058562C046C046C046C04667
:104290006246116985618AB2120AF2545A1C0233CD
:1042A000D2B2DBB2B1549F42EDD2AEE6E37B1E2B1D
:1042B0000BD1C020B6092233F1B200029D43FEF7B4
:1042C000A3FE237AA2788021F7E61C2B00D07BE79F
:1042D000A0208121C001FEF797FE8020F609F1B2EF
:1042E0000002FEF791FEA0200021C001FEF78CFE27
:1042F0006AE7E37BFE2B00D066E77609F1B24B4814
:10430000FEF7CAFD1F21636829409C46444B090201
:104310005A69A678D2B20A43277A80215A6190223C
:10432000C900D20591610121FF20916203319162A0
:104330005A690002024032435A61C0460022394D98
:104340000290C046604629690136090A81545969BC
:104350000298F6B2014001323143D2B2596197421C
:10436000EFD290230421DB0599618021C900996275
:1043700078E7237AA27860219FE6E37B002B20D1A7
:104380008033F6091D43F3B20393FF20039B2549B5
:104390009B004A6903402648024013434B61C020FA
:1043A0009021039BC905C000DB004A6903402148F6
:1043B000024013434B61227AA37829000092002225
:1043C000AEE6012BE1D140217604760E3143039114
:1043D000DBE7C323E370184B1D78F02D00D0CEE24D
:1043E000114E3468E378982B00D0C8E2134B2000BC
:1043F0001978FFF795FB00233060C370E07AE57011
:1044000025881038EEB2052800D9B6E2FCF7B4F8DA
:10441000180052011F022702E600AD02C423D9E7AB
:10442000000800480004004890040020FF3F0000FE
:1044300003FF0000FFF90000A4040020A2040020F4
:10444000E37B002B06D130008038C0B2DD4A21006A
:10445000FFF71EFBE37B012B06D130008038C0B292
:10446000D94A2100FFF742FBE37B022B06D1300043
:104470008038C0B2D54A2100FFF738FBE37B042B1C
:1044800006D130008038C0B2D14A2100FFF700FBCE
:10449000E37BFC2B06D130008038C0B2CD4A21002E
:1044A000FFF7F6FAE37B0A2B06D130008038C0B262
:1044B000C94A2100FFF7ECFAE37BFD2B15D13F2021
:1044C000238830409B0905936B4680261B7D06435D
:1044D0000793677ABBB2029333021BB20893237A25
:1044E000029A934200D380E06772E37B1E2B06D1D1
:1044F00030008038C0B2B94A2100FFF7C9FAE37B27
:104500000C2B17D11F20304080260643C020258861
:10451000A5216D09EDB2C001FEF776FD2900B04876
:10452000FEF772FD677A35023D43237ABB4200D322
:10453000A3E06772E37B1C2B21D1AA21A948FEF7D7
:1045400033FD5521A848FEF72FFD2021A548FEF791
:104550002BFD30008038A54A2100C0B2FFF798FA41
:10456000802090210002FEF71FFD80200021000224
:10457000FEF71AFD8020F0210002FEF715FDE37B17
:104580001F2B21D1AA219A48FEF70EFD55219948EB
:10459000FEF70AFD20219648FEF706FD3000703830
:1045A000954A2100C0B2FFF773FA902090210002D3
:1045B000FEF7FAFC902000210002FEF7F5FC9020A7
:1045C000F0210002FEF7F0FCE37B6F2B06D13000F8
:1045D0008038C0B2894A2100FFF75AFAF4232288B2
:1045E000E370A37A9B182380C9E100218448FEF779
:1045F0000BFDAA218348FEF701FF55218248FEF7F3
:10460000FDFEA0217F48FEF7F9FE6B46187D7F4B2B
:104610000799C01880B2FEF7F7FC089D63683D4318
:10462000ADB2D95D2800FEF7E9FEC0462800FEF7CE
:10463000E7FD06902800FEF7E3FD069B8342F4D1D8
:1046400063680699DA5D724B8A420FD1029A196843
:10465000013292B20292042291431960D968013763
:104660000A43DA600222FFB29A6238E7042219682C
:104670000A431A6002229A6131E7AA216548FEF7CF
:10468000C3FC55216448FEF7BFFCA0216148FEF73A
:10469000BBFC63682800D95DFEF7B6FCC046280065
:1046A000FEF7AEFD02902800FEF7AAFD029B8342B2
:1046B000F4D13AE7E37B002B04D1584A21003000C3
:1046C000FFF714FAE37B012B04D1554A2100300097
:1046D000FFF70CFAE37B032B04D1524A2100300090
:1046E000FFF704FAE37B042B04D14F4A210030008A
:1046F000FFF7FCF9E37B0A2B04D14C4A2100300080
:10470000FFF7F4F9E37B0B2B04D1494A2100300079
:10471000FFF7ECF9E37BFE2B00D05FE721884548EB
:104720004909C9B2FEF7B8FBAA214348657AFEF7EA
:104730006FFB55214148FEF76BFB3F482021FEF7F8
:1047400067FB1F2030400302AFB20593237ABB42C0
:104750000DD2657290210020FEF75AFB002108005F
:10476000FEF756FBF0210020FEF752FB36E7059ED0
:10477000A0212E433000FEF74BFB63683000595DEB
:10478000FEF746FBC0463000FEF76AFB02903000A1
:10479000FEF766FB029B8342F4D1636802995A5D7F
:1047A0001B4B8A424CD104211A6801358A431A6096
:1047B000DA6801370A43DA600222EDB2BFB29A62C8
:1047C000C4E7C04601350008F93B00089D340008E5
:1047D000AD3300080D2E000859330008E5320008FB
:1047E000FFFF0000AA8A0000558500006332000820
:1047F000AA9A000055950000393200089932000845
:1048000069FD000055550000AA2A000069FDFFFF60
:104810000004004855D50000AAAA0000652F000832
:10482000993B000885310008212F0008113100084C
:1048300085300008FF3F0000AA0A0000550500006F
:1048400004211A680A431A6002229A617EE7300046
:1048500060305A4A2100C0B2FFF748F9BEE6E37B58
:10486000042B06D130008038C0B2554A2100FFF732
:104870003DF9E37B052B04D1514A21003000FFF7BD
:1048800035F9E37B062B06D130008038C0B24D4AA3
:104890002100FFF72BF9E37B072B04D1494A2100C4
:1048A0003000FFF723F9E37B0A2B06D13000803874
:1048B000C0B2454A2100FFF7EBF8E37B0B2B04D194
:1048C000414A21003000FFF7E3F8E37B082B05D1D4
:1048D00030008038C0B22100FEF7F4F8E37B092BEA
:1048E00003D121003000FEF7EDF8E37B002B1CD153
:1048F000FF2280331E4323883448DB09DBB29D004E
:1049000041692A40324DDB0029400A43426190222E
:10491000C020D205C000516903402E4801400B431E
:10492000536121003000FEF703F8E37B012B00D038
:1049300054E62388254A5B04580E40230343FF2096
:104940009B0051690340224801400B439021536171
:10495000C9054B691F4A30001A4080239B0013434E
:104960004B612100FDF7E4FF38E62D02667AADB217
:10497000237AF0B2B34210D26072C323E370164BB5
:104980001B78F02B01D1FFF76AFA832B01D0FFF7D8
:1049900066FAFEF741FFFFF762FA63680236195CB8
:1049A0000130C0B21B5C0902C9184008284389B213
:1049B0000135FEF709FAADB2B6B2D9E70930000801
:1049C000F92B0008A92B0008592B00080004004807
:1049D00003FF0000FFF90000E6040020FFFFFFFFD7
:1049E000F0B5474680B4061C081C000C102801D501
:1049F000162700E004270007000F8046FF20014033
:104A00005468251C1D439C43F60313850AD5C046F4
:104A1000C046C046C046C046C046C04694801383C8
:104A2000958002E0012000F081F801390AD4381C99
:104A300000F07CF8C046948013839580C046C04641
:104A40007600E2E7381C013800F070F89480138398
:104A50009580042000F06AF8108A184001D0FF20E9
:104A600061E0C046C046C046C046C046C0469480CD
:104A70009580108A184055D001200226B04552D0AA
:104A80000921168A1E40FCD1012000F04FF89480C5
:104A9000C0469580C04603E0C046C046C046C046FA
:104AA000948095807600108A1840EFF300804000D3
:104AB000C00F0643381C023800F038F89480958007
:104AC000022000F033F80139EAD5138594800120E3
:104AD00000F02CF813839580301C8021022399402C
:104AE0000E401BD1002341085E4149085E41490840
:104AF0005E4149085E4149085E4149085E414908F6
:104B00005E4149085E4149085E41760808D3400885
:104B1000FF21084048400002013004E00E2002E07E
:104B2000092000E0002080BCB846F0BD0138FDD16E
:104B30007047C04603685A0003D45B005B08C01886
:104B40007047802212061343F9E7C046F0B5574676
:104B50004E46DE464546E0B5814683B09246002982
:104B600025D04B1E9B46002701935B46FB18DC0FAC
:104B7000E4184B466410E5005E193000FFF7DAFFD9
:104B8000019B8046A3420BD0280008304844FFF721
:104B9000D1FFD04506D80138504509D2671CE4E75B
:104BA000504505D9A74202D0631E9B46DDE700268B
:104BB000300003B03CBC90469946A246AB46F0BDDF
:104BC000012809D0022805D0002801D00020704714
:104BD0000248FCE70248FAE70248F8E7B552000845
:104BE000CD520008C152000830B5234B83B00500F8
:104BF0008C1E002B26D001A9200000E000BF002859
:104C00001CD001992200FFF7A1FF041E16D0FFF768
:104C100091FF6368A864012B2AD0201D002B23DBA1
:104C2000FFF788FF0023E8642B650368002B0FDB88
:104C3000FFF780FF2861002003B030BD002309206A
:104C40002B61F9E70D480E49091AC9100191D9E7FE
:104C50001801000FFFF7B4FF2861431E9841082395
:104C6000404298430930E7E70123E8642B65DCE71D
:104C7000002305202B61DFE700000000B05B000887
:104C8000805C0008036810B50400DA0705D44830DA
:104C90009B070ED500F06CFC23685A070ED51A0747
:104CA00013D5DB0604D42000D130FF3000F06CFCBB
:104CB00010BD00F059FC23685A07F0D42000D03012
:104CC00000F05AFC23681A07EBD420005130FF3063
:104CD00000F056FC2368E4E70368002B00D01B18A3
:104CE00018007047092070477047C04670B504002F
:104CF0000D0008E02B6C2A0063612100012023696C
:104D00009847082807D1296C2000FFF76DFF00287D
:104D1000F0D000F083FE0728FBD10020296CFFF7BC
:104D2000E3FF281D00F00AFCF0B5CE46474680B5EB
:104D3000C3682E4C9846A5448369060014000431CC
:104D4000402205A8994600F071FE002304AD0493AB
:104D500023E0F0222B6C5200736129007CA800F044
:104D600065FE7CAA31003369200098478A9B0700C2
:104D70006B6403934B46009501933200330021008E
:104D80000120C04700281FD1F0227CA95200280032
:104D900000F04CFE0024082F1FD1296C3000FFF7D3
:104DA00023FF611E8C41070009340028D1D0AB6B72
:104DB00010216B644B462143019300953300320070
:104DC0000120C047002800D009273800F5239B00A8
:104DD0009D440CBC90469946F0BD072FF4D12000AD
:104DE000296CFFF781FF05A800F0A8FB2CFCFFFF52
:104DF000406C704770B5CB6BFAB00B6404000E00CA
:104E00004022043103A800F011FE01235B4202930B
:104E100006E002AA210023699847050008280AD164
:104E2000129B200019000193FFF7DEFE0028F0D04E
:104E300009207AB070BD02A8FFF724FF062DF7D134
:104E400031002000FFF752FF10B58261DA6BC160BC
:104E50001A6419000022FFF767FF10BD436970B59F
:104E60000B64C36804000D00002B15D10A002369F0
:104E7000010002209847072807D0082803D12900FD
:104E80002000FFF733FF00F0C9FD0020296CFFF779
:104E90002BFF281D00F052FB0122FFF745FF00F019
:104EA000BDFDC046C36810B5002B05D0CB6B0022FA
:104EB0000B64FFF739FF10BDFFF79CFFFBE7C0460F
:104EC0007047C046836810B5002B02D00100012056
:104ED000984710BD012906D0002906D003390220C9
:104EE000012900D970470120FCE7002B08D10F2AC7
:104EF00006D8920082185268009B00201A60F1E7E1
:104F00000220EFE700B585B003AB0A000093002153
:104F10000023FFF7DFFF039805B000BD012906D08D
:104F2000002906D003390220012900D97047012049
:104F3000FCE7002B08D10F2A06D8009B92001B68C3
:104F4000821853600020F1E70220EFE700B585B03A
:104F500003AB039200930A0000230021FFF7DEFF5A
:104F600005B000BD70B51A4CD36BA54413640600A0
:104F70000D0019A8111D402200F058FD01235B42CD
:104F8000189314E00C2118A802AAFFF7DFFF2900EC
:104F900018A8B047002812D1069B18AA02A9083009
:104FA00001939847040005280AD0092807D0289BB8
:104FB00002A819000193FFF717FE0028E2D0092488
:104FC00018A8FFF75FFE200090239B009D4470BD52
:104FD000C0FDFFFFF0B5DE4657464E464546E0B5FC
:104FE000160003220D0011008BB01F000193EB6C23
:104FF00001401C1D009107A91B688B460894002FD7
:105000006BD01A0C1B045946079302230B72FD3315
:1050100013409B004A72E418009B022B00D1AC6B3A
:105020002B6DDB0747D4002305930833034002931D
:105030002768002F00D112E1019B022B49D0638821
:10504000278898460434012340469A469843AB6C1F
:105050000F21994681443000FFF754FF002181451C
:1050600006D8390053469943494488428941494208
:1050700043465A0002231340012217403B43012BB1
:105080003AD0002B30D0022B1BD12368009A5F004E
:105090007F08002A67D1002906D0029A002A00D191
:1050A0007CE0002F00D1A9E0002B00DA04340137A6
:1050B000BF00E419BCE75946300000F00BFB0028A4
:1050C00010D009200BB03CBC90469946A246AB4696
:1050D000F0BD636808349846B5E71B0207935B464A
:1050E0001A8199E70820EDE7009B002B02D00029E8
:1050F00000D08DE004349BE7009B002B1AD10029DF
:1051000016D02368DF0F63689A1CDAD02A00583261
:105110000692013300D1BDE0201DFFF7DDFD06AB97
:1051200001003A00280000E000BF002800D082E023
:1051300008347DE70D2130002F6AFFF7E3FE874238
:10514000F6D1AB6A9C42F3D12000FFF7F3FC0F21AC
:1051500002003000FFF7FAFE30002A000021FFF7BE
:10516000F5FE0720AEE72B6A0D2130009846FFF7C9
:10517000C9FE804501D0236896E7AB6A9C42FAD10C
:105180000023EB6204332B63231DAF626B63236840
:10519000002B00DA86E00123059388E7002F2DD04D
:1051A00058239C46AC4463460393231D9946002331
:1051B000984606AB220004933B004C464746B24655
:1051C00098462E00914603E004342F00454542D016
:1051D000039B20000693FFF77FFD049B0100002244
:1051E00030007D1C00E000BF0028EDD04346B846EB
:1051F00035004C4656461F009845BCD10D21300065
:10520000FFF780FE069B28626B62AC62062059E7BE
:105210002000FFF78FFC04340700AC63280000E097
:1052200000BF002800D14CE730003A000F21FFF703
:105230008DFE072046E707000D213000FFF762FED4
:105240002862022F2BD1069BEB622B002C336B6262
:10525000AC62062036E735004C465646CEE7594646
:10526000300000F037FA002800D02AE7059B002B19
:1052700000D137E70F213000FFF744FE0E21020076
:105280003000FFF763FE3000094A0F21FFF75EFE92
:10529000072017E70D213000FFF734FE2862069B38
:1052A0006B62D5E738000130800020184DE7C0461A
:1052B0000000000010B50023FFF78CFE10BDC046B3
:1052C00010B50123FFF786FE10BDC04610B50223BE
:1052D000FFF780FE10BDC046F0B5CE46474680B50C
:1052E0000500C3B014001E00012955D000294BD081
:1052F000032922D0042949D1002B47D1102A45D8AF
:10530000102203681A4200D0F1E020AF380000F00C
:105310003DF900230120A96B02009A40144203D0FA
:105320000E689A00BE5004310133042BF4D13800CA
:10533000A96300F029F9002029E0032B26D11404E9
:10534000230C160C9846F318102B1FD8082203685C
:105350001A4200D098E020AF380000F013F942461E
:10536000AB6BF6001C00002A08D0D400F21A1C19FE
:10537000BA181968D15004339C42FAD1AC63380092
:1053800000F0FEF8002002E0002B24D0022043B001
:105390000CBC90469946F0BD130C14049846240C9E
:1053A000012E2ED0052EF1D11B19202BEED842460E
:1053B0000F2A70D9A146002C7ED1AA6B4346AA635E
:1053C0000F2B00D89AE04B46002BDBD0684600F04C
:1053D000D3F80020DBE700231004A96B000C013692
:1053E00032009A40104204D00F689A00AA18576001
:1053F00004310133102BF3D10020A304C7D4A963D7
:10540000C5E71B19102BC1D843460F2BBED82B68FC
:105410001E4206D00322280093432B60483000F040
:10542000A5F820AF380000F0A1F8AA6B002C24D01A
:105430004346DB00FF180023994664000023A400C4
:10544000D158F95004339C42FAD14B4612196F4699
:10545000002B0FD04046102800D210204B46D90018
:1054600000231038C0003818D458C450043399426F
:10547000FAD15218012EA1D120AF04323800AA630C
:1054800000F072F8002082E7934303605130FF3050
:1054900000F078F85FE7102B3BD91022524291467A
:1054A00099442B68194208D0022228008B431343E9
:1054B0002B60483000F05EF82B6804221A4221D19C
:1054C00043460F2B03D820AF380000F053F86F4647
:1054D000380000F053F810244346AA6BE41A002C5D
:1054E000B8DD434620AFDB006400FF18A6E7934316
:1054F0000360D130FF3000F049F806E720A800F043
:1055000037F860E7280093432B60D03000F036F87E
:10551000D6E72B680B4207D0022228008B431343A7
:105520002B60483000F026F820AF380000F022F859
:10553000A146AA6B002C00D07AE73FE7011C34316A
:1055400038C9043B9C461D60A646011C20313CC95D
:1055500090469946A246AB46011C0831FCC94168F9
:105560000068E54600BDC0467047C0467047C0466B
:105570007047C0467047C0467047C0467047C04637
:105580007047C0467047C0467047C0467047C04627
:1055900001B401A801B585B0FFB408A841464A4648
:1055A00053465C4665463EC001A83EC80F98009031
:1055B00000230CB401A9FFF71DFC109B12B0184783
:1055C00001B401A801B585B0FFB408A841464A4618
:1055D00053465C4665463EC001A83EC80F98009001
:1055E00000230CB401A9FFF739FC109B12B0184737
:1055F00001B401A801B585B0FFB408A841464A46E8
:1056000053465C4665463EC001A83EC80F980090D0
:1056100000230CB401A9FFF745FC109B12B01847FA
:1056200001B401A801B585B0FFB408A841464A46B7
:1056300053465C4665463EC001A83EC80F980090A0
:1056400000230CB401ABFFF7FFFB109B12B018470F
:1056500001B401A801B585B0FFB408A841464A4687
:1056600053465C4665463EC001A83EC80F98009070
:1056700000230CB401AAFFF775FC109B12B0184769
:10568000027A0300002A0BD1427A002A0FD0013A95
:1056900042724268111D416003211268017202E0EA
:1056A000013A02720268100E12021A607047B020AE
:1056B000FCE7C04600B585B003AB00930C22002385
:1056C0000021FFF707FC039805B000BD10B5FFF7F8
:1056D000F1FF10BDF0B557464E464546DE46002365
:1056E000E0B587B003930F339846083B9946802373
:1056F0001B0306000F009A463800FFF7C1FF0400A5
:10570000B02800D1C3E003062AD5030042469343E4
:10571000DBB2802B00D171E0902B3DD0A02B00D1CB
:1057200085E0B02B50D0C02B00D196E003004A4654
:105730009343DBB2D02B0AD15346024001321A43C5
:10574000052301213000FFF7C7FD0028D4D009242C
:10575000200007B03CBC90469946A246AB46F0BD3F
:10576000FF23820013401D1D05AB9B4600930D22B5
:10577000002300213000FFF7ADFB630620D4059B1A
:105780009C46654405955B460D220093002100234D
:105790003000FFF7C3FBAFE7833B03400D2BD6D0B0
:1057A00005AD02400095002300213000FFF792FB79
:1057B000009500230D2200213000FFF7AFFB9BE78F
:1057C000059B5D1B0595DEE7B12874D0B22800D19A
:1057D000CFE0B32800D184E0FC230340B42BB6D043
:1057E0004A465346024001321A4301210123300048
:1057F000FFF772FD002800D17EE7A8E70402380019
:10580000FFF73EFF802520432D02A8429FD00401D0
:105810000005020C002300213000FFF75DFD002889
:1058200095D12C4200D167E70123039364E7FF235E
:105830004A461B011900824311410A001A4003071E
:1058400002D58023DB011A43002300213000FFF73B
:1058500043FD002800D14FE779E7C6284CD0C72880
:105860005ED003004A469343DBB2C02B6DD0C828FC
:1058700072D0C92800D06AE73800FFF701FFF02393
:1058800002031B03134042460240013257E7039BC9
:105890000024002B00D05BE705AD00950E2200210F
:1058A0003000FFF717FB009500230F220021300086
:1058B000FFF734FB4CE73800FFF7E2FE002800D189
:1058C00045E7030042469343DBB2002B00D03EE79E
:1058D000020000213000FFF7FFFC002800D10BE799
:1058E00035E73800FFF7CCFEF02302031B0313401B
:1058F00042460240013277E73800FFF7C1FEF0234D
:1059000002031B0313404246024001321A430323A1
:1059100003213000FFF7E0FC002800D1ECE616E799
:105920003800FFF7ADFE021E00D110E7030041462C
:105930008B43DBB2002B00D009E704213000FFF7D6
:10594000CBFC002800D1D7E601E74346A0221C404B
:10595000013412032243DAE73800FFF791FE434691
:1059600002009A43D2B210321840120301300243AF
:10597000E6E605AB00939B460D2200230021300094
:10598000FFF7A8FA3800FFF77BFE030618D57F253E
:10599000B03C059B2840A0409C46604405903800E0
:1059A0000734FFF76DFE0306F3D481217F238900BE
:1059B00003408C46A340059A62449B180593E2E697
:1059C0000224F2E7030000B5DB6C85B05A680800DA
:1059D000120201921A0001A908324A6003220A72D7
:1059E000DB794B72FFF776FE05B000BD10B5FFF70F
:1059F0006DFE806C10BDC04610B5FFF767FEC26C2F
:105A0000D3799B000833D01810BDC04610B500F004
:105A100005F8C04610B5FFF7F9FFC04610B50620DF
:105A200000F076F8012000F0A5F8C046F0B50F2A86
:105A300037D90D0005430C000300AD0735D1150023
:105A4000103D2D092E013618103627681F60676833
:105A50005F60A7689F60E7681034DF601033B3426F
:105A6000F3D10F2401352D01491914404519032C98
:105A70001DD90023CE58EE500433E61A032EF9D870
:105A80000323043CA4080134A4001A402D19091969
:105A9000002A05D00023CC5CEC5401339342FAD1A8
:105AA000F0BD0500002AF5D1FAE70500F2E7220073
:105AB000F8E7C04670B505000C001F2922D8B723AF
:105AC0009B00C358002B0ED08A009B181A68002A2E
:105AD00009D0012A10D0511C10D0002120001960DB
