:020000040800F2
:1000000000180020C1000008FD0000088903000856
:1000100000000000000000000000000000000000E0
:10002000000000000000000000000000FD000008CB
:100030000000000000000000FD000008FD000008B6
:10004000FD000008FD000008FD000008FD0000089C
:10005000FD000008FD000008FD000008FD0000088C
:10006000FD000008FD000008FD000008FD0000087C
:10007000FD000008FD000008FD000008FD0000086C
:10008000FD000008FD000008FD000008FD0000085C
:10009000FD000008FD000008FD000008FD0000084C
:1000A000FD000008FD000008FD000008FD0000083C
:1000B000FD000008FD000008FD000008BD0100086B
:1000C00009490A4A0A4B9B1A03DD043BC858D05021
:1000D000FBDC0849084A0020521A02DD043A885025
:1000E000FCDC00F053F90000580500080000002077
:1000F000000000200000002014000020FEE7C046A1
:10010000224B10B51968224B224C1A885208520013
:10011000505A214A10801A88023292B21A8052082C
:100120005200505A1D4A10801A88023292B21A8028
:1001300052085200505A1A4A10801A88194802323E
:1001400092B21A8052085200515A174A11801A88E6
:100150002188023292B21A808A4210D908318A1A52
:1001600092B2028022881A801049114B0A881343E8
:10017000104A1A40302353409BB20B8010BD0E4CE6
:1001800021888A42EAD808230380EDE71000002086
:100190000A0000200800002040600040426000404B
:1001A000446000400260004046600040005C004047
:1001B0008080FFFFBF8FFFFF0600002070B5544C0A
:1001C00023881BB2002B00DB89E02388514A1A40A8
:1001D00080231343238023881B0500D47CE04E4AF0
:1001E0007F211368013313604C4B1A7815008D433F
:1001F0004B490D70DD884B490D8000254A490D8023
:1002000060211140A94201D0484E358052B2002AE7
:1002100039DA002910D15A78062A0BD15B881A0ADC
:10022000022A16D0032A16D0012A1BD1404A1220D6
:10023000404B1A603D4B188022883F4B13433F4A86
:100240001A40C0239B0153409BB22380FFF758FF05
:1002500036E03B4AEBE7DBB2012B0AD0002B03D0A0
:10026000022B0BD00800E5E7364A324B04201A6017
:10027000E0E7354A2F4B35481A60DBE7344A2D4B0F
:1002800034481A60D6E7002908D15A78052A05D1E2
:100290005B88314A1370314ADBB213800021238816
:1002A0002F4A13402F4A13439BB223802E4B1980B1
:1002B00023881A432D4B1A402D4B5A4092B222806C
:1002C0002C4BDA8F520506D580212B4A1180002253
:1002D000DA872A4B238070BD294B1B88F0E72388DF
:1002E0001B06EDD52388274A1340802212021343B0
:1002F00023800B4B1B78802BA8D0174A1378002B38
:10030000DED080210B431C490B8000231370D7E7FC
:10031000005C00408F0F000000000020486000409B
:100320000C000020060000200A0000200800002029
:10033000B2040008100000208081FFFF8FBFFFFF84
:10034000A0040008C4040008C80400082A03000030
:100350001C0500081E03000004000020506000403F
:100360008F8EFFFF8080FFFF02600040BFBFFFFF56
:1003700030300000065C00404C5C00402032000041
:10038000066000400F8FFFFFFEE700009022334B16
:100390001203196870B50A431A6080229202196824
:1003A0001142FCD0012259680A435A6080225968E0
:1003B00052020A435A6080225968D2020A435A60A4
:1003C0008022196852040A431A6080229204196834
:1003D0001142FCD080201A6B02431A638022D96933
:1003E00012040A43DA6162B602241D4A4026D18F04
:1003F0001C4DA143D187D18F013CA143D18700215E
:10040000194CE1872980194D2E80194D08362E8010
:100410008026184D76012E80174D2880E1871748D9
:100420001749088080201749000608608021D08F76
:10043000C9000143D1871449144A118080225969A7
:1004400012030A435A61124B12491A680A401A6091
:100450008022D968D2040A43DA60FEE70010024025
:10046000025C0040505C0040065C004000600040C0
:1004700004600040066000404C5C004020320000F8
:10048000005C004000E100E00080FFFF585C00409D
:1004900000080048FFFFFFFBF8B5C046F8B5C046AE
:1004A000090212000101008032090400000000006E
:1004B000000012010002FF000008C016DC05000267
:1004C00001020001040309042A0349006E006600CA
:1004D00069006E006900740065004E0065007300DD
:1004E0004C0069007600650073002E0063006F0009
:1004F0006D0000000000000000000000000000008F
:1005000000000000000000000000000000000000EB
:100510000000000000000000000000001E03490071
:100520004E004C00200052006500740072006F0005
:100530002D00500072006F006700000000000000F6
:1005400000000000000000000000000000000000AB
:080550000000000000000000A3
:04000005080000C12E
:00000001FF
