:020000040800F2
:1000000000180020C1000008FD000008FD2F0008B6
:1000100000000000000000000000000000000000E0
:10002000000000000000000000000000FD000008CB
:100030000000000000000000FD000008FD000008B6
:10004000FD000008FD000008FD000008FD0000089C
:10005000FD000008FD000008FD000008FD0000088C
:10006000FD000008FD000008FD000008FD0000087C
:10007000FD000008FD000008FD000008FD0000086C
:10008000FD000008FD000008FD000008FD0000085C
:10009000FD000008FD000008FD000008FD0000084C
:1000A000FD000008FD000008FD000008FD0000083C
:1000B000FD000008FD000008FD0000080101000827
:1000C00009490A4A0A4B9B1A03DD043BC858D05021
:1000D000FBDC0849084A0020521A02DD043A885025
:1000E000FCDC01F0DDFF0000AC4B0008000000204C
:1000F000300400203004002038070020FEE7C0460E
:10010000F0B5BA4A89B0138801921BB2002B01DB0B
:1001100001F0B9FC1388B64A1A4080231343019AB0
:100120001380019B1A8880231B011340B14A01D11F
:1001300001F077FCB049B14C0B68B14801330B605A
:1001400023787F211D008D43AE49AF4E0D70E188AD
:10015000018000203080602633401370AB4A2600B7
:100160001570834201D100F0C2FEFF23A84CCAB231
:100170002370A84B60701C600292707801380E28C2
:1001800001D901F0D7FB04F027FC0F00FD053A0868
:100190000F09A00AD50BC00B6D09160A770A9E0A33
:1001A00046094F0957095F09B078B3888C2219288E
:1001B00024D88022D20004F00FFC1A00240047014A
:1001C0002702EF028E031704D304EF04FB04030598
:1001D0000B0514051D052B0533053B054305480597
:1001E0005C0572059305A805BF05D702E302B0239D
:1001F000894A5B0351690B4353610022227000F06E
:1002000072FE152B01D900F0AEFD18008023DB0033
:1002100004F0E2FB160023002E00A905390044007B
:100220004F00A9055C00690073008000A905A905BD
:100230008D009A00A500B200BF00CC00D600E000FF
:100240009022D205136875490B4013608023D16852
:100250005B030B43D3600022D0E790210123C90543
:100260000A689A430A60CA681343CB600022C5E754
:1002700090210423C9050A689A430A60CA68134397
:10028000CB600022BAE790211023C9050A689A437F
:100290000A60CA681343CB600022AFE79021402375
:1002A000C9050A689A430A60CA681343CB600022F2
:1002B000A4E79022D205136859490B4013608023AC
:1002C000D168DB040B43D360002297E79022D2056C
:1002D000136854490B4013608023D1685B010B43C2
:1002E000D36000228AE704234F490A689A430A60D0
:1002F000CA681343CB60002280E79022D2051368BE
:100300004A490B4013608023D168DB050B43D3605F
:10031000002273E79022D205136845490B40136011
:100320008023D168DB020B43D360002266E7902272
:10033000D20513683F490B4013608023D1685B00EE
:100340000B43D360002259E79022D20511683A4846
:1003500001401160D1680B43D36000224EE7902228
:10036000D205136835490B4013608023D168DB0147
:100370000B43D360002241E79022D205136828493D
:100380000B4013608023D168DB040B43D360002251
:1003900034E79022D205136829490B40136080236B
:1003A000D1685B050B43D360002227E701231E4978
:1003B0000A689A430A60CA681343CB6000221DE7AB
:1003C000102320490A689A430A60CA681343CB6025
:1003D000002213E79021C9050A68174802400A6005
:1003E000CA681343CB60002208E7C046005C0040A7
:1003F0008F0F0000FA06002098040020486000409B
:100400009E040020F8060020A2040020F906002027
:10041000FC0600202C07002000100240FFFFEFFF29
:10042000FFFFFFFBFFEFFFFF00040048FFFFFFBFE0
:10043000FFFFFBFFFFFEFFFFFFFBFFFFFFBFFFFF15
:10044000FFFFFFEF000C0048152B01D900F08EFCD8
:10045000180004F0C1FA160021002C008B043700AC
:1004600042004D008B04580063006D0078008B043F
:100470008B0483008E009900A400AF00BA00C40072
:10048000CE009023DB051968D14801401960DA6875
:100490000240DA600022B1E690230121DB051A68F0
:1004A0008A431A60DA688A43DA600022A6E690235B
:1004B0000421DB051A688A431A60DA688A43DA6025
:1004C00000229BE690231021DB051A688A431A60FC
:1004D000DA688A43DA60002290E690234021DB0547
:1004E0001A688A431A60DA688A43DA60002285E66D
:1004F0009023DB051968B74801401960DA680240AB
:10050000DA6000227AE69023DB051968B2480140E0
:100510001960DA680240DA6000226FE60421AF4B0E
:100520001A688A431A60DA688A43DA60002265E64C
:100530009023DB051968AA4801401960DA68024077
:10054000DA6000225AE69023DB051968A5480140CD
:100550001960DA680240DA6000224FE69023DB057A
:100560001968A14801401960DA680240DA60002287
:1005700044E69023DB0519689C4801401960DA685D
:100580000240DA60002239E69023DB0519689848BA
:1005900001401960DA680240DA6000222EE69023FA
:1005A000DB0519688B4801401960DA680240DA609F
:1005B000002223E69023DB0519688E48014019606C
:1005C000DA680240DA60002218E60121834B1A68DB
:1005D0008A431A60DA688A43DA6000220EE6102144
:1005E000854B1A688A431A60DA688A43DA60002207
:1005F00004E69023DB0519687C4801401960DA683D
:100600000240DA600022F9E5152B00D9B1E31800A9
:1006100004F0E2F916001F002700AF032F00370097
:100620003F00AF034800510058006100AF03AF0323
:100630006A0073007A0083008C0095009C00A30080
:1006400090228023D20511685B030B4313600022C4
:10065000D4E590220123D20511680B4313600022D8
:10066000CCE590220423D20511680B4313600022CD
:10067000C4E590221023D20511680B4313600022B9
:10068000BCE590224023D20511680B431360002281
:10069000B4E590228023D2051168DB040B4313607C
:1006A0000022ABE590228023D20511685B010B4349
:1006B00013600022A2E50423484A11680B4313602B
:1006C00000229BE590228023D2051168DB050B43B5
:1006D0001360002292E590228023D2051168DB028C
:1006E0000B431360002289E590228023D205116814
:1006F0005B000B431360002280E59021C9050B6865
:100700001A430A60002279E590228023D2051168FD
:10071000DB010B431360002270E590228023D20599
:100720001168DB040B431360002267E590228023ED
:10073000D20511685B050B43136000225EE50123BF
:10074000264A11680B431360002257E510232A4AFA
:1007500011680B431360002250E59021C9050B6816
:100760001A430A60002249E58D22082B00D045E596
:100770009022D205516838330B43536000223DE587
:100780008D22082B00D039E590224021D2055368F4
:100790008B435360002231E5152B00D9ECE21800A1
:1007A00004F01AF92C0031003700EA023D00430042
:1007B0004900EA02500056005B006200EA02EA02C9
:1007C00069006F0075007B00820089008E00930035
:1007D000FFFFEFFFFFFFFFFBFFEFFFFF00040048FD
:1007E000FFFFFFBFFFFFFBFFFFFEFFFFFFFBFFFF62
:1007F000FFBFFFFFFFFFFFEF000C00489023DB056A
:100800009A620022FAE490230122DB059A62002218
:10081000F4E490230222DB059A620022EEE49023A6
:100820000422DB059A620022E8E490230822DB051B
:100830009A620022E2E4802290239201DB059A6210
:100840000022DBE490234022DB059A620022D5E4FB
:100850000222CC4B9A620022D0E480229023120222
:10086000DB059A620022C9E4802290239200DB0516
:100870009A620022C2E490231022DB059A620022D1
:10088000BCE490232022DB059A620022B6E4902388
:100890008022DB059A620022B0E48022902392013C
:1008A000DB059A620022A9E480229023D201DB05B5
:1008B0009A620022A2E40122B24B9A6200229DE4D5
:1008C0000422B14B9A62002298E490232022DB0597
:1008D0009A62002292E4152B00D950E2180004F02D
:1008E0007BF816001B0021004E0227002D0033006C
:1008F0004E023A00400045004C004E024E025300AA
:1009000059005F0065006C00730078007D00902343
:10091000DB059A61002271E490230122DB059A61D4
:1009200000226BE490230222DB059A61002265E439
:1009300090230422DB059A6100225FE490230822C1
:10094000DB059A61002259E4802290239201DB05A5
:100950009A61002252E490234022DB059A61002232
:100960004CE40222874B9A61002247E480229023C4
:100970001202DB059A61002240E48022902392005B
:10098000DB059A61002239E490231022DB059A618D
:10099000002233E490232022DB059A6100222DE41B
:1009A00090238022DB059A61002227E48022902395
:1009B0009201DB059A61002220E480229023D2017B
:1009C000DB059A61002219E401226E4B9A61002234
:1009D00014E404226C4B9A6100220FE4902320223D
:1009E000DB059A61002209E402226270152B00D90E
:1009F000B1E0180003F0DCFF0B151EAF273039AF54
:100A0000434C545DAFAF677079828C969EA690235D
:100A10008022DB051B69D200134063800022FFF7B0
:100A2000EDFB90230122DB051B691340638000224C
:100A3000FFF7E4FB90230222DB051B691340638070
:100A40000022FFF7DBFB90230422DB051B69134028
:100A500063800022FFF7D2FB90230822DB051B698D
:100A6000134063800022FFF7C9FB90238022DB053F
:100A70001B699201134063800022FFF7BFFB9023A4
:100A80004022DB051B69134063800022FFF7B6FBA1
:100A900002223C4B1B69134063800022FFF7AEFB30
:100AA0009023DB051B690022DB0BDB036380FFF770
:100AB000A5FB90238022DB051B6992001340638015
:100AC0000022FFF79BFB90231022DB051B691340DC
:100AD00063800022FFF792FB90232022DB051B6935
:100AE000134063800022FFF789FB90238022DB05FF
:100AF0001B69134063800022FFF780FB9023802254
:100B0000DB051B699201134063800022FFF776FB2F
:100B100090238022DB051B69D201134063800022F1
:100B2000FFF76CFB0122174B1B6913406380002207
:100B3000FFF764FB0422144B1B69134063800022FF
:100B4000FFF75CFB90232022DB051B6913406380C9
:100B50000022FFF753FB00238D226370FFF74EFB4B
:100B600080230A4ADB0251690B435361054A084955
:100B700013680B401360D168064B0B43D36000220F
:100B8000FFF73CFB00040048000C00480010024046
:100B9000FFFFAAAA00005555ED4AEE4913680B4025
:100BA0001360D168EC4B0B43D3600022FFF726FBA8
:100BB000E74AE84913680B4013600022FFF71EFB69
:100BC000E34AE54B11680B4313600022FFF716FB65
:100BD000DF491B024A69D2B213434B610022FFF77F
:100BE0000DFBDB4B00221B691B0AA3700123637002
:100BF000FFF704FB8023D94A1B0351690B43536160
:100C0000D74AD84B11680B4313600022FFF7F6FA5E
:100C1000D34AD44BD1680B43D3600022FFF7EEFADE
:100C2000CF4AD14913680B4013600022FFF7E6FA60
:100C3000CB4ACC4B11680B4313600022FFF7DEFA5E
:100C4000C74A53610022FFF7D9FA8023C34A1B0326
:100C500051690B435361BE4AC44B11680B43136087
:100C60009022D2051168C24B0B4313600022FFF79C
:100C7000C5FAB74ABD4BD1680B43D3609023DB055F
:100C8000D868BB490143D9601168BA480140116076
:100C90001A68B9490A401A600022FFF7AFFAF82231
:100CA0008027AB4D98026969D20110403F025A0279
:100CB0003A4089051043890D08439021686110204E
:100CC0005D08C90528404A69AC4DDB012A40024352
:100CD0008020C001034013434B610022FFF78EFACE
:100CE000C0239E4ADB0251690B435361984AA44BCF
:100CF00011680B4313609022A023D20511685B0397
:100D00000B4313600022FFF779FA914A9C4BD1689C
:100D10000B43D3609023A021DB05D868490301432E
:100D2000D96011689748014011601A6896490A40D5
:100D30001A600022FFF762FAFF2185489D00426990
:100D40002940924DDB002A400A4342619022C02094
:100D5000D205C000516903408D4801400B435361E7
:100D60000022FFF74BFA8D22FFF748FA8D22FFF79A
:100D700045FA8D22FFF742FA8D22FFF73FFA8D22C6
:100D8000FFF73CFAB578B288032D00D16CE155D855
:100D9000012D64D05FD901F0D9F890220121D2054C
:100DA00013680B4313601023916111680B431360A8
:100DB00004234021936113680B431360082393615C
:100DC0009161802311685B010B43136080236348AA
:100DD000DB0241695F4D0B435D4943610B682B406A
:100DE0000B60CC685C4B1C43CC600C682C400C60E6
:100DF000CC682343CB60802344691B032343584CB6
:100E000043612568574B2B43236000236361C02453
:100E10004569E4022C4344610C685948204308604A
:100E2000A02014684003204310604869574C2040BC
:100E30004861516956480140516152E0052D00D189
:100E4000B2E000D254E1072D00D1F1E0802D00D1B5
:100E500080E1962345E001F079F8002341E001F0BC
:100E600075F89023DB051A683A4C2A431A608022F1
:100E70009D61196852030A431A6080220421D2003E
:100E80009A621A680A431A6002229A6118680E323E
:100E900002431A604022996119680A431A600822C5
:100EA0009A6180232D49DB024A6913434B61284B29
:100EB0001A6822401A60D868274A1043D860186818
:100EC00020401860D8680243DA6080234A691B0317
:100ED0001343234A4B611168224B0B4313600023D9
:100EE00053612C4A13706A462B4B12891A8033784F
:100EF000602259B2002901DB00F064FD134016D1D5
:100F00007278062A0FD17288110A022901D100F0E5
:100F100013FD032901D100F015FD204A012901D15B
:100F200000F00BFD03936A461B4B92891A80019BCC
:100F30001A881B4B13431B4A1A40C0239B01534082
:100F4000019A9BB2138001F0FBFF00F05CFDC046EC
:100F500000040048FFFFAAAA0000555500100240F7
:100F60000008004855555555AAAAAAAA0000505590
:100F700000010010FFFFAFAAFFFEFFEFEFBF000070
:100F800050550000AFAAFFFFFFFFEBFF03FF00007B
:100F9000FFF90000FC060020A0040020064A00081B
:100FA0008081FFFF8FBFFFFF00F0D0FF9022012163
:100FB000D2051368C84D0B4313601023916111686B
:100FC0000B43136004234021936113680B431360A8
:100FD000082393618023916211685B010B431360C6
:100FE0008023BE49DB02486903434B61BC4B186850
:100FF00028401860DC68BB480443DC601C682C4057
:101000001C60DC682043D860802348691B030343CD
:101010004B61B549B54B086803430B6000234B6136
:1010200080211068C901014311608021916258E755
:1010300000F08CFF90220121D205136840200B4361
:1010400013601023916111680B43136004239361B3
:101050001168014311600821916111680B4313600D
:10106000022393619061ACE6D2B2022A21D0002320
:10107000032A00D135E79723012A00D031E78023E6
:1010800096491B03486903434B6197490B68934397
:101090000B60CB681343CB604B6813434B608A6192
:1010A0000B681A4300230A60914A1370914A116039
:1010B00017E7B023894A5B03516940200B43536112
:1010C0009023DB051A688C490A401A608022D9688F
:1010D00052011143D96059680143596098611968F8
:1010E0000A4308211A60824A1170824A1360B4E6EA
:1010F000D2B29823012A00D0F3E690210A207F4B38
:10110000C90519607E4B05321A70754B7D4A136014
:101110007D4A10707D4A013013607D4A10707D4A0F
:10112000013013607C4A107080206C4A00035469BF
:10113000204350611C687948204318600868784B48
:1011400003430B60B02351695B030B43536100F011
:1011500021FE82E69023012740218025DB05677070
:1011600099621A686D012A431A60C04662481C6978
:101170001A680C4002401A60DA680240DA60F02215
:10118000002C39D11A6802401A60DA681543DD6014
:101190001A6994461A690492C0461A690592C046B3
:1011A000C0461A690692C046C046C0461A690792F0
:1011B000C046C046C046C0461D691A6802401A6053
:1011C000DA681040D860634622000B4214D1049BB9
:1011D0003A000B4210D1059B02320B420CD10B009E
:1011E00006990332194207D107990432194203D1F3
:1011F00005321D4200D1D1324A4B9A702DE6B578A6
:10120000F178B0880A2D58D016D8052D4BD009D8C2
:10121000012D42D0002D38D0022D41D0042D45D0D3
:10122000A02534E0072D4ED033D3082D4ED0092D04
:10123000F6D101F063FE2EE0802D00D178E009D8D0
:101240000C2D46D03CD3202D34D0212DE8D1364B67
:10125000188020E0842D00D19CE009D8812D00D198
:1012600092E0822DDCD10123637002F00DF88FE053
:10127000852D00D193E0862DD2D1022363702A4BB5
:101280001B88A3701B0AE37005E001F00BFE2570BC
:1012900029E601F0E3FD0025F9E701F0CDFFFAE7CB
:1012A00001F05EFDF7E701F083FFF4E7002201F0B3
:1012B00062FFF0E71D4B1870EDE702F0A7F8EAE7D0
:1012C00002F064F8E7E701F0A1FDE4E702F03CF882
:1012D000E1E701F0F5FFDEE7FFFFAAAA00100240F8
:1012E0000004004800005555000800485555555564
:1012F0000807002004070020FFEFFFFF1C07002065
:1013000020070020140700201807002024070020D1
:10131000280700200C07002010070020000050556F
:1013200000010010FC060020340400208804002086
:10133000012290236270DB051968C24D29401960B3
:10134000D9682940D96080210225C90099629A6133
:101350009D61BD4D6861C046C04600B299610028DC
:1013600000DA9A62C046C046C046C046C046C04683
:1013700090228021B54BD205C9001B6991620121E1
:101380001B0A9161A37086E70123637001F01EFDC3
:10139000A07080E70123637001F032FFF8E70123BA
:1013A0006370AB4B1B78EDE7B078F178B388AA2275
:1013B000042801D9FEF722FF03F0FAFA03261A1EC9
:1013C0002200FF21A1489D0042692940A14DDB0078
:1013D0002A400A4342619022C020D205C0005169D0
:1013E00003409D4801400B4353610022FEF706FF76
:1013F000180001F02BFCF8E7180001F08FFCF4E76F
:10140000180001F069FCF0E701221800627001F099
:1014100043FCA070E9E7B278002A1DD00023012A1E
:1014200000D0AF2323705EE5B278002A14D00023E9
:10143000012AF7D0B023F5E7B278002A0CD00023B8
:10144000012AEFD0B123EDE7B278002A04D00023BF
:10145000012AE7D0B223E5E701236370A933A37023
:101460000023DFE7B578F278B188112D00D19BE039
:1014700007D8012D6BD0002D0FD0022D7DD08225F5
:1014800005E7212D00D185E0222D00D188E0122D25
:10149000F5D102231020637089E0012529006F4AED
:1014A0006F4F12783B68914099625A6810208A43C6
:1014B0005A6001F055FE2900684B3A681B780427F2
:1014C00099400B009161516804950B435360FA20D9
:1014D000400001F045FE614A04991278FA209140DB
:1014E0005F4D40002B68013F99625A68BFB28A4342
:1014F0005A6001F035FE594B04991B782A689940CF
:101500000B00916151680B435360002FDFD104251C
:10151000FA2001F025FE0121504A514F12783B6814
:10152000914099625A68FA208A435A6001F018FE85
:1015300001214A4B3A681B78013D99400B009161AB
:101540005168ADB20B435360002DE1D19FE62900F5
:10155000424A434F12783B68914099625A68102082
:101560008A435A6001F0FCFD3C4A3B681278954082
:101570009D615A6815435D608DE60123374A6370AB
:10158000127838499340364A9BB21268002002F024
:1015900027F9FDE601230020637001F031FDF7E635
:1015A000012310206370F8E702230020637001F02C
:1015B00081FD60806FE6B378B288042B1AD006D81C
:1015C000022B1CD021D8012B0FD087232AE7072B11
:1015D00024D003D8052BF8D1234B14E0082B22D0BC
:1015E000802BF2D100F0D6FB3AE7204A1278A270A5
:1015F000637035E71E4B1B78A3700123F8E71B4B84
:101600001A7083221A4B1A702AE7184B184D1A7059
:1016100083232B7000F02EFC2B78EDE7154B1A700E
:10162000120A5A701CE7134B1A78A2705A78E270AB
:101630009A782271DA7862711A79A2715B79E37112
:101640000623D5E7FFEFFFFF00080048000400482D
:101650008804002003FF0000FFF9000008070020B5
:101660000407002004000200E5040020C404002058
:10167000E6040020C5040020B378B288022B16D0FF
:10168000032B17D0012B1CD1024885460248001CB1
:101690000047C04678120020C5CAFF1F060005009B
:1016A0000800070019C9FF1FEFBEADDED8E6B34B37
:1016B0001A60D5E6B14B18680004104302F08AF8AE
:1016C000CEE68A23AEE68823ACE6B2781300303B40
:1016D0002F2B19D8F078032800D9CEE003F068F951
:1016E00014021012A64B512A00D177E024D8312AD7
:1016F00053D00BD8002A33D0302A49D0B42345E048
:10170000A04BF0E7A04BEEE7A04BECE7332A4ED01E
:1017100048D3502AF2D100222270063262701A7A1F
:10172000A270DA78E2705A7A22719A7A62719A78A3
:10173000A2715B7CE37145E07F2A00D983E0702AC7
:101740005CD2602A36D0612A40D0522AD6D10022FB
:101750001B882270A37002321B0A6270E37031E0B2
:10176000FF238B4953540132102AFBD1844A874905
:10177000D3709370844ACB70D370937001228B70B6
:101780008049CB708B70834B1A700023237019E053
:10179000B288110AD9721A73F7E7B288110A59731D
:1017A0009A73F2E7B288110AD9731A74EDE7B28816
:1017B0005A74EAE70023237001336370B388744AD4
:1017C000D35CA370744B1C60FFF78DFB0023237068
:1017D00001336370714B1B68DB78F2E700222270E3
:1017E00006326270DA7AA2701A7BE2705A7B22713A
:1017F0009A7B6271DA7BA2711B7C9BE7634B674922
:101800005C6833787F2B00D95BE16846644B007AD3
:1018100018700868C378002B0ED000200290982B17
:1018200005D156E100200290D02B00D151E1594B57
:1018300010301870FF2304E05A4B18609023C370D7
:101840006F33029345E107201040032815D803F0B9
:10185000AFF8160218124A4B802AB3D3872A12D93E
:101860007032D2B2072AADD800222270F2789A7272
:10187000B2881A80A6E7444BEEE7B52386E7434BD0
:10188000EAE7404BE8E7B188F0780A0AC9B24518A0
:101890009446BE22102D2DDC043200282AD0DD789B
:1018A000033AFF2D26D19D780132FF2D22D100224F
:1018B000D5B2A84220D862464501013D1D724D01B6
:1018C0002F009A700022384DDA70ED195A729A7210
:1018D0001A80DA721A735A739A73DA731A745A7412
:1018E0005D602B4B591863468B540132D3B283424F
:1018F000F9D30022227065E701328D18244F013D93
:101900007D5DFF2DD4D0C122F4E7B278002A04D047
:10191000402A07D0D222227055E72270B1881D4A92
:10192000117050E70022227001326270194A127859
:10193000A27048E7802375E51C4A174B1A601223F2
:10194000FFF7F0FAD2B2012A11D0002A09D0022AF8
:1019500001D0FFF7E7FA104B154A1A60154BFFF755
:10196000E1FA0D4B144A1A600423FFF7DBFA0A4B25
:10197000124A1A60124BFFF7D5FAC0463004002015
:101980004C0400206004002074040020380400206F
:10199000E7040020A40400202C0700208C04002071
:1019A0009404002090040020F8040020F44900086A
:1019B000704A00081E030000184A00081C4A00086C
:1019C0002A030000134208D17378052B05D17388D0
:1019D0004B4A13704B4ADBB21380019B4A4A1B8867
:1019E00001991340494A13439BB20B800021484B95
:1019F0001980019B1B881A43464B1A40464B5A409C
:101A0000019B92B21A80454BDA8F520507D580218F
:101A1000434A11800022DA87424B019A138009B0B1
:101A2000F0BD1278402AEED13F4A1278002AEAD15E
:101A30003E4A10883E4AC0B211684D7A4E68DAB20A
:101A40005419E4B2904218D84A7A82184A72394A34
:101A500013781B1ADBB21370002B01D19833CB70B3
:101A6000019B1A88294B1343334A1A40C0239B0118
:101A70005340019A9BB21380C5E7304A9A181278F6
:101A800001333255DBE7019B1B881B06BBD5019B4D
:101A90002B4A1B881340802212021343019A1380A1
:101AA000284B1B78802B01D1FFF74DFA144A13788D
:101AB000002BA8D080210B4319490B800023137001
:101AC000A1E70868C378D82B00D0ABE68023446830
:101AD000C3700B6800215972DB78902B00D071E63F
:101AE000712A00D06EE6124BB2881B6859680A70E2
:101AF000B2885968120A4A705A7A02325A7261E6FA
:101B00009C040020506000408F8EFFFF8080FFFF0C
:101B100002600040BFBFFFFF30300000065C0040A5
:101B20004C5C004020320000F906002006600040B6
:101B300090040020940400208FBFFFFF4860004005
:101B40000F8FFFFFF8060020F0B5404B8BB00891D7
:101B500019783F4B09921B78019002933D4B019DF0
:101B60001C683D4B3D481A7801231E0096403C4AB4
:101B7000A662102D5ED11278006893408362012026
:101B80000200364B05901F68354B1B789A40039234
:101B90000200344B1B680693334B1B789A4093B278
:101BA00002000793314B1B689C46314B1B789A40CF
:101BB000002304921A000198202806D1029D05985E
:101BC0001D4105423ED00398B861089820280FD1E6
:101BD000002B01D11E4883540698056907980542D9
:101BE00006D01B48855C05989840054318488554E5
:101BF00009980139C9B2002802D0002900D1A66194
:101C00006046049D0133DBB285618562082B05D1F6
:101C100001320F4BD2B29B5C029300230029CAD140
:101C20000E4B1A680E4B197801238B409362A66203
:101C30000BB0F0BD019D112DA1D112780068934029
:101C400083619CE70398B862BFE7C046E5040020C3
:101C5000C5040020240700202807002014070020C6
:101C6000180700201C070020200700200C07002078
:101C700010070020F7B51F4B1F491A781F4B10287B
:101C80002ED101241E780D68B440AC6201263500C7
:101C90000C6831001B7801969D40194B1B6800931E
:101CA000184B1B78994000238C46190020280DD131
:101CB000154E019F765C1E413E4219D0A56101334D
:101CC000DBB2082B02D100230131C9B26646009F66
:101CD000013AD2B2BE61BE62002AE7D1A562F7BD69
:101CE0001128D3D101241E780D68B440AC61CDE732
:101CF000A562E4E7E504002024070020280700206F
:101D00000C07002010070020C5040020F7B50D00C7
:101D10001600FF27000203B24C7A01932A7AE3B23D
:101D2000A24202D26B720020FEBD20006A683840D9
:101D3000D15C019B0134184380B2B047A4B2EDE7F7
:101D4000022907D10F4B104A984218D0904209D16E
:101D5000180007E0032906D10A4B0B490B4A9842A9
:101D60000BD1080070470429FCD1064B064A984263
:101D700005D006499042F4D0054A8842E6D11000C9
:101D8000F0E7C046380400204C0400206004002026
:101D900074040020F0B52C4B85B019682B4B2C48EF
:101DA0001B7800780193012302901E0018001F0089
:101DB000019A029C9640A040264D274A2D78126831
:101DC000AF408E628446906224489D4000688762DE
:101DD000046803941C00AC402500039C2543056067
:101DE0004568019CBD4345609C401D00A5400868B6
:101DF0001C00284308604868B04348601068029996
:101E000099408C4021000143604611605168814334
:101E1000134851600078134A984083401268124872
:101E2000116899431160D1680B43D36080220F4B36
:101E30001A70002319000E4A13701A18013311701A
:101E4000202BFAD105B0F0BD240700202807002080
:101E50001807002010070020140700200C0700209E
:101E6000200700201C070020C5040020E6040020F5
:101E7000E504002010B5334B1B78082B5DD016D835
:101E8000314C032B44D007D8012B2DD0022B31D05D
:101E9000EE222D4B1A7023E0062B44D049D8042B98
:101EA000F6D18123012223702021112027E00F2B5E
:101EB00034D008D8244C0D2B25D00E2BE8D181230B
:101EC0000022237027E0802B08D01F4CFF2B08D066
:101ED000102BDDD181230022237027E0FFF75AFF6A
:101EE00010BDF0232370FBE7812320202370FFF730
:101EF000C1FE06E081230122002123702020FFF78C
:101F000023FE8223EEE78123002223701100F5E7F0
:101F100081230122237020211020F0E781230A4C25
:101F200000222370C0E781230122237020210800B2
:101F3000E5E7812310202370D9E78123024C11208B
:101F40002370D4E7C4040020E6040020BC234749E2
:101F5000DB038A6AF0B513438B628B6A444A01241F
:101F600013408B6290238022DB051868D201024364
:101F70001A6080229A61B0224869520302434A6182
:101F80001A683C483C4F02401A608022D8685203CD
:101F900002430420DA601A68A2431A60DA68224316
:101FA000DA601A6882431A60DA680243DA60102243
:101FB0001D6895431D60DD682A43DA6040221D6874
:101FC00095431D60DD682A43DA601A682B4D2A406C
:101FD0001A608022DD68D2042A43DA601A68284D2C
:101FE0002A401A608022DD68D2052A43DA601A6826
:101FF000244D2A4080251A60DA68ED022A43DA600F
:10200000214A1668A6431660D6683443D4601E6819
:102010003E401E60DC683C40DC6080234C691B0352
:1020200023434B61194B1A4C1E681A4F26431E60FE
:102030001E683E401E60DE683443DC604B691D4311
:102040004D611368144D2B401360D468134B1C432F
:10205000D460116829401160D1680B43D3601368C4
:1020600083431360D3681843D060F0BD0010024072
:10207000FFFFA1FFFFFFEFFFFFEFFFFFFFFFFFFBF2
:10208000FFFFFFBFFFFFFBFF000400480008004800
:1020900055555555AAAAAAAAFFFFAAAA0000555548
:1020A0009022B64B12031968F0B50A431A608022D9
:1020B00087B0920219681142FCD0012259680A4384
:1020C0005A608022596852020A435A608022596835
:1020D00052030A435A608022196852040A431A6064
:1020E0008022920419681142FCD011210220A44AD6
:1020F00011605A680E398A4302435A601A6B7D3167
:102100000A431A638022DC6912042243DA6162B650
:102110009C4B4025DA8F9C4C8243DA87DA8F01385A
:102120008243DA8700229948C2872280984C258012
:10213000984C083525808025974C6D012580974C5B
:102140002180C2879649974A11808021964A0906C4
:1021500011608022D98FD2000A43DA87934A944BC8
:102160001A80FFF7F3FEF022924B1A70924E202352
:10217000327811009943D2292ED190499048C978DC
:10218000C3780224FF2904D1FF3B1C00631E9C413D
:10219000E4B28C4BDB78FF2B00D003248A4BDB7836
:1021A000FF2B00D00424894B894F1C703860D22A41
:1021B00012D10023012505E02100FFF7C1FD012315
:1021C0000135EDB2A542F7D3002B00D03860802254
:1021D0003B68DA70D02333703378F22B05D10022BC
:1021E000023B33707A4B1B68DA703578D02D01D002
:1021F00000F0DAFC764E3068C378802B01D000F016
:10220000D3FC724B1978FFF79BFD002330600188E7
:10221000C57004004372C07ACDB21038142801D9B9
:1022200000F0C0FC02F0D8FB5100D80031013501AC
:102230003400BE04BE04BE04BE04BE04BE04BE041C
:10224000BE04BE04BE04BE04150024003E004300CC
:102250004900E07BC4230F2801D900F0A4FC000151
:102260000143237AA278C9B2606801F049FA0EE00E
:10227000E17B3C230A009A438833002A01D000F016
:1022800092FC237AA2782943606801F06FFA6072A9
:102290004F4B1B6819889A7A52181A80D822DA7024
:1022A00000F082FC237AA278E17B2943DCE7E17B22
:1022B0003F230A009A438533DFE7E17B237AA27844
:1022C0002943606801F0E2F9E1E7E27B012A0DD1E0
:1022D00080208909CEB20002102100F04CFF0F21AE
:1022E000E02031400022000200F045FFE37B032B99
:1022F0000ED120883D3380099D43364BC1B2C0B218
:10230000C01880B200F02CFD237AA2788021CCE79F
:102310001E2B07D1C0202188223389099D43C9B2D1
:102320000002EFE71C2B11D1A0208121C0012688DB
:1023300000F016FD8020F609F6B23100000200F030
:102340000FFDA0200021C00100F00AFD8021E27BEA
:1023500049421F2A05D00D43EDB2237AA278290005
:1023600082E77022A02095430D432188C00109090E
:10237000C9B2EDB200F0F4FCEFE7C0460010024035
:1023800000200240025C0040505C0040065C0040BF
:102390000060004004600040066000404C5C00406B
:1023A00020320000005C004000E100E00080FFFF00
:1023B000585C0040E6040020A40400204C040020E7
:1023C000380400206004002074040020300700203E
:1023D0008C04002069FDFFFFE37BFE2B3DD1490902
:1023E000C9B2C14800F028FF1F231D40237AA178FD
:1023F0000193BE4B28025A696768D2B202435A6100
:1024000080209022C000D20590610120FF269062BA
:10241000033090625A69360232400A435A61C0461C
:10242000B34800228446C046604600690131000A74
:10243000B8545869C9B23040084358610132019814
:10244000D2B29042EFD290230421DB059961802122
:10245000C9009962012199616272E27B012A00D070
:1024600016E7802010210002268800F084FE1F213C
:10247000A0203609F6B231400022000200F07BFEB7
:102480000F21237AA2782940FEE6237AA2786021E0
:102490000BE7E37B002B1ED18033C9091D43CBB270
:1024A0000293FF20029B92499B004A690340914896
:1024B000024013434B61C0209021029BC905C0001C
:1024C000DB004A6903408C48024013434B61237A86
:1024D000A2782900F5E6012BE3D18904890E3F3368
:1024E0000B43DDE7F37B002B06D128008038C0B218
:1024F000824A3100FFF70AFCF27B012A1CD18020BE
:1025000037881021BF053B0F0002019300F033FE16
:10251000E02000220199000200F02DFE777ABBB284
:10252000039380232B431B021BB20593337A039A38
:10253000934200D3F0E07772F37B032B0BD13F2063
:1025400028408025054330886D4B8009C0B2320099
:10255000290001F03DF8F37B042B06D128008038D8
:10256000C0B2684A3100FFF7D1FBF37BFD2B0BD1E2
:102570003F202840802505433088634B8009C0B246
:102580003200290001F024F8F37B1E2B11D13F20EB
:1025900028408025338805439B09DBB20493747A75
:1025A0002B021BB2A7B20593337ABB4200D30DE1D5
:1025B0007472F37B0C2B19D11F2028408025054312
:1025C000C0203488A5216409E4B2C00100F0C8FB32
:1025D00021004E4800F0C4FB2B021BB2747A039317
:1025E000337AE7B2A34200D33FE17772F37B1C2B2F
:1025F0003BD1A02033888121DB09DBB2C0010393EA
:1026000000F0AEFB80200399000200F0A9FBA0209F
:102610005421C00100F0A4FB777AAA21BBB23C4848
:10262000019300F09DFB55213A4800F099FB2021D1
:10263000374800F095FB80232B431B021BB2059308
:10264000337A019A934200D332E180209021000234
:10265000777200F085FB80200021000200F080FBF3
:102660008020F021000200F07BFBF37B1F2B33D195
:10267000A0203188C0010909C9B200F071FB747A49
:10268000AA21A3B22248019300F06AFB55212148F8
:1026900000F066FB1E48202100F062FB70238020C2
:1026A00004279D434042284340B203020493337AF7
:1026B000019A934200D343E180209021000274727A
:1026C00000F04EFB80200021000200F049FB80203A
:1026D000F021000200F044FBF4233288F370B37A57
:1026E0009B18338080E2C046FF3F0000000800488E
:1026F0000004004803FF0000FFF90000FD2E000861
:10270000A52E00080D2E00085D2E0008FFFF00001A
:10271000AA8A0000558500008020002210210002B6
:1027200000F029FDAA21E04800F01AFB5521DF48FE
:1027300000F016FBA021DC4800F012FB059C73683A
:102740003C43A4B2D95D200000F00AFB80200122A6
:102750001021000200F00FFDE0200022019900028C
:1027600000F009FDC046200000F030FB049020007E
:1027700000F02CFB049B8342F4D17368049ADB5D68
:10278000CB4C93420FD17B1CDFB2039B22680133F9
:102790009BB2039304239A432260E2681343E360ED
:1027A0000223A362C2E6802001221021000200F071
:1027B000E2FCE02000220199000200F0DCFC04238E
:1027C0002268134323600223A361AFE6C0200121E6
:1027D000000200F0C5FAAA21B64800F0C1FAC020F4
:1027E0000021000200F0BCFA5521B04800F0B8FA10
:1027F000C0200121000200F0B3FAA021AD4800F092
:10280000AFFAC0200499000200F0AAFA059B234306
:102810009BB2019373680198195D00F0A1FAC0465C
:10282000019800F0D3FA0390019800F0CFFA039BCF
:102830008342F4D1736803991A5D9D4B8A420DD18E
:1028400004221968013491431960D96801370A4399
:10285000DA600222E4B2BFB29A62A5E604221968E5
:102860000A431A6002229A619EE6AA218E4800F06D
:1028700077FA55218D4800F073FAA0218A4800F0BC
:102880006FFA039AE3B213439BB201937368019802
:10289000D95D00F065FAC046019800F097FA07008C
:1028A000019800F093FA8742F5D10134A4B297E67B
:1028B000A0205421C00100F053FA059CA0213C4304
:1028C000A4B2200000F04CFA73682000D95D00F03B
:1028D00047FAC046200000F079FA0490200000F08A
:1028E00075FA049B8342F4D17368049ADB5D704CE3
:1028F00093420FD17B1CDFB2019B226801339BB254
:10290000019304239A432260E2681343E3600223A5
:10291000A36295E6A0208121C00100F021FA802069
:102920000399000200F01CFAA0205421C00100F01D
:1029300017FA04232268134323600223A3617FE66E
:10294000049DA0212543ADB2280000F009FA736868
:102950002800195D00F004FAC046280000F036FA9D
:102960000390280000F032FA039B8342F4D173688D
:1029700003991A5D4E4B8A420ED1019A01340132FD
:1029800092B201921A68E4B2BA431A60DA683A4322
:10299000DA6002229A628AE61A683A431A600222D0
:1029A0009A6184E6F37B002B04D1434A310028006E
:1029B000FFF7ACF9F37B022B04D1404A3100280029
:1029C000FFF7A4F9F37B042B04D13D4A3100280022
:1029D000FFF79CF9F37B0B2B04D13A4A3100280016
:1029E000FFF794F9F37BFE2B00D075E6318836486B
:1029F0004909C9B200F020FC747AAA21A3B2334875
:102A0000019300F0D5FB5521314800F0D1FB2F4850
:102A1000202100F0CDFB1F2004272840030204934F
:102A2000337A019A93420DD274729021002000F003
:102A3000BFFB0021080000F0BBFBF021002000F0EC
:102A4000B7FB49E6049DA0212543280000F0B0FB18
:102A500073682800195D00F0ABFBC046280000F049
:102A6000CFFB0390280000F0CBFB039B8342F4D103
:102A7000736803991A5D0E4B8A420ED1019A013494
:102A8000013292B201921A68E4B2BA431A60DA686B
:102A90003A43DA6002229A62C2E71A683A431A603D
:102AA00002229A61BCE7C04655D50000AAAA0000E0
:102AB00000040048559500000D3400088D330008CF
:102AC00049330008C1320008FF3F0000AA0A000095
:102AD00055050000280060304A4A3100C0B2FFF7B7
:102AE00015F9F9E5F37B042B06D128008038C0B234
:102AF000454A3100FFF70AF9F37B052B04D1424A1E
:102B000031002800FFF702F9F37B062B06D12800DD
:102B10008038C0B23D4A3100FFF7F8F8F37B072B4D
:102B200004D13A4A31002800FFF7F0F8F37B002B7C
:102B30001CD1FF2480331D4333883548DB09DBB2C9
:102B40009A0041692240334CDB0021400A43426134
:102B50009021C020C905C0004A6903402E480240A8
:102B600013434B612800310000F072FCF37B012B12
:102B700000D0B1E53388264A264851699B049B0E54
:102B800001409B000B4390215361C9054B69224AC8
:102B900028001A4080239B0013434B61310000F052
:102BA00057FC99E5C323E3701C4B1C78F02C1BD118
:102BB0001B4D2E68F378982B16D11A4B30001978DC
:102BC000FFF7BEF800232860C370F07AF470103865
:102BD0003578042806D801F0F5FE85FCE5FE7DFF7A
:102BE00085FF7FFDC323F3700F4B1B78F02B01D1C2
:102BF000FFF7BCFA832B01D0FFF7B8FAFFF73AF9D9
:102C0000FFF7B4FA612D00081D2D0008D92C00082B
:102C10000004004803FF0000FFF90000A4040020A6
:102C20008C04002030070020E6040020002302006E
:102C30000002002A04D1002B01D0802318437047E2
:102C4000DB43511EDBB20A40F3E700000E4B0F4A94
:102C500058610F4B0902186802431A605A6908202C
:102C6000D2B21143902259610121D2059062916242
:102C7000C046C046C046C046906191611A68054989
:102C80000A401A607047C0460008004800005555C9
:102C900000040048FFFFAAAA0D4B012258619023AF
:102CA0000421DB059A629962C046C046C046C04610
:102CB000C046C046C046C046C046C046C046C046E4
:102CC000C046044800699961000AC0B29A61704721
:102CD000000800480004004870B504000D000D48CD
:102CE000AA21FFF7B3FF55210B48FFF7AFFFA02143
:102CF0000848FFF7ABFF29002000FFF7A7FF2000DF
:102D0000FFF7CAFF0500C0462000FFF7C5FF854258
:102D1000F5D170BDAA8A00005585000070B5040089
:102D20000D000D48AA21FFF791FF55210B48FFF731
:102D30008DFFA0210848FFF789FF29002000FFF739
:102D400085FF2000FFF7A8FF0500C0462000FFF721
:102D5000A3FF8542F5D170BD55550000AA2A000099
:102D60009023DB0530B51C68134D09022C401C6014
:102D7000DA68124C2A40DA60114A506102229A62E3
:102D8000104A00B215682C4314605469E4B2214320
:102D900051618021C9009961002801DA01209862FF
:102DA000C046C0469962012199614918996113682A
:102DB00005490B40136030BDFFEFFFFF0000555584
:102DC0000008004800040048FFFFAAAA0D4B80221B
:102DD00058619023D200DB0500B29A61002801DA25
:102DE00001229A62C046C046C046C046064B8022B9
:102DF00018699023D200DB059A620122000AC0B252
:102E00009A617047000800480004004870B504004B
:102E10000D001048AA21FFF7A3FF55210E48FFF728
:102E20009FFFA0210B48FFF79BFF29002000FFF721
:102E300097FF802000210002FFF792FF2000FFF79C
:102E4000C5FF0500C0462000FFF7C0FF8542F5D151
:102E500070BDC04655D50000AAAA00000D4B0E4A11
:102E600058610E4B0902186802431A605A69D2B2BF
:102E70001143902259618021D20510684901014314
:102E800011604021916291611A6805490A401A60F7
:102E90007047C0460008004800005555000400482F
:102EA000FFFFAAAA104B114A10B558611068104BC9
:102EB00009020343136053690E4CDBB2194390239C
:102EC00051618021DB0518684901084318604020E2
:102ED0009862186820401860D8680143D960136868
:102EE00005490B40136010BD00080048000400486D
:102EF00000005555FFEFFFFFFFFFAAAA70B50400C1
:102F00000D000D48AA21FFF7CDFF55210B48FFF713
:102F1000C9FFA0210848FFF7C5FF29002000FFF7DF
:102F2000C1FF2000FFF752FF0500C0462000FFF759
:102F30004DFF8542F5D170BD55550000AA2A00000D
:102F4000224B10B51968224B224C1A8852085200A5
:102F5000505A214A10801A88023292B21A805208BE
:102F60005200505A1D4A10801A88023292B21A80BA
:102F700052085200505A1A4A10801A8819480232D0
:102F800092B21A8052085200515A174A11801A8878
:102F90002188023292B21A808A4210D908318A1AE4
:102FA00092B2028022881A801049114B0A8813437A
:102FB000104A1A40302353409BB20B8010BD0E4C78
:102FC00021888A42EAD808230380EDE72C070020F5
:102FD000A2040020A00400204060004042600040A5
:102FE000446000400260004046600040005C0040D9
:102FF0008080FFFFBF8FFFFF9E040020FEE70000E0
:10300000F7B501230225294F01923A780091054333
:1030100093400421A020264E2D049BB22943326800
:10302000C00100F0DDFB040001283DD13B78092000
:103030009C4005437830A3B232682900FF3000F08D
:10304000CFFB040001282FD13B7832689C40290037
:10305000A3B2002000F0C4FB0400012824D1009B8F
:10306000180AFFF7E3FD3B7832689C402900A3B2C1
:1030700000F0B6FB0400012816D16B461878FFF764
:10308000D5FD22003B7829009A4093B2326800F0C7
:10309000A7FB0198FFF7CAFD3B7832689C402900E6
:1030A000A3B200F09DFB0400E0B2FEBD08070020C3
:1030B00004070020F7B501230225274F00903A7836
:1030C0000191054393400421C020244E2D049BB25E
:1030D00029433268800100F083FB0400012838D1C5
:1030E00009231D433B78C0209C403268A3B22900CD
:1030F000400000F075FB040001282AD13B783268BB
:103100009C402900A3B2002000F06AFB04000128C3
:103110001FD1019B180AFFF789FD3B7832689C405C
:103120002900A3B200F05CFB0400012811D16B461A
:103130001879FFF77BFD22003B789A4093B2009A02
:1031400014430922E1B209041143326800F048FB3C
:103150000400A0B2FEBDC0460807002004070020FE
:103160000023800080B2834200D17047C046C04631
:1031700001339BB2F7E770B506000D00002A08D0B6
:1031800080200002FFF722FE802080210002FFF74E
:10319000E7FD05243000013CFFF718FEE4B22900EA
:1031A0003000FFF7DDFD6D08002CF3D170BD00008D
:1031B0000F4B30B59022586180230124D205DB00EB
:1031C00093620C4B94621D680B48090228431860F7
:1031D0005869C0B201435961C04608219162C04696
:1031E00091611968054801401960946130BDC0467D
:1031F000000800480004004800005555FFFFAAAA37
:103200000B4B10B580215861902301220424DB056B
:10321000C90099619A629C62C046C046C046054892
:1032200000699C61000A9962C0B29A6110BDC046F3
:1032300000080048000400480E4B984202D8802342
:103240001B0218430C4B0D4A58610D4B09021868BC
:1032500002431A605A69D2B211435961C0469022A2
:103260000821D2059162C04691611A6805490A4059
:103270001A607047FF1F0000000800480000555505
:1032800000040048FFFFAAAA0A4B984202D88023F4
:103290001B021843084B042258619023DB059A62F5
:1032A000C046C046C046C046044908699A61000A43
:1032B000C0B27047FF1F000000080048000400482B
:1032C000F8B505000E001C4F1C4B3888202120301B
:1032D00080B21C78FFF744FDAA211948FFF7ACFF24
:1032E00038881021103080B2FFF73AFD552115487B
:1032F000FFF7A2FF38882021203080B2FFF730FD91
:10330000A0210F48FFF798FF24013888E4B2001984
:1033100080B22100FFF724FD31002800FFF78CFF69
:103320002800FFF7B1FF0400C0462800FFF7ACFFFC
:103330008442F5D1F8BDC046340400208804002042
:1033400055150000AA0A000070B504000D000D48D4
:10335000AA21FFF771FF55210B48FFF76DFFA02150
:103360000848FFF769FF29002000FFF765FF2000EC
:10337000FFF78AFF0500C0462000FFF785FF854262
:10338000F5D170BD55150000AA1A000070B50400F3
:103390000D001A4E02213088023080B2FFF7E0FCA7
:1033A000AA211748FFF748FF30880121013080B279
:1033B000FFF7D6FC55211348FFF73EFF3088022166
:1033C000023080B2FFF7CCFCA0210D48FFF734FF9C
:1033D0000D4B30881978401880B2FFF7C1FC2900E6
:1033E0002000FFF729FF2000FFF74EFF0500C04631
:1033F0002000FFF749FF8542F5D170BD340400205D
:1034000055150000AA0A00008804002070B50400C9
:103410000D000D48AA21FFF70FFF55210B48FFF7BC
:103420000BFFA0210848FFF707FF29002000FFF746
:1034300003FF2000FFF728FF0500C0462000FFF72C
:1034400023FF8542F5D170BD55150000AA0A000082
:10345000F7B504000E004D7AC046C046C046C046CF
:10346000C046C046C046C046C046AA215348FFF7E2
:10347000EDFB55215248FFF7E9FB240220214F487C
:10348000FFF7E4FB23B20193EBB20093337AAB4234
:1034900014D26B4680201B78902173720002FFF7D4
:1034A000D5FB802000210002FFF7D0FB8020F02117
:1034B0000002FFF7CBFBC0460020FEBD414B424A55
:1034C000196808200A43FF211A605A690A40A0219E
:1034D00009020A435A6190220121D2059062916249
:1034E000C046C046C046C046FF24906191611A683C
:1034F00036492C400A401A60019B009A1C437368AD
:10350000A4B2995C2000FFF7A1FBC046C046C046AC
:10351000C046C046C046C046C046C046C046200061
:10352000FFF7BAFB0700C046C046C046C046C046CB
:10353000C046C046C046C0467368009A9B5C834242
:1035400016D0C046C046C046C046C046C046C0466B
:10355000C046C0462000FFF79FFBB8420BD1C046D3
:10356000C046C046C046C046C046C046C046C0462B
:103570000135ADB288E7C046C046C046C046C04629
:10358000C046C046C046C046C046C046C046C0460B
:10359000C046C046C046C046C046C046C046C046FB
:1035A000C046C046C046C046C046C046C046C046EB
:1035B000C0462000FFF770FB0700CBE7AA8A000097
:1035C000558500000004004800005555FFFFAAAAD9
:1035D000F0B5150085B00190547A09021E000BB2B7
:1035E000A7B203932B7ABB4203D200206C7205B0C2
:1035F000F0BD00212048FFF7B3FBAA211F48B047C8
:1036000055211F48B047A0211C48B047019B1D4AC7
:103610001900981880B2FFF7A3FB039B23439BB2CA
:1036200000936B680098195DB047C0460098FFF79B
:10363000CDFB02900098FFF7C9FB029B8342F4D1B7
:103640006B6802991A5D104B8A420DD104221968E9
:10365000013491431960D96801370A43DA600222C4
:10366000E4B2BFB29A62BDE7042219680A431A6045
:1036700002229A61B6E7C04669FD00005555000078
:10368000AA2A000069FDFFFF00040048F0B51A4CAB
:10369000050060690902C0B2014361619021042004
:1036A000FF26C905886203388862616936023140A5
:1036B0001143616100202100104FC046C046C04642
:1036C000C046C046C046C046C046C046C0463C692B
:1036D0000132240A2C544C69D2B2344001301443D4
:1036E000C0B24C619842E8D990230422DB059A616C
:1036F000033A9A61F0BDC046000800480004004843
:10370000F0B5184C050060690E02C0B2304360612C
:1037100080269020F600C00549B28661002901DAB2
:1037200001218162FF2661693602314011436161E6
:10373000C04600200C4FC04639690132090A29549D
:103740006169D2B2314001301143C0B26161984227
:10375000F1D990238022DB05D2009A6201229A617E
:10376000F0BDC0460008004800040048F0B5174C02
:1037700005000E0060691F2925D880213143090208
:10378000C0B20143616190210420FF26C90588620F
:1037900061693602314011436161C04600200C4F1F
:1037A000C04639690132090A29546169D2B23140EF
:1037B00001301143C0B261619842F1D990230422D3
:1037C000DB059A61F0BDC0B20902DAE700080048E3
:1037D000000400488047C0460000000000000000D0
:1037E000F0B5474680B4061C081C000C102801D513
:1037F000162700E004270007000F8046FF20014045
:103800005468251C1D439C43F60313850AD5C04606
:10381000C046C046C046C046C046C04694801383DA
:10382000958002E0012000F081F801390AD4381CAB
:1038300000F07CF8C046948013839580C046C04653
:103840007600E2E7381C013800F070F894801383AA
:103850009580042000F06AF8108A184001D0FF20FB
:1038600061E0C046C046C046C046C046C0469480DF
:103870009580108A184055D001200226B04552D0BC
:103880000921168A1E40FCD1012000F04FF89480D7
:10389000C0469580C04603E0C046C046C046C0460C
:1038A000948095807600108A1840EFF300804000E5
:1038B000C00F0643381C023800F038F89480958019
:1038C000022000F033F80139EAD5138594800120F5
:1038D00000F02CF813839580301C8021022399403E
:1038E0000E401BD1002341085E4149085E41490852
:1038F0005E4149085E4149085E4149085E41490808
:103900005E4149085E4149085E41760808D3400897
:10391000FF21084048400002013004E00E2002E090
:10392000092000E0002080BCB846F0BD0138FDD180
:103930007047C04603685A0003D45B005B08C01898
:103940007047802212061343F9E7C046F0B5574688
:103950004E46DE464546E0B5814683B09246002994
:1039600025D04B1E9B46002701935B46FB18DC0FBE
:10397000E4184B466410E5005E193000FFF7DAFFEB
:10398000019B8046A3420BD0280008304844FFF733
:10399000D1FFD04506D80138504509D2671CE4E76D
:1039A000504505D9A74202D0631E9B46DDE700269D
:1039B000300003B03CBC90469946A246AB46F0BDF1
:1039C000012809D0022805D0002801D00020704726
:1039D0000248FCE70248FAE70248F8E7E14000083D
:1039E000F9400008ED40000830B5234B83B00500D6
:1039F0008C1E002B2AD001A9200000E000BF002867
:103A000020D001992200FFF7A1FF041E1AD0FFF772
:103A100091FF6368A864012B10D0201D002B1BDBD5
:103A2000FFF788FF0023E8642B650368002B17DB92
:103A3000FFF780FF2861002003B030BD0023052080
:103A40002B61F9E7002309202B61F5E70B480C49AE
:103A5000091AC9100191D5E70123E8642B65E4E751
:103A60001801000FFFF7ACFF2861002801D10930D1
:103A7000E2E70020E0E7C04600000000DC4A000862
:103A8000AC4B0008036810B50400DA0705D49B07A7
:103A90000FD5483000F084FC23685A070FD51A0769
:103AA00014D5DB0604D42000D130FF3000F084FCB4
:103AB00010BD483000F070FC23685A07EFD4200096
:103AC000D03000F071FC23681A07EAD4200051308E
:103AD000FF3000F06DFC2368E3E7C0460368002B6D
:103AE00000D01B1818007047092070477047C04667
:103AF00070B504000D0008E02B6C2A006361210002
:103B0000012023699847082807D1296C2000FFF776
:103B10006BFF0028F0D000F09FFE0728FBD10020AB
:103B2000296CFFF7E3FF281D00F020FCF0B5CE461E
:103B3000474680B5C368324C9846A5448369060061
:103B400014000431402205A8994600F08DFE0023A0
:103B500004AD296C30000493FFF746FF631E9C41BF
:103B600007000934002F15D0AB6B10216B644B4656
:103B700021430193C9B20095330032000120C047B0
:103B8000002833D13800F5239B009D440CBC90469F
:103B90009946F0BDF0222B6C5200736129007CA87D
:103BA00000F062FE7CAA31003369200098478A9BAE
:103BB00007006B6403934B4600950193320033007A
:103BC00021000120C047002810D1F0227CA952001A
:103BD000280000F049FE082F06D1296C3000FFF7BD
:103BE00003FF09240700BDE7072F01D00927C9E714
:103BF0000020296CFFF77AFF05A800F0B7FBC0464C
:103C00002CFCFFFF406C704770B5CB6BFAB00B64B7
:103C100004000E004022043103A800F025FE012319
:103C20005B42029306E002AA21002369984705003F
:103C300008280AD1129B200019000193FFF7D4FE37
:103C40000028F0D009207AB070BD02A8FFF71AFF53
:103C5000062DF7D131002000FFF74AFF10B5826131
:103C6000DA6BC1601A6419000022FFF75FFF10BD14
:103C7000436970B50B64C36804000D00002B04D0C9
:103C80000122FFF753FF00F0E7FD0A00236901005E
:103C900002209847072807D0082803D129002000D0
:103CA000FFF726FF00F0D8FD0020296CFFF71EFF6C
:103CB000281D00F05BFBC046C36810B5002B05D083
:103CC000CB6B00220B64FFF731FF10BDFFF79CFFA9
:103CD000FBE7C0467047C046836810B5002B02D092
:103CE00001000120984710BD10B5012907D0002917
:103CF00007D003390224012901D9200010BD012475
:103D0000FBE70224002BF8D10F2AF6D89200821884
:103D10005268029B00241A60EFE7C04600B585B0E8
:103D200003AB0A00009300210023FFF7DDFF039897
:103D300005B000BD10B5012907D0002907D003390F
:103D40000224012901D9200010BD0124FBE702242F
:103D5000002BF8D10F2AF6D8029B92001B6882181C
:103D600053600024EFE7C04600B585B003AB039273
:103D700000930A0000230021FFF7DCFF05B000BD1F
:103D800070B51A4CD36BA544136406000D0019A836
:103D9000111D402200F068FD01235B42189314E0DE
:103DA0000C2118A802AAFFF7DFFF290018A8B047C6
:103DB000002812D1069B18AA02A90830019398473F
:103DC000040005280AD0092807D0289B02A819005A
:103DD0000193FFF709FE0028E2D0092418A8FFF795
:103DE00051FE200090239B009D4470BDC0FDFFFF4D
:103DF000F0B5DE464E464546574693460322E0B5AB
:103E00001E0013008BB003400193CB6C0D001C1DF2
:103E10001B6808940793002E66D11B02079306AB1C
:103E20005E731A73019B022B00D16EE02B6DDB07D2
:103E300047D40023A846B2460293083303400393B5
:103E40002568002D00D137E15346022B49D0258843
:103E5000668804340123370099469F4343469B6C90
:103E60000F219C4658466744FFF758FF00228742BF
:103E700006D82A004B469A43D719B842804142429D
:103E800002230121760033400D402B43012B3ED00D
:103E9000002B5AD0022B1CD1236801995F007F08A8
:103EA000002965D1002A06D0039A002A00D188E0B3
:103EB000002F00D1AAE0002B65DB0137BF00E41919
:103EC000BEE700230293022E47DDFFF70DFE002818
:103ED00049D009200BB03CBC90469946A246AB465F
:103EE000F0BD66680834B5E7022E9BDC1A0C1B0493
:103EF0000793022306A90B73FD3313409B00E418BC
:103F0000019B4A73022B00D090E7AC6B8EE7019BBC
:103F1000002B3AD1002A16D02368DD0F63689A1C63
:103F2000D7D0424658320692013300D1C6E0201D58
:103F3000FFF7D4FD06AB01002A00404600E000BFB9
:103F4000002800D0A7E008347AE7019B002B02D0BC
:103F5000002A00D08BE0043472E707A9584600F02D
:103F6000D1FA0028B5D1029B002B5DD10820B1E722
:103F700043460D2158461D6AFFF7D0FE854263D0A7
:103F80002368002B99DA043497E743460D215846FD
:103F90001D6AFFF7C3FE8542D5D143469B6A9C420A
:103FA000D1D145462000FFF7C5FC0F21020058463D
:103FB000FFF7DAFE58462A000021FFF7D5FE07205A
:103FC00088E7002F22D058235146434406AABA4618
:103FD000251D0026049405911F00914603E0043539
:103FE0002600A24514D028000697FFF777FD4B4620
:103FF000010000224046741C00E000BF0028EED003
:104000005746059B049C9A46B742B9D1454601E004
:104010004546049C0D215846FFF780FE069B28620A
:104020006B62AC62062055E70F215846FFF776FE1B
:104030000E2102005846FFF797FE5846274A0F21E7
:10404000FFF792FE072045E743469B6A9C4297D1C3
:10405000434642469F620023D36204331363231D09
:1040600053632368002B32DB0123029325E72000F2
:10407000FFF760FC454604340600AC63404600E0B0
:1040800000BF002800D124E7584632000F21FFF777
:104090006BFE07201EE707000D2158464546FFF737
:1040A0003DFE2862022F0FD1069BEB6243462C3364
:1040B0006B62AC6206200DE7564604E70D215846B8
:1040C0004546FFF72BFE2862069B6B62F1E738003E
:1040D000013080004546201865E7C046000000001A
:1040E00010B50023FFF784FE10BDC04610B50123B4
:1040F000FFF77EFE10BDC04610B50223FFF778FE25
:1041000010BDC046F0B5CE46474680B50600C3B0E8
:1041100014001D0001294ED0002933D003290AD0F4
:10412000042902D1002B00D189E0022043B00CBC4D
:1041300090469946F0BD032BF7D11404150C240CBE
:104140002B19102BF1D8082203681A4200D0E7E09F
:1041500020AB1800984600F02DF9B36BED001A0063
:10416000002C09D0E400EA1A1C1942441968D15005
:1041700004339C42FAD12200B263404600F018F9A1
:104180000020D3E70220002BD0D100230127100408
:10419000B56B000C321D39009940084202D02968E5
:1041A0000435116001330432102BF4D10020A30434
:1041B000BCD4B563BAE71404170C240C012B5FD0F0
:1041C000052BB2D13B19202BAFD80F2F7DD9A1469B
:1041D000002C65D1002223009146B16B002B00DC3E
:1041E00088E020A88046FA00DB00521ACB1842442F
:1041F0000868505004318B42FAD119004B46002B0D
:1042000010D04B4658003A00102F00D21022002345
:10421000103AD2006A448000CC58D4500433834210
:10422000FAD1C918012D5ED0B1630F2F74D94B4656
:10423000002BA5D0684600F0B7F8002076E7102ADA
:1042400000D972E7102203681A4245D120AB18004A
:10425000984600F0B3F800230120B16B02009A40A9
:10426000144204D045460F689A00AF500431013320
:10427000042BF3D14046B16300F09EF8002055E7CF
:104280003B19102B00D950E70F2F00D94DE7002321
:104290009946012233681A4230D14B46002B5AD03E
:1042A000042233681A4242D1012D47D00F2F06D87D
:1042B00020AB180000F076F84B46002B8AD06846F9
:1042C00000F074F81023DB1B87E7102BDFD91022D6
:1042D000524291469944DCE793430360D130FF306A
:1042E00000F06CF8B2E7043120A8B16300F054F894
:1042F00000201BE74B46002B84D193E71900914324
:104300000A003160052D1ED0032230009343336034
:10431000483000F043F8C0E720A800F041F886E7F5
:10432000934303605130FF3000F044F810E7300051
:1043300093433360D03000F039F8B5E720AB180074
:1043400000F02CF8BEE7022330001A4332604830F8
:1043500000F028F8A1E7012D03D00F2F00D939E78D
:10436000A6E720AB180000F019F833E7011C343140
:1043700038C9043B9C461D60A646011C20313CC93F
:1043800090469946A246AB46011C0831FCC94168DB
:104390000068E54600BDC0467047C0467047C0464D
:1043A0007047C0467047C0467047C0467047C04619
:1043B0007047C0467047C0467047C0467047C04609
:1043C00001B401A801B585B0FFB408A841464A462A
:1043D00053465C4665463EC001A83EC80F98009013
:1043E00000230CB401A9FFF70FFC109B12B0184773
:1043F00001B401A801B585B0FFB408A841464A46FA
:1044000053465C4665463EC001A83EC80F980090E2
:1044100000230CB401A9FFF72BFC109B12B0184726
:1044200001B401A801B585B0FFB408A841464A46C9
:1044300053465C4665463EC001A83EC80F980090B2
:1044400000230CB401A9FFF737FC109B12B01847EA
:1044500001B401A801B585B0FFB408A841464A4699
:1044600053465C4665463EC001A83EC80F98009082
:1044700000230CB401ABFFF7F1FB109B12B01847FF
:1044800001B401A801B585B0FFB408A841464A4669
:1044900053465C4665463EC001A83EC80F98009052
:1044A00000230CB401AAFFF76BFC109B12B0184755
:1044B000027A0300002A04D1427AB020002A07D1F0
:1044C0007047013A02720268100E12021A60F7E792
:1044D000013A5A725A68111D596003211268197203
:1044E000F2E7C04600B585B003AB00930C22002371
:1044F0000021FFF7F9FB039805B000BD10B5FFF7E9
:10450000F1FF10BDF0B557464E464546DE46002346
:10451000E0B587B003930F339846083B9946802354
:104520001B0306000F009A463800FFF7C1FF040086
:10453000B02821D0030632D4FF2583001D4005ABEF
:104540009B4600930D220023002130000435FFF725
:10455000CBFB63064CD5059B5D1B05955B46009325
:1045600000230D2200213000FFF7E4FB3800FFF7A5
:104570009FFF0400B028DDD1039B0024002B2FD126
:1045800005AD00950E2200213000FFF7ADFB009530
:1045900000230F2200213000FFF7CCFB20E00300B6
:1045A00042469343DBB2802B63D0902B25D0A02BC7
:1045B00032D0B02B45D0C02B00D173E003004A4667
:1045C0009343DBB2D02B0AD15346024001321A4347
:1045D000052301213000FFF795FD0028A4D0092410
:1045E000200007B03CBC90469946A246AB46F0BDC1
:1045F000059B9C4665440595B0E7833B03400D2B26
:10460000EDD0424605AD0240009500230021300068
:10461000FFF76AFB0095A3E7FF234A461B01190039
:10462000824311410A001A40030702D58023DB01AF
:104630001A43002300213000FFF764FD0028CED18B
:1046400072E7B1284AD0B2285ED0B32800D18BE0FF
:10465000FC230340B42BC2D04A46534602400132E9
:104660001A43012101233000FFF74CFD0028B6D189
:104670005AE704023800FFF71BFF802520432D0274
:10468000A842ACD004010005020C00230021300038
:10469000FFF738FD0028A2D12C4200D144E70123C6
:1046A000039341E7C6286AD0C7287CD003004A4656
:1046B0009343DBB2C02B00D18BE0C82800D18FE040
:1046C000C92800D08BE73800FFF7F2FEF023020381
:1046D0001B03134042460240013278E73800FFF7DF
:1046E000E7FE002800D17AE7030042469343DBB29D
:1046F000002B00D073E7020000213000FFF702FD1D
:10470000002800D06BE70FE705AB00939B460D2216
:10471000002300213000FFF7E7FA3800FFF7C8FE5A
:1047200003066AD57F25B03C059B2840A0409C46E7
:104730006044059038000734FFF7BAFE0306F3D44F
:10474000812292009446863AFF3A1040A040059B91
:10475000723A634418185B460590009300210023C9
:104760003000FFF7E7FADFE63800FFF7A1FEF0239D
:1047700002031B03134042460240013270E7380037
:10478000FFF796FEF02302031B031340424602404C
:1047900001321A43032303213000FFF7B3FC002842
:1047A00000D01CE7C0E63800FFF782FE002800D1E9
:1047B00015E7030042469343DBB2002B00D00EE71F
:1047C000020004213000FFF79DFC002800D006E71E
:1047D000AAE64346A0221C40013412032243D9E733
:1047E0003800FFF765FE434602009A43D2B210320A
:1047F0001840120301300243EAE60224A0E7C04653
:10480000030000B5DB6C85B05A6808001202019203
:104810001A0001A908324A6003220A72DB794B723E
:10482000FFF770FE05B000BD10B5FFF767FE806CA6
:1048300010BDC04610B5FFF761FEC26CD3799B0076
:104840000833D01810BDC04610B500F005F8C046BA
:1048500010B5FFF7F9FFC04610B5062000F074F858
:10486000012000F0A3F8C046F0B505000F2A2FD9AB
:104870000B0003439B0734D116000C000300103ECD
:10488000350901352D01451927681F6067685F608C
:10489000A7689F60E7681034DF6010339D42F3D152
:1048A0000F239E431036851989191340032B1AD9FB
:1048B0001E1F0023B4080134A400CF58EF50043366
:1048C000A342FAD10324A643331D2240C918ED1890
:1048D000002A05D00023CC5CEC5401339342FAD17A
:1048E000F0BD0500F6E71A00F2E7C04670B5050016
:1048F0000C001F2922D8B7239B00C358002B14D0CB
:104900008A009B181A68002A0FD0012A0BD0511C6C
:1049100005D00021200019609047002070BD1623AB
:1049200003600120FAE70020F8E7280000F02AF8E9
:1049300022000100280000F011F8EFE716230360C1
:1049400001204042EAE7C04610B5034B0100186859
:10495000FFF7CCFF10BDC04600000020002370B55B
:10496000074C050008001100236000F017F8431CF5
:1049700000D070BD2368002BFBD02B60F9E7C04648
:104980003407002010B500F001F810BD58220120B6
:10499000014B40421A607047340700205822012022
:1049A000014B40421A60704734070020FEE7C046C2
:1049B00002B4714649084900095C49008E4402BCB2
:1049C0007047C04603B47146490840004900095E7B
:1049D00049008E4403BC704703B471464908400047
:1049E0004900095A49008E4403BC7047F8B5C046D7
:1049F000F8B5C04609021200010100803209040026
:104A000000000000000012010002FF000008C016B4
:104A1000DC05010201020001040309042A03490024
:104A20006E00660069006E006900740065004E004B
:104A3000650073004C0069007600650073002E006D
:104A400063006F006D000000000000000000000027
:104A50000000000000000000000000000000000056
:104A60000000000000000000000000000000000046
:104A70001E0349004E004C002000520065007400E7
:104A800072006F002D00500072006F006700000080
:104A90000000000000000000000000000000000016
:0C4AA0000000000000000000000000000A
:104AAC0074B20181B0AB308000000000800A01813B
:104ABC00B0B0ABF0000000003F020181B0AB308021
:104ACC000000000080060181B0B0ABF000000000D7
:104ADC00F8ECFF7FB0B0B08050EEFF7F010000001B
:104AEC00FCEEFF7FB0A9028090EFFF7FB0B0A880F2
:104AFC00E0EFFF7F01000000ECEFFF7FB0B0AA8079
:104B0C0020F0FF7F9CFFFF7FF0F0FF7F0100000093
:104B1C00ECF0FF7FAA3F398038F1FF7FB0B0A8805E
:104B2C0044F1FF7FB0B0AA8084F1FF7FB0B0A880C1
:104B3C0098F1FF7F0100000094F1FF7FB0B0A880D6
:104B4C009CF1FF7F010000002CF2FF7FAA0FB280C6
:104B5C0094F2FF7F58FFFF7F7CF5FF7FB0B0A880F9
:104B6C0098F5FF7F54FFFF7FF8F7FF7F01000000EF
:104B7C0068F9FF7F0084048078F9FF7FB0B0A880CB
:104B8C0078F9FF7F40FFFF7F6CFCFF7F008404807F
:104B9C008CFCFF7FB0B0A880A4FCFF7F010000005C
:104BAC00080000200000000000000000F4020020BB
:104BBC005C030020C4030020000000000000000083
:104BCC0000000000000000000000000000000000D9
:104BDC0000000000000000000000000000000000C9
:104BEC0000000000000000000000000000000000B9
:104BFC0000000000000000000000000000000000A9
:104C0C000000000000000000000000000000000098
:104C1C000000000000000000000000000000000088
:104C2C000000000000000000000000000000000078
:104C3C000000000000000000000000000000000068
:104C4C000000000000000000000000000000000058
:104C5C0001000000000000000E33CDAB34126DE6F5
:104C6C00ECDE05000B00000000000000000000005E
:104C7C000000000000000000000000000000000028
:104C8C000000000000000000000000000000000018
:104C9C000000000000000000000000000000000008
:104CAC0000000000000000000000000000000000F8
:04000005080000C12E
:00000001FF
