:020000040800F2
:1000000000180020C1000008FD000008351E00088F
:1000100000000000000000000000000000000000E0
:10002000000000000000000000000000FD000008CB
:100030000000000000000000FD000008FD000008B6
:10004000FD000008FD000008FD000008FD0000089C
:10005000FD000008FD000008FD000008FD0000088C
:10006000FD000008FD000008FD000008FD0000087C
:10007000FD000008FD000008FD000008FD0000086C
:10008000FD000008FD000008FD000008FD0000085C
:10009000FD000008FD000008FD000008FD0000084C
:1000A000FD000008FD000008FD000008FD0000083C
:1000B000FD000008FD000008FD0000080101000827
:1000C00009490A4A0A4B9B1A03DD043BC858D05021
:1000D000FBDC0849084A0020521A02DD043A885025
:1000E000FCDC02F0E5F800002C3D000800000020D8
:1000F00030040020300400202C070020FEE7C0461A
:10010000F0B5C94A89B0138801921BB2002B01DBFC
:1001100001F0C0FB1388C54A1A4080231343019A9B
:100120001380019B1A8880231B011340C04A01D110
:1001300001F07EFBBF49C04C0B68C04801330B6027
:1001400023787F211D008D43BD49BE4E0D70E1888F
:10015000018000203080602633401370BA4A2600A8
:100160001570834247D0FF23B84CCAB22370B84BF6
:1001700060701C60029270780138082801D901F083
:1001800005FB03F0E9FC09004106DE076808AD093C
:10019000030BEE0A92086609B078B3888C221928FE
:1001A00024D88022D20003F0D7FC1A005600820126
:1001B00062024303CC0360041C05390545054D0567
:1001C00055055F05680576057E0586058E05930550
:1001D000A705BD05DE05F3050A0612033703B023A4
:1001E0009C4A5B0351690B435361002222706A46AB
:1001F000994B12891A803378602259B2002901DBA9
:1002000001F0E7FA134016D17278062A0FD17288EE
:10021000110A022901D101F0BBFA032901D101F031
:10022000BDFA8E4A012901D101F0B3FA03936A465F
:10023000894B92891A80019B1A88894B1343894AFA
:100240001A40C0239B015340019A9BB2138001F0D6
:1002500093FD01F0DFFA152B01D900F0C6FD18005F
:100260008023DB0003F078FC160023002E00C1057C
:10027000390044004F00C1055C0069007300800034
:10028000C105C1058D009A00A500B200BF00CC00D9
:10029000D60018019022D205136873490B401360F1
:1002A0008023D1685B020B43D36000229EE790213C
:1002B0000123C9050A689A430A60CA681343CB60E0
:1002C000002293E790210423C9050A689A430A6033
:1002D000CA681343CB60002288E790211023C90528
:1002E0000A689A430A60CA681343CB6000227DE71C
:1002F00090214023C9050A689A430A60CA681343DB
:10030000CB60002272E79022D205136857490B4058
:1003100013608023D1685B030B43D360002265E741
:100320009022D205136852490B4013608023D16894
:100330005B010B43D360002258E704234D490A6850
:100340009A430A60CA681343CB6000224EE79022AA
:10035000D205136848490B4013608023D168DB0540
:100360000B43D360002241E79022D2051368434932
:100370000B4013608023D168DB020B43D360002263
:1003800034E79022D20513683D490B401360802367
:10039000D1685B000B43D360002227E79022D2058F
:1003A0001168384801401160D1680B43D3600022C6
:1003B0001CE79022D205136833490B401360802359
:1003C000D168DB010B43D36000220FE79022D205F6
:1003D00013682E490B4013608023D168DB040B4364
:1003E000D360002202E79022D205136828490B400F
:1003F00013608023D1685B050B43D3600022F5E6D0
:1004000001231C490A689A430A60CA681343CB60F7
:100410000022EBE610231F490A689A430A60CA6863
:100420001343CB600022E1E6005C00408F0F000028
:10043000EE0600208C04002048600040920400205A
:10044000EC06002096040020ED060020F0060020B7
:10045000200700200010024094040020863B000882
:100460008081FFFF8FBFFFFFFFFFFEFFFFFFEFFF5A
:10047000FFEFFFFF00040048FFFFFFBFFFFFFBFF90
:10048000FFFEFFFFFFFBFFFFFFBFFFFFFFFFFFFBC5
:10049000FFFFFFEF000C00489021C9050A68D24811
:1004A00002400A60CA681343CB6000229EE6152B07
:1004B00001D900F09DFC180003F04EFB160021004E
:1004C0002C009A04370042004D009A045800630043
:1004D0006D0078009A049A0483008E009900A400AD
:1004E000AF00BA00C400CE009023DB051968BF48F6
:1004F00001401960DA680240DA60002276E6902353
:100500000121DB051A688A431A60DA688A43DA60D7
:1005100000226BE690230421DB051A688A431A60E7
:10052000DA688A43DA60002260E690231021DB0556
:100530001A688A431A60DA688A43DA60002255E64C
:1005400090234021DB051A688A431A60DA688A43DF
:10055000DA6000224AE69023DB051968A4480140CE
:100560001960DA680240DA6000223FE69023DB057A
:100570001968A04801401960DA680240DA60002278
:1005800034E604219C4B1A688A431A60DA688A436D
:10059000DA6000222AE69023DB05196897480140BB
:1005A0001960DA680240DA6000221FE69023DB055A
:1005B0001968934801401960DA680240DA60002245
:1005C00014E69023DB0519688E4801401960DA684B
:1005D0000240DA60002209E69023DB0519688248B0
:1005E00001401960DA680240DA600022FEE59023DB
:1005F000DB051968844801401960DA680240DA6056
:100600000022F3E59023DB0519688048014019605A
:10061000DA680240DA600022E8E59023DB05196819
:100620007B4801401960DA680240DA600022DDE5AB
:100630000121714B1A688A431A60DA688A43DA60CA
:100640000022D3E51021734B1A688A431A60DA68D6
:100650008A43DA600022C9E59023DB051968624805
:1006600001401960DA680240DA600022BEE5152B0D
:1006700000D9C0E3180003F06FFA16001F0027002E
:10068000BE032F0037003F00BE0348005100580052
:100690006100BE03BE036A0073007A0083008C0011
:1006A00095009C00A30090228023D20511685B0274
:1006B0000B431360002299E590220123D2051168B3
:1006C0000B431360002291E590220423D2051168A8
:1006D0000B431360002289E590221023D205116894
:1006E0000B431360002281E590224023D20511685C
:1006F0000B431360002279E590228023D205116814
:100700005B030B431360002270E590228023D20527
:1007100011685B010B431360002267E50423364A2E
:1007200011680B431360002260E590228023D205FC
:100730001168DB050B431360002257E590228023EC
:10074000D2051168DB020B43136000224EE59022B4
:100750008023D20511685B000B431360002245E53E
:100760009021C9050B681A430A6000223EE59022D9
:100770008023D2051168DB010B431360002235E5AD
:1007800090228023D2051168DB040B431360002202
:100790002CE590228023D20511685B050B43136082
:1007A000002223E50123144A11680B431360002241
:1007B0001CE51023174A11680B431360002215E54E
:1007C0009021C9050B681A430A6000220EE58D22AC
:1007D000082B00D00AE59022D205516838330B432C
:1007E0005360002202E5C046FFFBFFFFFFFFFEFF54
:1007F000FFFFEFFFFFEFFFFF00040048FFFFFFBF19
:10080000FFFFFBFFFFFEFFFFFFBFFFFFFFFFFFFB41
:10081000FFFFFFEF000C00488D22082B00D0E5E41D
:1008200090224021D20553688B4353600022DDE4BF
:10083000152B00D9E2E2180003F08EF916001D0016
:100840002300E00229002F003500E0023A004000BA
:1008500045004C00E002E002530059005F006500D3
:100860006C00730078007D00802290235200DB052D
:100870009A620022BAE490230122DB059A620022E8
:10088000B4E490230222DB059A620022AEE49023B6
:100890000422DB059A620022A8E490230822DB05EB
:1008A0009A620022A2E49023DB059A6200229DE472
:1008B00090234022DB059A62002297E40222D24B69
:1008C0009A62002292E4802290231202DB059A624F
:1008D00000228BE4802290239200DB059A620022A2
:1008E00084E490231022DB059A6200227EE49023A8
:1008F0002022DB059A62002278E490238022DB0527
:100900009A62002272E4802290239201DB059A62AF
:1009100000226BE480229023D201DB059A62002240
:1009200064E40122B84B9A6200225FE40422B74BD0
:100930009A6200225AE490232022DB059A62002268
:1009400054E4152B00D95CE2180003F005F91600F9
:100950001D0023005A0229002F0035005A023A00D8
:10096000400046004E005A025A0256005D006400E4
:100970006B0073007B00810087008022902352006F
:10098000DB059A61002231E490230122DB059A61A4
:1009900000222BE490230222DB059A61002225E449
:1009A00090230422DB059A6100221FE49023082291
:1009B000DB059A61002219E49023DB059A6100228D
:1009C00014E490234022DB059A6100220EE4022207
:1009D0008D4B9A610022FFF709FC802290231202BE
:1009E000DB059A610022FFF701FC80229023920030
:1009F000DB059A610022FFF7F9FB90231022DB054B
:100A00009A610022FFF7F2FB90232022DB059A6116
:100A10000022FFF7EBFB90238022DB059A61002286
:100A2000FFF7E4FB802290239201DB059A6100220C
:100A3000FFF7DCFB80229023D201DB059A610022C4
:100A4000FFF7D4FB0122704B9A610022FFF7CEFB27
:100A500004226E4B9A610022FFF7C8FB90232022EC
:100A6000DB059A610022FFF7C1FB02226270152BA1
:100A700000D9B1E0180003F05BF80B151EAF27306A
:100A800039AF434C545DAFAF677079828C969EA6A8
:100A900090238022DB051B695200134063800022F3
:100AA000FFF7A4FB90230122DB051B691340638041
:100AB0000022FFF79BFB90230222DB051B691340FA
:100AC00063800022FFF792FB90230422DB051B6961
:100AD000134063800022FFF789FB90230822DB0587
:100AE0001B69134063800022FFF780FB9023802264
:100AF000DB051B69D200134063800022FFF776FB01
:100B000090234022DB051B69134063800022FFF71E
:100B10006DFB02223C4B1B69134063800022FFF7F0
:100B200065FB9023DB051B690022DB0BDB03638085
:100B3000FFF75CFB90238022DB051B6992001340CA
:100B400063800022FFF752FB90231022DB051B6914
:100B5000134063800022FFF749FB90232022DB052E
:100B60001B69134063800022FFF740FB9023802223
:100B7000DB051B69134063800022FFF737FB9023DE
:100B80008022DB051B699201134063800022FFF77E
:100B90002DFB90238022DB051B69D201134063806B
:100BA0000022FFF723FB0122174B1B6913406380D0
:100BB0000022FFF71BFB0422144B1B6913406380C8
:100BC0000022FFF713FB90232022DB051B69134053
:100BD00063800022FFF70AFB00238D226370FFF77A
:100BE00005FB80230A4ADB0251690B435361064A25
:100BF000084913680B401360D168074B0B43D3605F
:100C00000022FFF7F3FAC04600040048000C004839
:100C100000100240AFAAFAFF50550500D34AD4494C
:100C200013680B401360D168D24B0B43D360002292
:100C3000FFF7DCFACD4ACE4913680B40136000225F
:100C4000FFF7D4FAC94ACB4B11680B43136000225B
:100C5000FFF7CCFAC549C8484A699B0002401343D4
:100C60004B610022FFF7C2FAC04B00221B699B08B0
:100C7000A37001236370FFF7B9FA8023BF4A1B03F7
:100C800051690B435361BE4ABE4B11680B4313605D
:100C90000022FFF7ABFABA4ABA4BD1680B43D360D4
:100CA0000022FFF7A3FAB64AB74913680B40136056
:100CB0000022FFF79BFAB24AB24B11680B43136054
:100CC0000022FFF793FAAE4A53610022FFF78EFA33
:100CD0008023AA4A1B0351690B435361A34AAB4BC0
:100CE00011680B4313609022D2051168A84B0B4387
:100CF00013600022FFF77AFA9C4AA44BD1680B4399
:100D0000D3609023DB05D868A1490143D9601168FD
:100D1000A048014011601A689F490A401A600022E9
:100D2000FFF764FAF8228027904D98026969D20192
:100D300010403F025A023A4089051043890D08438A
:100D40009021686110205D08C90528404A69934DCB
:100D5000DB012A4002438020C001034013434B6162
:100D60000022FFF743FAC023844ADB0251690B4398
:100D700053617E4A854B11680B4313609022A02378
:100D8000D20511685B020B4313600022FFF72EFAB5
:100D9000764A7E4BD1680B43D3609023A021DB05BC
:100DA000D86849020143D96011687A48014011604E
:100DB0001A687B490A401A600022FFF717FA6B484D
:100DC0009A064169120C8905890D0A4342619022F5
:100DD000C020D205C000DB005169034071480140CA
:100DE0000B4353610022FFF701FA8D22FFF7FEF952
:100DF0008D22FFF7FBF98D22FFF7F8F98D22FFF71F
:100E0000F5F98D22FFF7F2F9B578B388022D00D1FC
:100E1000CEE005D8002D60D0012D64D096255EE08F
:100E2000042D00D159E100D215E1802DF6D1902397
:100E3000012740218025DB05677099621A686D01E2
:100E40002A431A60C04658481C691A680C40024080
:100E50001A60DA680240DA60F022002C3AD11A688F
:100E600002401A60DA681543DD601A6994461A690F
:100E70000A400492C0461A690592C046C0461A69E3
:100E80000692C046C046C0461A690792C046C04690
:100E9000C046C0461D691A6802401A60DA681040F0
:100EA000D860634622000B4214D1049B3A00002B09
:100EB00010D1059B02320B420CD1069B03320B4230
:100EC00008D10B0007990432194203D105321D42A3
:100ED00000D1D132354B9A70FDE001F045F9334B2A
:100EE0001D70FFF784F901F03FF99023DB051A68C4
:100EF0001F4C2A431A6080229D61196852020A43DE
:100F00001A608022042152009A621A6800250A435E
:100F10001A6002229A6118680E3202431A60402257
:100F2000996119680A431A6008229A61802313495B
:100F3000DB024A6913434B610C4B1A6822401A606A
:100F4000D8680C4A1043D860186820401860D868E8
:100F50000243DA6080234A691B0313434B61084B49
:100F6000084A19680A431A605D61B8E7000400483E
:100F7000AFAAFAFF5055050003FC00000010024024
:100F80000008004855555555AAAAAAAA0000505570
:100F900000010010FFFFAFAAFFFEFFEFEFBF000050
:100FA000FFBFFEFFFFF90000FFEFFFFFF00600208C
:100FB00001F0DAF890230121DB051A68C94D0A43D4
:100FC0001A601022996119680A431A6004224021AC
:100FD0009A611A680A431A6008229A61802299610C
:100FE000196852010A431A608022BF49D202486937
:100FF00002434A61BD4A106828401060D468BC486A
:101000000443D46014682C401460D4682043D0603A
:1010100080204C69000320434861B648B64C0568FF
:101020002C43002504604561C0204C69C002204368
:1010300048611068B14901431160A0211868490254
:101040000143196051698905890D51615A69AC499B
:101050000A405A6143E7DBB2022B1ED00025032B66
:1010600000D13CE7012B6AD180229F4912034869D5
:1010700002434A619F4A116899431160D16819433C
:10108000D160516819435160936111680B4313603B
:101090009C4B1D709C4B1A6021E7B023924A5B0366
:1010A000516940200B4353619023DB051A6897492F
:1010B0000A401A608022D96852011143D9605968E8
:1010C00001435960986119680A4308211A608D4AE2
:1010D00011708D4A1360002501E7DBB29825012BC2
:1010E00000D0FCE6902106220A20894BC905196030
:1010F000884B1A707D4B884A1360884A1070884A62
:1011000001301360874A1070874A01301360874AA4
:1011100010708020744A00035469204350611C6899
:101120007648204318600868814B03430B60B02366
:1011300051695B030B43536100F03AFFCBE79725FE
:10114000CDE6B578F178B088022D1BD005D8002DFA
:101150000FD0012D12D0A0250DE0822D3DD0832D82
:1011600040D0812DF7D10123637000F0A9FCA0705D
:1011700006E000F0C5FC2570FFF739F800F058FCD8
:101180000025F8E79023DB051A68604F89003A4094
:101190001A60DA683A40DA60564A5061534A9D62F2
:1011A0001768534D00B23D4315605769614D3D408E
:1011B00029435161802149009961002801DA012009
:1011C0009862C046C04699620121996149189961A7
:1011D000136844490B401360D2E70123637000F0A9
:1011E00053FCC4E70123FF25637080239020414A0C
:1011F000DB005169C00529400B4353610369516904
:101200009BB20D408021090129435161026980216F
:10121000180092B2104389001025084219D00B40E3
:1012200018000A40411E884111004D1EA941C0B25C
:10123000C9B2002802D0112500290AD1002A02D102
:101240001225002805D1002B02D11325002900D139
:10125000FF25A57094E7B378B088012B20D0002B30
:1012600003D0022B17D0AA2312E0204D8206696911
:10127000120C8905890D0A436A619021C025C905B0
:10128000C000ED004A6905401D4802402A434A61FA
:101290002370FEF7ACFFF17800F08AFB0023F7E73C
:1012A000637000F0ADFBA070F8E7B578F278B18814
:1012B000112D00D1C6E009D8012D00D195E0002DF7
:1012C0003AD0022D00D1A6E0822554E7212D00D18D
:1012D000AEE0222D00D1B1E0122DF5D10223102075
:1012E0006370B2E0AFAAFAFF0010024000040048A9
:1012F00050550500000800485555555500005055FB
:10130000FFF90000FC060020F8060020FFEFFFFFB9
:101310001007002014070020080700200C070020F9
:10132000180700201C0700200007002004070020E9
:101330000001001003FC00000121C54DC54F2A78B3
:101340003B68914099625A6810208A435A6000F0C5
:1013500023FE01212B783A6899400B009161516876
:1013600004250B43536001230493FA20400000F04E
:1013700013FEB74A04991278FA209140B54F400005
:101380003B68013D99625A68ADB28A435A6000F0E9
:1013900003FEAF4B04991B783A6899400B009161AA
:1013A00051680B435360002DDFD10435FA2000F063
:1013B000F3FD0121A64AA74F12783B68914099623C
:1013C0005A68FA208A435A6000F0E6FD0121A04BDA
:1013D0003A681B78013D99400B0091615168ADB2AC
:1013E0000B435360002DE1D1C5E62900984A994F7F
:1013F00012783B68914099625A6810208A435A607B
:1014000000F0CAFD924A3B68127895409D615A6887
:1014100015435D60B4E601238D4A637012788E49EE
:1014200093408C4A9BB21268002001F099FA9EE624
:1014300001230020637000F0FFFC98E601231020D8
:101440006370F8E702230020637000F04FFD6080B6
:1014500096E6B378B288042B1AD006D8022B1CD09B
:1014600021D8012B0FD0872312E7072B24D003D8D4
:10147000052BF8D1794B14E0082B22D0802BF2D128
:1014800000F096FD0AE7764A1278A270637005E7CD
:10149000744B1B78A3700123F8E7714B1A708322F9
:1014A000704B1A70FAE66E4B6E4D1A7083232B70D8
:1014B00000F0EEFD2B78EDE76B4B1A70120A5A70B4
:1014C000ECE6694B1A78A2705A78E2709A78227129
:1014D000DA7862711A79A2715B79E3710623D5E734
:1014E000B2781300303B2F2B19D8F078032800D99D
:1014F000EFE002F01DFB140210125C4B512A00D1E8
:1015000077E024D8312A53D00BD8002A33D0302AA0
:1015100049D0B42345E0564BF0E7564BEEE7564B27
:10152000ECE7332A4ED048D3502AF2D10022227061
:10153000063262701A7AA270DA78E2705A7A2271F0
:101540009A7A62719A78A2715B7CE37145E07F2A96
:1015500000D9A4E0702A5CD2602A36D0612A40D03B
:10156000522AD6D100221B882270A37002321B0A95
:101570006270E37031E0FF23404953540132102A76
:10158000FBD13A4A3C49D37093703A4ACB70D3703E
:10159000937001228B703649CB708B70384B1A7068
:1015A0000023237019E0B288110AD9721A73F7E781
:1015B000B288110A59739A73F2E7B288110AD97383
:1015C0001A74EDE7B2885A74EAE7002323700133F6
:1015D0006370B388294AD35CA3702A4B1C60FEF762
:1015E00006FE0023237001336370274B1B68DB78F2
:1015F000F2E70022227006326270DA7AA2701A7B59
:10160000E2705A7B22719A7B6271DA7BA2711B7C39
:101610009BE7194B1C495C6833787F2B00D957E155
:1016200068461A4B007A18700868C378002B2FD0D0
:1016300000200290982B05D152E100200290D02B7F
:1016400000D14DE10E4B10301870FF2325E0C0464D
:10165000FC060020F806002004000200D904002047
:10166000B8040020DA040020B9040020440400205B
:10167000580400206C04002030040020DB0400200B
:101680009804002020070020800400208804002007
:101690009F4B18609023C3706F33029320E10720A3
:1016A0001040032815D802F043FA16021812994B7D
:1016B000802A92D3872A12D97032D2B2072A8CD8C4
:1016C00000222270F2789A72B2881A8085E7924BD3
:1016D000EEE7B52365E7914BEAE7914BE8E7B18880
:1016E000F0780A0AC9B245189446BE22102D2DDCA6
:1016F000043200282AD0DD78033AFF2D26D19D78C8
:101700000132FF2D22D10022D5B2A84220D8624654
:101710004501013D1D724D012F009A700022814D3F
:10172000DA70ED195A729A721A80DA721A735A7351
:101730009A73DA731A745A745D607B4B5918634656
:101740008B540132D3B29842F9D80022227044E778
:1017500001328D18744F013D7D5DFF2DD4D0C12223
:10176000F4E7B278002A04D0402A07D0D2222270AF
:1017700034E72270B1886D4A11702FE70022227081
:1017800001326270694A1278A27027E780237FE5F0
:10179000674A684B1A601223FEF748FDD2B2012A4D
:1017A00011D0002A09D0022A01D0FEF73FFD614B7B
:1017B000614A1A60614BFEF739FD5E4B604A1A6060
:1017C0000423FEF733FD5B4B5E4A1A605E4BFEF767
:1017D0002DFD134208D17378052B05D173885B4A20
:1017E00013705B4ADBB21380019B5A4A1B88019934
:1017F0001340594A13439BB20B800021574B198069
:10180000019B1B881A43564B1A40564B5A40019B6A
:1018100092B21A80544BDA8F520507D58021534A71
:1018200011800022DA87524B019A138009B0F0BD73
:101830001278402AEED14F4A1278002AEAD14E4A55
:101840001088334AC0B211684D7A4E68DAB2541922
:10185000E4B2904218D84A7A82184A72474A1378FA
:101860001B1ADBB21370002B01D19833CB70019B94
:101870001A88394B1343424A1A40C0239B015340F4
:10188000019A9BB21380C5E73E4A9A181278013339
:101890003255DBE7019B1B881B06BBD5019B3A4AEF
:1018A0001B881340802212021343019A1380374B86
:1018B0001B78802B01D1FEF7CAFC244A1378002B39
:1018C000A8D080210B4329490B8000231370A1E786
:1018D0000868C378D82B00D0AFE680234468C37073
:1018E0000B6800215972DB78902B00D075E6712AC5
:1018F00000D072E6064BB2881B6859680A70B2883D
:101900005968120A4A705A7A02325A7265E6C0461B
:1019100084040020440400206C04002030040020D3
:1019200058040020EC040020DB0400209804002070
:10193000743B000820070020F03B00081E03000055
:10194000983B00089C3B00082A03000090040020FC
:10195000506000408F8EFFFF8080FFFF02600040DC
:10196000BFBFFFFF30300000065C00404C5C004011
:1019700020320000ED0600200660004088040020B0
:101980008FBFFFFF486000400F8FFFFFEC06002075
:10199000002302000002002A04D1002B01D0802382
:1019A00018437047DB43511EDBB20A40F3E70000E7
:1019B0000E4B0F4A58610F4B8900186802431A609A
:1019C0005A690D48024011439022596108200121B3
:1019D000D20590629162C046C046C046C046906142
:1019E00091611A6805490A401A607047000800486A
:1019F000505505000004004803FC0000AFAAFAFFA0
:101A0000094B0122586190230421DB059A629962F7
:101A1000C046C046C046C046044800699961800877
:101A2000C0B29A617047C0460008004800040048F0
:101A30000F4B984202D880231B0218430D4B0E4ACD
:101A400058610E4B8900186802431A605A690C48A5
:101A5000024011435961C04690220821D20591628B
:101A6000C04691611A6807490A401A607047C0462B
:101A7000FF1F000000080048505505000004004802
:101A800003FC0000AFAAFAFF0A4B984202D8802359
:101A90001B021843084B042258619023DB059A620D
:101AA000C046C046C046C046044908699A618008DD
:101AB000C0B27047FF1F0000000800480004004843
:101AC0000D4B8022586190235200DB0500B29A61D1
:101AD000002801DAFF3A9A62C046C046C046C046B6
:101AE000064B8022186990235200DB059A62800819
:101AF000FF3AC0B29A6170470008004800040048ED
:101B0000114B124A10B558611068114B89000343FC
:101B1000136053690F48104C0340194390235161DF
:101B20008021DB051868490108431860402098624D
:101B3000186820401860D8680143D96013680749C5
:101B40000B40136010BDC046000800480004004868
:101B50005055050003FC0000FFEFFFFFAFAAFAFF9E
:101B6000F0B5404B8BB0089119783F4B09921B7828
:101B7000019002933D4B019D1C683D4B3D481A78F6
:101B800001231E0096403C4AA662102D5ED11278B9
:101B900000689340836201200200364B05901F6865
:101BA000354B1B789A4003920200344B1B68069316
:101BB000334B1B789A4093B202000793314B1B685A
:101BC0009C46314B1B789A40002304921A000198DE
:101BD000202806D1029D05981D4105423ED003985C
:101BE000B861089820280FD1002B01D11E488354DA
:101BF000069805690798054206D01B48855C05983C
:101C0000984005431848855409980139C9B20028FD
:101C100002D0002900D1A6616046049D0133DBB2E9
:101C200085618562082B05D101320F4BD2B29B5CD6
:101C3000029300230029CAD10E4B1A680E4B197863
:101C400001238B409362A6620BB0F0BD019D112D64
:101C5000A1D112780068934083619CE70398B86231
:101C6000BFE7C046D9040020B904002018070020AF
:101C70001C070020080700200C0700201007002088
:101C8000140700200007002004070020F7B51F4BB1
:101C90001F491A781F4B10282ED101241E780D6879
:101CA000B440AC62012635000C6831001B78019607
:101CB0009D40194B1B680093184B1B7899400023DB
:101CC0008C46190020280DD1154E019F765C1E41CF
:101CD0003E4219D0A5610133DBB2082B02D10023AB
:101CE0000131C9B26646009F013AD2B2BE61BE62FE
:101CF000002AE7D1A562F7BD1128D3D101241E78AF
:101D00000D68B440AC61CDE7A562E4E7D9040020DA
:101D1000180700201C0700200007002004070020EF
:101D2000B9040020022907D10F4B104A984218D05D
:101D3000904209D1180007E0032906D10A4B0B494C
:101D40000B4A98420BD1080070470429FCD1064B7E
:101D5000064A984205D006499042F4D0054A884286
:101D6000E6D11000F0E7C046300400204404002013
:101D7000580400206C040020224B10B51968224B37
:101D8000224C1A8852085200505A214A10801A8850
:101D9000023292B21A8052085200505A1D4A1080E4
:101DA0001A88023292B21A8052085200505A1A4AC5
:101DB00010801A881948023292B21A8052085200D2
:101DC000515A174A11801A882188023292B21A8019
:101DD0008A4210D908318A1A92B2028022881A8067
:101DE0001049114B0A881343104A1A4030235340BC
:101DF0009BB20B8010BD0E4C21888A42EAD8082382
:101E00000380EDE7200700209604002094040020C2
:101E1000406000404260004044600040026000407A
:101E200046600040005C00408080FFFFBF8FFFFFE6
:101E300092040020FEE70000F7B501230225294F98
:101E400001923A780091054393400421A020264E48
:101E50002D049BB229433268C00100F081FD0400CB
:101E600001283DD13B7809209C4005437830A3B23E
:101E700032682900FF3000F073FD040001282FD1E3
:101E80003B7832689C402900A3B2002000F068FD36
:101E90000400012824D1009B180AFFF779FD3B7844
:101EA00032689C402900A3B200F05AFD04000128CA
:101EB00016D16B461878FFF76BFD22003B7829009E
:101EC0009A4093B2326800F04BFD0198FFF760FD35
:101ED0003B7832689C402900A3B200F041FD040029
:101EE000E0B2FEBDFC060020F8060020F7B5012395
:101EF0000225274F00903A78019105439340042131
:101F0000C020244E2D049BB229433268800100F08A
:101F100027FD0400012838D109231D433B78C02048
:101F20009C403268A3B22900400000F019FD040073
:101F300001282AD13B7832689C402900A3B20020B6
:101F400000F00EFD040001281FD1019B180AFFF7C5
:101F50001FFD3B7832689C402900A3B200F000FDD1
:101F60000400012811D16B461879FFF711FD2200FA
:101F70003B789A4093B2009A14430922E1B20904D3
:101F80001143326800F0ECFC0400A0B2FEBDC04674
:101F9000FC060020F80600200023800080B2834267
:101FA00000D17047C046C04601339BB2F7E700003E
:101FB000F0B52C4B85B019682B4B2C481B7800785A
:101FC0000193012302901E0018001F00019A029C39
:101FD0009640A040264D274A2D781268AF408E6269
:101FE0008446906224489D40006887620468039498
:101FF0001C00AC402500039C254305604568019CFE
:10200000BD4345609C401D00A54008681C00284356
:1020100008604868B04348601068029999408C4055
:1020200021000143604611605168814313485160AB
:102030000078134A98408340126812481168994307
:102040001160D1680B43D36080220F4B1A700023BC
:1020500019000E4A13701A1801331170202BFAD18F
:1020600005B0F0BD180700201C0700200C07002059
:1020700004070020080700200007002014070020A4
:1020800010070020B9040020DA040020D904002041
:1020900010B5334B1B78082B5DD016D8314C032B71
:1020A00044D007D8012B2DD0022B31D0EE222D4B5E
:1020B0001A7023E0062B44D049D8042BF6D1812393
:1020C000012223702021112027E00F2B34D008D8C3
:1020D000244C0D2B25D00E2BE8D181230022237018
:1020E00027E0802B08D01F4CFF2B08D0102BDDD110
:1020F00081230022237027E0FFF75AFF10BDF02351
:102100002370FBE7812320202370FFF7BFFD06E04B
:1021100081230122002123702020FFF721FD82234B
:10212000EEE78123002223701100F5E781230122CD
:10213000237020211020F0E781230A4C0022237015
:10214000C0E781230122237020210800E5E78123D5
:1021500010202370D9E78123024C11202370D4E78B
:10216000B8040020DA040020BC22444BD203996A50
:1021700070B50A439A629A6A4149424C0A409A628F
:102180008022596912030A435A613F4A3F49106845
:102190003F4E084310601068204080241060D068D3
:1021A000E4020143D1605A6922435A61394A1168F5
:1021B00031401160D56838490D43D5601068304012
:1021C0001060D0680143D160B021586949030143D0
:1021D00059619023DB05196830480140196080215E
:1021E000D868490201430120D96019688143196008
:1021F000D9680143D96004211D688D431D60DD68E5
:102200000D43DD6010251E68AE431E60DE68354359
:10221000DD6040251E68AE431E60DE683543DD602C
:102220001D681F4E35401D608025DE686D033543F7
:10223000DD601D681B4E35401D608025DE68ED05A4
:102240003543DD601D68184E35401D60DD682C4348
:10225000DC601468154D84431460D4682043D0605A
:102260001C682C401C60D8682840D86013688B43D9
:102270001360D3681943D16070BDC046001002409E
:10228000FFFFA1FFAAAAAAAA000800485555555564
:10229000AFAAFAFF0004004850550500FFFFFEFFFB
:1022A000FFFFEFFFFFFFFFBFFFFFFBFFFFEFFFFFA2
:1022B0009022D94B12031968F0B50A431A608022A4
:1022C00087B0920219681142FCD0012259680A4372
:1022D0005A608022596852020A435A608022596823
:1022E000D2020A435A608022196852040A431A60D3
:1022F0008022920419681142FCD011210224C74A9D
:1023000011605A680E398A4322435A601A6B7D3134
:102310000A431A638022D86912040243DA6162B662
:102320000120BF4B4026DA8FBE4DA243DA87DA8FF9
:102330008243DA870022BC48C2872A80BB4D2E80A8
:10234000BB4D08362E808026BA4D76012E80BA4DC0
:102350002980C287B949BA4A11808021B94A090641
:1023600011608022D98FD2000A43DA87B64AB74B70
:102370001A80FFF7F9FEF022B54B04941A70B54E9F
:102380002021327813008B43D22B2ED1B249B3488F
:10239000C978C378049CFF2904D1FF3B1C00631E4D
:1023A0009C41E4B2AE4BDB78FF2B00D00324AD4B55
:1023B000DB78FF2B00D00424AB4BAC4F1C70386093
:1023C000D22A12D10023012505E02100FFF7AAFC43
:1023D00001230135EDB2A542F7D3002B00D03860C0
:1023E00080223B68DA70D02333703378F22B05D12A
:1023F0000022023B33709D4B1B68DA703578D02D7C
:1024000000D031E2994E3068C378802B00D02BE2A7
:10241000954B1978FFF786FC002330604372040067
:102420000388C570C07AD9B21038042800D919E2DF
:1024300001F07EFB030C494D3A008020237AA278FC
:102440000143606800F052FA60722DE06768A0787E
:10245000267A874B1F2930D880225D6911430902F3
:10246000EDB20D435D6190220421FF25D2059162FA
:102470005A692D022A407F4902435A618C46002244
:10248000C0466146096901308908B9545969C0B22A
:10249000294001320143D2B259619642F0D29023D1
:1024A0000421DB0599616272704B1B6819889A7A66
:1024B00052181A80D822DA70D6E15A690902D2B2CB
:1024C00011435961CFE7237AA2786020B8E76948C1
:1024D000DB0945699A06AD05AD0D120C2A43C026ED
:1024E00090254261ED05F600DB006A693340624EDB
:1024F0006768324013436B61237AA27800935C4B88
:102500005E690196802631436E46367909020E4394
:1025100004215E61FF26A9620339A9625969360266
:102520003140114359610021C046C046C046C046F3
:1025300005690132AD087D545D69D2B2354015435D
:102540005D610131009DC9B28D42EDD2902304221C
:10255000DB059A61033A9A616172A5E780242643FC
:10256000360233B27D7A00933B7AECB2AB4207D2AB
:102570007C72F4233A88FB70BB7A9B183B8094E111
:10258000AA213E48FFF7BCFA55213D48FFF7B8FAAB
:10259000A0213A48FFF7B4FA009BEEB21E437B68D5
:1025A000B6B2195D3000FFF7ABFAC0463000FFF756
:1025B00087FA04003000FFF783FA8442F5D1013531
:1025C000ADB2D1E7360233B27D7A00933B7AECB2FA
:1025D000AB42CDD3AA212B48FFF72AFA55212A482E
:1025E000FFF726FAA0212748FFF722FA009BEEB258
:1025F0001E437B68B6B2195D3000FFF719FAC0467A
:102600003000FFF741FA04003000FFF73DFA844242
:10261000F5D10135ADB2D9E70010024000200240EB
:10262000025C0040505C0040065C004000600040DE
:1026300004600040066000404C5C00402032000016
:10264000005C004000E100E00080FFFF585C0040BB
:10265000DA04002098040020440400203004002004
:10266000580400206C04002024070020800400206F
:102670000008004800040048FFF90000555500001C
:10268000AA2A000055150000AA0A00008C4CDB099C
:1026900061699A068905890D120C0A439025C021AB
:1026A0006261ED05C900DB006A690B4085490A409B
:1026B00013436B617B7A00936B461B880193402325
:1026C000AB62C046C046C046C046C046C046C046D3
:1026D000C046AA217C48FFF76BF955217B48FFF7DC
:1026E00067F920217848FFF763F980231E433602FB
:1026F00033B205933B7A019A934213D26B461B780F
:1027000090217B720020FFF753F900210800FFF7AA
:102710004FF9F0210020FFF74BF990234022DB0511
:102720009A6126E722686A4B134323606369694A0A
:102730001340A02292001343636108220123AA627E
:10274000AB62C046C046C046C046AA61AB612368C2
:10275000614A059E13402360009B009A1E437B68DC
:10276000B6B2995C3000FFF723F94023AB61C04655
:10277000C046C046C046C046C046C046C046C04629
:102780003000FFF73DF940230290AB62C046C046DF
:10279000C046C046C046C046C046C0467B68009A98
:1027A000985C029B83421AD04023AB61C046C0466E
:1027B000C046C046C046C046C046C046039330002F
:1027C000FFF71EF9029B984220D1039BAB62C046E3
:1027D000C046C046C046C046C046C046C0467B68EC
:1027E000009A9B5C834236D113000133DBB2009325
:1027F000019B226801339BB2019304239A43226018
:10280000E2681343E360049BA36273E7039BAB623C
:10281000C046C046C046C046C046C046C046C04688
:10282000C046C046C046C046C046C046C046C04678
:10283000C046C046C046C046039BAB61C046C046CA
:10284000C046C046C046C046C046C0463000FFF73E
:10285000D7F80290B3E70423226813432360049B54
:10286000A36147E7C323E3701C4B1C78F02C1CD1F9
:102870001B4D2F68FB78982B17D11A4B380019780D
:10288000FFF750FA00232860C370F87A3B881038AD
:10289000FC70DEB2042806D801F054F960FE94FE04
:1028A0006BFEF8FE6BFEC323FB700F4B1B78F02B07
:1028B00000D164E5832B00D061E5FFF7E9FB5EE51D
:1028C00000040048FFF90000AA0A000055050000B6
:1028D0005055050003FC0000AFAAFAFF9804002041
:1028E0008004002024070020DA040020F0B5174CF3
:1028F000050060690E02C0B23043606180269020FE
:102900007600C00549B28661002901DA01218162A1
:10291000FF26002061693602314011430C4F61618E
:10292000C04639690132890829546169D2B23140FF
:1029300001301143C0B261619842F1D990238022E5
:10294000DB0552009A62FF3A9A61F0BD0008004828
:10295000000400480000000000000000000000002B
:10296000F0B5474680B4061C081C000C102801D5A1
:10297000162700E004270007000F8046FF200140D3
:102980005468251C1D439C43F60313850AD5C04695
:10299000C046C046C046C046C046C0469480138369
:1029A000958002E0012000F081F801390AD4381C3A
:1029B00000F07CF8C046948013839580C046C046E2
:1029C0007600E2E7381C013800F070F89480138339
:1029D0009580042000F06AF8108A184001D0FF208A
:1029E00061E0C046C046C046C046C046C04694806E
:1029F0009580108A184055D001200226B04552D04B
:102A00000921168A1E40FCD1012000F04FF8948065
:102A1000C0469580C04603E0C046C046C046C0469A
:102A2000948095807600108A1840EFF30080400073
:102A3000C00F0643381C023800F038F894809580A7
:102A4000022000F033F80139EAD513859480012083
:102A500000F02CF813839580301C802102239940CC
:102A60000E401BD1002341085E4149085E414908E0
:102A70005E4149085E4149085E4149085E41490896
:102A80005E4149085E4149085E41760808D3400826
:102A9000FF21084048400002013004E00E2002E01F
:102AA000092000E0002080BCB846F0BD0138FDD10F
:102AB0007047C04603685A0003D45B005B08C01827
:102AC0007047802212061343F9E7C046F0B5574617
:102AD0004E46DE464546E0B5814683B09246002923
:102AE00025D04B1E9B46002701935B46FB18DC0F4D
:102AF000E4184B466410E5005E193000FFF7DAFF7A
:102B0000019B8046A3420BD0280008304844FFF7C1
:102B1000D1FFD04506D80138504509D2671CE4E7FB
:102B2000504505D9A74202D0631E9B46DDE700262B
:102B3000300003B03CBC90469946A246AB46F0BD7F
:102B4000012809D0022805D0002801D000207047B4
:102B50000248FCE70248FAE70248F8E76132000859
:102B6000793200086D32000830B5234B83B0050080
:102B70008C1E002B2AD001A9200000E000BF0028F5
:102B800020D001992200FFF7A1FF041E1AD0FFF701
:102B900091FF6368A864012B10D0201D002B1BDB64
:102BA000FFF788FF0023E8642B650368002B17DB21
:102BB000FFF780FF2861002003B030BD002305200F
:102BC0002B61F9E7002309202B61F5E70B480C493D
:102BD000091AC9100191D5E70123E8642B65E4E7E0
:102BE0001801000FFFF7ACFF2861002801D1093060
:102BF000E2E70020E0E7C046000000005C3C00087F
:102C00002C3D0008036810B50400DA0705D49B07C3
:102C10000FD5483000F084FC23685A070FD51A07F7
:102C200014D5DB0604D42000D130FF3000F084FC42
:102C300010BD483000F070FC23685A07EFD4200024
:102C4000D03000F071FC23681A07EAD4200051301C
:102C5000FF3000F06DFC2368E3E7C0460368002BFB
:102C600000D01B1818007047092070477047C046F5
:102C700070B504000D0008E02B6C2A006361210090
:102C8000012023699847082807D1296C2000FFF705
:102C90006BFF0028F0D000F09FFE0728FBD100203A
:102CA000296CFFF7E3FF281D00F020FCF0B5CE46AD
:102CB000474680B5C368324C9846A54483690600F0
:102CC00014000431402205A8994600F08DFE00232F
:102CD00004AD296C30000493FFF746FF631E9C414E
:102CE00007000934002F15D0AB6B10216B644B46E5
:102CF00021430193C9B20095330032000120C0473F
:102D0000002833D13800F5239B009D440CBC90462D
:102D10009946F0BDF0222B6C5200736129007CA80B
:102D200000F062FE7CAA31003369200098478A9B3C
:102D300007006B6403934B46009501933200330008
:102D400021000120C047002810D1F0227CA95200A8
:102D5000280000F049FE082F06D1296C3000FFF74B
:102D600003FF09240700BDE7072F01D00927C9E7A2
:102D70000020296CFFF77AFF05A800F0B7FBC046DA
:102D80002CFCFFFF406C704770B5CB6BFAB00B6446
:102D900004000E004022043103A800F025FE0123A8
:102DA0005B42029306E002AA2100236998470500CE
:102DB00008280AD1129B200019000193FFF7D4FEC6
:102DC0000028F0D009207AB070BD02A8FFF71AFFE2
:102DD000062DF7D131002000FFF74AFF10B58261C0
:102DE000DA6BC1601A6419000022FFF75FFF10BDA3
:102DF000436970B50B64C36804000D00002B04D058
:102E00000122FFF753FF00F0E7FD0A0023690100EC
:102E100002209847072807D0082803D1290020005E
:102E2000FFF726FF00F0D8FD0020296CFFF71EFFFA
:102E3000281D00F05BFBC046C36810B5002B05D011
:102E4000CB6B00220B64FFF731FF10BDFFF79CFF37
:102E5000FBE7C0467047C046836810B5002B02D020
:102E600001000120984710BD10B5012907D00029A5
:102E700007D003390224012901D9200010BD012403
:102E8000FBE70224002BF8D10F2AF6D89200821813
:102E90005268029B00241A60EFE7C04600B585B077
:102EA00003AB0A00009300210023FFF7DDFF039826
:102EB00005B000BD10B5012907D0002907D003399E
:102EC0000224012901D9200010BD0124FBE70224BE
:102ED000002BF8D10F2AF6D8029B92001B688218AB
:102EE00053600024EFE7C04600B585B003AB039202
:102EF00000930A0000230021FFF7DCFF05B000BDAE
:102F000070B51A4CD36BA544136406000D0019A8C4
:102F1000111D402200F068FD01235B42189314E06C
:102F20000C2118A802AAFFF7DFFF290018A8B04754
:102F3000002812D1069B18AA02A9083001939847CD
:102F4000040005280AD0092807D0289B02A81900E8
:102F50000193FFF709FE0028E2D0092418A8FFF723
:102F600051FE200090239B009D4470BDC0FDFFFFDB
:102F7000F0B5DE464E464546574693460322E0B539
:102F80001E0013008BB003400193CB6C0D001C1D81
:102F90001B6808940793002E66D11B02079306ABAB
:102FA0005E731A73019B022B00D16EE02B6DDB0761
:102FB00047D40023A846B246029308330340039344
:102FC0002568002D00D137E15346022B49D02588D2
:102FD000668804340123370099469F4343469B6C1F
:102FE0000F219C4658466744FFF758FF002287424E
:102FF00006D82A004B469A43D719B842804142422C
:1030000002230121760033400D402B43012B3ED09B
:10301000002B5AD0022B1CD1236801995F007F0836
:10302000002965D1002A06D0039A002A00D188E041
:10303000002F00D1AAE0002B65DB0137BF00E419A7
:10304000BEE700230293022E47DDFFF70DFE0028A6
:1030500049D009200BB03CBC90469946A246AB46ED
:10306000F0BD66680834B5E7022E9BDC1A0C1B0421
:103070000793022306A90B73FD3313409B00E4184A
:10308000019B4A73022B00D090E7AC6B8EE7019B4B
:10309000002B3AD1002A16D02368DD0F63689A1CF2
:1030A000D7D0424658320692013300D1C6E0201DE7
:1030B000FFF7D4FD06AB01002A00404600E000BF48
:1030C000002800D0A7E008347AE7019B002B02D04B
:1030D000002A00D08BE0043472E707A9584600F0BC
:1030E000D1FA0028B5D1029B002B5DD10820B1E7B1
:1030F00043460D2158461D6AFFF7D0FE854263D036
:103100002368002B99DA043497E743460D2158468B
:103110001D6AFFF7C3FE8542D5D143469B6A9C4298
:10312000D1D145462000FFF7C5FC0F2102005846CB
:10313000FFF7DAFE58462A000021FFF7D5FE0720E8
:1031400088E7002F22D058235146434406AABA46A6
:10315000251D0026049405911F00914603E00435C7
:103160002600A24514D028000697FFF777FD4B46AE
:10317000010000224046741C00E000BF0028EED091
:103180005746059B049C9A46B742B9D1454601E093
:103190004546049C0D215846FFF780FE069B286299
:1031A0006B62AC62062055E70F215846FFF776FEAA
:1031B0000E2102005846FFF797FE5846274A0F2176
:1031C000FFF792FE072045E743469B6A9C4297D152
:1031D000434642469F620023D36204331363231D98
:1031E00053632368002B32DB0123029325E7200081
:1031F000FFF760FC454604340600AC63404600E03F
:1032000000BF002800D124E7584632000F21FFF705
:103210006BFE07201EE707000D2158464546FFF7C5
:103220003DFE2862022F0FD1069BEB6243462C33F2
:103230006B62AC6206200DE7564604E70D21584646
:103240004546FFF72BFE2862069B6B62F1E73800CC
:10325000013080004546201865E7C04600000000A8
:1032600010B50023FFF784FE10BDC04610B5012342
:10327000FFF77EFE10BDC04610B50223FFF778FEB3
:1032800010BDC046F0B5CE46474680B50600C3B077
:1032900014001D0001294ED0002933D003290AD083
:1032A000042902D1002B00D189E0022043B00CBCDC
:1032B00090469946F0BD032BF7D11404150C240C4D
:1032C0002B19102BF1D8082203681A4200D0E7E02E
:1032D00020AB1800984600F02DF9B36BED001A00F2
:1032E000002C09D0E400EA1A1C1942441968D15094
:1032F00004339C42FAD12200B263404600F018F930
:103300000020D3E70220002BD0D100230127100496
:10331000B56B000C321D39009940084202D0296873
:103320000435116001330432102BF4D10020A304C2
:10333000BCD4B563BAE71404170C240C012B5FD07E
:10334000052BB2D13B19202BAFD80F2F7DD9A14629
:10335000002C65D1002223009146B16B002B00DCCC
:1033600088E020A88046FA00DB00521ACB184244BD
:103370000868505004318B42FAD119004B46002B9B
:1033800010D04B4658003A00102F00D210220023D4
:10339000103AD2006A448000CC58D450043383429F
:1033A000FAD1C918012D5ED0B1630F2F74D94B46E5
:1033B000002BA5D0684600F0B7F8002076E7102A69
:1033C00000D972E7102203681A4245D120AB1800D9
:1033D000984600F0B3F800230120B16B02009A4038
:1033E000144204D045460F689A00AF5004310133AF
:1033F000042BF3D14046B16300F09EF8002055E75E
:103400003B19102B00D950E70F2F00D94DE70023AF
:103410009946012233681A4230D14B46002B5AD0CC
:10342000042233681A4242D1012D47D00F2F06D80B
:1034300020AB180000F076F84B46002B8AD0684687
:1034400000F074F81023DB1B87E7102BDFD9102264
:10345000524291469944DCE793430360D130FF30F8
:1034600000F06CF8B2E7043120A8B16300F054F822
:1034700000201BE74B46002B84D193E719009143B2
:103480000A003160052D1ED00322300093433360C3
:10349000483000F043F8C0E720A800F041F886E784
:1034A000934303605130FF3000F044F810E73000E0
:1034B00093433360D03000F039F8B5E720AB180003
:1034C00000F02CF8BEE7022330001A433260483087
:1034D00000F028F8A1E7012D03D00F2F00D939E71C
:1034E000A6E720AB180000F019F833E7011C3431CF
:1034F00038C9043B9C461D60A646011C20313CC9CE
:1035000090469946A246AB46011C0831FCC9416869
:103510000068E54600BDC0467047C0467047C046DB
:103520007047C0467047C0467047C0467047C046A7
:103530007047C0467047C0467047C0467047C04697
:1035400001B401A801B585B0FFB408A841464A46B8
:1035500053465C4665463EC001A83EC80F980090A1
:1035600000230CB401A9FFF70FFC109B12B0184701
:1035700001B401A801B585B0FFB408A841464A4688
:1035800053465C4665463EC001A83EC80F98009071
:1035900000230CB401A9FFF72BFC109B12B01847B5
:1035A00001B401A801B585B0FFB408A841464A4658
:1035B00053465C4665463EC001A83EC80F98009041
:1035C00000230CB401A9FFF737FC109B12B0184779
:1035D00001B401A801B585B0FFB408A841464A4628
:1035E00053465C4665463EC001A83EC80F98009011
:1035F00000230CB401ABFFF7F1FB109B12B018478E
:1036000001B401A801B585B0FFB408A841464A46F7
:1036100053465C4665463EC001A83EC80F980090E0
:1036200000230CB401AAFFF76BFC109B12B01847E3
:10363000027A0300002A04D1427AB020002A07D17E
:103640007047013A02720268100E12021A60F7E720
:10365000013A5A725A68111D596003211268197291
:10366000F2E7C04600B585B003AB00930C220023FF
:103670000021FFF7F9FB039805B000BD10B5FFF777
:10368000F1FF10BDF0B557464E464546DE460023D5
:10369000E0B587B003930F339846083B99468023E3
:1036A0001B0306000F009A463800FFF7C1FF040015
:1036B000B02821D0030632D4FF2583001D4005AB7E
:1036C0009B4600930D220023002130000435FFF7B4
:1036D000CBFB63064CD5059B5D1B05955B460093B4
:1036E00000230D2200213000FFF7E4FB3800FFF734
:1036F0009FFF0400B028DDD1039B0024002B2FD1B5
:1037000005AD00950E2200213000FFF7ADFB0095BE
:1037100000230F2200213000FFF7CCFB20E0030044
:1037200042469343DBB2802B63D0902B25D0A02B55
:1037300032D0B02B45D0C02B00D173E003004A46F5
:103740009343DBB2D02B0AD15346024001321A43D5
:10375000052301213000FFF795FD0028A4D009249E
:10376000200007B03CBC90469946A246AB46F0BD4F
:10377000059B9C4665440595B0E7833B03400D2BB4
:10378000EDD0424605AD02400095002300213000F7
:10379000FFF76AFB0095A3E7FF234A461B011900C8
:1037A000824311410A001A40030702D58023DB013E
:1037B0001A43002300213000FFF764FD0028CED11A
:1037C00072E7B1284AD0B2285ED0B32800D18BE08E
:1037D000FC230340B42BC2D04A4653460240013278
:1037E0001A43012101233000FFF74CFD0028B6D118
:1037F0005AE704023800FFF71BFF802520432D0203
:10380000A842ACD004010005020C002300213000C6
:10381000FFF738FD0028A2D12C4200D144E7012354
:10382000039341E7C6286AD0C7287CD003004A46E4
:103830009343DBB2C02B00D18BE0C82800D18FE0CE
:10384000C92800D08BE73800FFF7F2FEF02302030F
:103850001B03134042460240013278E73800FFF76D
:10386000E7FE002800D17AE7030042469343DBB22B
:10387000002B00D073E7020000213000FFF702FDAB
:10388000002800D06BE70FE705AB00939B460D22A5
:10389000002300213000FFF7E7FA3800FFF7C8FEE9
:1038A00003066AD57F25B03C059B2840A0409C4676
:1038B0006044059038000734FFF7BAFE0306F3D4DE
:1038C000812292009446863AFF3A1040A040059B20
:1038D000723A634418185B46059000930021002358
:1038E0003000FFF7E7FADFE63800FFF7A1FEF0232C
:1038F00002031B03134042460240013270E73800C6
:10390000FFF796FEF02302031B03134042460240DA
:1039100001321A43032303213000FFF7B3FC0028D0
:1039200000D01CE7C0E63800FFF782FE002800D177
:1039300015E7030042469343DBB2002B00D00EE7AD
:10394000020004213000FFF79DFC002800D006E7AC
:10395000AAE64346A0221C40013412032243D9E7C1
:103960003800FFF765FE434602009A43D2B2103298
:103970001840120301300243EAE60224A0E7C046E1
:10398000030000B5DB6C85B05A6808001202019292
:103990001A0001A908324A6003220A72DB794B72CD
:1039A000FFF770FE05B000BD10B5FFF767FE806C35
:1039B00010BDC04610B5FFF761FEC26CD3799B0005
:1039C0000833D01810BDC04610B500F005F8C04649
:1039D00010B5FFF7F9FFC04610B5062000F074F8E7
:1039E000012000F0A3F8C046F0B505000F2A2FD93A
:1039F0000B0003439B0734D116000C000300103E5C
:103A0000350901352D01451927681F6067685F601A
:103A1000A7689F60E7681034DF6010339D42F3D1E0
:103A20000F239E431036851989191340032B1AD989
:103A30001E1F0023B4080134A400CF58EF500433F4
:103A4000A342FAD10324A643331D2240C918ED181E
:103A5000002A05D00023CC5CEC5401339342FAD108
:103A6000F0BD0500F6E71A00F2E7C04670B50500A4
:103A70000C001F2922D8B7239B00C358002B14D059
:103A80008A009B181A68002A0FD0012A0BD0511CFB
:103A900005D00021200019609047002070BD16233A
:103AA00003600120FAE70020F8E7280000F02AF878
:103AB00022000100280000F011F8EFE71623036050
:103AC00001204042EAE7C04610B5034B01001868E8
:103AD000FFF7CCFF10BDC04600000020002370B5EA
:103AE000074C050008001100236000F017F8431C84
:103AF00000D070BD2368002BFBD02B60F9E7C046D7
:103B00002807002010B500F001F810BD5822012050
:103B1000014B40421A6070472807002058220120BC
:103B2000014B40421A60704728070020FEE7C0465C
:103B300002B4714649084900095C49008E4402BC40
:103B40007047C04603B47146490840004900095E09
:103B500049008E4403BC704703B4714649084000D5
:103B60004900095A49008E4403BC7047F8B5C04665
:103B7000F8B5C046090212000101008032090400B4
:103B800000000000000012010002FF000008C01643
:103B9000DC05000201020001040309042A034900B4
:103BA0006E00660069006E006900740065004E00DA
:103BB000650073004C0069007600650073002E00FC
:103BC00063006F006D0000000000000000000000B6
:103BD00000000000000000000000000000000000E5
:103BE00000000000000000000000000000000000D5
:103BF0001E0349004E004C00200052006500740076
:103C000072006F002D00500072006F00670000000E
:103C100000000000000000000000000000000000A4
:0C3C200000000000000000000000000098
:103C2C0074B20181B0AB308000000000800A0181C9
:103C3C00B0B0ABF0000000003F020181B0AB3080AF
:103C4C000000000080060181B0B0ABF00000000065
:103C5C0004EDFF7FB0B0B08050EEFF7F010000009C
:103C6C00FCEEFF7FB0A9028090EFFF7FB0B0A88080
:103C7C00E0EFFF7F01000000ECEFFF7FB0B0AA8007
:103C8C0020F0FF7F9CFFFF7FF0F0FF7F0100000022
:103C9C00ECF0FF7FAA3F398038F1FF7FB0B0A880ED
:103CAC0044F1FF7FB0B0AA8084F1FF7FB0B0A88050
:103CBC0098F1FF7F0100000094F1FF7FB0B0A88065
:103CCC009CF1FF7F010000002CF2FF7FAA0FB28055
:103CDC0094F2FF7F58FFFF7F7CF5FF7FB0B0A88088
:103CEC0098F5FF7F54FFFF7FF8F7FF7F010000007E
:103CFC0068F9FF7F0084048078F9FF7FB0B0A8805A
:103D0C0078F9FF7F40FFFF7F6CFCFF7F008404800D
:103D1C008CFCFF7FB0B0A880A4FCFF7F01000000EA
:103D2C00080000200000000000000000F402002049
:103D3C005C030020C4030020000000000000000011
:103D4C000000000000000000000000000000000067
:103D5C000000000000000000000000000000000057
:103D6C000000000000000000000000000000000047
:103D7C000000000000000000000000000000000037
:103D8C000000000000000000000000000000000027
:103D9C000000000000000000000000000000000017
:103DAC000000000000000000000000000000000007
:103DBC0000000000000000000000000000000000F7
:103DCC0000000000000000000000000000000000E7
:103DDC0001000000000000000E33CDAB34126DE684
:103DEC00ECDE05000B0000000000000000000000ED
:103DFC0000000000000000000000000000000000B7
:103E0C0000000000000000000000000000000000A6
:103E1C000000000000000000000000000000000096
:103E2C000000000000000000000000000000000086
:04000005080000C12E
:00000001FF
