:020000040800F2
:1000000000180020C1000008FD000008C92E0008EB
:1000100000000000000000000000000000000000E0
:10002000000000000000000000000000FD000008CB
:100030000000000000000000FD000008FD000008B6
:10004000FD000008FD000008FD000008FD0000089C
:10005000FD000008FD000008FD000008FD0000088C
:10006000FD000008FD000008FD000008FD0000087C
:10007000FD000008FD000008FD000008FD0000086C
:10008000FD000008FD000008FD000008FD0000085C
:10009000FD000008FD000008FD000008FD0000084C
:1000A000FD000008FD000008FD000008FD0000083C
:1000B000FD000008FD000008FD0000080101000827
:1000C00009490A4A0A4B9B1A03DD043BC858D05021
:1000D000FBDC0849084A0020521A02DD043A885025
:1000E000FCDC01F0F7FE00002C47000800000020B7
:1000F00030040020300400202C070020FEE7C0461A
:10010000F0B5C94A89B0138801921BB2002B01DBFC
:1001100001F0D6FB1388C54A1A4080231343019A85
:100120001380019B1A8880231B011340C04A01D110
:1001300001F094FBBF49C04C0B68C04801330B6011
:1001400023787F211D008D43BD49BE4E0D70E1888F
:10015000018000203080602633401370BA4A2600A8
:100160001570834247D0FF23B84CCAB22370B84BF6
:1001700060701C60029270780138082801D901F083
:100180001BFB04F0E9F909003B06DC077B08C40906
:10019000190B040BA6087D09B078B3888C221928A6
:1001A00024D88022D20004F0D7F91A00560080012A
:1001B00060023F03C8035B04170533053F0547058D
:1001C0004F05580561056F0577057F0587058C0587
:1001D000A005B605D705EC05030610033303B023CD
:1001E0009C4A5B0351690B435361002222706A46AB
:1001F000994B12891A803378602259B2002901DBA9
:1002000001F0FDFA134016D17278062A0FD17288D8
:10021000110A022901D101F0D1FA032901D101F01B
:10022000D3FA8E4A012901D101F0C9FA03936A4633
:10023000894B92891A80019B1A88894B1343894AFA
:100240001A40C0239B015340019A9BB2138002F0D5
:10025000DDFD01F0F5FA152B01D900F0C0FD180005
:100260008023DB0004F078F9160023002E00BB0584
:10027000390044004F00BB055C006900730080003A
:10028000BB05BB058D009A00A500B200BF00CC00E5
:10029000D60016019022D205136873490B401360F3
:1002A0008023D1685B030B43D36000229EE790213B
:1002B0000123C9050A689A430A60CA681343CB60E0
:1002C000002293E790210423C9050A689A430A6033
:1002D000CA681343CB60002288E790211023C90528
:1002E0000A689A430A60CA681343CB6000227DE71C
:1002F00090214023C9050A689A430A60CA681343DB
:10030000CB60002272E79022D205136857490B4058
:1003100013608023D168DB040B43D360002265E7C0
:100320009022D205136852490B4013608023D16894
:100330005B010B43D360002258E704234D490A6850
:100340009A430A60CA681343CB6000224EE79022AA
:10035000D205136848490B4013608023D168DB0540
:100360000B43D360002241E79022D2051368434932
:100370000B4013608023D168DB020B43D360002263
:1003800034E79022D20513683D490B401360802367
:10039000D1685B000B43D360002227E79022D2058F
:1003A0001168384801401160D1680B43D3600022C6
:1003B0001CE79022D205136833490B401360802359
:1003C000D168DB010B43D36000220FE79022D205F6
:1003D000136826490B4013608023D168DB040B436C
:1003E000D360002202E79022D205136827490B4010
:1003F00013608023D1685B050B43D3600022F5E6D0
:1004000001231C490A689A430A60CA681343CB60F7
:100410000022EBE610231E490A689A430A60CA6864
:100420001343CB600022E1E6005C00408F0F000028
:10043000EE0600208C04002048600040920400205A
:10044000EC06002096040020ED060020F0060020B7
:100450002007002000100240940400208645000878
:100460008081FFFF8FBFFFFFFFFFEFFFFFFFFFFB5D
:10047000FFEFFFFF00040048FFFFFFBFFFFFFBFF90
:10048000FFFEFFFFFFFBFFFFFFBFFFFFFFFFFFEFD1
:10049000000C00489021C9050A68D24802400A6051
:1004A000CA681343CB600022A0E6152B01D900F0E7
:1004B00099FC180004F050F8160021002C00960456
:1004C000370042004D009604580063006D0078002C
:1004D0009604960483008E009900A400AF00BA0031
:1004E000C400CE009023DB051968BF4801401960A5
:1004F000DA680240DA60002278E690230121DB0509
:100500001A688A431A60DA688A43DA6000226DE664
:1005100090230421DB051A688A431A60DA688A434B
:10052000DA60002262E690231021DB051A688A4314
:100530001A60DA688A43DA60002257E69023402185
:10054000DB051A688A431A60DA688A43DA60002297
:100550004CE69023DB051968A44801401960DA686D
:100560000240DA60002241E69023DB051968A048CA
:1005700001401960DA680240DA60002236E60421A0
:100580009C4B1A688A431A60DA688A43DA60002250
:100590002CE69023DB051968974801401960DA685A
:1005A0000240DA60002221E69023DB0519689348B7
:1005B00001401960DA680240DA60002216E69023F2
:1005C000DB0519688E4801401960DA680240DA607C
:1005D00000220BE69023DB05196882480140196070
:1005E000DA680240DA60002200E69023DB05196831
:1005F000844801401960DA680240DA600022F5E5BB
:100600009023DB051968794801401960DA680240D7
:10061000DA600022EAE59023DB0519687A48014098
:100620001960DA680240DA600022DFE50121714BCF
:100630001A688A431A60DA688A43DA600022D5E5CC
:100640001021724B1A688A431A60DA688A43DA60AA
:100650000022CBE59023DB05196862480140196050
:10066000DA680240DA600022C0E5152B00D9BCE34D
:10067000180003F071FF16001F002700BA032F00B7
:1006800037003F00BA034800510058006100BA0328
:10069000BA036A0073007A0083008C0095009C0006
:1006A000A30090228023D20511685B030B431360E3
:1006B00000229BE590220123D20511680B431360B1
:1006C000002293E590220423D20511680B431360A6
:1006D00000228BE590221023D20511680B43136092
:1006E000002283E590224023D20511680B4313605A
:1006F00000227BE590228023D2051168DB040B43A6
:100700001360002272E590228023D20511685B01FC
:100710000B431360002269E50423364A11680B433A
:100720001360002262E590228023D2051168DB0568
:100730000B431360002259E590228023D2051168F3
:10074000DB020B431360002250E590228023D20588
:1007500011685B000B431360002247E59021C90537
:100760000B681A430A60002240E590228023D205DC
:100770001168DB010B431360002237E590228023D0
:10078000D2051168DB040B43136000222EE5902292
:100790008023D20511685B050B431360002225E519
:1007A0000123144A11680B43136000221EE5102335
:1007B000164A11680B431360002217E59021C90502
:1007C0000B681A430A60002210E58D22082B00D026
:1007D0000CE59022D205516838330B435360002258
:1007E00004E5C046FFFBFFFFFFFFEFFFFFFFFFFB3E
:1007F000FFEFFFFF00040048FFFFFFBFFFFFFBFF0D
:10080000FFFEFFFFFFBFFFFFFFFFFFEF000C0048F1
:100810008D22082B00D0E9E490224021D2055368B4
:100820008B4353600022E1E4152B00D9E0E218006D
:1008300003F092FE16001B002100DE0227002D00AF
:100840003300DE023A00400045004C00DE02DE02CA
:10085000530059005F0065006C00730078007D0054
:100860009023DB059A620022C0E490230122DB057D
:100870009A620022BAE490230222DB059A620022E7
:10088000B4E490230422DB059A620022AEE49023B4
:100890000822DB059A620022A8E4802290239201BC
:1008A000DB059A620022A1E490234022DB059A62D4
:1008B00000229BE40222D14B9A62002296E480221D
:1008C00090231202DB059A6200228FE4802290239B
:1008D0009200DB059A62002288E490231022DB0557
:1008E0009A62002282E490232022DB059A62002291
:1008F0007CE490238022DB059A62002276E4802249
:1009000090239201DB059A6200226FE480229023FB
:10091000D201DB059A62002268E40122B74B9A6299
:10092000002263E40422B64B9A6200225EE4902324
:100930002022DB059A62002258E4152B00D95AE2E6
:10094000180003F009FE16001B00210058022700C2
:100950002D00330058023A00400045004D00580277
:10096000580255005C0063006A0072007A00800043
:1009700086009023DB059A61002237E49023012250
:10098000DB059A61002231E490230222DB059A61A3
:1009900000222BE490230422DB059A61002225E447
:1009A00090230822DB059A6100221FE48022902315
:1009B0009201DB059A61002218E490234022DB05B6
:1009C0009A61002212E402228C4B9A6100220DE40B
:1009D000802290231202DB059A610022FFF706FCB9
:1009E000802290239200DB059A610022FFF7FEFB34
:1009F00090231022DB059A610022FFF7F7FB90237A
:100A00002022DB059A610022FFF7F0FB9023802271
:100A1000DB059A610022FFF7E9FB80229023920117
:100A2000DB059A610022FFF7E1FB80229023D201CF
:100A3000DB059A610022FFF7D9FB01226F4B9A6117
:100A40000022FFF7D3FB04226D4B9A610022FFF7CF
:100A5000CDFB90232022DB059A610022FFF7C6FB25
:100A600002226270152B00D9B1E0180003F060FD7E
:100A70000B151EAF273039AF434C545DAFAF6770D5
:100A800079828C969EA690238022DB051B69D2007A
:100A9000134063800022FFF7A9FB90230122DB05AE
:100AA0001B69134063800022FFF7A0FB9023022202
:100AB000DB051B69134063800022FFF797FB90233F
:100AC0000422DB051B69134063800022FFF78EFBC5
:100AD00090230822DB051B69134063800022FFF787
:100AE00085FB90238022DB051B6992011340638004
:100AF0000022FFF77BFB90234022DB051B6913409C
:100B000063800022FFF772FB02223C4B1B691340FB
:100B100063800022FFF76AFB9023DB051B6900223C
:100B2000DB0BDB036380FFF761FB90238022DB0597
:100B30001B699200134063800022FFF757FB90234C
:100B40001022DB051B69134063800022FFF74EFB78
:100B500090232022DB051B69134063800022FFF7EE
:100B600045FB90238022DB051B6913406380002234
:100B7000FFF73CFB90238022DB051B6992011340A9
:100B800063800022FFF732FB90238022DB051B6984
:100B9000D201134063800022FFF728FB0122174B8C
:100BA0001B69134063800022FFF720FB0422144BD3
:100BB0001B69134063800022FFF718FB902320225B
:100BC000DB051B69134063800022FFF70FFB002346
:100BD0008D226370FFF70AFB80230A4ADB0251690A
:100BE0000B435361054A084913680B401360D168F1
:100BF000064B0B43D3600022FFF7F8FA00040048CD
:100C0000000C004800100240FFFFAAAA0000555542
:100C1000D34AD44913680B401360D168D24B0B43BD
:100C2000D3600022FFF7E2FACD4ACE4913680B40A9
:100C300013600022FFF7DAFAC94ACB4B11680B4365
:100C400013600022FFF7D2FAC5491B024A69D2B2EB
:100C500013434B610022FFF7C9FAC14B00221B6905
:100C60001B0AA37001236370FFF7C0FA8023BF4AF9
:100C70001B0351690B435361BD4ABE4B11680B43C3
:100C800013600022FFF7B2FAB94ABA4BD1680B439E
:100C9000D3600022FFF7AAFAB54AB74913680B40A0
:100CA00013600022FFF7A2FAB14AB24B11680B435E
:100CB00013600022FFF79AFAAD4A53610022FFF752
:100CC00095FA8023A94A1B0351690B435361A44A37
:100CD000AA4B11680B4313609022D2051168A84BF0
:100CE0000B4313600022FFF781FA9D4AA34BD168A2
:100CF0000B43D3609023DB05D868A1490143D96039
:100D00001168A048014011601A689F490A401A60A2
:100D10000022FFF76BFAF8228027914D980269694B
:100D2000D20110403F025A023A4089051043890D12
:100D300008439021686110205D08C90528404A6970
:100D4000924DDB012A4002438020C001034013433F
:100D50004B610022FFF74AFAC023844ADB02516943
:100D60000B4353617E4A8A4B11680B4313609022F8
:100D7000A023D20511685B030B4313600022FFF729
:100D800035FA774A824BD1680B43D3609023A02178
:100D9000DB05D86849030143D96011687D480140EB
:100DA00011601A687C490A401A600022FFF71EFA97
:100DB000FF216B489D0042692940784DDB002A40A5
:100DC0000A4342619022C020D205C000516903400D
:100DD000734801400B4353610022FFF707FA8D224D
:100DE000FFF704FA8D22FFF701FA8D22FFF7FEF9D3
:100DF0008D22FFF7FBF98D22FFF7F8F9B578B3885C
:100E0000022D00D1D2E005D8002D60D0012D64D094
:100E100096255EE0042D00D15DE100D219E1802D20
:100E2000F6D19023012740218025DB056770996268
:100E30001A686D012A431A60C0465A481C691A682C
:100E40000C4002401A60DA680240DA60F022002C9E
:100E50003AD11A6802401A60DA681543DD601A69EF
:100E600094461A690A400492C0461A690592C0461F
:100E7000C0461A690692C046C046C0461A69079223
:100E8000C046C046C046C0461D691A6802401A6086
:100E9000DA681040D860634622000B4214D1049BEC
:100EA0003A00002B10D1059B02320B420CD1069B5D
:100EB00003320B4208D10B0007990432194203D1C7
:100EC00005321D4200D1D132374B9A7001E100F05A
:100ED0005DFF354B1D70FFF78AF900F057FF902337
:100EE000DB051A681F4C2A431A6080229D6119682D
:100EF00052030A431A6080220421D2009A621A68BF
:100F000000250A431A6002229A6118680E320243D1
:100F10001A604022996119680A431A6008229A618E
:100F200080231249DB024A6913434B610C4B1A6858
:100F300022401A60D8680C4A1043D86018682040D4
:100F40001860D8680243DA6080234A691B031343A0
:100F50004B61074B074A19680A431A605D61B8E79D
:100F600000040048FFFFAAAA0000555500100240E7
:100F70000008004855555555AAAAAAAA0000505580
:100F800000010010FFFFAFAAFFFEFFEFEFBF000060
:100F900050550000AFAAFFFFFFFFEBFF03FF00006B
:100FA000FFF90000FFEFFFFFF006002000F0EEFE6B
:100FB00090230121DB051A68CE4D0A431A601022E6
:100FC000996119680A431A60042240219A611A68DB
:100FD0000A431A6008229A618022996119685201B5
:100FE0000A431A608022C449D202486902434A6116
:100FF000C24A106828401060D468C1480443D460D5
:1010000014682C401460D4682043D06080204C6960
:10101000000320434861BB48BB4C05682C430025B6
:1010200004604561C0204C69C002204348611068DB
:10103000B64901431160A0211868490301431960B2
:10104000B3485169014051615A69B2490A405A6135
:101050003FE7DBB2022B1ED00025032B00D138E77F
:10106000012B6AD18022A4491203486902434A61D4
:10107000A44A116899431160D1681943D16051683D
:1010800019435160936111680B431360A24B1D70AB
:10109000A24B1A601DE7B023974A5B0351694020B9
:1010A0000B4353619023DB051A689D490A401A607F
:1010B0008022D96852011143D960596801435960AF
:1010C000986119680A4308211A60934A1170934A7B
:1010D00013600025FDE6DBB29825012B00D0F8E671
:1010E000902106220A208F4BC90519608E4B1A7079
:1010F000824B8E4A13608E4A10708E4A0130136004
:101100008D4A10708D4A013013608D4A1070802016
:10111000794A00035469204350611C688948204380
:1011200018600868884B03430B60B02351695B0368
:101130000B43536100F04EFDCBE79725C9E6B57828
:10114000F178B088052D2CD009D8012D22D0002DA2
:101150001BD0022D22D0042D26D0A02517E0822DF1
:1011600052D009D8802D23D0812DF6D10123637070
:1011700001F000FEA0700FE0832D4AD0842DECD149
:101180000123637001F0E8FFF4E701F013FE25701E
:10119000FFF72DF801F0FCFF0025F8E701F0B4FDA2
:1011A000FAE701F0B1FFF7E7002201F091FFF3E762
:1011B000012290236270DB051968594D294019609E
:1011C000D9682940D96080210225C90099629A61B5
:1011D0009D614C4D6861C046C04600B299610028CF
:1011E00000DA9A62C046C046C046C046C046C04605
:1011F00090228021414BD205C9001B6991620121D7
:101200001B0A9161A370C7E70123637001F0E8FF37
:10121000B0E701238022902080216370394B1201B6
:101220005A61C00502695D69C900EDB2294359617F
:1012300092B20369802110009BB2184389001025E7
:10124000084219D00B4018000A40411E8841110085
:101250004D1EA941C0B2C9B2002802D011250029F3
:101260000AD1002A02D11225002805D1002B02D173
:101270001325002900D1FF25A5708DE7B378B0882C
:10128000012B21D0002B03D0022B18D0AA2313E06E
:10129000FF221A4D870069693A401D4FC00039404E
:1012A0000A436A619021C025C905ED004A690540DD
:1012B000184802402A434A612370FEF798FFF178EC
:1012C00001F0C0FE0023F7E7637001F0E1FEA070BB
:1012D000F8E7B578F278B188112D00D1C9E035D89A
:1012E000012D00D198E0002D3CD0022D00D1A9E0C5
:1012F00082254CE7FFFFAAAA001002400004004824
:1013000000005555000800485555555550550000EA
:1013100003FF0000FFF90000FC060020F806002093
:10132000FFEFFFFF10070020140700200807002030
:101330000C070020180700201C07002000070020D1
:10134000040700200000505500010010212D00D19D
:1013500085E0222D00D188E0122DC9D10223102072
:10136000637089E001252900C44AC54F12783B68A3
:10137000914099625A6810208A435A6001F056FEE3
:101380002900BE4B3A681B78042799400B009161F5
:10139000516804950B435360FA20400001F046FE6B
:1013A000B64A04991278FA209140B54D40002B6856
:1013B000013F99625A68BFB28A435A6001F036FE13
:1013C000AE4B04991B782A6899400B0091615168D3
:1013D0000B435360002FDFD10425FA2001F026FED5
:1013E0000121A64AA64F12783B68914099625A683B
:1013F000FA208A435A6001F019FE01219F4B3A6896
:101400001B78013D99400B0091615168ADB20B43CF
:101410005360002DE1D1BAE62900984A984F12781E
:101420003B68914099625A6810208A435A6001F0E3
:10143000FDFD924A3B68127895409D615A681543BC
:101440005D60A9E601238D4A637012788D4993404F
:101450008B4A9BB21268002001F082FF8AE60123CA
:101460000020637001F032FD84E6012310206370D8
:10147000F8E702230020637001F082FD60808BE6B4
:10148000B378B288042B1AD006D8022B1CD021D8EE
:10149000012B0FD087230FE7072B24D003D8052B70
:1014A000F8D1794B14E0082B22D0802BF2D100F038
:1014B00091FB07E7754A1278A270637002E7744BDC
:1014C0001B78A3700123F8E7704B1A708322704BCE
:1014D0001A70F7E66D4B6E4D1A7083232B7000F077
:1014E000E9FB2B78EDE76B4B1A70120A5A70E9E6AC
:1014F000684B1A78A2705A78E2709A782271DA787A
:1015000062711A79A2715B79E3710623D5E7B2782B
:101510001300303B2F2B19D8F078032800D9EEE0C8
:1015200003F006F8140210125B4B512A00D177E049
:1015300024D8312A53D00BD8002A33D0302A49D0AE
:10154000B42345E0554BF0E7554BEEE7554BECE740
:10155000332A4ED048D3502AF2D1002222700632CC
:1015600062701A7AA270DA78E2705A7A22719A7AE4
:1015700062719A78A2715B7CE37145E07F2A00D9A1
:10158000A3E0702A5CD2602A36D0612A40D0522A69
:10159000D6D100221B882270A37002321B0A62700F
:1015A000E37031E0FF23404953540132102AFBD14C
:1015B000394A3C49D3709370394ACB70D3709370D9
:1015C00001228B703549CB708B70384B1A70002319
:1015D000237019E0B288110AD9721A73F7E7B2883A
:1015E000110A59739A73F2E7B288110AD9731A74FF
:1015F000EDE7B2885A74EAE7002323700133637081
:10160000B388294AD35CA370294B1C60FEF7EFFD19
:101610000023237001336370264B1B68DB78F2E7ED
:101620000022227006326270DA7AA2701A7BE270AF
:101630005A7B22719A7B6271DA7BA2711B7C9BE7D9
:10164000184B1C495C6833787F2B00D956E16846FB
:10165000194B007A18700868C378002B2ED0002030
:101660000290982B05D151E100200290D02B00D19F
:101670004CE10E4B10301870FF2324E0FC060020D4
:10168000F806002004000200D9040020B80400205D
:10169000DA040020B904002044040020580400208B
:1016A0006C04002030040020DB040020980400209B
:1016B0002007002080040020880400209F4B186031
:1016C0009023C3706F33029320E10720104003285A
:1016D00015D802F02DFF16021812994B802A93D3C9
:1016E000872A12D97032D2B2072A8DD800222270EE
:1016F000F2789A72B2881A8086E7924BEEE7B523A9
:1017000066E7914BEAE7914BE8E7B188F0780A0A7F
:10171000C9B245189446BE22102D2DDC0432002893
:101720002AD0DD78033AFF2D26D19D780132FF2D96
:1017300022D10022D5B2A84220D862464501013DFF
:101740001D724D012F009A700022814DDA70ED1943
:101750005A729A721A80DA721A735A739A73DA7317
:101760001A745A745D607B4B591863468B5401326E
:10177000D3B29842F9D80022227045E701328D1881
:10178000744F013D7D5DFF2DD4D0C122F4E7B278C6
:10179000002A04D0402A07D0D222227035E72270D6
:1017A000B1886D4A117030E70022227001326270F8
:1017B000694A1278A27028E780237DE5674A684B62
:1017C0001A601223FEF732FDD2B2012A11D0002A8C
:1017D00009D0022A01D0FEF729FD614B614A1A6047
:1017E000614BFEF723FD5E4B604A1A600423FEF74F
:1017F0001DFD5B4B5E4A1A605E4BFEF717FD134200
:1018000008D17378052B05D173885B4A13705B4A46
:10181000DBB21380019B5A4A1B8801991340594A35
:1018200013439BB20B800021574B1980019B1B88EF
:101830001A43564B1A40564B5A40019B92B21A809B
:10184000544BDA8F520507D58021534A118000226C
:10185000DA87524B019A138009B0F0BD1278402A02
:10186000EED14F4A1278002AEAD14E4A1088334A04
:10187000C0B211684D7A4E68DAB25419E4B290429F
:1018800018D84A7A82184A72474A13781B1ADBB270
:101890001370002B01D19833CB70019B1A88394B00
:1018A0001343424A1A40C0239B015340019A9BB202
:1018B0001380C5E73E4A9A18127801333255DBE7A8
:1018C000019B1B881B06BBD5019B3A4A1B88134012
:1018D000802212021343019A1380374B1B78802B0E
:1018E00001D1FEF7B4FC244A1378002BA8D0802144
:1018F0000B4329490B8000231370A1E70868C378C4
:10190000D82B00D0B0E680234468C3700B68002158
:101910005972DB78902B00D076E6712A00D073E6FE
:10192000064BB2881B6859680A70B2885968120A57
:101930004A705A7A02325A7266E6C046840400201F
:10194000440400206C0400203004002058040020CF
:10195000EC040020DB0400209804002074450008FB
:1019600020070020F04500081E03000098450008ED
:101970009C4500082A0300009004002050600040AD
:101980008F8EFFFF8080FFFF02600040BFBFFFFF20
:1019900030300000065C00404C5C0040203200000B
:1019A000ED06002006600040880400208FBFFFFF86
:1019B000486000400F8FFFFFEC060020F0B5404B61
:1019C0008BB0089119783F4B09921B7801900293D4
:1019D0003D4B019D1C683D4B3D481A7801231E007C
:1019E00096403C4AA662102D5ED112780068934062
:1019F000836201200200364B05901F68354B1B782F
:101A00009A4003920200344B1B680693334B1B78B9
:101A10009A4093B202000793314B1B689C46314BAE
:101A20001B789A40002304921A000198202806D1BE
:101A3000029D05981D4105423ED00398B861089863
:101A400020280FD1002B01D11E4883540698056928
:101A50000798054206D01B48855C059898400543C9
:101A60001848855409980139C9B2002802D00029C4
:101A700000D1A6616046049D0133DBB285618562B9
:101A8000082B05D101320F4BD2B29B5C029300238D
:101A90000029CAD10E4B1A680E4B197801238B40CE
:101AA0009362A6620BB0F0BD019D112DA1D11278F9
:101AB0000068934083619CE70398B862BFE7C04623
:101AC000D9040020B9040020180700201C070020BA
:101AD000080700200C070020100700201407002032
:101AE0000007002004070020F7B51F4B1F491A7894
:101AF0001F4B10282ED101241E780D68B440AC6213
:101B0000012635000C6831001B7801969D40194B69
:101B10001B680093184B1B78994000238C461900D2
:101B200020280DD1154E019F765C1E413E4219D0F2
:101B3000A5610133DBB2082B02D100230131C9B208
:101B40006646009F013AD2B2BE61BE62002AE7D16A
:101B5000A562F7BD1128D3D101241E780D68B440C9
:101B6000AC61CDE7A562E4E7D904002018070020A6
:101B70001C0700200007002004070020B9040020F3
:101B8000022907D10F4B104A984218D0904209D130
:101B9000180007E0032906D10A4B0B490B4A98426B
:101BA0000BD1080070470429FCD1064B064A984225
:101BB00005D006499042F4D0054A8842E6D110008B
:101BC000F0E7C04630040020440400205804002000
:101BD0006C040020F0B52C4B85B019682B4B2C48B9
:101BE0001B7800780193012302901E0018001F004B
:101BF000019A029C9640A040264D274A2D781268F3
:101C0000AF408E628446906224489D40006887629F
:101C1000046803941C00AC402500039C2543056028
:101C20004568019CBD4345609C401D00A540086877
:101C30001C00284308604868B04348601068029957
:101C400099408C40210001436046116051688143F6
:101C5000134851600078134A984083401268124834
:101C6000116899431160D1680B43D36080220F4BF8
:101C70001A70002319000E4A13701A1801331170DC
:101C8000202BFAD105B0F0BD180700201C0700205A
:101C90000C07002004070020080700200007002090
:101CA0001407002010070020B9040020DA040020E7
:101CB000D904002010B5334B1B78082B5DD016D803
:101CC000314C032B44D007D8012B2DD0022B31D01F
:101CD000EE222D4B1A7023E0062B44D049D8042B5A
:101CE000F6D18123012223702021112027E00F2B20
:101CF00034D008D8244C0D2B25D00E2BE8D18123CD
:101D00000022237027E0802B08D01F4CFF2B08D027
:101D1000102BDDD181230022237027E0FFF75AFF2B
:101D200010BDF0232370FBE7812320202370FFF7F1
:101D3000DBFE06E081230122002123702020FFF733
:101D40003DFE8223EEE78123002223701100F5E798
:101D500081230122237020211020F0E781230A4CE7
:101D600000222370C0E78123012223702021080074
:101D7000E5E7812310202370D9E78123024C11204D
:101D80002370D4E7B8040020DA040020BC22444BBE
:101D9000D203996A70B50A439A629A6A4149424CE1
:101DA0000A409A628022596912030A435A613F4AE3
:101DB0003F4910683F4E084310601068204080245F
:101DC0001060D068E4020143D1605A6922435A612D
:101DD000394A116831401160D56838490D43D560E2
:101DE000106830401060D0680143D160B02158695C
:101DF0004903014359619023DB05196830480140CC
:101E000019608021D868490301430120D96019680D
:101E100081431960D9680143D96004211D688D434D
:101E20001D60DD680D43DD6010251E68AE431E6039
:101E3000DE683543DD6040251E68AE431E60DE6807
:101E40003543DD601D681F4E35401D608025DE680E
:101E5000ED043543DD601D681B4E35401D60802557
:101E6000DE68ED053543DD601D68184E35401D60A8
:101E7000DD682C43DC601468154D84431460D4681D
:101E80002043D0601C682C401C60D8682840D86073
:101E900013688B431360D3681943D16070BDC0468B
:101EA00000100240FFFFA1FFAAAAAAAA000800484A
:101EB00055555555FFFFAAAA000400480000555586
:101EC000FFFFEFFFFFFFFFFBFFFFFFBFFFFFFBFF7A
:101ED000FFEFFFFF9022DA4B12031968F0B50A43B7
:101EE0001A60802289B0920219681142FCD0012246
:101EF00059680A435A608022596852020A435A605C
:101F00008022596852030A435A6080221968520499
:101F10000A431A608022920419681142FCD01121F0
:101F20000220C84A11605A680E398A4302435A6037
:101F30001A6B7D310A431A638022DC691204224342
:101F4000DA6162B6C04B4025DA8FC04C8243DA8733
:101F5000DA8F01388243DA870022BD48C2872280A7
:101F6000BC4C2580BC4C083525808025BB4C6D01C0
:101F70002580BB4C2180C287BA49BB4A1180802191
:101F8000BA4A090611608022D98FD2000A43DA8743
:101F9000B74AB84B1A80FFF7F9FEF022B64B1A7019
:101FA000B64E2023327811009943D2292ED1B4495C
:101FB000B448C978C3780224FF2904D1FF3B1C0030
:101FC000631E9C41E4B2B04BDB78FF2B00D00324AE
:101FD000AE4BDB78FF2B00D00424AD4BAD4F1C7013
:101FE0003860D22A12D10023012505E02100FFF735
:101FF000C7FD01230135EDB2A542F7D3002B00D078
:10200000386080223B68DA70D02333703378F22B4B
:1020100005D10022023B33709E4B1B68DA70357885
:10202000D02D01D000F016FE9A4E3068C378802B78
:1020300001D000F00FFE964B1978FFF7A1FD0023A9
:1020400030600188C57004004372C07ACDB2103888
:10205000042801D900F0FCFD02F07EFA05006E00B4
:1020600028012C01E700E27B012A0DD1802089099B
:10207000CEB20002102101F02BF80F21E0203140F8
:102080000022000201F024F8E37B032B0FD120880B
:102090003D3380099D43804BC1B2C0B2C01880B2AD
:1020A00000F032FE8021237AA278294334E01E2BEF
:1020B00007D1C0202188223389099D43C9B200027B
:1020C000EEE7222B01D00B2B07D12088C009C1B22B
:1020D000C0B26C3880B200F017FEE37B1C2B11D12C
:1020E000A0208121C001268800F00EFE8020F60984
:1020F000F6B23100000200F007FEA0200021C0016E
:1021000000F002FE8023E27B5B421F2A08D01D43C1
:10211000EDB22900237AA278606801F0B1F883E07B
:102120007022A0202188954309091D43C9B2C0012E
:10213000EDB200F0E9FDECE7E37B002B06D1237A5A
:10214000A2782900606801F0D1F86072E37B0B2B64
:102150000FD12188514849090901C9B200F0D4FDC5
:102160001F231D40A278237A2900606801F0BEF881
:102170006072E37BFE2B3ED1218849484909C9B2F0
:1021800001F006F81F231D40237AA1780393454BE5
:1021900028025A696768D2B202435A6180209022AD
:1021A000C000D20590610120FF269062033090624A
:1021B0005A69360232400A435A61C0463A48002200
:1021C0008446C046604600690131000AB854586927
:1021D000C9B230400843586101320398D2B29042EC
:1021E000EFD290230421DB0599618021C900996217
:1021F000012199616272E27B012A16D180201021AF
:102200000002268800F064FF1F21A0203609F6B2E4
:1022100031400022000200F05BFF0F21237AA278F8
:102220002940606801F062F860721A4B1B681988D7
:102230009A7A52181A80D822DA7000F00BFDC04644
:102240000010024000200240025C0040505C004050
:10225000065C0040006000400460004006600040F2
:102260004C5C004020320000005C004000E100E0D7
:102270000080FFFF585C0040DA0400209804002032
:102280004404002030040020580400206C04002086
:10229000240700208004002073E4FFFFFFFF0000FC
:1022A000FF3F00000008004800040048237AA2789D
:1022B0006021FAE6CB09FF21DB48DC4F46699A0032
:1022C0003E400A403243C02790264261F605FF0097
:1022D000DB0072693B40D64F7F393A40134373614C
:1022E00063680D430393237AA2780493D14B7F3123
:1022F0005F692D020F403D43FB395D61B1620339D7
:10230000B162FF26596936023140114359610021FB
:10231000C046C046C046C0460569039F2D0A7D548D
:102320005D690132D2B2354015435D610131049DD2
:10233000C9B28D42ECD290230422DB059A61033AA4
:102340009A61617271E7F37B002B09D18020039BB6
:10235000B94A1843B94BBA490093330000F05CFF07
:10236000F27B012A1CD1802010210002378800F066
:10237000AFFEE020BF053F0F00223900000200F051
:10238000A7FE747A039AA3B20493802313431B021B
:102390001BB20693337A049A934200D3E9E0747235
:1023A000F37B032B17D1039A3C331A40130080228E
:1023B0001343039333889B0904936B461B7C06935A
:1023C000039B747A1B021BB2A7B20793337ABB42FA
:1023D00000D343E17472F37B1E2B15D1039A213392
:1023E0001A40130080221343039333889B09DBB206
:1023F0000593039B747A1B021BB2A5B20693337A32
:10240000AB4200D370E17472F37B222B01D00B2B13
:1024100011D13088C009C1B2C0B26C3880B200F0AE
:1024200073FC8020039B844A1843844B84490093A7
:10243000330000F0F1FEF37B0C2B1AD1039A133317
:102440001A401300C0208022348813436409A52158
:10245000C001E4B2039300F057FC2100794800F07A
:1024600053FC794B794A009379493300039800F083
:10247000D3FEF37B1C2B3ED1A02033888121DB09C6
:10248000DBB2C001059300F03FFC802005990002FB
:1024900000F03AFCA0205421C00100F035FC757A10
:1024A000AA21ABB26B48049300F02EFC55216A4878
:1024B00000F02AFC2021674800F026FC8023A0279A
:1024C000039AFF0113431B021BB20793337A049A4A
:1024D000934200D356E1802090210002757200F0F3
:1024E00013FC80200021000200F00EFC8020F0216F
:1024F000000200F009FCF37B1F2B33D1A0203188B0
:10250000C0010909C9B200F0FFFB747AAA21A3B285
:102510005048049300F0F8FB55214F4800F0F4FBBD
:1025200020214C4800F0F0FB70230427039A9A43C3
:10253000F03B13435BB21B020593337A049A934238
:1025400000D364E1802090210002747200F0DCFB73
:1025500080200021000200F0D7FB8020F021000243
:1025600000F0D2FBF4233288F370B37A9B183380E7
:1025700092E3802000221021000200F0A9FDAA2190
:10258000334800F0C1FB5521304800F0BDFBA021CD
:102590002F4800F0B9FB069D73682543ADB2195D65
:1025A000280000F0B1FB802001221021000200F081
:1025B0008FFDE02000223900000200F089FDC046B6
:1025C000280000F0D7FB0590280000F0D3FB059B06
:1025D0008342F4D17368059A1B5D134D93420FD16A
:1025E000049B2A6801339BB2049304239A432A6014
:1025F000EA6801341343EB600223E4B2AB62C9E63C
:10260000802001221021000200F062FDE020002263
:102610003900000200F05CFD04232A6813432B609C
:102620000223AB61B6E6C0460004004803FF000089
:10263000FFF9000000080048AA2A0000B52D000894
:1026400055550000FFFF0000092D0008AAAA000050
:1026500055D50000AA8A0000558500000021CC480D
:1026600000F052FBAA21CB4800F0A4FB5521CA4838
:1026700000F0A0FBA021C74800F09CFB6B46187C33
:10268000C64B0699C01880B200F03EFB079D7368E8
:102690002543ADB2195D280000F08CFBC046280030
:1026A00000F068FB0590280000F064FB059B834266
:1026B000F4D1736805991A5DB94B8A420DD1042291
:1026C0001968013491431960D96801370A43DA6007
:1026D0000222E4B2BFB29A6278E6042219680A4381
:1026E0001A6002229A6171E6C0200121000200F006
:1026F0000BFBAA21AB4800F007FBC0200021000221
:1027000000F002FB5521A84800F0FEFAC02001218C
:10271000000200F0F9FAA021A24800F0F5FAC0206A
:102720000599000200F0F0FA069B23439FB27368FC
:102730003800195D00F0E8FAC046380000F01AFBD6
:102740000490380000F016FB049B8342F4D17368B8
:1027500004991A5D924B8A420DD104221968013402
:1027600091431960D96801350A43DA600222E4B264
:10277000ADB29A6243E6042219680A431A60022243
:102780009A613CE65421380000F0BEFA079CA02173
:102790002C43A4B2200000F0B7FA73682000595D02
:1027A00000F0B2FAC046200000F0E4FA06902000E3
:1027B00000F0E0FA069B8342F4D17368069A5B5DF1
:1027C000774C93420FD16B1CDDB2049B226801331E
:1027D0009BB2049304239A432260E2681343E360AC
:1027E0000223A36272E68121380000F08DFA802076
:1027F0000599000200F088FA5421380000F084FAAC
:1028000004232268134323600223A3615EE6059D2F
:10281000A0212543ADB2280000F076FA73682800A5
:10282000195D00F071FAC046280000F0A3FA039089
:10283000280000F09FFA039B8342F4D17368039948
:102840001A5D574B8A420ED1049A0134013292B27A
:1028500004921A68E4B2BA431A60DA683A43DA605A
:1028600002229A6269E61A683A431A6002229A6161
:1028700063E6F37B002B09D1039B747A1B021BB226
:10288000A5B20593337AAB4247D27472F37B0B2B1C
:1028900011D1039A14331A40338803925B091B0148
:1028A000747ADBB205931302A5B20693337AAB4276
:1028B00000D383E07472F37BFE2B00D052E63188A4
:1028C0003A484909C9B200F063FC747AAA21A3B25C
:1028D0003748049300F018FC5521364800F014FCEA
:1028E0002021334800F010FC1F230427039A1A40CC
:1028F00013020593337A049A934200D3ACE07472C6
:102900009021002000F000FC0021080000F0FCFBFA
:10291000F021002000F0F8FB24E6AA21264800F070
:1029200037FC5521224800F033FCA021224800F05A
:102930002FFC059B23439FB273683800195D00F09C
:1029400027FCC046380000F04BFC0490380000F033
:1029500047FC049B8342F4D1736804991A5D104BC1
:102960008A420DD104221968013491431960D96853
:1029700001350A43DA600222E4B2ADB29A6281E71D
:10298000042219680A431A6002229A617AE7C04653
:1029900073E4000055550000AA2A000073E4FFFF0D
:1029A0000004004855950000AAAA0000FF3F00005F
:1029B000AA0A0000550500005515000080202021BE
:1029C000000200F0A1F9AA21BA4800F0E1FB802042
:1029D0001021000200F098F95521B74800F0D8FB0B
:1029E00080202021000200F08FF9A021B14800F0E2
:1029F000CFFB80200599000200F086F9069B234357
:102A00009FB273683800195D00F0C2FBC046380001
:102A100000F0E6FB0490380000F0E2FB049B8342E8
:102A2000F4D1736804991A5DA44B8A420DD1042233
:102A30001968013491431960D96801350A43DA6095
:102A40000222E4B2ADB29A6230E7042219680A4366
:102A50001A6002229A6129E7059DA02125432800DA
:102A600000F052FB73682800195D00F04DFBC04672
:102A7000280000F071FB0390280000F06DFB039B21
:102A80008342F4D1736803991A5D8C4B8A420ED14C
:102A9000049A0134013292B204921A68E4B2BA4341
:102AA0001A60DA683A43DA6002229A6222E71A6808
:102AB0003A431A6002229A611CE7FF257F4CDB092A
:102AC00061697F489A0001402A400A436261C02040
:102AD0009022C000D205DB005169034079480140D3
:102AE0000B435361777AC046C046C046C046C046D5
:102AF000C046C046C046C046AA21734800F0A2FAAC
:102B00005521724800F09EFA20216F4800F09AFA91
:102B10008023039A05951A4313021BB20693FBB256
:102B20000393337ABB4213D26B4680201B7B9021E8
:102B30007372000200F086FA80200021000200F08B
:102B400081FA8020F021000200F07CFAC04609E5FD
:102B500022685F4B082113432360059A6369134081
:102B6000A02212021343636190230122DB059962C4
:102B70009A62C046C046C046C04699619A612368C1
:102B8000544A059D13402360069B3D40039A1D4314
:102B90007368ADB2995C280000F054FAC046C04694
:102BA000C046C046C046C046C046C046C046C046F5
:102BB000280000F06DFA0490C046C046C046C046EA
:102BC000C046C046C046C046C0467368039A9B5C78
:102BD000834217D0C046C046C046C046C046C04625
:102BE000C046C046C046280000F052FA049B9842F6
:102BF0000BD1C046C046C046C046C046C046C046CF
:102C0000C046C0460137BFB289E7C046C046C0468D
:102C1000C046C046C046C046C046C046C046C04684
:102C2000C046C046C046C046C046C046C046C04674
:102C3000C046C046C046C046C046C046C046C04664
:102C4000C046C046C046280000F022FA0490CAE7F9
:102C5000C323E370204B1C78F02C1DD11F4D2E6830
:102C6000F378982B18D11E4B30001978FEF788FFA7
:102C700000232860C3703388F470DAB20392F07ACC
:102C80001038042806D801F05DFC5EFBF4FD6DFCF5
:102C900018FF6DFCC323F370124B1B78F02B01D18E
:102CA000FFF77EF9832B01D0FFF77AF9FFF702F8DF
:102CB000FFF776F955150000AA0A00000004004845
:102CC00003FF0000FFF90000AA8A000055850000FC
:102CD00000005555FFFFAAAA980400208004002098
:102CE00024070020DA040020002302000002002A4A
:102CF00004D1002B01D0802318437047DB43511EC1
:102D0000DBB20A40F3E700009023DB0530B51C6816
:102D1000134D09022C401C60DA68124C2A40DA601C
:102D2000114A506102229A62104A00B215682C437F
:102D300014605469E4B2214351618021C900996152
:102D4000002801DA01209862C046C046996201213C
:102D5000996149189961136805490B40136030BDAA
:102D6000FFEFFFFF00005555000800480004004831
:102D7000FFFFAAAA0D4B802258619023D200DB05E9
:102D800000B29A61002801DA01229A62C046C04668
:102D9000C046C046064B802218699023D200DB054E
:102DA0009A620122000AC0B29A6170470008004886
:102DB00000040048104B114A10B558611068104BC0
:102DC00009020343136053690E4CDBB2194390238D
:102DD00051618021DB0518684901084318604020D3
:102DE0009862186820401860D8680143D960136859
:102DF00005490B40136010BD00080048000400485E
:102E000000005555FFEFFFFFFFFFAAAA224B10B5A8
:102E10001968224B224C1A8852085200505A214AF3
:102E200010801A88023292B21A8052085200505A08
:102E30001D4A10801A88023292B21A80520852003B
:102E4000505A1A4A10801A881948023292B21A80CF
:102E500052085200515A174A11801A8821880232AA
:102E600092B21A808A4210D908318A1A92B202802C
:102E700022881A801049114B0A881343104A1A40BD
:102E8000302353409BB20B8010BD0E4C21888A42E8
:102E9000EAD808230380EDE72007002096040020ED
:102EA00094040020406000404260004044600040C4
:102EB0000260004046600040005C00408080FFFFF0
:102EC000BF8FFFFF92040020FEE70000F7B501234B
:102ED0000225294F01923A7800910543934004213D
:102EE000A020264E2D049BB229433268C00100F079
:102EF00037FA040001283DD13B7809209C40054366
:102F00007830A3B232682900FF3000F029FA0400BB
:102F100001282FD13B7832689C402900A3B20020C1
:102F200000F01EFA0400012824D1009B180AFFF7C4
:102F3000DBFE3B7832689C402900A3B200F010FA17
:102F40000400012816D16B461878FFF7CDFE220049
:102F50003B7829009A4093B2326800F001FA019858
:102F6000FFF7C2FE3B7832689C402900A3B200F014
:102F7000F7F90400E0B2FEBDFC060020F8060020D0
:102F8000F7B501230225274F00903A7801910543B8
:102F900093400421C020244E2D049BB22943326863
:102FA000800100F0DDF90400012838D109231D4318
:102FB0003B78C0209C403268A3B22900400000F05A
:102FC000CFF9040001282AD13B7832689C402900BF
:102FD000A3B2002000F0C4F9040001281FD1019B16
:102FE000180AFFF781FE3B7832689C402900A3B2A3
:102FF00000F0B6F90400012811D16B461879FFF7EB
:1030000073FE22003B789A4093B2009A144309223F
:10301000E1B209041143326800F0A2F90400A0B241
:10302000FEBDC046FC060020F806002000238000FC
:1030300080B2834200D17047C046C04601339BB284
:10304000F7E700000E4B0F4A58610F4B0902186852
:1030500002431A605A690820D2B211439022596182
:103060000121D20590629162C046C046C046C0466A
:10307000906191611A6805490A401A607047C0461C
:10308000000800480000555500040048FFFFAAAAA8
:103090000D4B0122586190230421DB059A6299624D
:1030A000C046C046C046C046C046C046C046C046F0
:1030B000C046C046C046C046C04604480069996143
:1030C000000AC0B29A617047000800480004004836
:1030D00070B506000D00002A08D080200002FFF71E
:1030E00049FE802080210002FFF70EFE05243000FB
:1030F000013CFFF73FFEE4B229003000FFF704FE79
:103100006D08002CF3D170BD0F4B30B59022586183
:1031100080230124D205DB0093620C4B94621D686E
:103120000B480902284318605869C0B2014359612D
:10313000C04608219162C046916119680548014066
:103140001960946130BDC046000800480004004882
:1031500000005555FFFFAAAA0B4B10B580215861FE
:10316000902301220424DB05C90099619A629C62C4
:10317000C046C046C046054800699C61000A996285
:10318000C0B29A6110BDC046000800480004004863
:103190000E4B984202D880231B0218430C4B0D4A59
:1031A00058610D4B0902186802431A605A69D2B27D
:1031B00011435961C04690220821D2059162C04650
:1031C00091611A6805490A401A607047FF1F0000A4
:1031D000000800480000555500040048FFFFAAAA57
:1031E0000A4B984202D880231B021843084B042242
:1031F00058619023DB059A62C046C046C046C0466F
:10320000044908699A61000AC0B27047FF1F0000B4
:103210000008004800040048F0B585B00191039211
:1032200000025E7A1D0003B202932B7AF7B2B3421A
:1032300003D200206F7205B0F0BDFF24AA210198CF
:103240000A9B9847552103980A9B9847A02101980B
:103250000A9B9847029B34401C436B68A4B2D95D1B
:1032600020000A9B9847C0462000FFF783FD070017
:103270002000FFF77FFD8742F5D10136B6B2D4E7D3
:10328000F0B5184C050060690E02C0B230436061B1
:1032900080269020F600C00549B28661002901DA37
:1032A00001218162FF26616936023140114361616B
:1032B000C04600200C4FC04639690132090A295422
:1032C0006169D2B2314001301143C0B261619842AC
:1032D000F1D990238022DB05D2009A6201229A6103
:1032E000F0BDC0460008004800040048F0B5174C87
:1032F00005000E0060691F2925D88021314309028D
:10330000C0B20143616190210420FF26C905886293
:1033100061693602314011436161C04600200C4FA3
:10332000C04639690132090A29546169D2B2314073
:1033300001301143C0B261619842F1D99023042257
:10334000DB059A61F0BDC0B20902DAE70008004867
:103350000004004800000000000000000000000021
:10336000F0B5474680B4061C081C000C102801D597
:10337000162700E004270007000F8046FF200140C9
:103380005468251C1D439C43F60313850AD5C0468B
:10339000C046C046C046C046C046C046948013835F
:1033A000958002E0012000F081F801390AD4381C30
:1033B00000F07CF8C046948013839580C046C046D8
:1033C0007600E2E7381C013800F070F8948013832F
:1033D0009580042000F06AF8108A184001D0FF2080
:1033E00061E0C046C046C046C046C046C046948064
:1033F0009580108A184055D001200226B04552D041
:103400000921168A1E40FCD1012000F04FF894805B
:10341000C0469580C04603E0C046C046C046C04690
:10342000948095807600108A1840EFF30080400069
:10343000C00F0643381C023800F038F8948095809D
:10344000022000F033F80139EAD513859480012079
:1034500000F02CF813839580301C802102239940C2
:103460000E401BD1002341085E4149085E414908D6
:103470005E4149085E4149085E4149085E4149088C
:103480005E4149085E4149085E41760808D340081C
:10349000FF21084048400002013004E00E2002E015
:1034A000092000E0002080BCB846F0BD0138FDD105
:1034B0007047C04603685A0003D45B005B08C0181D
:1034C0007047802212061343F9E7C046F0B557460D
:1034D0004E46DE464546E0B5814683B09246002919
:1034E00025D04B1E9B46002701935B46FB18DC0F43
:1034F000E4184B466410E5005E193000FFF7DAFF70
:10350000019B8046A3420BD0280008304844FFF7B7
:10351000D1FFD04506D80138504509D2671CE4E7F1
:10352000504505D9A74202D0631E9B46DDE7002621
:10353000300003B03CBC90469946A246AB46F0BD75
:10354000012809D0022805D0002801D000207047AA
:103550000248FCE70248FAE70248F8E7613C000845
:10356000793C00086D3C000830B5234B83B0050062
:103570008C1E002B2AD001A9200000E000BF0028EB
:1035800020D001992200FFF7A1FF041E1AD0FFF7F7
:1035900091FF6368A864012B10D0201D002B1BDB5A
:1035A000FFF788FF0023E8642B650368002B17DB17
:1035B000FFF780FF2861002003B030BD0023052005
:1035C0002B61F9E7002309202B61F5E70B480C4933
:1035D000091AC9100191D5E70123E8642B65E4E7D6
:1035E0001801000FFFF7ACFF2861002801D1093056
:1035F000E2E70020E0E7C046000000005C4600086B
:103600002C470008036810B50400DA0705D49B07AF
:103610000FD5483000F084FC23685A070FD51A07ED
:1036200014D5DB0604D42000D130FF3000F084FC38
:1036300010BD483000F070FC23685A07EFD420001A
:10364000D03000F071FC23681A07EAD42000513012
:10365000FF3000F06DFC2368E3E7C0460368002BF1
:1036600000D01B1818007047092070477047C046EB
:1036700070B504000D0008E02B6C2A006361210086
:10368000012023699847082807D1296C2000FFF7FB
:103690006BFF0028F0D000F09FFE0728FBD1002030
:1036A000296CFFF7E3FF281D00F020FCF0B5CE46A3
:1036B000474680B5C368324C9846A54483690600E6
:1036C00014000431402205A8994600F08DFE002325
:1036D00004AD296C30000493FFF746FF631E9C4144
:1036E00007000934002F15D0AB6B10216B644B46DB
:1036F00021430193C9B20095330032000120C04735
:10370000002833D13800F5239B009D440CBC904623
:103710009946F0BDF0222B6C5200736129007CA801
:1037200000F062FE7CAA31003369200098478A9B32
:1037300007006B6403934B460095019332003300FE
:1037400021000120C047002810D1F0227CA952009E
:10375000280000F049FE082F06D1296C3000FFF741
:1037600003FF09240700BDE7072F01D00927C9E798
:103770000020296CFFF77AFF05A800F0B7FBC046D0
:103780002CFCFFFF406C704770B5CB6BFAB00B643C
:1037900004000E004022043103A800F025FE01239E
:1037A0005B42029306E002AA2100236998470500C4
:1037B00008280AD1129B200019000193FFF7D4FEBC
:1037C0000028F0D009207AB070BD02A8FFF71AFFD8
:1037D000062DF7D131002000FFF74AFF10B58261B6
:1037E000DA6BC1601A6419000022FFF75FFF10BD99
:1037F000436970B50B64C36804000D00002B04D04E
:103800000122FFF753FF00F0E7FD0A0023690100E2
:1038100002209847072807D0082803D12900200054
:10382000FFF726FF00F0D8FD0020296CFFF71EFFF0
:10383000281D00F05BFBC046C36810B5002B05D007
:10384000CB6B00220B64FFF731FF10BDFFF79CFF2D
:10385000FBE7C0467047C046836810B5002B02D016
:1038600001000120984710BD10B5012907D000299B
:1038700007D003390224012901D9200010BD0124F9
:10388000FBE70224002BF8D10F2AF6D89200821809
:103890005268029B00241A60EFE7C04600B585B06D
:1038A00003AB0A00009300210023FFF7DDFF03981C
:1038B00005B000BD10B5012907D0002907D0033994
:1038C0000224012901D9200010BD0124FBE70224B4
:1038D000002BF8D10F2AF6D8029B92001B688218A1
:1038E00053600024EFE7C04600B585B003AB0392F8
:1038F00000930A0000230021FFF7DCFF05B000BDA4
:1039000070B51A4CD36BA544136406000D0019A8BA
:10391000111D402200F068FD01235B42189314E062
:103920000C2118A802AAFFF7DFFF290018A8B0474A
:10393000002812D1069B18AA02A9083001939847C3
:10394000040005280AD0092807D0289B02A81900DE
:103950000193FFF709FE0028E2D0092418A8FFF719
:1039600051FE200090239B009D4470BDC0FDFFFFD1
:10397000F0B5DE464E464546574693460322E0B52F
:103980001E0013008BB003400193CB6C0D001C1D77
:103990001B6808940793002E66D11B02079306ABA1
:1039A0005E731A73019B022B00D16EE02B6DDB0757
:1039B00047D40023A846B24602930833034003933A
:1039C0002568002D00D137E15346022B49D02588C8
:1039D000668804340123370099469F4343469B6C15
:1039E0000F219C4658466744FFF758FF0022874244
:1039F00006D82A004B469A43D719B8428041424222
:103A000002230121760033400D402B43012B3ED091
:103A1000002B5AD0022B1CD1236801995F007F082C
:103A2000002965D1002A06D0039A002A00D188E037
:103A3000002F00D1AAE0002B65DB0137BF00E4199D
:103A4000BEE700230293022E47DDFFF70DFE00289C
:103A500049D009200BB03CBC90469946A246AB46E3
:103A6000F0BD66680834B5E7022E9BDC1A0C1B0417
:103A70000793022306A90B73FD3313409B00E41840
:103A8000019B4A73022B00D090E7AC6B8EE7019B41
:103A9000002B3AD1002A16D02368DD0F63689A1CE8
:103AA000D7D0424658320692013300D1C6E0201DDD
:103AB000FFF7D4FD06AB01002A00404600E000BF3E
:103AC000002800D0A7E008347AE7019B002B02D041
:103AD000002A00D08BE0043472E707A9584600F0B2
:103AE000D1FA0028B5D1029B002B5DD10820B1E7A7
:103AF00043460D2158461D6AFFF7D0FE854263D02C
:103B00002368002B99DA043497E743460D21584681
:103B10001D6AFFF7C3FE8542D5D143469B6A9C428E
:103B2000D1D145462000FFF7C5FC0F2102005846C1
:103B3000FFF7DAFE58462A000021FFF7D5FE0720DE
:103B400088E7002F22D058235146434406AABA469C
:103B5000251D0026049405911F00914603E00435BD
:103B60002600A24514D028000697FFF777FD4B46A4
:103B7000010000224046741C00E000BF0028EED087
:103B80005746059B049C9A46B742B9D1454601E089
:103B90004546049C0D215846FFF780FE069B28628F
:103BA0006B62AC62062055E70F215846FFF776FEA0
:103BB0000E2102005846FFF797FE5846274A0F216C
:103BC000FFF792FE072045E743469B6A9C4297D148
:103BD000434642469F620023D36204331363231D8E
:103BE00053632368002B32DB0123029325E7200077
:103BF000FFF760FC454604340600AC63404600E035
:103C000000BF002800D124E7584632000F21FFF7FB
:103C10006BFE07201EE707000D2158464546FFF7BB
:103C20003DFE2862022F0FD1069BEB6243462C33E8
:103C30006B62AC6206200DE7564604E70D2158463C
:103C40004546FFF72BFE2862069B6B62F1E73800C2
:103C5000013080004546201865E7C046000000009E
:103C600010B50023FFF784FE10BDC04610B5012338
:103C7000FFF77EFE10BDC04610B50223FFF778FEA9
:103C800010BDC046F0B5CE46474680B50600C3B06D
:103C900014001D0001294ED0002933D003290AD079
:103CA000042902D1002B00D189E0022043B00CBCD2
:103CB00090469946F0BD032BF7D11404150C240C43
:103CC0002B19102BF1D8082203681A4200D0E7E024
:103CD00020AB1800984600F02DF9B36BED001A00E8
:103CE000002C09D0E400EA1A1C1942441968D1508A
:103CF00004339C42FAD12200B263404600F018F926
:103D00000020D3E70220002BD0D10023012710048C
:103D1000B56B000C321D39009940084202D0296869
:103D20000435116001330432102BF4D10020A304B8
:103D3000BCD4B563BAE71404170C240C012B5FD074
:103D4000052BB2D13B19202BAFD80F2F7DD9A1461F
:103D5000002C65D1002223009146B16B002B00DCC2
:103D600088E020A88046FA00DB00521ACB184244B3
:103D70000868505004318B42FAD119004B46002B91
:103D800010D04B4658003A00102F00D210220023CA
:103D9000103AD2006A448000CC58D4500433834295
:103DA000FAD1C918012D5ED0B1630F2F74D94B46DB
:103DB000002BA5D0684600F0B7F8002076E7102A5F
:103DC00000D972E7102203681A4245D120AB1800CF
:103DD000984600F0B3F800230120B16B02009A402E
:103DE000144204D045460F689A00AF5004310133A5
:103DF000042BF3D14046B16300F09EF8002055E754
:103E00003B19102B00D950E70F2F00D94DE70023A5
:103E10009946012233681A4230D14B46002B5AD0C2
:103E2000042233681A4242D1012D47D00F2F06D801
:103E300020AB180000F076F84B46002B8AD068467D
:103E400000F074F81023DB1B87E7102BDFD910225A
:103E5000524291469944DCE793430360D130FF30EE
:103E600000F06CF8B2E7043120A8B16300F054F818
:103E700000201BE74B46002B84D193E719009143A8
:103E80000A003160052D1ED00322300093433360B9
:103E9000483000F043F8C0E720A800F041F886E77A
:103EA000934303605130FF3000F044F810E73000D6
:103EB00093433360D03000F039F8B5E720AB1800F9
:103EC00000F02CF8BEE7022330001A43326048307D
:103ED00000F028F8A1E7012D03D00F2F00D939E712
:103EE000A6E720AB180000F019F833E7011C3431C5
:103EF00038C9043B9C461D60A646011C20313CC9C4
:103F000090469946A246AB46011C0831FCC941685F
:103F10000068E54600BDC0467047C0467047C046D1
:103F20007047C0467047C0467047C0467047C0469D
:103F30007047C0467047C0467047C0467047C0468D
:103F400001B401A801B585B0FFB408A841464A46AE
:103F500053465C4665463EC001A83EC80F98009097
:103F600000230CB401A9FFF70FFC109B12B01847F7
:103F700001B401A801B585B0FFB408A841464A467E
:103F800053465C4665463EC001A83EC80F98009067
:103F900000230CB401A9FFF72BFC109B12B01847AB
:103FA00001B401A801B585B0FFB408A841464A464E
:103FB00053465C4665463EC001A83EC80F98009037
:103FC00000230CB401A9FFF737FC109B12B018476F
:103FD00001B401A801B585B0FFB408A841464A461E
:103FE00053465C4665463EC001A83EC80F98009007
:103FF00000230CB401ABFFF7F1FB109B12B0184784
:1040000001B401A801B585B0FFB408A841464A46ED
:1040100053465C4665463EC001A83EC80F980090D6
:1040200000230CB401AAFFF76BFC109B12B01847D9
:10403000027A0300002A04D1427AB020002A07D174
:104040007047013A02720268100E12021A60F7E716
:10405000013A5A725A68111D596003211268197287
:10406000F2E7C04600B585B003AB00930C220023F5
:104070000021FFF7F9FB039805B000BD10B5FFF76D
:10408000F1FF10BDF0B557464E464546DE460023CB
:10409000E0B587B003930F339846083B99468023D9
:1040A0001B0306000F009A463800FFF7C1FF04000B
:1040B000B02821D0030632D4FF2583001D4005AB74
:1040C0009B4600930D220023002130000435FFF7AA
:1040D000CBFB63064CD5059B5D1B05955B460093AA
:1040E00000230D2200213000FFF7E4FB3800FFF72A
:1040F0009FFF0400B028DDD1039B0024002B2FD1AB
:1041000005AD00950E2200213000FFF7ADFB0095B4
:1041100000230F2200213000FFF7CCFB20E003003A
:1041200042469343DBB2802B63D0902B25D0A02B4B
:1041300032D0B02B45D0C02B00D173E003004A46EB
:104140009343DBB2D02B0AD15346024001321A43CB
:10415000052301213000FFF795FD0028A4D0092494
:10416000200007B03CBC90469946A246AB46F0BD45
:10417000059B9C4665440595B0E7833B03400D2BAA
:10418000EDD0424605AD02400095002300213000ED
:10419000FFF76AFB0095A3E7FF234A461B011900BE
:1041A000824311410A001A40030702D58023DB0134
:1041B0001A43002300213000FFF764FD0028CED110
:1041C00072E7B1284AD0B2285ED0B32800D18BE084
:1041D000FC230340B42BC2D04A465346024001326E
:1041E0001A43012101233000FFF74CFD0028B6D10E
:1041F0005AE704023800FFF71BFF802520432D02F9
:10420000A842ACD004010005020C002300213000BC
:10421000FFF738FD0028A2D12C4200D144E701234A
:10422000039341E7C6286AD0C7287CD003004A46DA
:104230009343DBB2C02B00D18BE0C82800D18FE0C4
:10424000C92800D08BE73800FFF7F2FEF023020305
:104250001B03134042460240013278E73800FFF763
:10426000E7FE002800D17AE7030042469343DBB221
:10427000002B00D073E7020000213000FFF702FDA1
:10428000002800D06BE70FE705AB00939B460D229B
:10429000002300213000FFF7E7FA3800FFF7C8FEDF
:1042A00003066AD57F25B03C059B2840A0409C466C
:1042B0006044059038000734FFF7BAFE0306F3D4D4
:1042C000812292009446863AFF3A1040A040059B16
:1042D000723A634418185B4605900093002100234E
:1042E0003000FFF7E7FADFE63800FFF7A1FEF02322
:1042F00002031B03134042460240013270E73800BC
:10430000FFF796FEF02302031B03134042460240D0
:1043100001321A43032303213000FFF7B3FC0028C6
:1043200000D01CE7C0E63800FFF782FE002800D16D
:1043300015E7030042469343DBB2002B00D00EE7A3
:10434000020004213000FFF79DFC002800D006E7A2
:10435000AAE64346A0221C40013412032243D9E7B7
:104360003800FFF765FE434602009A43D2B210328E
:104370001840120301300243EAE60224A0E7C046D7
:10438000030000B5DB6C85B05A6808001202019288
:104390001A0001A908324A6003220A72DB794B72C3
:1043A000FFF770FE05B000BD10B5FFF767FE806C2B
:1043B00010BDC04610B5FFF761FEC26CD3799B00FB
:1043C0000833D01810BDC04610B500F005F8C0463F
:1043D00010B5FFF7F9FFC04610B5062000F074F8DD
:1043E000012000F0A3F8C046F0B505000F2A2FD930
:1043F0000B0003439B0734D116000C000300103E52
:10440000350901352D01451927681F6067685F6010
:10441000A7689F60E7681034DF6010339D42F3D1D6
:104420000F239E431036851989191340032B1AD97F
:104430001E1F0023B4080134A400CF58EF500433EA
:10444000A342FAD10324A643331D2240C918ED1814
:10445000002A05D00023CC5CEC5401339342FAD1FE
:10446000F0BD0500F6E71A00F2E7C04670B505009A
:104470000C001F2922D8B7239B00C358002B14D04F
:104480008A009B181A68002A0FD0012A0BD0511CF1
:1044900005D00021200019609047002070BD162330
:1044A00003600120FAE70020F8E7280000F02AF86E
:1044B00022000100280000F011F8EFE71623036046
:1044C00001204042EAE7C04610B5034B01001868DE
:1044D000FFF7CCFF10BDC04600000020002370B5E0
:1044E000074C050008001100236000F017F8431C7A
:1044F00000D070BD2368002BFBD02B60F9E7C046CD
:104500002807002010B500F001F810BD5822012046
:10451000014B40421A6070472807002058220120B2
:10452000014B40421A60704728070020FEE7C04652
:1045300002B4714649084900095C49008E4402BC36
:104540007047C04603B47146490840004900095EFF
:1045500049008E4403BC704703B4714649084000CB
:104560004900095A49008E4403BC7047F8B5C0465B
:10457000F8B5C046090212000101008032090400AA
:1045800000000000000012010002FF000008C01639
:10459000DC05000201020001040309042A034900AA
:1045A0006E00660069006E006900740065004E00D0
:1045B000650073004C0069007600650073002E00F2
:1045C00063006F006D0000000000000000000000AC
:1045D00000000000000000000000000000000000DB
:1045E00000000000000000000000000000000000CB
:1045F0001E0349004E004C0020005200650074006C
:1046000072006F002D00500072006F006700000004
:10461000000000000000000000000000000000009A
:0C4620000000000000000000000000008E
:10462C0074B20181B0AB308000000000800A0181BF
:10463C00B0B0ABF0000000003F020181B0AB3080A5
:10464C000000000080060181B0B0ABF0000000005B
:10465C0004EDFF7FB0B0B08050EEFF7F0100000092
:10466C00FCEEFF7FB0A9028090EFFF7FB0B0A88076
:10467C00E0EFFF7F01000000ECEFFF7FB0B0AA80FD
:10468C0020F0FF7F9CFFFF7FF0F0FF7F0100000018
:10469C00ECF0FF7FAA3F398038F1FF7FB0B0A880E3
:1046AC0044F1FF7FB0B0AA8084F1FF7FB0B0A88046
:1046BC0098F1FF7F0100000094F1FF7FB0B0A8805B
:1046CC009CF1FF7F010000002CF2FF7FAA0FB2804B
:1046DC0094F2FF7F58FFFF7F7CF5FF7FB0B0A8807E
:1046EC0098F5FF7F54FFFF7FF8F7FF7F0100000074
:1046FC0068F9FF7F0084048078F9FF7FB0B0A88050
:10470C0078F9FF7F40FFFF7F6CFCFF7F0084048003
:10471C008CFCFF7FB0B0A880A4FCFF7F01000000E0
:10472C00080000200000000000000000F40200203F
:10473C005C030020C4030020000000000000000007
:10474C00000000000000000000000000000000005D
:10475C00000000000000000000000000000000004D
:10476C00000000000000000000000000000000003D
:10477C00000000000000000000000000000000002D
:10478C00000000000000000000000000000000001D
:10479C00000000000000000000000000000000000D
:1047AC0000000000000000000000000000000000FD
:1047BC0000000000000000000000000000000000ED
:1047CC0000000000000000000000000000000000DD
:1047DC0001000000000000000E33CDAB34126DE67A
:1047EC00ECDE05000B0000000000000000000000E3
:1047FC0000000000000000000000000000000000AD
:10480C00000000000000000000000000000000009C
:10481C00000000000000000000000000000000008C
:10482C00000000000000000000000000000000007C
:04000005080000C12E
:00000001FF
