:020000040800F2
:1000000000180020C1000008FD000008D1180008F9
:1000100000000000000000000000000000000000E0
:10002000000000000000000000000000FD000008CB
:100030000000000000000000FD000008FD000008B6
:10004000FD000008FD000008FD000008FD0000089C
:10005000FD000008FD000008FD000008FD0000088C
:10006000FD000008FD000008FD000008FD0000087C
:10007000FD000008FD000008FD000008FD0000086C
:10008000FD000008FD000008FD000008FD0000085C
:10009000FD000008FD000008FD000008FD0000084C
:1000A000FD000008FD000008FD000008FD0000083C
:1000B000FD000008FD000008FD0000080101000827
:1000C00009490A4A0A4B9B1A03DD043BC858D05021
:1000D000FBDC0849084A0020521A02DD043A885025
:1000E000FCDC01F09BFC0000D82000080000002090
:1000F0000000002000000020AC020020FEE7C04607
:10010000F0B5CC4E89B0338801961BB2002B01DBD1
:1001100001F0FFF93388C84A1A4080231343338023
:10012000019B1A8880231B011340C44A01D101F0AE
:10013000BEF9C349C34D0B68C34801330B602B782C
:100140007F211C008C43C149C14F0C70E98801809C
:100150000020388060273B401370BE4A14708342F1
:1001600043D0FF23BC4CCAB22370BC4B60701C60F0
:10017000029268780138062801D901F046F901F0A9
:1001800041FF070021063E07C807F20744092F096F
:10019000A878AB888C22172822D88022D20001F0C0
:1001A00031FF18005400810161021103B3034304BD
:1001B000FF041B0527052F05370541054A0558058E
:1001C000600568057005750589059F05C005D5059D
:1001D000EC05B023A24A5B0351690B435361002233
:1001E00022706A469F4B12891A802B78602259B27E
:1001F000002901DB01F02CF9134016D16A78062A98
:100200000FD16A88110A022901D101F000F90329EE
:1002100001D101F002F9944A012901D101F0F8F865
:1002200003936A468F4B92891A80019B1A888F4BE1
:1002300013438F4A1A40C0239B015340019A9BB23B
:10024000138001F0E7FA01F024F9152B01D900F031
:10025000AAFD18008023DB0001F0D4FE1600230065
:100260002E00A505390044004F00A5055C0069007B
:1002700073008000A505A5058D009A00A500B200B9
:10028000BF00CC00D600E0009022D2051368794967
:100290000B4013608023D1685B020B43D3600022C4
:1002A0009EE790210123C9050A689A430A60CA683B
:1002B0001343CB60002293E790210423C9050A6809
:1002C0009A430A60CA681343CB60002288E79021F2
:1002D0001023C9050A689A430A60CA681343CB60B1
:1002E00000227DE790214023C9050A689A430A60ED
:1002F000CA681343CB60002272E79022D2051368CC
:100300005D490B4013608023D1685B030B43D360CE
:10031000002265E79022D205136858490B4013600C
:100320008023D1685B010B43D360002258E704238C
:1003300053490A689A430A60CA681343CB60002293
:100340004EE79022D20513684E490B40136080237C
:10035000D168DB050B43D360002241E79022D20530
:10036000136849490B4013608023D168DB020B43BB
:10037000D360002234E79022D205136843490B4032
:1003800013608023D1685B000B43D360002227E712
:100390009022D20511683E4801401160D1680B439C
:1003A000D36000221CE79022D205136839490B4024
:1003B00013608023D168DB010B43D36000220FE779
:1003C0009022D205136834490B4013608023D16812
:1003D000DB040B43D360002202E79022D2051368AE
:1003E0002E490B4013608023D1685B050B43D3601B
:1003F0000022F5E6012322490A689A430A60CA6886
:100400001343CB600022EBE6102325490A689A4388
:100410000A60CA681343CB600022E1E69021C90557
:100420000A681B4802400A60CA681343CB60002276
:10043000D6E6C046005C00408F0F00009A02002004
:100440005C0000204860004062000020980200200C
:1004500066000020990200209C020020A4020020D7
:100460000010024064000020322000088081FFFF5D
:100470008FBFFFFFFFFFFEFFFFFFEFFFFFEFFFFF5D
:1004800000040048FFFFFFBFFFFFFBFFFFFEFFFF71
:10049000FFFBFFFFFFBFFFFFFFFFFFFBFFFFFFEFC4
:1004A000000C0048152B01D900F080FC180001F069
:1004B000A9FD160021002C007D04370042004D00EC
:1004C0007D04580063006D0078007D047D04830086
:1004D0008E009900A400AF00BA00C400CE009023A3
:1004E000DB051968CF4801401960DA680240DA601C
:1004F000002275E690230121DB051A688A431A6001
:10050000DA688A43DA6000226AE690230421DB0578
:100510001A688A431A60DA688A43DA6000225FE662
:1005200090231021DB051A688A431A60DA688A432F
:10053000DA60002254E690234021DB051A688A43E2
:100540001A60DA688A43DA60002249E69023DB0504
:100550001968B54801401960DA680240DA60002283
:100560003EE69023DB051968B04801401960DA685F
:100570000240DA60002233E60421AD4B1A688A4358
:100580001A60DA688A43DA60002229E69023DB05E4
:100590001968A84801401960DA680240DA60002250
:1005A0001EE69023DB051968A34801401960DA684C
:1005B0000240DA60002213E69023DB0519689F48A9
:1005C00001401960DA680240DA60002208E69023F0
:1005D000DB0519689A4801401960DA680240DA6060
:1005E0000022FDE59023DB0519689648014019605B
:1005F000DA680240DA600022F2E59023DB05196830
:10060000914801401960DA680240DA600022E7E5AB
:100610009023DB0519688D4801401960DA680240B3
:10062000DA600022DCE50121814B1A688A431A60F6
:10063000DA688A43DA600022D2E51021844B1A6816
:100640008A431A60DA688A43DA600022C8E5902398
:10065000DB0519687A4801401960DA680240DA60FF
:100660000022BDE5152B00D9A3E3180001F0CAFC58
:1006700016001F002700A1032F0037003F00A10331
:100680004800510058006100A103A1036A007300F3
:100690007A0083008C0095009C00A30090228023A8
:1006A000D20511685B020B431360002298E590228B
:1006B0000123D20511680B431360002290E59022BC
:1006C0000423D20511680B431360002288E59022B1
:1006D0001023D20511680B431360002280E590229D
:1006E0004023D20511680B431360002278E5902265
:1006F0008023D20511685B030B43136000226FE572
:1007000090228023D20511685B010B431360002205
:1007100066E50423464A11680B43136000225FE537
:1007200090228023D2051168DB050B431360002261
:1007300056E590228023D2051168DB020B4313603B
:1007400000224DE590228023D20511685B000B4307
:100750001360002244E59021C9050B681A430A6022
:1007600000223DE590228023D2051168DB010B4376
:100770001360002234E590228023D2051168DB0447
:100780000B43136000222BE590228023D2051168D1
:100790005B050B431360002222E50123244A116804
:1007A0000B43136000221BE51023294A11680B43F9
:1007B0001360002214E59021C9050B681A430A60F2
:1007C00000220DE5152B00D9F6E2180001F01AFC05
:1007D00016001D002300F402420048004E00F402FF
:1007E000530059005E006500F402F4026C007200D0
:1007F00078007E0085008C00910096008022902376
:100800005200DB059A620022EAE490230122DB0514
:100810009A620022E4E490230222DB059A6200221D
:10082000DEE4C046FFFFFEFFFFFFEFFFFFEFFFFF2D
:1008300000040048FFFFFFBFFFFFFBFFFFFEFFFFBD
:10084000FFFBFFFFFFBFFFFFFFFFFFFBFFFFFFEF10
:10085000000C004890230422DB059A620022BFE4CA
:1008600090230822DB059A620022B9E49023DB057D
:100870009A620022B4E490234022DB059A620022AF
:10088000AEE40222CF4B9A620022A9E48022902398
:100890001202DB059A620022A2E4802290239200D9
:1008A000DB059A6200229BE490231022DB059A620A
:1008B000002295E490232022DB059A6200228FE437
:1008C00090238022DB059A62002289E48022902313
:1008D0009201DB059A62002282E480229023D201F9
:1008E000DB059A6200227BE40122B64B9A62002269
:1008F00076E40422B44B9A62002271E49023202211
:10090000DB059A6200226BE4152B00D957E2180030
:1009100001F078FB16001D002300550229002F006E
:10092000350055023A00400045004C005502550282
:1009300053005900600067006F0077007D0083005E
:10094000802290235200DB059A61002248E4902324
:100950000122DB059A61002242E490230222DB059A
:100960009A6100223CE490230422DB059A61002274
:1009700036E490230822DB059A61002230E49023BC
:10098000DB059A6100222BE490234022DB059A616B
:10099000002225E402228B4B9A61002220E480226F
:1009A00090231202DB059A61002219E48022902331
:1009B0009200DB059A61002212E490231022DB05ED
:1009C0009A6100220CE490232022DB059A61002228
:1009D000FFF706FC90238022DB059A610022FFF7D7
:1009E000FFFB802290239201DB059A610022FFF732
:1009F000F7FB80229023D201DB059A610022FFF7EA
:100A0000EFFB01226F4B9A610022FFF7E9FB042202
:100A10006D4B9A610022FFF7E3FB90232022DB0558
:100A20009A610022FFF7DCFB02226270152B00D9CD
:100A3000B1E0180001F0D2FA0B151EAF273039AF24
:100A4000434C545DAFAF677079828C969EA690231D
:100A50008022DB051B695200134063800022FFF7F0
:100A6000BFFB90230122DB051B691340638000223A
:100A7000FFF7B6FB90230222DB051B69134063805E
:100A80000022FFF7ADFB90230422DB051B69134016
:100A900063800022FFF7A4FB90230822DB051B697B
:100AA000134063800022FFF79BFB90238022DB052D
:100AB0001B69D200134063800022FFF791FB902353
:100AC0004022DB051B69134063800022FFF788FB8F
:100AD00002223C4B1B69134063800022FFF780FB1E
:100AE0009023DB051B690022DB0BDB036380FFF730
:100AF00077FB90238022DB051B6992001340638003
:100B00000022FFF76DFB90231022DB051B691340C9
:100B100063800022FFF764FB90232022DB051B6922
:100B2000134063800022FFF75BFB90238022DB05EC
:100B30001B69134063800022FFF752FB9023802241
:100B4000DB051B699201134063800022FFF748FB1D
:100B500090238022DB051B69D201134063800022B1
:100B6000FFF73EFB0122174B1B69134063800022F5
:100B7000FFF736FB0422144B1B69134063800022ED
:100B8000FFF72EFB90232022DB051B6913406380B7
:100B90000022FFF725FB00238D226370FFF720FB67
:100BA00080230A4ADB0251690B435361054A084915
:100BB00013680B401360D168064B0B43D3600022CF
:100BC000FFF70EFB00040048000C00480010024034
:100BD000AFAAFAFF50550500CE4ACF4913680B4023
:100BE0001360D168CD4B0B43D3600022FFF7F8FAB6
:100BF000C84AC94913680B4013600022FFF7F0FA96
:100C0000C44AC64B11680B4313600022FFF7E8FA91
:100C1000C049C3484A699B00024013434B6100220C
:100C2000FFF7DEFABB4B00221B699B08A370012370
:100C30006370FFF7D5FA8023BA4A1B0351690B434F
:100C40005361B94AB94B11680B4313600022FFF797
:100C5000C7FAB54AB54BD1680B43D3600022FFF702
:100C6000BFFAB14AB24913680B4013600022FFF784
:100C7000B7FAAD4AAD4B11680B4313600022FFF782
:100C8000AFFAA94A53610022FFF7AAFA8023A54AC6
:100C90001B0351690B4353619E4AA64B11680B43DA
:100CA00013609022D2051168A34B0B4313600022FE
:100CB000FFF796FA974A9F4BD1680B43D360902376
:100CC000DB05D8689C490143D96011689B48014005
:100CD00011601A689A490A401A600022FFF780FAE8
:100CE000F82280268B4F98027969D2011040360293
:100CF0005A02324089051043890D084390217861DA
:100D000010205F08C90538404A698E4FDB013A4020
:100D100002438020C001034013434B610022FFF7D0
:100D20005FFAC0237F4ADB0251690B435361794A62
:100D3000804B11680B4313609022A023D2051168E9
:100D40005B020B4313600022FFF74AFA714A794BAA
:100D5000D1680B43D3609023A021DB05D8684902FA
:100D60000143D96011687548014011601A687649DD
:100D70000A401A600022FFF733FA66489A06416972
:100D8000120C8905890D0A4342619022C020D205C8
:100D9000C000DB00516903406C4801400B435361C4
:100DA0000022FFF71DFA8D22FFF71AFA8D22FFF7B6
:100DB00017FA8D22FFF714FA8D22FFF711FA8D2210
:100DC000FFF70EFAAF78012F0ED0002F06D0022FBA
:100DD0004DD0802F00D1BDE0962701E000F07AFDD4
:100DE0005B4B1F70FFF7FDF900F074FD9023DB05EE
:100DF0001A68494C3A431A6080229F61196852026E
:100E00000A431A608022042152009A621A6800275D
:100E10000A431A6002229A6118680E3202431A606D
:100E20004022996119680A431A6008229A61802356
:100E30003C49DB024A6913434B61364B1A68224036
:100E40001A60D868354A1043D86018682040186086
:100E5000D8680243DA6080234A691B0313434B615D
:100E6000314B324A19680A431A605F61B8E700F0F3
:100E700031FD90230121DB051A68274F0A431A60D0
:100E80001022996119680A431A60042240219A616C
:100E90001A680A431A6008229A618022186852016F
:100EA00002431A60802299611E49D20248690243B6
:100EB0004A61184A106838401060D46817480443E3
:100EC000D46014683C401460D4682043D060802013
:100ED0004C690003204348611348144C07683C43A5
:100EE000002704604761C0204C69C002204348616C
:100EF0001068104901431160A0211868490201439C
:100F0000196051698905890D51615A690F490A4073
:100F10005A6165E700040048AFAAFAFF5055050082
:100F200003FC0000001002400008004855555555CC
:100F3000AAAAAAAA0000505500010010FFFFAFAAFC
:100F4000FFFEFFEFEFBF0000FFBFFEFFFFF9000055
:100F50009C020020012363709C469023402180273F
:100F6000DB0599621A687F013A431A60C046B948A6
:100F70001C691A680C4002401A60DA680240DA60A4
:100F8000F022002C37D11A6802401A60DA68174341
:100F9000DF601A6916001A690492C0461A69059240
:100FA000C046C0461A690692C046C046C0461A6985
:100FB0000792C046C046C046C0461F691A68024034
:100FC0001A60DA681040D86022000E4213D1049BE8
:100FD00062460B420FD1059B02320B420BD1069B9E
:100FE00003320B4207D1079B04320B4203D1053277
:100FF0007B0600D4D132984B00279A70F0E6AF7888
:10100000E978A888022F1BD005D8002F0FD0012F18
:1010100012D0A0270DE0822F3DD0832F40D0812F0A
:10102000F7D10123637000F07BFBA07006E000F0B5
:1010300097FB2770FFF7D5F800F02AFB0027F8E7A9
:101040009023DB051A68834E890032401A60DA6803
:101050003240DA60814A5061814A9F621668814F4E
:1010600000B23743176056697F4F374039435161AB
:10107000802149009961002801DA01209862C04668
:10108000C0469962012199614918996113687749AD
:101090000B401360D2E70123637000F025FBC4E727
:1010A0000123FF276370802390206C4ADB00516985
:1010B000C00539400B435361036951699BB20F402E
:1010C000802109013943516102698021180092B2DF
:1010D000104389001027084219D00B4018000A401D
:1010E000411E884111004F1EB941C0B2C9B200284B
:1010F00002D0112700290AD1002A02D11227002884
:1011000005D1002B02D11327002900D1FF27A7709A
:1011100094E7AB78A888012B20D0002B03D0022BBA
:1011200017D0AA2312E04E4F82067969120C890566
:10113000890D0A437A619021C027C905C000FF00CC
:101140004A6907404A4802403A434A612370FFF720
:1011500048F8E97800F05CFA0023F7E7637000F0E4
:101160007FFAA070F8E7AA781300303B2F2B19D82C
:10117000E878032800D9ECE000F030FF14021012E8
:101180003C4B512A00D195E024D8312A54D00BD8B9
:10119000002A34D0302A4AD0B42346E0364BF0E758
:1011A000364BEEE7364BECE7332A4FD049D3502A83
:1011B000F2D100222270063262701A7AA270DA78B6
:1011C000E2705A7A22719A7A62719A78A2715B7C83
:1011D000E37163E07F2A00D9A1E0702A00D379E0AF
:1011E000602A53D0612A5DD0522AD5D100221B88B3
:1011F0002270A37002321B0A6270E3704EE0FF237C
:10120000204953540132102AFBD11A4A1C49D37089
:1012100093701A4ACB70D370937001228B70164969
:10122000CB708B70184B1A700023237036E0AA889D
:10123000110AD9721A73F7E7AA88110A59739A73B7
:10124000F2E7AA88110AD9731A74EDE7AA885A74CA
:10125000EAE7C046FFEFFFFF9C02002000080048BD
:10126000000400485055050003FC0000AFAAFAFF37
:10127000FFF9000014000020280000203C0000209E
:101280000000002088000020680000200023237058
:1012900001336370AB88BD4AD35CA370BC4B1C6048
:1012A000FEF79FFF0023237001336370B94B1B6867
:1012B000DB78F2E70022227006326270DA7AA270DE
:1012C0001A7BE2705A7B22719A7B6271DA7BA2717F
:1012D0001B7C7DE7B04BAF495C682B787F2B00D936
:1012E00035E16846AD4B007A18700868C378002B6A
:1012F0000ED000200290982B05D130E10020029002
:10130000D02B00D12BE1A64B10301870FF2304E046
:10131000A44B18609023C3706F3302931FE1072022
:101320001040032815D800F059FE160218129E4BE3
:10133000802AB3D3872A12D97032D2B2072AADD805
:1013400000222270EA789A72AA881A80A6E7974B40
:10135000EEE7B52369E7904BEAE7954BE8E7A88805
:10136000E978C2B28F189446BE22102F2CDC0432CA
:10137000002929D0DF78033AFF2F25D19F78013249
:10138000FF2F21D10022D7B2B9421FD866460022D2
:101390004F01013F1F72874F7601000ABF199870F5
:1013A000DA705A729A721A80DA721A735A739A73CE
:1013B000DA731A745A745F60744B63449854013240
:1013C000D7B2B942FAD80022227067E766460132E6
:1013D000B7186E4E013FF75DFF2FD4D0C122F3E75F
:1013E000AA78002A04D0402A07D0D222227056E7D9
:1013F0002270A9886A4A117051E7002222700132D6
:101400006270674A1278A27049E780239EE66A4AB2
:101410005F4B1A601223FEF703FFD2B2012A11D0EC
:10142000002A09D0022A01D0FEF7FAFE584B634A7F
:101430001A60634BFEF7F4FE554B624A1A600423B0
:10144000FEF7EEFE524B604A1A60604BFEF7E8FE74
:10145000134208D16B78052B05D16B885C4A137059
:101460005C4ADBB21380019B5B4A1B8801991340E5
:101470005A4A13439BB20B800021594B1980019BA0
:101480001B881A43574B1A40574B5A40019B92B244
:101490001A80564BDA8F520507D58021544A1180A5
:1014A0000022DA87534B019A138009B0F0BD1278FD
:1014B000402AEED1504A1278002AEAD14F4A1088C9
:1014C000384AC0B211684D7A4F68DAB2AC18E4B24B
:1014D000904218D84A7A82184A72304A13781B1AF6
:1014E000DBB21370002B01D19833CB70019B1A88AB
:1014F0003A4B1343424A1A40C0239B015340019A7E
:101500009BB21380C5E73F4A9A18127801333A55C7
:10151000DBE7019B1B881B06BBD5019B3A4A1B8856
:101520001340802212021343019A1380374B1B7819
:10153000802B01D1FEF785FE254A1378002BA8D019
:1015400080210B432A490B8000231370A1E7086810
:10155000C378D82B00D0D1E680234468C3700B68D1
:1015600000215972DB78902B00D097E6712A00D0C9
:1015700094E60C4BAA881B6859680A70AA885968B7
:10158000120A4A705A7A02325A7287E6880000209C
:10159000A40200205000002000000020580000207D
:1015A0006800002054000020140000203C000020AF
:1015B0002800002098000020202000089C2000081F
:1015C0001E03000044200008482000082A030000F1
:1015D00060000020506000408F8EFFFF8080FFFF82
:1015E00002600040BFBFFFFF30300000065C0040DB
:1015F0004C5C004020320000990200200660004050
:101600008FBFFFFF486000400F8FFFFF9802002050
:101610000E4B0F4A58610F4B8900186802431A603D
:101620005A690D4802401143902259610820012156
:10163000D20590629162C046C046C046C0469061E5
:1016400091611A6805490A401A607047000800480D
:10165000505505000004004803FC0000AFAAFAFF43
:10166000094B0122586190230421DB059A6299629B
:10167000C046C046C046C04604480069996180081B
:10168000C0B29A617047C046000800480004004894
:101690000F4B984202D880231B0218430D4B0E4A71
:1016A00058610E4B8900186802431A605A690C4849
:1016B000024011435961C04690220821D20591622F
:1016C000C04691611A6807490A401A607047C046CF
:1016D000FF1F0000000800485055050000040048A6
:1016E00003FC0000AFAAFAFF0A4B984202D88023FD
:1016F0001B021843084B042258619023DB059A62B1
:10170000C046C046C046C046044908699A61800880
:10171000C0B27047FF1F00000008004800040048E6
:101720000D4B8022586190235200DB0500B29A6174
:10173000002801DAFF3A9A62C046C046C046C04659
:10174000064B8022186990235200DB059A628008BC
:10175000FF3AC0B29A617047000800480004004890
:10176000114B124A10B558611068114B89000343A0
:10177000136053690F48104C034019439023516183
:101780008021DB05186849010843186040209862F1
:10179000186820401860D8680143D9601368074969
:1017A0000B40136010BDC04600080048000400480C
:1017B0005055050003FC0000FFEFFFFFAFAAFAFF42
:1017C000022907D10F4B104A984218D0904209D1F4
:1017D000180007E0032906D10A4B0B490B4A98422F
:1017E0000BD1080070470429FCD1064B064A9842E9
:1017F00005D006499042F4D0054A8842E6D110004F
:10180000F0E7C0460000002014000020280000205F
:101810003C000020224B10B51968224B224C1A883C
:1018200052085200505A214A10801A88023292B24D
:101830001A8052085200505A1D4A10801A880232EB
:1018400092B21A8052085200505A1A4A10801A88CE
:101850001948023292B21A8052085200515A174A5D
:1018600011801A882188023292B21A808A4210D9D5
:1018700008318A1A92B2028022881A801049114BCC
:101880000A881343104A1A40302353409BB20B80FE
:1018900010BD0E4C21888A42EAD808230380EDE768
:1018A000A402002066000020640000204060004088
:1018B00042600040446000400260004046600040DA
:1018C000005C00408080FFFFBF8FFFFF62000020B0
:1018D000FEE70000BC22444BD203996A70B50A436C
:1018E0009A629A6A4149424C0A409A628022596936
:1018F00012030A435A613F4A3F4910683F4E08436A
:1019000010601068204080241060D068E402014319
:10191000D1605A6922435A61394A116831401160D5
:10192000D56838490D43D560106830401060D068E4
:101930000143D160B02158694903014359619023A3
:10194000DB0519683048014019608021D8684902D8
:1019500001430120D960196881431960D9680143A6
:10196000D96004211D688D431D60DD680D43DD6075
:1019700010251E68AE431E60DE683543DD604025DD
:101980001E68AE431E60DE683543DD601D681F4E75
:1019900035401D608025DE686D033543DD601D68C0
:1019A0001B4E35401D608025DE68ED053543DD604A
:1019B0001D68184E35401D60DD682C43DC601468DE
:1019C000154D84431460D4682043D0601C682C40BB
:1019D0001C60D8682840D86013688B431360D368B4
:1019E0001943D16070BDC04600100240FFFFA1FF47
:1019F000AAAAAAAA0008004855555555AFAAFAFF49
:101A00000004004850550500FFFFFEFFFFFFEFFFF9
:101A1000FFFFFFBFFFFFFBFFFFEFFFFF9022D24B57
:101A200012031968F0B50A431A60802287B0920247
:101A300019681142FCD0012259680A435A60802279
:101A4000596852020A435A6080225968D2020A43F6
:101A50005A608022196852040A431A608022920454
:101A600019681142FCD080211A6B0A431A63802244
:101A7000D86912040243DA6162B60220BB4B4025EA
:101A8000DA8FBB4C8243DA87DA8F01388243DA87F8
:101A90000022B848C2872280B74C2580B74C083551
:101AA00025808025B64C6D012580B64C2180C287EB
:101AB000B549B64A11808021B54A090611608022D5
:101AC000D98FD2000A43DA87B24AB34B1A80FFF7A4
:101AD00001FFB24E2023327811009943D2292ED132
:101AE000AF49B048C978C3780224FF2904D1FF3B2D
:101AF0001C00631E9C41E4B2AB4BDB78FF2B00D093
:101B00000324AA4BDB78FF2B00D00424A84BA94F59
:101B10001C703860D22A12D10023012505E0210073
:101B2000FFF74EFE01230135EDB2A542F7D3002B9E
:101B300000D0386080223B68DA70D023337033786D
:101B4000F22B05D10022023B33709A4B1B68DA70EE
:101B50003578D02D00D0D5E1964E3068C378802BF3
:101B600000D0CFE1924B1978FFF72AFE00233060B6
:101B7000437204000388C570C07AD9B210380428B3
:101B800000D9BDE100F02AFA030C464A3A00802051
:101B9000237AA2780143606800F0ECF960722DE0CE
:101BA000854B6668A078257A5A691F292FD8802727
:101BB00039430902D2B21143902259610421FF270F
:101BC000D20591625A693F023A407C4902435A6108
:101BD0008C460022C0466146096901308908B1542B
:101BE0005969C0B2394001320143D2B259619542BC
:101BF000F0D290230421DB0599616272D8226D4BEB
:101C00001B681988DA709A7A52181A807AE1D2B26F
:101C10000902D0E7237AA2786020BBE76748DB0996
:101C200045699A06AD05AD0D120C2A43C0269025D4
:101C30004261ED05F600DB006A693340604E67687B
:101C4000324013436B61237AA27801935A4B5E6949
:101C50000296802631436E46367A09023143596135
:101C60000421FF26A9620339A9625969360231406D
:101C7000114359610021C046C046C046C0460569AF
:101C80000132AD087D545D69D2B2354015435D61C6
:101C90000131019DC9B28D42EDD290230422DB05B2
:101CA0009A61033A9A616172A8E78024264336025A
:101CB00033B27D7A01933B7AECB2AB4207D27C72AD
:101CC000F4233A88FB70BB7A9B183B8001E7AA217A
:101CD0003C48FFF745FD55213B48FFF741FDA0215A
:101CE0003848FFF73DFD019BEEB21E437B68B6B25C
:101CF000195D3000FFF734FDC0463000FFF710FDDE
:101D000004003000FFF70CFD8442F5D10135ADB27F
:101D1000D1E7360233B27D7A01933B7AECB2AB4223
:101D2000CDD3AA212948FFF7B3FC55212848FFF756
:101D3000AFFCA0212548FFF7ABFC019BEEB21E4390
:101D40007B68B6B2195D3000FFF7A2FCC0463000D8
:101D5000FFF7CAFC04003000FFF7C6FC8442F5D14F
:101D60000135ADB2D9E7C04600100240025C004028
:101D7000505C0040065C0040006000400460004091
:101D8000066000404C5C004020320000005C0040D7
:101D900000E100E00080FFFF585C00406800002088
:101DA0001400002000000020280000203C0000203B
:101DB000A80200205000002000080048000400484D
:101DC000FFF9000055550000AA2A00005515000033
:101DD000AA0A00005D4DDB0969699A068905890D2B
:101DE000120C0A439024C0216A61E405C900DB009B
:101DF00062690B40564957480A40134363617B7A36
:101E0000AA2101934023A362FFF702FC5521524807
:101E1000FFF7FEFB20214F48FFF7FAFB80231E430C
:101E2000360233B205936B461B79019A03933B7AD2
:101E3000934213D26B461B7B90217B720020FFF7ED
:101E4000E7FB00210800FFF7E3FBF0210020FFF78C
:101E5000DFFB90234022DB059A6131E72A683F4B84
:101E600013432B606B693E4A1340A0229200134338
:101E70006B6108220123A262A362C046C046C0462D
:101E8000C046A261A3612B68364A402613402B60EE
:101E90006B46059A1B7913439BB20293039A7B68A6
:101EA0000298995CFFF7B4FBA661C0460298FFF761
:101EB000D7FB039A7B680490A6629B5C049A9342CA
:101EC00007D0A6610298FFF7CBFB049BA66298425D
:101ED00004D1019B01339BB20193A4E7C046C046E5
:101EE000C046C046C046C046C046C046C046C046C2
:101EF000C046C046A6610298FFF7B2FB0490E1E736
:101F0000C323E370184B1C78F02C00D0E1E5174D8B
:101F10002F68FB78982B00D0DBE5154B380019783B
:101F2000FFF74EFC00232860C370F87A3B88103816
:101F3000FC70DEB2042806D800F05AF8B7FEEBFEBB
:101F4000C2FE4CFFC2FEC323FB70C2E50004004882
:101F5000FFF90000AA0A00005505000050550500D1
:101F600003FC0000AFAAFAFF680000205000002028
:101F7000A8020020F0B5174C050060690E02C0B23F
:101F800030436061802690207600C00549B28661AA
:101F9000002901DA01218162FF26002061693602F1
:101FA000314011430C4F6161C046396901328908E3
:101FB00029546169D2B2314001301143C0B261612C
:101FC0009842F1D990238022DB0552009A62FF3AB1
:101FD0009A61F0BD000800480004004802B4714650
:101FE00049084900095C49008E4402BC7047C0465C
:101FF00003B47146490840004900095E49008E4417
:1020000003BC704703B47146490840004900095AAF
:1020100049008E4403BC7047F8B5C046F8B5C046C9
:1020200009021200010100803209040000000000D2
:10203000000012010002FF000008C016DC050002CB
:1020400001020001040309042A0349006E0066002E
:1020500069006E006900740065004E006500730041
:102060004C0069007600650073002E0063006F006D
:102070006D000000000000000000000000000000F3
:102080000000000000000000000000000000000050
:102090000000000000000000000000001E034900D6
:1020A0004E004C00200052006500740072006F006A
:1020B0002D00500072006F0067000000000000005B
:1020C0000000000000000000000000000000000010
:0820D000000000000000000008
:04000005080000C12E
:00000001FF
