:100000000C94E8000C94D1030C9405010C940501A8
:100010000C9405010C9405010C9405010C94050148
:100020000C9405010C9405010C9405010C94050138
:100030000C9405010C9405010C9405010C94050128
:100040000C9405010C9405010C9405010C94050118
:100050000C9405010C9405010C9405010C94050108
:100060000C9405010C9405010C9405010C940501F8
:100070000C9405010C9405010C9405012101230148
:10008000260128012B012D013001320135013701F4
:1000900039013C013E014001420144014601480151
:1000A0004A01BD01BD01BD01BD014C014E01500120
:1000B0005201BD01BD01BD01BD01540156015801F0
:1000C0005A015C015E016001620164016601680120
:1000D0006A016C016E0170017201BD01BD01BD01BB
:1000E000BD0174017601BB0178017A017E018101B5
:1000F000850188018E018B0187018A018D019001A4
:1001000092019401960198019A019C019E01A0011F
:10011000A201A401A601A801AA01AC01AE01B0018F
:10012000B201BD01BD01BD01BD01B701B401B60100
:10013000BA01CA01CE01CC01D001D601DD01DF0137
:10014000E101E301ED01F0014402460248024A02E6
:100150004C024E02500252025402560258025C02F5
:10016000090212000101008096090400000000004D
:10017000000012011001FF000008C016DC0500029B
:10018000010200011E0349004E004C0020005200F5
:100190006500740072006F002D00500072006F0047
:1001A00067002A0349006E00660069006E0069005E
:1001B000740065004E00650073004C006900760015
:1001C000650073002E0063006F006D0004030904D6
:1001D00011241FBECFEFD4E0DEBFCDBF11E0A0E001
:1001E000B1E0E0E2FAE002C005900D92A230B10762
:1001F000D9F711E0A2E0B1E001C01D92A533B1072B
:10020000E1F70E94E5040C940E050C94000011B86F
:100210008FEF82B914B885B917B888B98AB18471DB
:100220008AB98BB18B6E8BB950985898089590E02D
:100230008B35910508F0A1C0FC01E25CFF4F0C94E6
:10024000080511B895C08FEF81B992C012B890C05F
:100250008FEF82B98DC014B88BC08FEF84B988C07E
:1002600015B886C08FEF85B983C017B881C018B89C
:100270007FC08FEF88B97CC038987AC0389A78C030
:10028000409876C0409A74C0399872C0399A70C04C
:1002900041986EC0419A6CC03A986AC03A9A68C058
:1002A000429866C0429A64C03B9862C03B9A60C064
:1002B00043985EC0439A5CC03C985AC03C9A58C070
:1002C000449856C0449A54C03D9852C03D9A50C07C
:1002D00045984EC0459A4CC03E984AC03E9A48C088
:1002E000469846C0469A44C03F9842C03F9A40C094
:1002F000479A3EC08AB184718AB93AC08BB1847181
:1003000002C08BB18B6E8BB933C0509831C05898F6
:10031000509A2EC05098589A2BC05098589828C080
:10032000519826C0519A24C0599822C0599A20C089
:1003300053981EC0539A1CC05B981AC05B9A18C091
:10034000559816C0559A14C05D9812C05D9A10C099
:1003500056980EC0569A0CC05E980AC05E9A08C0A5
:10036000579806C0579A04C05F9A02C05F9A5F9878
:1003700080E00895479A4798FBCF81E8089590E080
:10038000FC01E058F109EB30F105A0F5E756FF4F0D
:100390000C94080562B922C08FEF84B965B91EC0FC
:1003A0008FEF84B965B9479A479805C08FEF84B934
:1003B00065B95F9A5F9814B811C061B90FC064B98C
:1003C0000DC067B90BC09AB1862F846189238AB9A1
:1003D0008AB16B7E682B6AB901C068B980E0089564
:1003E0009BB1862F846189238BB98BB16B7E682B7F
:1003F0006BB9F4CF82E80895813A61F0823AB9F09E
:10040000803A11F58FEF84B965B9479A479814B8C7
:1004100042B916C08FEF84B965B9479A479814B8A6
:1004200042B967FF02C041980BC0419A09C042B966
:100430008FEF84B9603230F415B8479A479814B8F2
:1004400080E0089565B9F9CF83E80895803B61F4B1
:1004500022B98FEF84B945B9479A479865B95F9A31
:100460005F9814B880E0089584E80895CF93DF93EF
:10047000EB0190E0805C91098C309105F8F48C558B
:100480009F4FFC010C94080580B113C083B111C0CB
:1004900086B10FC089B10DC082B10BC085B109C052
:1004A00088B107C08BB105C081B103C084B101C060
:1004B00087B1888380E003C08AB1FBCF85E8DF91F4
:1004C000CF910895CF93FC01C081CC1FCC27CC1FC6
:1004D0008181813079F582819FEF980F9E3718F4E2
:1004E0000E94170128C09FE7980F9E3120F4648175
:1004F0000E94BF0120C09FE5980F9E3028F44481E0
:1005000065810E94FC0117C09FE4980F9E3030F473
:100510002481458163810E9426020DC09FE3980FCC
:100520009E3358F463E071E00E943602809302012A
:10053000CF5F03C080E88093020122E031E0309376
:100540001A01209319018C2FCF91089581E008950D
:10055000CF93DF9360911B01635067FDA4C080912E
:100560001801CCE0D0E0C81BD109C15EDE4F8091FC
:1005700017018D3209F085C0683009F092C083EC14
:1005800080930B018AE58093010110920A01888112
:10059000807621F0CE010E94620260C08A811092B2
:1005A00014019981911106C01092150124E131E0E6
:1005B00082E050C0953019F480931C013DC0963004
:1005C000A9F59B81913019F482E791E004C0923043
:1005D00041F480E691E090931A018093190182E141
:1005E00021C09330F1F4811108C08CEC91E090931C
:1005F0001A018093190184E015C0813041F482EA28
:1006000091E090931A01809319018AE20BC0823025
:1006100041F484E891E090931A01809319018EE1EE
:1006200001C080E090E490930A0118C0983079F0FE
:10063000993031F480931E0124E131E080E00AC05A
:1006400081E09A3009F080E024E131E003C02EE13E
:1006500031E081E030931A01209319018F3F39F482
:10066000988197FD8E8190E890930A0107C09F8141
:10067000911104C09E81981708F4892F809300017E
:1006800010C080910A0187FF0CC0CE010E94A60213
:100690008F3F21F48EE18093010103C081111092FC
:1006A000000110921B018091010184FF4DC08091D7
:1006B00000018F3F09F448C0C82F893008F0C8E016
:1006C0008C1B8093000180910B0198E8892780930F
:1006D0000B01CC2361F18091190190911A012091B5
:1006E0000A0126FF12C0ACE0B1E02BE031E020951A
:1006F0003095280F391F4C2F4A0FF901EA0FFB1FC5
:10070000E491ED934A13F9CF09C0ECE0F1E0DC018C
:100710002C2F2E0F3D9131932E13FCCF01962FEFEE
:100720002C0F820F911D90931A01809319016C2F49
:100730008CE091E00E94CD03CC5FCC3019F08FEFBC
:1007400080930001C093010184E199B1947131F467
:100750008150D9F710921C0110921601DF91CF91B0
:100760000895E9E6F0E0808182608083E89A089548
:10077000A82FB92F80E090E041E050EA609530E08A
:1007800009C02D9182279795879510F0842795278A
:10079000305EC8F36F5FA8F30895EADF8D939D93F1
:1007A0000895CF93CFB7CF93DF93C3954C9BE9F7D1
:1007B0004C9B0BC04C9B09C04C9B07C04C9B05C07D
:1007C0004C9B03C04C9B01C089C06F93C091180122
:1007D000DD27C15EDE4F2F9365E54C9B03C02F9153
:1007E0006F91E6CF0F931F934F9320E040E15F930B
:1007F00009B1047104FB27F93F9350E03BE039C095
:10080000147140642F77012F5F5F1EC0406819B1DB
:1008100014712F7752501FC0406409B12F770471B3
:10082000D1F15F5F00C023C0406219B12F7714710E
:1008300091F15F5F00C025C004711027515012F480
:100840005D5F0000115027952C3F19B1C8F6147157
:100850000127015027952C3FC8F64227499309B13B
:10086000047110274F73115027952C3FA8F6469519
:10087000469519B1147179F00127015027952C3F45
:1008800098F66B5A60F3315009B1B0F600C011E030
:100890001CBB002717C03B503195C31BD04011E053
:1008A0001CBB0881033CF9F00B34E9F020911601E0
:1008B0001981110F1213EDCF093651F10D3211F0DC
:1008C000013E39F700931D013F915F914F911F91B8
:1008D0000F912F916F91CCB3C0FD67CFDF91CF9176
:1008E000CFBFCF91189520911D01222369F310915C
:1008F0001B01112339F534303AF130931B01209359
:100900001701109118013BE0311B309318011CC0F6
:1009100000911B010130B4F40AE53091010134FD6E
:1009200014C000930101CBE0D1E013C0052710E013
:1009300000C000000BB91AC0052710E0221F1DC01F
:1009400010E021C04AE502C032ED432FC4E1D0E0FF
:1009500032E01AB114615C9A0BB11AB954E120E883
:1009600065E320FF05270BB9279517951C3FF0F687
:100970006695B8F7B1F720FF05270BB927951795AE
:100980001C3FD0F62795179517FF052700001C3F41
:100990000BB9B0F629913A9519F70B7E10911C010D
:1009A000110FC651D0400BB911F01093160111E090
:1009B0001CBB00611AB11B7E402F4B7E54E05A9540
:1009C000F1F70BB91AB94BB97FCF2EE088E190E06F
:1009D0000FB6F894A895809360000FBE2093600036
:1009E0000E94B103549A80E0815041F0A895EFE94C
:1009F000FFE03197F1F700C00000F6CF54980E9455
:100A00000701519A599A7894A8950E94A802FCCFA0
:100A1000EE0FFF1F0590F491E02D0994F894FFCF9D
:020A2000FF5A7B
:00000001FF
