:100000000C94E8000C946E050C9405010C94050109
:100010000C9405010C9405010C9405010C94050148
:100020000C9405010C9405010C9405010C94050138
:100030000C9405010C9405010C9405010C94050128
:100040000C9405010C9405010C9405010C94050118
:100050000C9405010C9405010C9405010C94050108
:100060000C9405010C9405010C9405010C940501F8
:100070000C9405010C9405010C9405011202140264
:10008000170219021C021E02210223022602280264
:100090002A022D022F0231023302350237023902C1
:1000A0003B02B302B302B302B3023D023F0241027C
:1000B00043029A029D02AD02AA02B302B302B30246
:1000C000B3024502470249024B024D024F02510260
:1000D00053025502570259025B02B302B302B30244
:1000E000B3025D025F02B1026102630267026A024B
:1000F0006E02710277027402700273027602790254
:100100007B027D027F0281028302850287028902CF
:100110008B028D028F02910293029502970299023F
:100120009C029F02A102A302A502A702A902AC029F
:10013000B002C002C402C202C602CC02D302D5027F
:10014000D702D902E302E6023A033C033E0340032E
:1001500042034403460348034A034C034E0352033D
:10016000090212000101008096090400000000004D
:10017000000012011001FF000008C016DC0500029B
:10018000010200011E0349004E004C0020005200F5
:100190006500740072006F002D00500072006F0047
:1001A00067002A0349006E00660069006E0069005E
:1001B000740065004E00650073004C006900760015
:1001C000650073002E0063006F006D0004030904D6
:1001D00011241FBECFEFD4E0DEBFCDBF11E0A0E001
:1001E000B1E0E6E5FDE002C005900D92A230B10756
:1001F000D9F711E0A2E0B1E001C01D92A533B1072B
:10020000E1F70E9482060C94A9060C94000011B834
:100210008FEF82B914B885B917B888B98AB18471DB
:100220008AB98BB18B6E8BB9509858985198599A5E
:1002300008950E940701399A419A389A40983A9A4B
:10024000429A3C9A449A3D9A459A3F9A479A4798CF
:100250008FEF84B915B8479A479814B812B881B986
:1002600014B885B95998519A08950E940701399A8E
:10027000419A3C9A449A3D9A459A509A589A3F9A84
:10028000479A4798579A3B9A439A43988FEF84B975
:1002900015B8479A479814B884B915B8439A439843
:1002A00014B812B881B914B885B95998519A0895FB
:1002B000813049F028F0823051F40E94350105C0A8
:1002C0000E94070102C00E94190180E0089586E99A
:1002D00008959FEF94B985B9479A479862B945B98F
:1002E0005898509A5098589A14B808955098589819
:1002F0004098419A429A62B99FEF94B985B9479A5A
:10030000479814B800000000409A87FD419800000B
:100310000000000000000000000083B14098419AF6
:10032000089562B99FEF94B985B9479A479814B870
:10033000409A87FD4198000000000000000083B152
:100340004098419A08955898509A9FEF94B962B98D
:1003500085B9479A4798429845B9409A87FD419890
:10036000000000004098419A429A14B8089562B97A
:10037000803220F48FEF84B915B803C09FEF94B991
:1003800085B9479A479814B84498000000000000C7
:10039000000083B1449A0895CF93DF93982F862F5E
:1003A000642FE901913839F0923851F0903859F4BE
:1003B0000E94760102C00E949101888380E004C0FF
:1003C0000E94B701FACF81EADF91CF9108959FEFA4
:1003D00094B962B9803210F415B801C085B9479A52
:1003E000479845B945980000459A14B80895982F44
:1003F000862F642F422F992329F0913039F40E94DF
:10040000E70102C00E94690180E0089580EA089532
:1004100090E08B35910508F0A6C0FC01E25CFF4F2F
:100420000C94A30611B89AC08FEF81B997C012B887
:1004300095C08FEF82B992C014B890C08FEF84B985
:100440008DC015B88BC08FEF85B988C017B886C02E
:1004500018B884C08FEF88B981C038987FC0389AA7
:100460007DC040987BC0409A79C0399877C0399A4E
:1004700075C0419873C0419A71C03A986FC03A9A5A
:100480006DC042986BC0429A69C03C9867C03C9A64
:1004900065C0449863C0449A61C03D985FC03D9A6E
:1004A0005DC045985BC0459A59C03E9857C03E9A7A
:1004B00055C0469853C0469A51C03F984FC03F9A86
:1004C0004DC0479A4BC08AB184718AB947C08BB17D
:1004D000847102C08BB18B6E8BB940C050983EC006
:1004E0005898509A3BC05098589A38C0509858988D
:1004F00035C0519833C0519A31C059982FC0599A7C
:100500002DC053982BC0539A29C05B9827C05B9A83
:1005100025C0559823C0559A21C05D981FC05D9A8B
:100520001DC056981BC0569A19C05E9817C05E9A97
:1005300015C057983B9812C0579A3B9A0FC05798CE
:100540000DC0579A0BC05F9809C05F9A07C05F98AB
:1005500004C05F9A439A02C0439A439880E008958A
:10056000479A4798FBCF8CE8089590E0FC01E0584B
:10057000F109EB30F105A0F5E756FF4F0C94A30607
:1005800062B922C08FEF84B965B91EC08FEF84B9FC
:1005900065B9479A479805C08FEF84B965B9439A02
:1005A000439814B811C061B90FC064B90DC067B9E0
:1005B0000BC09AB1862F846189238AB98AB16B7E78
:1005C000682B6AB901C068B980E008959BB1862F95
:1005D000846189238BB98BB16B7E682B6BB9F4CFA7
:1005E0008DE80895813A61F0823AB9F0803A11F5C8
:1005F0008FEF84B965B9479A479814B842B916C0C5
:100600008FEF84B965B9479A479814B842B967FF24
:1006100002C041980BC0419A09C042B98FEF84B91A
:10062000603230F415B8479A479814B880E00895BE
:1006300065B9F9CF8EE80895803B61F422B98FEF58
:1006400084B945B9479A479865B9439A439814B80D
:1006500080E008958FE80895CF93DF93EB0190E059
:10066000805C91098C309105F8F48C559F4FFC010A
:100670000C94A30680B113C083B111C086B10FC022
:1006800089B10DC082B10BC085B109C088B107C066
:100690008BB105C081B103C084B101C087B188832B
:1006A00080E003C08AB1FBCF80E9DF91CF9108954C
:1006B0000F93811102C0589A01C058988FEF84B9E6
:1006C00022B945B9479A479805B9611101C04198C7
:1006D000459800000000459A419A14B858980F9127
:1006E00008950F93022F813061F030F0823089F449
:1006F000242F462F6FEF08C0242F462F60E081E0A3
:1007000004C0242F462F60E080E00E94580380E060
:1007100001C08AEA0F9108950F93811102C0589A7F
:1007200001C058988FEF84B902B925B9479A479804
:1007300045B9439A439814B8611101C0419844984F
:10074000000000000000000083B1449A419A5898CC
:100750000F9108950F931F93CF93DF93E801813892
:1007600051F0823891F08038A9F4022F242F462FBF
:1007700060E081E005C0022F242F462F60E080E07A
:100780000E948C03888380E006C0022F242F462F0E
:100790006FEFF5CF8BEADF91CF911F910F91089505
:1007A0000F931F93CF93FC01C081CC1FCC27CC1F8C
:1007B0008181823049F118F4813031F056C08330A4
:1007C00039F18430A9F151C08281803B38F4803AFC
:1007D00088F4803858F40E94080248C0803C78F4BD
:1007E0002481458163810E941C0340C064810E9472
:1007F000B5023CC0448165810E94F20237C063E0CB
:1008000071E00E942C032DC082810E9458012EC0ED
:100810008281803830F42381448165810E94F70110
:1008200025C023E031E0448165810E94CC0119C0DC
:100830002281638144817581822F90E0203840F4C9
:10084000262F30E050E0672F70E00E9471030EC049
:10085000242F30E0472F50E070E003E011E00E94C9
:10086000AA0380930201CF5F03C080E88093020156
:1008700082E091E090931A01809319018C2FCF911F
:100880001F910F91089581E00895CF93DF936091B8
:100890001B01635067FDA4C080911801CCE0D0E03B
:1008A000C81BD109C15EDE4F809117018D3209F05E
:1008B00085C0683009F092C083EC80930B018AE513
:1008C0008093010110920A018881807621F0CE0187
:1008D0000E94D00360C08A81109214019981911105
:1008E00006C01092150124E131E082E050C095303D
:1008F00019F480931C013DC09630A9F59B8191307D
:1009000019F482E791E004C0923041F480E691E06E
:1009100090931A018093190182E121C09330F1F480
:10092000811108C08CEC91E090931A018093190119
:1009300084E015C0813041F482EA91E090931A017D
:10094000809319018AE20BC0823041F484E891E07F
:1009500090931A01809319018EE101C080E090E428
:1009600090930A0118C0983079F0993031F480934F
:100970001E0124E131E080E00AC081E09A3009F0F4
:1009800080E024E131E003C02EE131E081E03093EA
:100990001A01209319018F3F39F4988197FD8E81B8
:1009A00090E890930A0107C09F81911104C09E8135
:1009B000981708F4892F8093000110C080910A01D4
:1009C00087FF0CC0CE010E9443048F3F21F48EE1CB
:1009D0008093010103C081111092000110921B014C
:1009E0008091010184FF4DC0809100018F3F09F487
:1009F00048C0C82F893008F0C8E08C1B80930001E4
:100A000080910B0198E8892780930B01CC2361F139
:100A10008091190190911A0120910A0126FF12C0BC
:100A2000ACE0B1E02BE031E020953095280F391F84
:100A30004C2F4A0FF901EA0FFB1FE491ED934A1383
:100A4000F9CF09C0ECE0F1E0DC012C2F2E0F3D9135
:100A500031932E13FCCF01962FEF2C0F820F911D97
:100A600090931A01809319016C2F8CE091E00E9401
:100A70006A05CC5FCC3019F08FEF80930001C093F2
:100A8000010184E199B1947131F48150D9F7109248
:100A90001C0110921601DF91CF910895E9E6F0E074
:100AA000808182608083E89A0895A82FB92F80E022
:100AB00090E041E050EA609530E009C02D91822736
:100AC0009795879510F084279527305EC8F36F5F60
:100AD000A8F30895EADF8D939D930895CF93CFB740
:100AE000CF93DF93C3954C9BE9F74C9B0BC04C9B7A
:100AF00009C04C9B07C04C9B05C04C9B03C04C9B42
:100B000001C089C06F93C0911801DD27C15EDE4F1F
:100B10002F9365E54C9B03C02F916F91E6CF0F9308
:100B20001F934F9320E040E15F9309B1047104FBF0
:100B300027F93F9350E03BE039C0147140642F77B0
:100B4000012F5F5F1EC0406819B114712F7752509A
:100B50001FC0406409B12F770471D1F15F5F00C0FD
:100B600023C0406219B12F77147191F15F5F00C00B
:100B700025C004711027515012F45D5F0000115020
:100B800027952C3F19B1C8F61471012701502795FC
:100B90002C3FC8F64227499309B1047110274F73BF
:100BA000115027952C3FA8F64695469519B114711A
:100BB00079F00127015027952C3F98F66B5A60F386
:100BC000315009B1B0F600C011E01CBB002717C0BE
:100BD0003B503195C31BD04011E01CBB0881033C46
:100BE000F9F00B34E9F0209116011981110F12135D
:100BF000EDCF093651F10D3211F0013E39F7009376
:100C00001D013F915F914F911F910F912F916F9116
:100C1000CCB3C0FD67CFDF91CF91CFBFCF911895F7
:100C200020911D01222369F310911B01112339F535
:100C300034303AF130931B012093170110911801C1
:100C40003BE0311B309318011CC000911B010130A7
:100C5000B4F40AE53091010134FD14C000930101A0
:100C6000CBE0D1E013C0052710E000C000000BB9B5
:100C70001AC0052710E0221F1DC010E021C04AE560
:100C800002C032ED432FC4E1D0E032E01AB114616A
:100C90005C9A0BB11AB954E120E865E320FF0527FF
:100CA0000BB9279517951C3FF0F66695B8F7B1F785
:100CB00020FF05270BB9279517951C3FD0F62795E0
:100CC000179517FF052700001C3F0BB9B0F62991B7
:100CD0003A9519F70B7E10911C01110FC651D040A7
:100CE0000BB911F01093160111E01CBB00611AB191
:100CF0001B7E402F4B7E54E05A95F1F70BB91AB981
:100D00004BB97FCF2EE088E190E00FB6F894A8951C
:100D1000809360000FBE209360000E944E05549A9D
:100D200080E0815041F0A895EFE9FFE03197F1F7BD
:100D300000C00000F6CF54980E9407017894A8954F
:100D40000E944504FCCFEE0FFF1F0590F491E02DAB
:060D50000994F894FFCFA6
:020D5600FF5A42
:00000001FF
