:100000000C94D1000C94B1040C94EE000C94EE000E
:100010000C94EE000C94EE000C94EE000C94EE00A8
:100020000C94EE000C94EE000C94EE000C94EE0098
:100030000C94EE000C94EE000C94EE000C94EE0088
:100040000C94EE000C94EE000C94EE000C94EE0078
:100050000C94EE000C94EE000C94EE000C94EE0068
:100060000C94EE000C94EE000C94EE000C94EE0058
:100070000C94EE000C94EE000C94EE00C601C80146
:10008000CB01CD01D001D201D501D701DA01DC01CC
:10009000DE01E101E301E501E701E901EB01ED0129
:1000A000EF01C401C401C401C401F101F301F50170
:1000B000F701C401C401C401C401F901FB01FD0140
:1000C000FF01010203020502070209020B020D02F1
:1000D0000F021102130215021702C401C401C40168
:1000E000C40119021B021D021F022102250228025F
:1000F0002C022F02350232022E0231023402370264
:1001000039023B023D023F024102430245024702DF
:1001100049024B024D024F0251025302550257024F
:100120005902C401C401C401C4015E025B025D0244
:100130006102040309042A0349006E006600690095
:100140006E006900740065004E00650073004C008D
:1001500069007600650073002E0063006F006D007B
:100160001E0349004E004C00200052006500740040
:1001700072006F002D00500072006F0067001201C6
:100180001001FF000008C016DC050002010200019A
:10019000090212000101008096090400000000001D
:1001A000000011241FBECFEFD4E0DEBFCDBF11E0B1
:1001B000A0E0B1E0EEE8FBE002C005900D92A230B5
:1001C000B107D9F711E0A2E0B1E001C01D92A5335B
:1001D000B107E1F70E9453010C94C5050C9400008F
:1001E00011B88FEF82B914B885B917B888B98AB138
:1001F00084718AB98BB18B6E8BB95098589851988D
:10020000599A08950E94F000399A419A389A409874
:100210003A9A429A3C9A449A3D9A459A3F9A479A0A
:1002200047988FEF84B915B8479A479814B812B811
:1002300081B914B885B95998519A08950E94F0006F
:10024000399A419A3C9A449A3D9A459A509A589ABA
:100250003F9A479A4798579A5F9A5F988FEF84B969
:1002600015B8479A479814B884B915B85F9A5F983B
:1002700014B812B881B914B885B95998519A08952B
:10028000813049F0813020F0823049F086E90895CC
:100290000E94F00002C00E94020180E008950E94C6
:1002A0001E0180E008952EE088E190E00FB6F894FA
:1002B000A895809360000FBE209360000E948C037D
:1002C000549A20E040EA5FE004C0A895CA01019773
:1002D000F1F72150D1F754980E94F0007894A89536
:1002E0000E949303FCCF9FEF94B985B9479A479832
:1002F00045B962B95898509A5098589A14B80895C8
:10030000882311F080EA0895862F642F422F0E94DF
:10031000730180E00895509858984098419A429A05
:1003200062B99FEF94B985B9479A479814B800000D
:10033000000087FF03C0409A419801C0409A000026
:1003400000000000000083B14098419A0895CF93C7
:10035000DF93E901803811F081EA06C0862F642F0F
:100360000E948B01888380E0DF91CF910895E82F70
:10037000F0E0EB35F10540F4E25CFF4FEE0FFF1FBC
:100380000590F491E02D09948CE8089511B897C078
:100390008FEF81B994C012B892C08FEF82B98FC02D
:1003A00014B88DC08FEF84B98AC015B888C08FEF9C
:1003B00085B985C017B883C018B881C08FEF88B9D8
:1003C0007EC038987CC0389A7AC0409878C0409AED
:1003D00076C0399874C0399A72C0419870C0419AF9
:1003E0006EC03A986CC03A9A6AC0429868C0429A05
:1003F00066C03B9864C03B9A62C0439860C0439A11
:100400005EC03C985CC03C9A5AC0449858C0449A1C
:1004100056C03D9854C03D9A52C0459850C0459A28
:100420004EC03E984CC03E9A4AC0469848C0469A34
:1004300046C03F9844C03F9A42C0479840C0479A40
:100440003EC08AB184718AB93AC08BB1847102C04E
:100450008BB18B6E8BB933C0509831C05898509A7D
:100460002EC05098589A2BC05098589828C0519830
:1004700026C0519A24C0599822C0599A20C0539836
:100480001EC0539A1CC05B981AC05B9A18C055983E
:1004900016C0559A14C05D9812C05D9A10C0569847
:1004A0000EC0569A0CC05E980AC05E9A08C0579853
:1004B00006C0579A04C05F9A02C05F9A5F9880E0B6
:1004C0000895479A479880E00895853891F18638D5
:1004D00070F48238E9F0833828F48038B9F0813834
:1004E00099F418C08338C1F0843871F41BC088387F
:1004F00031F1893828F48638F1F0873829F41DC0A5
:10050000893839F18A3841F18DE8089562B922C0FD
:100510008FEF84B965B91EC08FEF84B965B9479A6A
:10052000479805C08FEF84B965B95F9A5F9814B892
:1005300011C061B90FC064B90DC067B90BC08AB1F1
:10054000962F946198239AB98AB16B7E862B8AB9CB
:1005500001C068B980E008958BB1962F946198230B
:100560009BB98BB16B7E862B8BB980E00895813A65
:1005700071F0823AC9F0803A11F08EE808958FEF59
:1005800084B965B9479A479814B842B917C08FEF34
:1005900084B965B9479A479814B842B967FF02C051
:1005A00041980CC0419A0AC042B9603248F48FEFBA
:1005B00084B9607865B9479A479814B880E008957F
:1005C0008FEF84B965B9479A479814B880E00895C9
:1005D000803B11F08FE8089522B98FEF84B945B9B7
:1005E000479A479865B95F9A5F9814B880E0089574
:1005F000FB01853C59F1863C70F4823C09F1833C57
:1006000028F4803CC9F0813CA9F418C0833CD1F0A7
:10061000843C81F419C0883CF9F0893C28F4863C7C
:10062000B9F0873C39F416C08A3CD1F08A3CB0F06E
:100630008B3CD1F080E9089580B113C083B111C023
:1006400086B10FC089B10DC082B10BC085B109C0A0
:1006500088B107C08BB105C081B103C084B101C0AE
:1006600087B1808380E008958AB1808380E0089517
:1006700081E008951F93FC0110E0808187FD11E067
:100680008181823031F1833041F18130C9F582813D
:10069000803B28F4803A68F4803820F006C0803C23
:1006A00068F012C00E94B7012CC064810E946502EC
:1006B00028C0658144810E94B70223C063814581BF
:1006C00024810E94E8021DC063E071E00E94F802EC
:1006D00013C082810E94400114C08281803830F4AE
:1006E0006581448123810E9480010BC06581448122
:1006F00023E031E00E94A701809302011F5F03C045
:1007000080E88093020182E091E090931A01809347
:100710001901812F1F910895E9E6F0E08081826040
:100720008083E89A08951F93CF93DF9360911B0114
:10073000635067FDA5C080911801CCE0D0E0C81BD4
:10074000D109C15EDE4F809117018D3209F085C05D
:10075000683009F093C083EC80930B018AE58093A5
:10076000000110920A018881807641F0CE010E943A
:100770003A03282F8F3F09F45FC065C09A81109219
:1007800014018981882321F41092150122E04DC0C3
:10079000853019F490931C0147C08630B1F58B81E8
:1007A000813019F48EE791E004C0823041F480E991
:1007B00091E090931A018093190122E122C08330C5
:1007C000F9F48A81882341F482E391E090931A013D
:1007D0008093190124E015C0813041F486E391E053
:1007E00090931A01809319012AE20BC0823041F4E0
:1007F00080E691E090931A01809319012EE101C0E7
:1008000020E080E480930A011EC0883021F421E0BA
:100810008EE191E00CC0893019F490931E0104C060
:100820008A3011F421E001C020E084E191E090934E
:100830001A018093190107C0888187FD2E8180E805
:1008400080930A0106C08F81882319F48E81821754
:1008500008F0822F8093010111C080910A0187FF67
:100860000DC0CE010E9438038F3F21F48EE18093AA
:10087000000104C0882311F01092010110921B01A5
:100880008091000184FF46C0809101018F3F09F4EF
:1008900041C0182F893008F018E0811B80930101B6
:1008A00080910B0198E8892780930B01112321F196
:1008B0002091190130911A0180910A0186FF0AC026
:1008C000912FF901ACE0B1E084918D933196915074
:1008D000D9F708C0912FD901ECE0F1E08D91819317
:1008E0009150E1F7C90101961150810F911D1F5FD1
:1008F00090931A01809319018CE091E0612F0E947E
:10090000AD04612F6C5F6C3019F08FEF80930101A3
:100910006093000194E189B1847131F49150D9F769
:1009200010921C0110921601DF91CF911F91089532
:10093000A82FB92F80E090E041E050EA609530E0C8
:1009400009C02D9182279795879510F084279527C8
:10095000305EC8F36F5FA8F30895EADF8D939D932F
:100960000895CF93CFB7CF93DF93C3954C9BE9F70F
:100970004C9B0BC04C9B09C04C9B07C04C9B05C0BB
:100980004C9B03C04C9B01C089C06F93C091180160
:10099000DD27C15EDE4F2F9365E54C9B03C02F9191
:1009A0006F91E6CF0F931F934F9320E040E15F9349
:1009B00009B1047104FB27F93F9350E03BE039C0D3
:1009C000147140642F77012F5F5F1EC0406819B11A
:1009D00014712F7752501FC0406409B12F770471F2
:1009E000D1F15F5F00C023C0406219B12F7714714D
:1009F00091F15F5F00C025C004711027515012F4BF
:100A00005D5F0000115027952C3F19B1C8F6147195
:100A10000127015027952C3FC8F64227499309B179
:100A2000047110274F73115027952C3FA8F6469557
:100A3000469519B1147179F00127015027952C3F83
:100A400098F66B5A60F3315009B1B0F600C011E06E
:100A50001CBB002717C03B503195C31BD04011E091
:100A60001CBB0881033CF9F00B34E9F0209116011E
:100A70001981110F1213EDCF093651F10D3211F01A
:100A8000013E39F700931D013F915F914F911F91F6
:100A90000F912F916F91CCB3C0FD67CFDF91CF91B4
:100AA000CFBFCF91189520911D01222369F310919A
:100AB0001B01112339F534303AF130931B01209397
:100AC0001701109118013BE0311B309318011CC035
:100AD00000911B010130B4F40AE53091000134FDAE
:100AE00014C000930001CBE0D1E013C0052710E053
:100AF00000C000000BB91AC0052710E0221F1DC05E
:100B000010E021C04AE502C032ED432FC4E1D0E03D
:100B100032E01AB114615C9A0BB11AB954E120E8C1
:100B200065E320FF05270BB9279517951C3FF0F6C5
:100B30006695B8F7B1F720FF05270BB927951795EC
:100B40001C3FD0F62795179517FF052700001C3F7F
:100B50000BB9B0F629913A9519F70B7E10911C014B
:100B6000110FC651D0400BB911F01093160111E0CE
:100B70001CBB00611AB11B7E402F4B7E54E05A957E
:0E0B8000F1F70BB91AB94BB97FCFF894FFCF3C
:020B8E005AFF0C
:00000001FF
