:100000000C94E8000C94F8050C9405010C9405017F
:100010000C9405010C9405010C9405010C94050148
:100020000C9405010C9405010C9405010C94050138
:100030000C9405010C9405010C9405010C94050128
:100040000C9405010C9405010C9405010C94050118
:100050000C9405010C9405010C9405010C94050108
:100060000C9405010C9405010C9405010C940501F8
:100070000C9405010C9405010C9405016F027102AA
:100080007402760279027B027E028002830285027C
:1000900087028A028C028E029002920294029602D9
:1000A00098020F030F030F030F039A029C029E0294
:1000B000A0020F030F030F030F03A202A402A60264
:1000C000A802AA02AC02AE02B002B202B402B602A8
:1000D000B802BA02BC02BE02C002C202C402C60218
:1000E000C802C202C402C602C802CA02CE02D102BB
:1000F000D502D802DE02DB02D702DA02DD02E0021C
:10010000E202E402E602E802EA02EC02EE02F00297
:10011000F202F402F602F802FA02FC02FE02000306
:100120000203000302030403060304030603080397
:100130000C031C0320031E03220328032F03310397
:10014000330335033F034203AD03AF03B103B303EE
:10015000B503B703B903BB03BD03BF03C103C503A5
:10016000090212000101008096090400000000004D
:10017000000012011001FF000008C016DC0500029B
:10018000010200011E0349004E004C0020005200F5
:100190006500740072006F002D00500072006F0047
:1001A00067002A0349006E00660069006E0069005E
:1001B000740065004E00650073004C006900760015
:1001C000650073002E0063006F006D0004030904D6
:1001D00011241FBECFEFD4E0DEBFCDBF11E0A0E001
:1001E000B1E0EAE6FEE002C005900D92A230B10750
:1001F000D9F711E0A2E0B1E001C01D92A733B10729
:10020000E1F70E940C070C9433070C94000011B81E
:100210008FEF82B914B885B917B888B98AB18471DB
:100220008AB98BB18B6E8BB9509858985198599A5E
:100230000895CF930E940701399A419A389A4098BD
:100240003A9A429A3C9A449A3D9A459A3F9A0E9419
:100250005802CFEFC4B915B80E94580214B812B8AA
:10026000C1B914B8C5B95998519ACF910895CF938F
:100270000E940701399A419A3C9A449A3D9A459ABC
:10028000509A589A3F9A0E945802579A0E944302E5
:10029000CFEFC4B915B80E94580214B8C4B915B844
:1002A0000E94430214B812B8C1B914B8C5B959981C
:1002B000519ACF910895813049F028F0823051F45D
:1002C0000E94370105C00E94070102C00E94190167
:1002D00080E0089586E90895CF93DF9300D0CDB7ED
:1002E000DEB79FEF94B985B94A8369830E945802AB
:1002F000698162B94A8145B95898509A5098589A7C
:1003000014B80F900F90DF91CF910895CF93DF93A2
:100310001F92CDB7DEB7509858984098419A429AAC
:1003200062B99FEF94B985B989830E94580214B8C5
:10033000000000008981409A87FD4198000000007C
:10034000000000000000000083B14098419A0F9027
:10035000DF91CF910895CF93DF931F92CDB7DEB792
:1003600062B99FEF94B985B989830E94580214B885
:10037000409A898187FD419800000000000000003C
:1003800083B14098419A0F90DF91CF910895CF9318
:10039000DF9300D0CDB7DEB75898509A9FEF94B94D
:1003A00062B985B94A8389830E94580242984A817A
:1003B00045B9409A898187FD419800000000409826
:1003C000419A429A14B80F900F90DF91CF910895FF
:1003D00062B9803220F48FEF84B915B803C09FEF63
:1003E00094B985B90E94580214B8449800000000DE
:1003F0000000000083B1449A0895CF93DF93982FB3
:10040000862F642FE901913839F0923851F09038F5
:1004100059F40E94860102C00E94AB01888380E0EB
:1004200004C00E94E801FACF81EADF91CF910895DC
:10043000CF93DF931F92CDB7DEB79FEF94B962B928
:10044000803210F415B801C085B949830E94580262
:10045000498145B945980000459A14B80F90DF913D
:10046000CF910895982F862F642F422F992329F03A
:10047000913039F40E94180202C00E946C0180E0A1
:10048000089580EA089585B18093020182B1909128
:10049000030195B99FEF91B99091020192B93F9AEA
:1004A0004798479A47989091020195B982B9089563
:1004B00085B18093030182B19FEF91B990910201C0
:1004C00092B9479A479882B9089590E08B35910583
:1004D00008F0A5C0FC01E25CFF4F0C942D0711B899
:1004E00099C08FEF81B996C012B894C08FEF82B9CE
:1004F00091C014B88FC08FEF84B98CC015B88AC072
:100500008FEF85B987C017B885C018B883C08FEF43
:1005100088B980C038987EC0389A7CC040987AC02C
:10052000409A78C0399876C0399A74C0419872C0A0
:10053000419A70C03A986EC03A9A6CC042986AC0AC
:10054000429A68C03B9866C03B9A64C0439862C0B8
:10055000439A60C03C985EC03C9A5CC044985AC0C4
:10056000449A58C03D9856C03D9A54C0459852C0D0
:10057000459A50C03E984EC03E9A4CC046984AC0DC
:10058000469A48C03F9846C03F9A44C0479842C0E8
:10059000479A40C08AB184718AB93CC08BB18471DA
:1005A00002C08BB18B6E8BB935C0509833C0589850
:1005B000509A30C05098589A2DC0509858982AC0D8
:1005C000519828C0519A26C0599824C0599A22C0DF
:1005D000539820C0539A1EC05B981CC05B9A1AC0E7
:1005E000559818C0559A16C05D9814C05D9A12C0EF
:1005F000569810C0569A0EC05E980CC05E9A0AC0FB
:10060000579808C0579A06C05F9804C05F9A02C006
:100610000E94430280E008950E945802FBCF8CE8BC
:10062000089590E0FC01E058F109EB30F105A0F5E8
:10063000E756FF4F0C942D0762B922C08FEF84B9A3
:1006400065B91EC08FEF84B965B90E94580205C014
:100650008FEF84B965B90E94430214B811C061B923
:100660000FC064B90DC067B90BC09AB1862F846101
:1006700089238AB98AB16B7E682B6AB901C068B9CF
:1006800080E008959BB1862F846189238BB98BB15B
:100690006B7E682B6BB9F4CF8DE808951F93CF93D1
:1006A000DF931F92CDB7DEB7142F813A61F0823A03
:1006B000C9F0803A21F58FEF84B965B90E945802DC
:1006C00014B812B918C08FEF84B965B969830E9454
:1006D000580214B812B9698167FF02C041980BC073
:1006E000419A09C042B98FEF84B9603230F415B82D
:1006F0000E94580214B880E003C065B9F9CF8EE8B3
:100700000F90DF91CF911F910895CF93DF931F92A8
:10071000CDB7DEB7803B71F422B98FEF84B945B90C
:1007200069830E945802698165B90E94430214B826
:1007300080E001C08FE80F90DF91CF910895CF93B3
:10074000DF93EB0190E0805C91098C309105F8F427
:100750008C559F4FFC010C942D0780B113C083B1C1
:1007600011C086B10FC089B10DC082B10BC085B177
:1007700009C088B107C08BB105C081B103C084B185
:1007800001C087B1888380E003C08AB1FBCF80E9D4
:10079000DF91CF9108950F93CF93DF931F92CDB741
:1007A000DEB7811102C0589A01C058988FEF84B902
:1007B00022B945B969830E94580205B9698161115E
:1007C00001C04198459800000000459A419A14B82C
:1007D00058980F90DF91CF910F9108950F93022FAA
:1007E000813061F030F0823089F4242F462F6FEF92
:1007F00008C0242F462F60E081E004C0242F462F3C
:1008000060E080E00E94CB0380E001C08AEA0F91A3
:1008100008950F93CF93DF9300D0CDB7DEB781114A
:1008200002C0589A01C058988FEF84B902B925B90F
:1008300049836A830E945802498145B90E94430254
:1008400014B86A81611101C0419844980000000009
:100850000000000083B1449A419A58980F900F907D
:10086000DF91CF910F9108950F931F93CF93DF9353
:10087000E801813851F0823891F08038A9F4022FD4
:10088000242F462F60E081E005C0022F242F462F41
:1008900060E080E00E940904888380E006C0022FA7
:1008A000242F462F6FEFF5CF8BEADF91CF911F9169
:1008B0000F9108950F931F93CF93FC01C081CC1F1C
:1008C000CC27CC1F8181823049F118F4813031F07E
:1008D00056C0833039F18430A9F151C08281803B08
:1008E00038F4803A88F4803858F40E94650248C091
:1008F000803C78F42481458163810E94850340C057
:1009000064810E9411033CC0448165810E944E03B2
:1009100037C065E071E00E949F032DC082810E9474
:100920005B012EC08281803830F42381448165814F
:100930000E94320225C025E031E0448165810E9499
:10094000FD0119C02281638144817581822F90E06D
:10095000203840F4262F30E050E0672F70E00E94EE
:10096000EE030EC0242F30E0472F50E070E005E08A
:1009700011E00E94340480930401CF5F03C080E83B
:100980008093040184E091E090931C0180931B010B
:100990008C2FCF911F910F91089581E00895CF93EF
:1009A000DF9360911D01635067FDA4C080911A011F
:1009B000CCE0D0E0C81BD109CF5DDE4F809119019A
:1009C0008D3209F085C0683009F092C083EC8093C5
:1009D0000D018AE58093010110920C0188818076D7
:1009E00021F0CE010E945A0460C08A811092160143
:1009F0009981911106C01092170126E131E082E041
:100A000050C0953019F480931E013DC09630A9F571
:100A10009B81913019F482E791E004C0923041F457
:100A200080E691E090931C0180931B0182E121C03C
:100A30009330F1F4811108C08CEC91E090931C018B
:100A400080931B0184E015C0813041F482EA91E07B
:100A500090931C0180931B018AE20BC0823041F409
:100A600084E891E090931C0180931B018EE101C00A
:100A700080E090E490930C0118C0983079F09930A0
:100A800031F48093200126E131E080E00AC081E06A
:100A90009A3009F080E026E131E003C020E231E045
:100AA00081E030931C0120931B018F3F39F4988122
:100AB00097FD8E8190E890930C0107C09F81911162
:100AC00004C09E81981708F4892F8093000110C0FC
:100AD00080910C0187FF0CC0CE010E94CD048F3F96
:100AE00021F48EE18093010103C081111092000175
:100AF00010921D018091010184FF4DC08091000181
:100B00008F3F09F448C0C82F893008F0C8E08C1B1B
:100B10008093000180910D0198E8892780930D0151
:100B2000CC2361F180911B0190911C0120910C015B
:100B300026FF12C0AEE0B1E02DE031E02095309507
:100B4000280F391F4C2F4A0FF901EA0FFB1FE491C0
:100B5000ED934A13F9CF09C0EEE0F1E0DC012C2F50
:100B60002E0F3D9131932E13FCCF01962FEF2C0FBA
:100B7000820F911D90931C0180931B016C2F8EE0BE
:100B800091E00E94F405CC5FCC3019F08FEF809398
:100B90000001C093010184E199B1947131F4815055
:100BA000D9F710921E0110921801DF91CF9108958C
:100BB000E9E6F0E0808182608083E89A0895A82FBA
:100BC000B92F80E090E041E050EA609530E009C044
:100BD0002D9182279795879510F084279527305E71
:100BE000C8F36F5FA8F30895EADF8D939D9308958E
:100BF000CF93CFB7CF93DF93C3954C9BE9F74C9B33
:100C00000BC04C9B09C04C9B07C04C9B05C04C9B28
:100C100003C04C9B01C089C06F93C0911A01DD27AE
:100C2000CF5DDE4F2F9365E54C9B03C02F916F91F5
:100C3000E6CF0F931F934F9320E040E15F9309B1FC
:100C4000047104FB27F93F9350E03BE039C0147175
:100C500040642F77012F5F5F1EC0406819B1147187
:100C60002F7752501FC0406409B12F770471D1F122
:100C70005F5F00C023C0406219B12F77147191F1FA
:100C80005F5F00C025C004711027515012F45D5FF2
:100C90000000115027952C3F19B1C8F61471012797
:100CA000015027952C3FC8F64227499309B104719A
:100CB00010274F73115027952C3FA8F6469546955F
:100CC00019B1147179F00127015027952C3F98F63E
:100CD0006B5A60F3315009B1B0F600C011E01CBB93
:100CE000002717C03B503195C31BD04011E01CBBFF
:100CF0000881033CF9F00B34E9F0209118011981C7
:100D0000110F1213EDCF093651F10D3211F0013EE2
:100D100039F700931F013F915F914F911F910F9100
:100D20002F916F91CCB3C0FD67CFDF91CF91CFBF33
:100D3000CF91189520911F01222369F310911D0175
:100D4000112339F534303AF130931D012093190104
:100D500010911A013BE0311B30931A011CC0009125
:100D60001D010130B4F40AE53091010134FD14C0D5
:100D700000930101CDE0D1E013C0052710E000C0D1
:100D800000000BB91AC0052710E0221F1DC010E09B
:100D900021C04AE502C032ED432FC4E1D0E032E089
:100DA0001AB114615C9A0BB11AB954E120E865E3F9
:100DB00020FF05270BB9279517951C3FF0F6669580
:100DC000B8F7B1F720FF05270BB9279517951C3FFA
:100DD000D0F62795179517FF052700001C3F0BB984
:100DE000B0F629913A9519F70B7E10911E01110F5B
:100DF000C651D0400BB911F01093180111E01CBB83
:100E000000611AB11B7E402F4B7E54E05A95F1F7DA
:100E10000BB91AB94BB97FCF2EE088E190E00FB63D
:100E2000F894A895809360000FBE209360000E9404
:100E3000D805549A80E0815041F0A895EFE9FFE091
:100E40003197F1F700C00000F6CF54980E940701D7
:100E50007894A8950E94CF04FCCFEE0FFF1F059059
:0A0E6000F491E02D0994F894FFCFFF
:020E6A00FF5A2D
:00000001FF
