:100000000C94D1000C94E8060C94EE000C94EE00D5
:100010000C94EE000C94EE000C94EE000C94EE00A8
:100020000C94EE000C94EE000C94EE000C94EE0098
:100030000C94EE000C94EE000C94EE000C94EE0088
:100040000C94EE000C94EE000C94EE000C94EE0078
:100050000C94EE000C94EE000C94EE000C94EE0068
:100060000C94EE000C94EE000C94EE000C94EE0058
:100070000C94EE000C94EE000C94EE00DB02DD021A
:10008000E002E202E502E702EA02EC02EF02F1021C
:10009000F302F602F802FA02FC02FE020003020377
:1000A0000403D902D902D902D902060308030A03BC
:1000B0000C03D902D902D902D9020E03100312038C
:1000C0001403160318031A031C031E032003220340
:1000D0002403260328032A032C03D902D902D902B8
:1000E000D9022E0330033203340336033A033D03AF
:1000F000410344034A0347034303460349034C03B4
:100100004E03500352035403560358035A035C032F
:100110005E03600362036403660368036A036C039F
:100120006E03D902D902D902D90273037003720394
:100130007603040309042A0349006E00660069007F
:100140006E006900740065004E00650073004C008D
:1001500069007600650073002E0063006F006D007B
:100160001E0349004E004C00200052006500740040
:1001700072006F002D00500072006F0067001201C6
:100180001001FF000008C016DC050002010200019A
:10019000090212000101008096090400000000001D
:1001A000000011241FBECFEFD4E0DEBFCDBF11E0B1
:1001B000A0E0B1E0ECEFFFE002C005900D92A230AC
:1001C000B107D9F713E0A2E0B1E001C01D92AD3351
:1001D000B107E1F70E9403020C94FC070C940000A5
:1001E000E2E8F2E08FEF819392E0EA38F907D9F77D
:1001F000809305018093150180932501809335013B
:10020000809345018093550180936501809375012A
:10021000809308018093180180932801809338010E
:1002200080934801809358018093680180937801FE
:100230000895CF93DF93DC01522FE42FF0E0CF013C
:10024000820F911D099714F08EEB32C013968C919A
:1002500013978F3F11F08FEB2BC016968C9116974A
:100260008F3F11F080EC24C0EE57FD4FEF0190E07E
:1002700006C089918F3F11F081EC1AC09F5F9517DE
:10028000C0F316966C93169713961C921397242F0F
:1002900030E0C9018E579E4F8D939C93250F311DE1
:1002A0002E573D4F01C06193E217F307E1F780E05D
:1002B000DF91CF9108950F93382F882329F030587C
:1002C000383028F084EB0AC00E94F00006C0CB0151
:1002D000642F422F202F0E94190180E00F91089572
:1002E00011B88FEF82B914B885B917B888B98AB137
:1002F00084718AB98BB18B6E8BB95098589851988C
:10030000599A08950E947001399A419A389A4098F2
:100310003A9A429A3C9A449A3D9A459A3F9A479A09
:1003200047988FEF84B915B8479A479814B812B810
:1003300081B914B885B95998519A08950E947001ED
:10034000399A419A3C9A449A3D9A459A509A589AB9
:100350003F9A479A4798579A5F9A5F988FEF84B968
:1003600015B8479A479814B884B915B85F9A5F983A
:1003700014B812B881B914B885B95998519A08952A
:10038000813049F0813020F0823049F086E90895CB
:100390000E94700102C00E94820180E008950E94C4
:1003A0009E0180E00895FC0181E080835898509A76
:1003B000000089B1818350985898908189238917CA
:1003C00041F48AEA86838483828385E585838383F7
:1003D00008955098589A89B1818389B1828389B1EF
:1003E000838389B1848389B1858389B18683509859
:1003F00058980895803811F087E90895CB010E943C
:10040000D30180E008952EE088E190E00FB6F894E3
:10041000A895809360000FBE209360000E94C305E2
:10042000549A20E040EA5FE004C0A895CA01019711
:10043000F1F72150D1F754980E9470017894A89553
:100440000E94CA05FCCF9FEF94B985B9479A479897
:1004500062B945B95898509A5098589A14B8089566
:10046000509858984098419A429A62B99FEF94B92F
:1004700085B9479A479814B80000000087FF03C069
:10048000409A419801C0409A00000000000000001E
:100490000000000083B14098419A089562B99FEF2F
:1004A00094B985B9479A479814B8409A87FD4198FE
:1004B000000000000000000083B14098419A0895B8
:1004C0005898509A9FEF94B962B985B9479A47985E
:1004D000429845B9409A87FD419800000000409835
:1004E000419A429A14B80895982F62B9803220F444
:1004F0008FEF84B9907802C08FEF84B995B9479A8D
:10050000479814B84498000000000000000083B130
:10051000449A0895CF93DF93E901813859F08238E6
:1005200071F0803811F081EA10C0862F642F0E948C
:10053000300209C0862F642F0E944E0204C0862F0D
:10054000642F0E947402888380E0DF91CF91089528
:10055000982F8FEF84B962B9903208F4907895B9EA
:10056000479A479845B945980000459A14B80895A8
:10057000882321F0813049F080EA0895862F642F86
:10058000422F0E94230280E00895862F642F422F7D
:100590000E94A80280E00895E82FF0E0EB35F10515
:1005A00040F4E25CFF4FEE0FFF1F0590F491E02D49
:1005B00009948CE8089511B897C08FEF81B994C061
:1005C00012B892C08FEF82B98FC014B88DC08FEF70
:1005D00084B98AC015B888C08FEF85B985C017B8AF
:1005E00083C018B881C08FEF88B97EC038987CC0AE
:1005F000389A7AC0409878C0409A76C0399874C0CA
:10060000399A72C0419870C0419A6EC03A986CC0D5
:100610003A9A6AC0429868C0429A66C03B9864C0E1
:100620003B9A62C0439860C0439A5EC03C985CC0ED
:100630003C9A5AC0449858C0449A56C03D9854C0F9
:100640003D9A52C0459850C0459A4EC03E984CC005
:100650003E9A4AC0469848C0469A46C03F9844C011
:100660003F9A42C0479840C0479A3EC08AB18471C1
:100670008AB93AC08BB1847102C08BB18B6E8BB9D1
:1006800033C0509831C05898509A2EC05098589AFC
:100690002BC05098589828C0519826C0519A24C011
:1006A000599822C0599A20C053981EC0539A1CC012
:1006B0005B981AC05B9A18C0559816C0559A14C01A
:1006C0005D9812C05D9A10C056980EC0569A0CC024
:1006D0005E980AC05E9A08C0579806C0579A04C030
:1006E0005F9A02C05F9A5F9880E00895479A4798A2
:1006F00080E00895853891F1863870F48238E9F009
:10070000833828F48038B9F0813899F418C08338D8
:10071000C1F0843871F41BC0883831F1893828F46D
:100720008638F1F0873829F41DC0893839F18A38C4
:1007300041F18DE8089562B922C08FEF84B965B99F
:100740001EC08FEF84B965B9479A479805C08FEFEF
:1007500084B965B95F9A5F9814B811C061B90FC0C8
:1007600064B90DC067B90BC08AB1962F9461982304
:100770009AB98AB16B7E862B8AB901C068B980E0CC
:1007800008958BB1962F946198239BB98BB16B7EA2
:10079000862B8BB980E00895813A71F0823AC9F0D6
:1007A000803A11F08EE808958FEF84B965B9479AC1
:1007B000479814B842B917C08FEF84B965B9479A02
:1007C000479814B842B967FF02C041980CC0419ADB
:1007D0000AC042B9603248F48FEF84B9607865B9D5
:1007E000479A479814B880E008958FEF84B965B9A7
:1007F000479A479814B880E00895803B11F08FE83D
:10080000089522B98FEF84B945B9479A479865B9D9
:100810005F9A5F9814B880E00895FB01853C59F118
:10082000863C70F4823C09F1833C28F4803CC9F09A
:10083000813CA9F418C0833CD1F0843C81F419C0F8
:10084000883CF9F0893C28F4863CB9F0873C39F4BF
:1008500016C08A3CD1F08A3CB0F08B3CD1F080E9E4
:10086000089580B113C083B111C086B10FC089B1A2
:100870000DC082B10BC085B109C088B107C08BB172
:1008800005C081B103C084B101C087B1808380E01D
:1008900008958AB1808380E008950F93882311F42E
:1008A000589A01C058988FEF84B922B945B9479A30
:1008B000479805B9662309F441984598000000005F
:1008C000459A419A14B858980F9108950F93962F0E
:1008D000342F022F813041F0813020F0823039F006
:1008E0008AEA0CC081E001C080E060E002C080E0E4
:1008F0006FEF492F232F0E944D0480E00F91089540
:100900000F93882311F4589A01C058988FEF84B937
:1009100002B925B9479A479845B95F9A5F9814B8C4
:10092000662309F44198449800000000000000008C
:1009300083B1449A419A58980F9108950F931F9349
:10094000CF93DF93962F342F522FE801813841F057
:10095000823849F0803811F08BEA0EC081E001C086
:1009600080E060E002C080E06FEF492F232F052F69
:100970000E948004888380E0DF91CF911F910F91C6
:10098000089581E00895FF920F931F93CF93DF9313
:10099000EC01FF24888187FF02C0FF24F394898142
:1009A000833009F440C0843030F4813059F0823013
:1009B00009F0D9C029C0843009F445C0853009F058
:1009C000D2C055C08A81803B28F4803A68F48038D0
:1009D00020F006C0803C68F012C00E94CC02C4C067
:1009E0006C810E947A03C0C06D814C810E94CC034F
:1009F000BBC06B814D812C810E94FD03B5C06BE8AB
:100A000072E00E940D042FC08A81803818F40E9481
:100A1000C001AAC06BE872E00E94FA0180938A02CA
:100A200088E0F82EA3C08A81803830F46D814C8133
:100A30002B810E94B80298C06D814C812BE832E076
:100A40000E948A0210C08A81803830F46D814C8106
:100A50002B810E94660488C06B814D812C810BE83C
:100A600012E00E949E0480938A02F3947FC08A81E0
:100A7000803840F460E070E04D812C810B810E9451
:100A80005B0172C0282F30E02770307023303105B1
:100A9000C1F1243031054CF421303105F1F0223020
:100AA00031052CF5232B81F05CC025303105E9F1AF
:100AB0002530310584F12630310509F440C0273056
:100AC000310509F04EC045C062E972E04D812C81CC
:100AD0000B810E945B0180938A028A8162EA72E044
:100AE0004D812C810B810E945B0180938A028A8157
:100AF00062EB72E04D812C810B810E945B0180933F
:100B00008A028A8162EC72E04D812C810B810E9405
:100B10005B0180938A028A8162ED72E04D812C81B3
:100B20000B810E945B0180938A028A8162EE72E0EF
:100B30004D812C810B810E945B0180938A028A8106
:100B400062EF72E04D812C810B810E945B018093EA
:100B50008A028A8162E073E04D812C810B810E94C0
:100B60005B0185E801C080E880938A028AE892E010
:100B700090932203809321038F2DDF91CF911F91BA
:100B80000F91FF900895E9E6F0E080818260808314
:100B9000E89A08951F93CF93DF93609123036350E6
:100BA00067FDA5C080912003CCE0D0E0C81BD1092F
:100BB000C95DDC4F80911F038D3209F085C068301C
:100BC00009F093C083EC809313038AE580930001BE
:100BD000109212038881807641F0CE010E94C304F6
:100BE000282F8F3F09F45FC065C09A8110921C03C3
:100BF0008981882321F410921D0322E04DC08530A5
:100C000019F49093240347C08630B1F58B8181306D
:100C100019F48EE791E004C0823041F480E991E05C
:100C2000909322038093210322E122C08330F9F4C0
:100C30008A81882341F482E391E090932203809398
:100C4000210324E015C0813041F486E391E09093C4
:100C50002203809321032AE20BC0823041F480E614
:100C600091E090932203809321032EE101C020E0C4
:100C700080E4809312031EC0883021F421E086E2D4
:100C800093E00CC0893019F49093260304C08A3095
:100C900011F421E001C020E08CE193E09093220365
:100CA0008093210307C0888187FD2E8180E880938F
:100CB000120306C08F81882319F48E81821708F0F1
:100CC000822F8093010111C08091120387FF0DC014
:100CD000CE010E94C1048F3F21F48EE18093000178
:100CE00004C0882311F01092010110922303809117
:100CF000000184FF46C0809101018F3F09F441C08B
:100D0000182F893008F018E0811B80930101809131
:100D1000130398E8892780931303112321F120916D
:100D20002103309122038091120386FF0AC0912F84
:100D3000F901A4E1B3E084918D9331969150D9F7F4
:100D400008C0912FD901E4E1F3E08D918193915096
:100D5000E1F7C90101961150810F911D1F5F90931A
:100D600022038093210384E193E0612F0E94E40633
:100D7000612F6C5F6C3019F08FEF809301016093ED
:100D8000000194E189B1847131F49150D9F7109246
:100D9000240310921E03DF91CF911F910895A82F75
:100DA000B92F80E090E041E050EA609530E009C062
:100DB0002D9182279795879510F084279527305E8F
:100DC000C8F36F5FA8F30895EADF8D939D930895AC
:100DD000CF93CFB7CF93DF93C3954C9BE9F74C9B51
:100DE0000BC04C9B09C04C9B07C04C9B05C04C9B47
:100DF00003C04C9B01C089C06F93C0912003DD27C5
:100E0000C95DDC4F2F9365E54C9B03C02F916F911B
:100E1000E6CF0F931F934F9320E040E15F9309B11A
:100E2000047104FB27F93F9350E03BE039C0147193
:100E300040642F77012F5F5F1EC0406819B11471A5
:100E40002F7752501FC0406409B12F770471D1F140
:100E50005F5F00C023C0406219B12F77147191F118
:100E60005F5F00C025C004711027515012F45D5F10
:100E70000000115027952C3F19B1C8F614710127B5
:100E8000015027952C3FC8F64227499309B10471B8
:100E900010274F73115027952C3FA8F6469546957D
:100EA00019B1147179F00127015027952C3F98F65C
:100EB0006B5A60F3315009B1B0F600C011E01CBBB1
:100EC000002717C03B503195C31BD04011E01CBB1D
:100ED0000881033CF9F00B34E9F020911E031981DD
:100EE000110F1213EDCF093651F10D3211F0013E01
:100EF00039F7009325033F915F914F911F910F9117
:100F00002F916F91CCB3C0FD67CFDF91CF91CFBF51
:100F1000CF91189520912503222369F31091230383
:100F2000112339F534303AF13093230320931F0312
:100F3000109120033BE0311B309320031CC0009133
:100F400023030130B4F40AE53091000134FD14C0EC
:100F500000930001C3E1D3E013C0052710E000C0F7
:100F600000000BB91AC0052710E0221F1DC010E0B9
:100F700021C04AE502C032ED432FC4E1D0E032E0A7
:100F80001AB114615C9A0BB11AB954E120E865E317
:100F900020FF05270BB9279517951C3FF0F666959E
:100FA000B8F7B1F720FF05270BB9279517951C3F18
:100FB000D0F62795179517FF052700001C3F0BB9A2
:100FC000B0F629913A9519F70B7E10912403110F71
:100FD000C651D0400BB911F010931E0311E01CBB99
:100FE00000611AB11B7E402F4B7E54E05A95F1F7F9
:0C0FF0000BB91AB94BB97FCFF894FFCFB2
:020FFC005AFF9A
:00000001FF
